{
  "_format": "hh-sol-artifact-1",
  "contractName": "SavingsToken",
  "sourceName": "contracts/SavingsToken.sol",
  "abi": [
    {
      "inputs": [
        {
          "internalType": "contract IERC20",
          "name": "_zchf",
          "type": "address"
        },
        {
          "internalType": "contract ISavings",
          "name": "_savings",
          "type": "address"
        },
        {
          "internalType": "string",
          "name": "name",
          "type": "string"
        },
        {
          "internalType": "string",
          "name": "symbol",
          "type": "string"
        }
      ],
      "stateMutability": "nonpayable",
      "type": "constructor"
    },
    {
      "inputs": [
        {
          "internalType": "address",
          "name": "spender",
          "type": "address"
        },
        {
          "internalType": "uint256",
          "name": "allowance",
          "type": "uint256"
        },
        {
          "internalType": "uint256",
          "name": "needed",
          "type": "uint256"
        }
      ],
      "name": "ERC20InsufficientAllowance",
      "type": "error"
    },
    {
      "inputs": [
        {
          "internalType": "address",
          "name": "sender",
          "type": "address"
        },
        {
          "internalType": "uint256",
          "name": "balance",
          "type": "uint256"
        },
        {
          "internalType": "uint256",
          "name": "needed",
          "type": "uint256"
        }
      ],
      "name": "ERC20InsufficientBalance",
      "type": "error"
    },
    {
      "inputs": [
        {
          "internalType": "address",
          "name": "approver",
          "type": "address"
        }
      ],
      "name": "ERC20InvalidApprover",
      "type": "error"
    },
    {
      "inputs": [
        {
          "internalType": "address",
          "name": "receiver",
          "type": "address"
        }
      ],
      "name": "ERC20InvalidReceiver",
      "type": "error"
    },
    {
      "inputs": [
        {
          "internalType": "address",
          "name": "sender",
          "type": "address"
        }
      ],
      "name": "ERC20InvalidSender",
      "type": "error"
    },
    {
      "inputs": [
        {
          "internalType": "address",
          "name": "spender",
          "type": "address"
        }
      ],
      "name": "ERC20InvalidSpender",
      "type": "error"
    },
    {
      "inputs": [
        {
          "internalType": "address",
          "name": "token",
          "type": "address"
        }
      ],
      "name": "SafeERC20FailedOperation",
      "type": "error"
    },
    {
      "anonymous": false,
      "inputs": [
        {
          "indexed": true,
          "internalType": "address",
          "name": "owner",
          "type": "address"
        },
        {
          "indexed": true,
          "internalType": "address",
          "name": "spender",
          "type": "address"
        },
        {
          "indexed": false,
          "internalType": "uint256",
          "name": "value",
          "type": "uint256"
        }
      ],
      "name": "Approval",
      "type": "event"
    },
    {
      "anonymous": false,
      "inputs": [
        {
          "indexed": true,
          "internalType": "address",
          "name": "saver",
          "type": "address"
        },
        {
          "indexed": false,
          "internalType": "uint256",
          "name": "amountIn",
          "type": "uint256"
        },
        {
          "indexed": false,
          "internalType": "uint256",
          "name": "amountOut",
          "type": "uint256"
        },
        {
          "indexed": false,
          "internalType": "uint256",
          "name": "price",
          "type": "uint256"
        }
      ],
      "name": "Saved",
      "type": "event"
    },
    {
      "anonymous": false,
      "inputs": [
        {
          "indexed": true,
          "internalType": "address",
          "name": "from",
          "type": "address"
        },
        {
          "indexed": true,
          "internalType": "address",
          "name": "to",
          "type": "address"
        },
        {
          "indexed": false,
          "internalType": "uint256",
          "name": "value",
          "type": "uint256"
        }
      ],
      "name": "Transfer",
      "type": "event"
    },
    {
      "anonymous": false,
      "inputs": [
        {
          "indexed": true,
          "internalType": "address",
          "name": "saver",
          "type": "address"
        },
        {
          "indexed": false,
          "internalType": "uint256",
          "name": "amountIn",
          "type": "uint256"
        },
        {
          "indexed": false,
          "internalType": "uint256",
          "name": "amountOut",
          "type": "uint256"
        },
        {
          "indexed": false,
          "internalType": "uint256",
          "name": "price",
          "type": "uint256"
        }
      ],
      "name": "Withdrawn",
      "type": "event"
    },
    {
      "inputs": [
        {
          "internalType": "address",
          "name": "owner",
          "type": "address"
        },
        {
          "internalType": "address",
          "name": "spender",
          "type": "address"
        }
      ],
      "name": "allowance",
      "outputs": [
        {
          "internalType": "uint256",
          "name": "",
          "type": "uint256"
        }
      ],
      "stateMutability": "view",
      "type": "function"
    },
    {
      "inputs": [
        {
          "internalType": "address",
          "name": "spender",
          "type": "address"
        },
        {
          "internalType": "uint256",
          "name": "value",
          "type": "uint256"
        }
      ],
      "name": "approve",
      "outputs": [
        {
          "internalType": "bool",
          "name": "",
          "type": "bool"
        }
      ],
      "stateMutability": "nonpayable",
      "type": "function"
    },
    {
      "inputs": [
        {
          "internalType": "address",
          "name": "account",
          "type": "address"
        }
      ],
      "name": "balanceOf",
      "outputs": [
        {
          "internalType": "uint256",
          "name": "",
          "type": "uint256"
        }
      ],
      "stateMutability": "view",
      "type": "function"
    },
    {
      "inputs": [],
      "name": "decimals",
      "outputs": [
        {
          "internalType": "uint8",
          "name": "",
          "type": "uint8"
        }
      ],
      "stateMutability": "view",
      "type": "function"
    },
    {
      "inputs": [],
      "name": "isUnlocked",
      "outputs": [
        {
          "internalType": "bool",
          "name": "",
          "type": "bool"
        }
      ],
      "stateMutability": "view",
      "type": "function"
    },
    {
      "inputs": [],
      "name": "name",
      "outputs": [
        {
          "internalType": "string",
          "name": "",
          "type": "string"
        }
      ],
      "stateMutability": "view",
      "type": "function"
    },
    {
      "inputs": [],
      "name": "price",
      "outputs": [
        {
          "internalType": "uint256",
          "name": "",
          "type": "uint256"
        }
      ],
      "stateMutability": "view",
      "type": "function"
    },
    {
      "inputs": [
        {
          "internalType": "uint256",
          "name": "amount",
          "type": "uint256"
        }
      ],
      "name": "save",
      "outputs": [],
      "stateMutability": "nonpayable",
      "type": "function"
    },
    {
      "inputs": [
        {
          "internalType": "address",
          "name": "account",
          "type": "address"
        },
        {
          "internalType": "uint256",
          "name": "amount",
          "type": "uint256"
        }
      ],
      "name": "saveTo",
      "outputs": [],
      "stateMutability": "nonpayable",
      "type": "function"
    },
    {
      "inputs": [
        {
          "internalType": "address",
          "name": "account",
          "type": "address"
        }
      ],
      "name": "saverBalance",
      "outputs": [
        {
          "internalType": "uint256",
          "name": "",
          "type": "uint256"
        }
      ],
      "stateMutability": "view",
      "type": "function"
    },
    {
      "inputs": [],
      "name": "savings",
      "outputs": [
        {
          "internalType": "contract ISavings",
          "name": "",
          "type": "address"
        }
      ],
      "stateMutability": "view",
      "type": "function"
    },
    {
      "inputs": [
        {
          "internalType": "bytes4",
          "name": "interfaceId",
          "type": "bytes4"
        }
      ],
      "name": "supportsInterface",
      "outputs": [
        {
          "internalType": "bool",
          "name": "",
          "type": "bool"
        }
      ],
      "stateMutability": "view",
      "type": "function"
    },
    {
      "inputs": [],
      "name": "symbol",
      "outputs": [
        {
          "internalType": "string",
          "name": "",
          "type": "string"
        }
      ],
      "stateMutability": "view",
      "type": "function"
    },
    {
      "inputs": [],
      "name": "totalBalance",
      "outputs": [
        {
          "internalType": "uint256",
          "name": "",
          "type": "uint256"
        }
      ],
      "stateMutability": "view",
      "type": "function"
    },
    {
      "inputs": [],
      "name": "totalClaimed",
      "outputs": [
        {
          "internalType": "uint256",
          "name": "",
          "type": "uint256"
        }
      ],
      "stateMutability": "view",
      "type": "function"
    },
    {
      "inputs": [],
      "name": "totalSupply",
      "outputs": [
        {
          "internalType": "uint256",
          "name": "",
          "type": "uint256"
        }
      ],
      "stateMutability": "view",
      "type": "function"
    },
    {
      "inputs": [
        {
          "internalType": "address",
          "name": "to",
          "type": "address"
        },
        {
          "internalType": "uint256",
          "name": "value",
          "type": "uint256"
        }
      ],
      "name": "transfer",
      "outputs": [
        {
          "internalType": "bool",
          "name": "",
          "type": "bool"
        }
      ],
      "stateMutability": "nonpayable",
      "type": "function"
    },
    {
      "inputs": [
        {
          "internalType": "address",
          "name": "from",
          "type": "address"
        },
        {
          "internalType": "address",
          "name": "to",
          "type": "address"
        },
        {
          "internalType": "uint256",
          "name": "value",
          "type": "uint256"
        }
      ],
      "name": "transferFrom",
      "outputs": [
        {
          "internalType": "bool",
          "name": "",
          "type": "bool"
        }
      ],
      "stateMutability": "nonpayable",
      "type": "function"
    },
    {
      "inputs": [],
      "name": "untilUnlocked",
      "outputs": [
        {
          "internalType": "uint256",
          "name": "",
          "type": "uint256"
        }
      ],
      "stateMutability": "view",
      "type": "function"
    },
    {
      "inputs": [
        {
          "internalType": "uint256",
          "name": "amount",
          "type": "uint256"
        }
      ],
      "name": "withdraw",
      "outputs": [],
      "stateMutability": "nonpayable",
      "type": "function"
    },
    {
      "inputs": [
        {
          "internalType": "address",
          "name": "target",
          "type": "address"
        },
        {
          "internalType": "uint256",
          "name": "amount",
          "type": "uint256"
        }
      ],
      "name": "withdrawTo",
      "outputs": [],
      "stateMutability": "nonpayable",
      "type": "function"
    },
    {
      "inputs": [],
      "name": "zchf",
      "outputs": [
        {
          "internalType": "contract IERC20",
          "name": "",
          "type": "address"
        }
      ],
      "stateMutability": "view",
      "type": "function"
    }
  ],
  "bytecode": "0x60c0604052670de0b6b3a76400006006553480156200001d57600080fd5b50604051620018d1380380620018d183398101604081905262000040916200015a565b818160036200005083826200027e565b5060046200005f82826200027e565b5050506001600160a01b0393841660805250501660a0526200034a565b6001600160a01b03811681146200009257600080fd5b50565b634e487b7160e01b600052604160045260246000fd5b600082601f830112620000bd57600080fd5b81516001600160401b0380821115620000da57620000da62000095565b604051601f8301601f19908116603f0116810190828211818310171562000105576200010562000095565b816040528381526020925086838588010111156200012257600080fd5b600091505b8382101562000146578582018301518183018401529082019062000127565b600093810190920192909252949350505050565b600080600080608085870312156200017157600080fd5b84516200017e816200007c565b602086015190945062000191816200007c565b60408601519093506001600160401b0380821115620001af57600080fd5b620001bd88838901620000ab565b93506060870151915080821115620001d457600080fd5b50620001e387828801620000ab565b91505092959194509250565b600181811c908216806200020457607f821691505b6020821081036200022557634e487b7160e01b600052602260045260246000fd5b50919050565b601f8211156200027957600081815260208120601f850160051c81016020861015620002545750805b601f850160051c820191505b81811015620002755782815560010162000260565b5050505b505050565b81516001600160401b038111156200029a576200029a62000095565b620002b281620002ab8454620001ef565b846200022b565b602080601f831160018114620002ea5760008415620002d15750858301515b600019600386901b1c1916600185901b17855562000275565b600085815260208120601f198616915b828110156200031b57888601518255948401946001909101908401620002fa565b50858210156200033a5787850151600019600388901b60f8161c191681555b5050505050600190811b01905550565b60805160a05161150d620003c4600039600081816102d30152818161041b0152818161053401528181610697015281816107d2015281816108cb01528181610960015281816109ee01528181610a9b01528181610b1d01528181610be30152610c6b015260008181610294015261078c015261150d6000f3fe608060405234801561001057600080fd5b50600436106101425760003560e01c806370a08231116100b8578063ad7a672f1161007c578063ad7a672f14610287578063c4d4803a1461028f578063c86d6ae4146102ce578063d54ad2a1146102f5578063dd62ed3e146102fe578063e8e511a41461033757600080fd5b806370a08231146102325780638380edb71461025b57806395d89b4114610263578063a035b1fe1461026b578063a9059cbb1461027457600080fd5b8063205c28781161010a578063205c2878146101cf57806323b872dd146101e25780632e1a7d4d146101f5578063313ce567146102085780633fa84516146102175780635b02907b1461022a57600080fd5b806301ffc9a71461014757806306fdde0314610180578063095ea7b31461019557806318160ddd146101a85780631b862027146101ba575b600080fd5b61016b610155366004611186565b6001600160e01b031916634a17459160e11b1490565b60405190151581526020015b60405180910390f35b61018861034a565b60405161017791906111b0565b61016b6101a336600461121a565b6103dc565b6002545b604051908152602001610177565b6101cd6101c8366004611244565b6103f6565b005b6101cd6101dd36600461121a565b610403565b61016b6101f036600461125d565b610651565b6101cd610203366004611244565b610675565b60405160128152602001610177565b6101cd61022536600461121a565b61067f565b6101ac6108b2565b6101ac610240366004611299565b6001600160a01b031660009081526020819052604090205490565b61016b610a83565b610188610bae565b6101ac60065481565b61016b61028236600461121a565b610bbd565b6101ac610bcb565b6102b67f000000000000000000000000000000000000000000000000000000000000000081565b6040516001600160a01b039091168152602001610177565b6102b67f000000000000000000000000000000000000000000000000000000000000000081565b6101ac60055481565b6101ac61030c3660046112b4565b6001600160a01b03918216600090815260016020908152604080832093909416825291909152205490565b6101ac610345366004611299565b610cf6565b606060038054610359906112e7565b80601f0160208091040260200160405190810160405280929190818152602001828054610385906112e7565b80156103d25780601f106103a7576101008083540402835291602001916103d2565b820191906000526020600020905b8154815290600101906020018083116103b557829003601f168201915b5050505050905090565b6000336103ea818585610d58565b60019150505b92915050565b610400338261067f565b50565b6040516377267ec360e01b81523060048201526000907f00000000000000000000000000000000000000000000000000000000000000006001600160a01b0316906377267ec390602401602060405180830381865afa15801561046a573d6000803e3d6000fd5b505050506040513d601f19601f8201168201806040525081019061048e9190611338565b6001600160c01b031690506000811180156104b1575060006104af60025490565b115b156105035780600560008282546104c89190611369565b90915550506002546104e282670de0b6b3a764000061137c565b6104ec9190611393565b600660008282546104fd9190611369565b90915550505b61050d3383610d6a565b6000670de0b6b3a764000060065484610526919061137c565b6105309190611393565b90507f00000000000000000000000000000000000000000000000000000000000000006001600160a01b0316631791dc5e8561056b60025490565b15610576578361057f565b6001600160c01b035b6040516001600160e01b031960e085901b1681526001600160a01b0390921660048301526001600160c01b031660248201526044016020604051808303816000875af11580156105d3573d6000803e3d6000fd5b505050506040513d601f19601f820116820180604052508101906105f791906113b5565b6006546040805186815260208101849052908101919091529091506001600160a01b038516907f75e161b3e824b114fc1a33274bd7091918dd4e639cede50b78b15a4eea956a21906060015b60405180910390a250505050565b60003361065f858285610da9565b61066a858585610e27565b506001949350505050565b6104003382610403565b6040516377267ec360e01b81523060048201526000907f00000000000000000000000000000000000000000000000000000000000000006001600160a01b0316906377267ec390602401602060405180830381865afa1580156106e6573d6000803e3d6000fd5b505050506040513d601f19601f8201168201806040525081019061070a9190611338565b6001600160c01b0316905060008111801561072d5750600061072b60025490565b115b1561077f5780600560008282546107449190611369565b909155505060025461075e82670de0b6b3a764000061137c565b6107689190611393565b600660008282546107799190611369565b90915550505b6107b46001600160a01b037f000000000000000000000000000000000000000000000000000000000000000016333085610e86565b604051633f51270560e21b81526001600160c01b03831660048201527f00000000000000000000000000000000000000000000000000000000000000006001600160a01b03169063fd449c1490602401600060405180830381600087803b15801561081e57600080fd5b505af1158015610832573d6000803e3d6000fd5b50505050600060065483670de0b6b3a764000061084f919061137c565b6108599190611393565b90506108658482610ee0565b6006546040805185815260208101849052908101919091526001600160a01b038516907f710967c2c90aa017caf1df3ec721b9981e4350d9c6398f8acf4cfacd1aec73f890606001610643565b60006108bc610a83565b156108c75750600090565b60007f00000000000000000000000000000000000000000000000000000000000000006001600160a01b031663b079f1636040518163ffffffff1660e01b8152600401602060405180830381865afa158015610927573d6000803e3d6000fd5b505050506040513d601f19601f8201168201806040525081019061094b91906113e6565b604051631f7cdd5f60e01b81523060048201527f00000000000000000000000000000000000000000000000000000000000000006001600160a01b031690631f7cdd5f906024016040805180830381865afa1580156109ae573d6000803e3d6000fd5b505050506040513d601f19601f820116820180604052508101906109d29190611401565b602001516109e0919061146a565b67ffffffffffffffff1690507f00000000000000000000000000000000000000000000000000000000000000006001600160a01b03166306a7b3766040518163ffffffff1660e01b8152600401602060405180830381865afa158015610a4a573d6000803e3d6000fd5b505050506040513d601f19601f82011682018060405250810190610a6e9190611492565b610a7d9062ffffff1682611393565b91505090565b604051631f7cdd5f60e01b81523060048201526000907f00000000000000000000000000000000000000000000000000000000000000006001600160a01b031690631f7cdd5f906024016040805180830381865afa158015610ae9573d6000803e3d6000fd5b505050506040513d601f19601f82011682018060405250810190610b0d9190611401565b6020015167ffffffffffffffff167f00000000000000000000000000000000000000000000000000000000000000006001600160a01b031663b079f1636040518163ffffffff1660e01b8152600401602060405180830381865afa158015610b79573d6000803e3d6000fd5b505050506040513d601f19601f82011682018060405250810190610b9d91906113e6565b67ffffffffffffffff161015905090565b606060048054610359906112e7565b6000336103ea818585610e27565b6040516377267ec360e01b81523060048201526000907f00000000000000000000000000000000000000000000000000000000000000006001600160a01b0316906377267ec390602401602060405180830381865afa158015610c32573d6000803e3d6000fd5b505050506040513d601f19601f82011682018060405250810190610c569190611338565b604051631f7cdd5f60e01b81523060048201527f00000000000000000000000000000000000000000000000000000000000000006001600160a01b031690631f7cdd5f906024016040805180830381865afa158015610cb9573d6000803e3d6000fd5b505050506040513d601f19601f82011682018060405250810190610cdd9190611401565b51610ce891906114b7565b6001600160c01b0316905090565b600080610d0260025490565b905080600003610d155750600092915050565b80610d35846001600160a01b031660009081526020819052604090205490565b610d3d610bcb565b610d47919061137c565b610d519190611393565b9392505050565b610d658383836001610f16565b505050565b6001600160a01b038216610d9957604051634b637e8f60e11b8152600060048201526024015b60405180910390fd5b610da582600083610feb565b5050565b6001600160a01b038381166000908152600160209081526040808320938616835292905220546000198114610e215781811015610e1257604051637dc7a0d960e11b81526001600160a01b03841660048201526024810182905260448101839052606401610d90565b610e2184848484036000610f16565b50505050565b6001600160a01b038316610e5157604051634b637e8f60e11b815260006004820152602401610d90565b6001600160a01b038216610e7b5760405163ec442f0560e01b815260006004820152602401610d90565b610d65838383610feb565b604080516001600160a01b0385811660248301528416604482015260648082018490528251808303909101815260849091019091526020810180516001600160e01b03166323b872dd60e01b179052610e21908590611115565b6001600160a01b038216610f0a5760405163ec442f0560e01b815260006004820152602401610d90565b610da560008383610feb565b6001600160a01b038416610f405760405163e602df0560e01b815260006004820152602401610d90565b6001600160a01b038316610f6a57604051634a1406b160e11b815260006004820152602401610d90565b6001600160a01b0380851660009081526001602090815260408083209387168352929052208290558015610e2157826001600160a01b0316846001600160a01b03167f8c5be1e5ebec7d5bd14f71427d1e84f3dd0314c0f7b2291e5b200ac8c7c3b92584604051610fdd91815260200190565b60405180910390a350505050565b6001600160a01b03831661101657806002600082825461100b9190611369565b909155506110889050565b6001600160a01b038316600090815260208190526040902054818110156110695760405163391434e360e21b81526001600160a01b03851660048201526024810182905260448101839052606401610d90565b6001600160a01b03841660009081526020819052604090209082900390555b6001600160a01b0382166110a4576002805482900390556110c3565b6001600160a01b03821660009081526020819052604090208054820190555b816001600160a01b0316836001600160a01b03167fddf252ad1be2c89b69c2b068fc378daa952ba7f163c4a11628f55a4df523b3ef8360405161110891815260200190565b60405180910390a3505050565b600080602060008451602086016000885af180611138576040513d6000823e3d81fd5b50506000513d9150811561115057806001141561115d565b6001600160a01b0384163b155b15610e2157604051635274afe760e01b81526001600160a01b0385166004820152602401610d90565b60006020828403121561119857600080fd5b81356001600160e01b031981168114610d5157600080fd5b600060208083528351808285015260005b818110156111dd578581018301518582016040015282016111c1565b506000604082860101526040601f19601f8301168501019250505092915050565b80356001600160a01b038116811461121557600080fd5b919050565b6000806040838503121561122d57600080fd5b611236836111fe565b946020939093013593505050565b60006020828403121561125657600080fd5b5035919050565b60008060006060848603121561127257600080fd5b61127b846111fe565b9250611289602085016111fe565b9150604084013590509250925092565b6000602082840312156112ab57600080fd5b610d51826111fe565b600080604083850312156112c757600080fd5b6112d0836111fe565b91506112de602084016111fe565b90509250929050565b600181811c908216806112fb57607f821691505b60208210810361131b57634e487b7160e01b600052602260045260246000fd5b50919050565b80516001600160c01b038116811461121557600080fd5b60006020828403121561134a57600080fd5b610d5182611321565b634e487b7160e01b600052601160045260246000fd5b808201808211156103f0576103f0611353565b80820281158282048414176103f0576103f0611353565b6000826113b057634e487b7160e01b600052601260045260246000fd5b500490565b6000602082840312156113c757600080fd5b5051919050565b805167ffffffffffffffff8116811461121557600080fd5b6000602082840312156113f857600080fd5b610d51826113ce565b60006040828403121561141357600080fd5b6040516040810181811067ffffffffffffffff8211171561144457634e487b7160e01b600052604160045260246000fd5b60405261145083611321565b815261145e602084016113ce565b60208201529392505050565b67ffffffffffffffff82811682821603908082111561148b5761148b611353565b5092915050565b6000602082840312156114a457600080fd5b815162ffffff81168114610d5157600080fd5b6001600160c01b0381811683821601908082111561148b5761148b61135356fea2646970667358221220a4815c579bd4816f04d56b2d692c69f2756006e32a26809c736a773079f73f1264736f6c63430008140033",
  "linkReferences": {},
  "deployedLinkReferences": {}
}