{
	"contracts/SavingsToken.sol": {
		"SavingsToken": {
			"abi": [
				{
					"inputs": [
						{
							"internalType": "contract IERC20",
							"name": "_zchf",
							"type": "address"
						},
						{
							"internalType": "contract ISavings",
							"name": "_savings",
							"type": "address"
						},
						{
							"internalType": "string",
							"name": "name",
							"type": "string"
						},
						{
							"internalType": "string",
							"name": "symbol",
							"type": "string"
						}
					],
					"stateMutability": "nonpayable",
					"type": "constructor"
				},
				{
					"inputs": [
						{
							"internalType": "address",
							"name": "spender",
							"type": "address"
						},
						{
							"internalType": "uint256",
							"name": "allowance",
							"type": "uint256"
						},
						{
							"internalType": "uint256",
							"name": "needed",
							"type": "uint256"
						}
					],
					"name": "ERC20InsufficientAllowance",
					"type": "error"
				},
				{
					"inputs": [
						{
							"internalType": "address",
							"name": "sender",
							"type": "address"
						},
						{
							"internalType": "uint256",
							"name": "balance",
							"type": "uint256"
						},
						{
							"internalType": "uint256",
							"name": "needed",
							"type": "uint256"
						}
					],
					"name": "ERC20InsufficientBalance",
					"type": "error"
				},
				{
					"inputs": [
						{
							"internalType": "address",
							"name": "approver",
							"type": "address"
						}
					],
					"name": "ERC20InvalidApprover",
					"type": "error"
				},
				{
					"inputs": [
						{
							"internalType": "address",
							"name": "receiver",
							"type": "address"
						}
					],
					"name": "ERC20InvalidReceiver",
					"type": "error"
				},
				{
					"inputs": [
						{
							"internalType": "address",
							"name": "sender",
							"type": "address"
						}
					],
					"name": "ERC20InvalidSender",
					"type": "error"
				},
				{
					"inputs": [
						{
							"internalType": "address",
							"name": "spender",
							"type": "address"
						}
					],
					"name": "ERC20InvalidSpender",
					"type": "error"
				},
				{
					"inputs": [
						{
							"internalType": "address",
							"name": "token",
							"type": "address"
						}
					],
					"name": "SafeERC20FailedOperation",
					"type": "error"
				},
				{
					"anonymous": false,
					"inputs": [
						{
							"indexed": true,
							"internalType": "address",
							"name": "owner",
							"type": "address"
						},
						{
							"indexed": true,
							"internalType": "address",
							"name": "spender",
							"type": "address"
						},
						{
							"indexed": false,
							"internalType": "uint256",
							"name": "value",
							"type": "uint256"
						}
					],
					"name": "Approval",
					"type": "event"
				},
				{
					"anonymous": false,
					"inputs": [
						{
							"indexed": true,
							"internalType": "address",
							"name": "saver",
							"type": "address"
						},
						{
							"indexed": false,
							"internalType": "uint256",
							"name": "amountIn",
							"type": "uint256"
						},
						{
							"indexed": false,
							"internalType": "uint256",
							"name": "amountOut",
							"type": "uint256"
						},
						{
							"indexed": false,
							"internalType": "uint256",
							"name": "price",
							"type": "uint256"
						}
					],
					"name": "Saved",
					"type": "event"
				},
				{
					"anonymous": false,
					"inputs": [
						{
							"indexed": true,
							"internalType": "address",
							"name": "from",
							"type": "address"
						},
						{
							"indexed": true,
							"internalType": "address",
							"name": "to",
							"type": "address"
						},
						{
							"indexed": false,
							"internalType": "uint256",
							"name": "value",
							"type": "uint256"
						}
					],
					"name": "Transfer",
					"type": "event"
				},
				{
					"anonymous": false,
					"inputs": [
						{
							"indexed": true,
							"internalType": "address",
							"name": "saver",
							"type": "address"
						},
						{
							"indexed": false,
							"internalType": "uint256",
							"name": "amountIn",
							"type": "uint256"
						},
						{
							"indexed": false,
							"internalType": "uint256",
							"name": "amountOut",
							"type": "uint256"
						},
						{
							"indexed": false,
							"internalType": "uint256",
							"name": "price",
							"type": "uint256"
						}
					],
					"name": "Withdrawn",
					"type": "event"
				},
				{
					"inputs": [
						{
							"internalType": "address",
							"name": "owner",
							"type": "address"
						},
						{
							"internalType": "address",
							"name": "spender",
							"type": "address"
						}
					],
					"name": "allowance",
					"outputs": [
						{
							"internalType": "uint256",
							"name": "",
							"type": "uint256"
						}
					],
					"stateMutability": "view",
					"type": "function"
				},
				{
					"inputs": [
						{
							"internalType": "address",
							"name": "spender",
							"type": "address"
						},
						{
							"internalType": "uint256",
							"name": "value",
							"type": "uint256"
						}
					],
					"name": "approve",
					"outputs": [
						{
							"internalType": "bool",
							"name": "",
							"type": "bool"
						}
					],
					"stateMutability": "nonpayable",
					"type": "function"
				},
				{
					"inputs": [
						{
							"internalType": "address",
							"name": "account",
							"type": "address"
						}
					],
					"name": "balanceOf",
					"outputs": [
						{
							"internalType": "uint256",
							"name": "",
							"type": "uint256"
						}
					],
					"stateMutability": "view",
					"type": "function"
				},
				{
					"inputs": [],
					"name": "decimals",
					"outputs": [
						{
							"internalType": "uint8",
							"name": "",
							"type": "uint8"
						}
					],
					"stateMutability": "view",
					"type": "function"
				},
				{
					"inputs": [],
					"name": "isUnlocked",
					"outputs": [
						{
							"internalType": "bool",
							"name": "",
							"type": "bool"
						}
					],
					"stateMutability": "view",
					"type": "function"
				},
				{
					"inputs": [],
					"name": "name",
					"outputs": [
						{
							"internalType": "string",
							"name": "",
							"type": "string"
						}
					],
					"stateMutability": "view",
					"type": "function"
				},
				{
					"inputs": [],
					"name": "price",
					"outputs": [
						{
							"internalType": "uint256",
							"name": "",
							"type": "uint256"
						}
					],
					"stateMutability": "view",
					"type": "function"
				},
				{
					"inputs": [
						{
							"internalType": "uint256",
							"name": "amount",
							"type": "uint256"
						}
					],
					"name": "save",
					"outputs": [],
					"stateMutability": "nonpayable",
					"type": "function"
				},
				{
					"inputs": [
						{
							"internalType": "address",
							"name": "account",
							"type": "address"
						},
						{
							"internalType": "uint256",
							"name": "amount",
							"type": "uint256"
						}
					],
					"name": "saveTo",
					"outputs": [],
					"stateMutability": "nonpayable",
					"type": "function"
				},
				{
					"inputs": [
						{
							"internalType": "address",
							"name": "account",
							"type": "address"
						}
					],
					"name": "saverBalance",
					"outputs": [
						{
							"internalType": "uint256",
							"name": "",
							"type": "uint256"
						}
					],
					"stateMutability": "view",
					"type": "function"
				},
				{
					"inputs": [],
					"name": "savings",
					"outputs": [
						{
							"internalType": "contract ISavings",
							"name": "",
							"type": "address"
						}
					],
					"stateMutability": "view",
					"type": "function"
				},
				{
					"inputs": [
						{
							"internalType": "bytes4",
							"name": "interfaceId",
							"type": "bytes4"
						}
					],
					"name": "supportsInterface",
					"outputs": [
						{
							"internalType": "bool",
							"name": "",
							"type": "bool"
						}
					],
					"stateMutability": "view",
					"type": "function"
				},
				{
					"inputs": [],
					"name": "symbol",
					"outputs": [
						{
							"internalType": "string",
							"name": "",
							"type": "string"
						}
					],
					"stateMutability": "view",
					"type": "function"
				},
				{
					"inputs": [],
					"name": "totalBalance",
					"outputs": [
						{
							"internalType": "uint256",
							"name": "",
							"type": "uint256"
						}
					],
					"stateMutability": "view",
					"type": "function"
				},
				{
					"inputs": [],
					"name": "totalRewards",
					"outputs": [
						{
							"internalType": "uint256",
							"name": "",
							"type": "uint256"
						}
					],
					"stateMutability": "view",
					"type": "function"
				},
				{
					"inputs": [],
					"name": "totalSupply",
					"outputs": [
						{
							"internalType": "uint256",
							"name": "",
							"type": "uint256"
						}
					],
					"stateMutability": "view",
					"type": "function"
				},
				{
					"inputs": [
						{
							"internalType": "address",
							"name": "to",
							"type": "address"
						},
						{
							"internalType": "uint256",
							"name": "value",
							"type": "uint256"
						}
					],
					"name": "transfer",
					"outputs": [
						{
							"internalType": "bool",
							"name": "",
							"type": "bool"
						}
					],
					"stateMutability": "nonpayable",
					"type": "function"
				},
				{
					"inputs": [
						{
							"internalType": "address",
							"name": "from",
							"type": "address"
						},
						{
							"internalType": "address",
							"name": "to",
							"type": "address"
						},
						{
							"internalType": "uint256",
							"name": "value",
							"type": "uint256"
						}
					],
					"name": "transferFrom",
					"outputs": [
						{
							"internalType": "bool",
							"name": "",
							"type": "bool"
						}
					],
					"stateMutability": "nonpayable",
					"type": "function"
				},
				{
					"inputs": [],
					"name": "untilUnlocked",
					"outputs": [
						{
							"internalType": "uint256",
							"name": "",
							"type": "uint256"
						}
					],
					"stateMutability": "view",
					"type": "function"
				},
				{
					"inputs": [
						{
							"internalType": "uint256",
							"name": "amount",
							"type": "uint256"
						}
					],
					"name": "withdraw",
					"outputs": [],
					"stateMutability": "nonpayable",
					"type": "function"
				},
				{
					"inputs": [
						{
							"internalType": "address",
							"name": "target",
							"type": "address"
						},
						{
							"internalType": "uint256",
							"name": "amount",
							"type": "uint256"
						}
					],
					"name": "withdrawTo",
					"outputs": [],
					"stateMutability": "nonpayable",
					"type": "function"
				},
				{
					"inputs": [],
					"name": "zchf",
					"outputs": [
						{
							"internalType": "contract IERC20",
							"name": "",
							"type": "address"
						}
					],
					"stateMutability": "view",
					"type": "function"
				}
			],
			"devdoc": {
				"errors": {
					"ERC20InsufficientAllowance(address,uint256,uint256)": [
						{
							"details": "Indicates a failure with the `spender`’s `allowance`. Used in transfers.",
							"params": {
								"allowance": "Amount of tokens a `spender` is allowed to operate with.",
								"needed": "Minimum amount required to perform a transfer.",
								"spender": "Address that may be allowed to operate on tokens without being their owner."
							}
						}
					],
					"ERC20InsufficientBalance(address,uint256,uint256)": [
						{
							"details": "Indicates an error related to the current `balance` of a `sender`. Used in transfers.",
							"params": {
								"balance": "Current balance for the interacting account.",
								"needed": "Minimum amount required to perform a transfer.",
								"sender": "Address whose tokens are being transferred."
							}
						}
					],
					"ERC20InvalidApprover(address)": [
						{
							"details": "Indicates a failure with the `approver` of a token to be approved. Used in approvals.",
							"params": {
								"approver": "Address initiating an approval operation."
							}
						}
					],
					"ERC20InvalidReceiver(address)": [
						{
							"details": "Indicates a failure with the token `receiver`. Used in transfers.",
							"params": {
								"receiver": "Address to which tokens are being transferred."
							}
						}
					],
					"ERC20InvalidSender(address)": [
						{
							"details": "Indicates a failure with the token `sender`. Used in transfers.",
							"params": {
								"sender": "Address whose tokens are being transferred."
							}
						}
					],
					"ERC20InvalidSpender(address)": [
						{
							"details": "Indicates a failure with the `spender` to be approved. Used in approvals.",
							"params": {
								"spender": "Address that may be allowed to operate on tokens without being their owner."
							}
						}
					],
					"SafeERC20FailedOperation(address)": [
						{
							"details": "An operation with an ERC-20 token failed."
						}
					]
				},
				"events": {
					"Approval(address,address,uint256)": {
						"details": "Emitted when the allowance of a `spender` for an `owner` is set by a call to {approve}. `value` is the new allowance."
					},
					"Transfer(address,address,uint256)": {
						"details": "Emitted when `value` tokens are moved from one account (`from`) to another (`to`). Note that `value` may be zero."
					}
				},
				"kind": "dev",
				"methods": {
					"allowance(address,address)": {
						"details": "See {IERC20-allowance}."
					},
					"approve(address,uint256)": {
						"details": "See {IERC20-approve}. NOTE: If `value` is the maximum `uint256`, the allowance is not updated on `transferFrom`. This is semantically equivalent to an infinite approval. Requirements: - `spender` cannot be the zero address."
					},
					"balanceOf(address)": {
						"details": "See {IERC20-balanceOf}."
					},
					"decimals()": {
						"details": "Returns the number of decimals used to get its user representation. For example, if `decimals` equals `2`, a balance of `505` tokens should be displayed to a user as `5.05` (`505 / 10 ** 2`). Tokens usually opt for a value of 18, imitating the relationship between Ether and Wei. This is the default value returned by this function, unless it's overridden. NOTE: This information is only used for _display_ purposes: it in no way affects any of the arithmetic of the contract, including {IERC20-balanceOf} and {IERC20-transfer}."
					},
					"name()": {
						"details": "Returns the name of the token."
					},
					"symbol()": {
						"details": "Returns the symbol of the token, usually a shorter version of the name."
					},
					"totalSupply()": {
						"details": "See {IERC20-totalSupply}."
					},
					"transfer(address,uint256)": {
						"details": "See {IERC20-transfer}. Requirements: - `to` cannot be the zero address. - the caller must have a balance of at least `value`."
					},
					"transferFrom(address,address,uint256)": {
						"details": "See {IERC20-transferFrom}. Skips emitting an {Approval} event indicating an allowance update. This is not required by the ERC. See {xref-ERC20-_approve-address-address-uint256-bool-}[_approve]. NOTE: Does not update the allowance if the current allowance is the maximum `uint256`. Requirements: - `from` and `to` cannot be the zero address. - `from` must have a balance of at least `value`. - the caller must have allowance for ``from``'s tokens of at least `value`."
					}
				},
				"version": 1
			},
			"evm": {
				"assembly": "    /* \"contracts/SavingsToken.sol\":402:3584  contract SavingsToken is ERC20 {... */\n  mstore(0x40, 0xc0)\n    /* \"contracts/SavingsToken.sol\":612:619  1 ether */\n  0x0de0b6b3a7640000\n    /* \"contracts/SavingsToken.sol\":589:619  uint256 public price = 1 ether */\n  0x06\n  sstore\n    /* \"contracts/SavingsToken.sol\":1057:1206  constructor(IERC20 _zchf, ISavings _savings, string memory name, string memory symbol) ERC20(name, symbol) {... */\n  callvalue\n  dup1\n  iszero\n  tag_1\n  jumpi\n  0x00\n  dup1\n  revert\ntag_1:\n  pop\n  mload(0x40)\n  sub(codesize, bytecodeSize)\n  dup1\n  bytecodeSize\n  dup4\n  codecopy\n  dup2\n  add\n  0x40\n  dup2\n  swap1\n  mstore\n  tag_2\n  swap2\n  tag_3\n  jump\t// in\ntag_2:\n    /* \"contracts/SavingsToken.sol\":1150:1154  name */\n  dup2\n    /* \"contracts/SavingsToken.sol\":1156:1162  symbol */\n  dup2\n    /* \"@openzeppelin/contracts/token/ERC20/ERC20.sol\":1667:1672  _name */\n  0x03\n    /* \"@openzeppelin/contracts/token/ERC20/ERC20.sol\":1667:1680  _name = name_ */\n  tag_7\n    /* \"contracts/SavingsToken.sol\":1150:1154  name */\n  dup4\n    /* \"@openzeppelin/contracts/token/ERC20/ERC20.sol\":1667:1672  _name */\n  dup3\n    /* \"@openzeppelin/contracts/token/ERC20/ERC20.sol\":1667:1680  _name = name_ */\n  tag_8\n  jump\t// in\ntag_7:\n  pop\n    /* \"@openzeppelin/contracts/token/ERC20/ERC20.sol\":1690:1697  _symbol */\n  0x04\n    /* \"@openzeppelin/contracts/token/ERC20/ERC20.sol\":1690:1707  _symbol = symbol_ */\n  tag_9\n    /* \"@openzeppelin/contracts/token/ERC20/ERC20.sol\":1700:1707  symbol_ */\n  dup3\n    /* \"@openzeppelin/contracts/token/ERC20/ERC20.sol\":1690:1697  _symbol */\n  dup3\n    /* \"@openzeppelin/contracts/token/ERC20/ERC20.sol\":1690:1707  _symbol = symbol_ */\n  tag_8\n  jump\t// in\ntag_9:\n  pop\n  pop\n  pop\n  sub(shl(0xa0, 0x01), 0x01)\n    /* \"contracts/SavingsToken.sol\":1168:1180  zchf = _zchf */\n  swap4\n  dup5\n  and\n  0x80\n  mstore\n  pop\n  pop\n    /* \"contracts/SavingsToken.sol\":1184:1202  savings = _savings */\n  and\n  0xa0\n  mstore\n    /* \"contracts/SavingsToken.sol\":402:3584  contract SavingsToken is ERC20 {... */\n  jump(tag_19)\n    /* \"#utility.yul\":14:153   */\ntag_12:\n  sub(shl(0xa0, 0x01), 0x01)\n    /* \"#utility.yul\":97:128   */\n  dup2\n  and\n    /* \"#utility.yul\":87:129   */\n  dup2\n  eq\n    /* \"#utility.yul\":77:147   */\n  tag_21\n  jumpi\n    /* \"#utility.yul\":143:144   */\n  0x00\n    /* \"#utility.yul\":140:141   */\n  dup1\n    /* \"#utility.yul\":133:145   */\n  revert\n    /* \"#utility.yul\":77:147   */\ntag_21:\n    /* \"#utility.yul\":14:153   */\n  pop\n  jump\t// out\n    /* \"#utility.yul\":158:285   */\ntag_13:\n    /* \"#utility.yul\":219:229   */\n  0x4e487b71\n    /* \"#utility.yul\":214:217   */\n  0xe0\n    /* \"#utility.yul\":210:230   */\n  shl\n    /* \"#utility.yul\":207:208   */\n  0x00\n    /* \"#utility.yul\":200:231   */\n  mstore\n    /* \"#utility.yul\":250:254   */\n  0x41\n    /* \"#utility.yul\":247:248   */\n  0x04\n    /* \"#utility.yul\":240:255   */\n  mstore\n    /* \"#utility.yul\":274:278   */\n  0x24\n    /* \"#utility.yul\":271:272   */\n  0x00\n    /* \"#utility.yul\":264:279   */\n  revert\n    /* \"#utility.yul\":290:1013   */\ntag_14:\n    /* \"#utility.yul\":344:349   */\n  0x00\n    /* \"#utility.yul\":397:400   */\n  dup3\n    /* \"#utility.yul\":390:394   */\n  0x1f\n    /* \"#utility.yul\":382:388   */\n  dup4\n    /* \"#utility.yul\":378:395   */\n  add\n    /* \"#utility.yul\":374:401   */\n  slt\n    /* \"#utility.yul\":364:419   */\n  tag_24\n  jumpi\n    /* \"#utility.yul\":415:416   */\n  0x00\n    /* \"#utility.yul\":412:413   */\n  dup1\n    /* \"#utility.yul\":405:417   */\n  revert\n    /* \"#utility.yul\":364:419   */\ntag_24:\n    /* \"#utility.yul\":442:455   */\n  dup2\n  mload\n  sub(shl(0x40, 0x01), 0x01)\n    /* \"#utility.yul\":467:497   */\n  dup2\n  gt\n    /* \"#utility.yul\":464:520   */\n  iszero\n  tag_26\n  jumpi\n    /* \"#utility.yul\":500:518   */\n  tag_26\n  tag_13\n  jump\t// in\ntag_26:\n    /* \"#utility.yul\":549:551   */\n  0x40\n    /* \"#utility.yul\":543:552   */\n  mload\n    /* \"#utility.yul\":641:643   */\n  0x1f\n    /* \"#utility.yul\":603:620   */\n  dup3\n  add\n  not(0x1f)\n    /* \"#utility.yul\":599:630   */\n  swap1\n  dup2\n  and\n    /* \"#utility.yul\":632:634   */\n  0x3f\n    /* \"#utility.yul\":595:635   */\n  add\n    /* \"#utility.yul\":591:645   */\n  and\n    /* \"#utility.yul\":579:646   */\n  dup2\n  add\n  sub(shl(0x40, 0x01), 0x01)\n    /* \"#utility.yul\":661:695   */\n  dup2\n  gt\n    /* \"#utility.yul\":697:719   */\n  dup3\n  dup3\n  lt\n    /* \"#utility.yul\":658:720   */\n  or\n    /* \"#utility.yul\":655:743   */\n  iszero\n  tag_28\n  jumpi\n    /* \"#utility.yul\":723:741   */\n  tag_28\n  tag_13\n  jump\t// in\ntag_28:\n    /* \"#utility.yul\":759:761   */\n  0x40\n    /* \"#utility.yul\":752:774   */\n  mstore\n    /* \"#utility.yul\":783:805   */\n  dup2\n  dup2\n  mstore\n    /* \"#utility.yul\":824:843   */\n  dup4\n  dup3\n  add\n    /* \"#utility.yul\":845:849   */\n  0x20\n    /* \"#utility.yul\":820:850   */\n  add\n    /* \"#utility.yul\":817:856   */\n  dup6\n  lt\n    /* \"#utility.yul\":814:873   */\n  iszero\n  tag_29\n  jumpi\n    /* \"#utility.yul\":869:870   */\n  0x00\n    /* \"#utility.yul\":866:867   */\n  dup1\n    /* \"#utility.yul\":859:871   */\n  revert\n    /* \"#utility.yul\":814:873   */\ntag_29:\n    /* \"#utility.yul\":926:932   */\n  dup2\n    /* \"#utility.yul\":919:923   */\n  0x20\n    /* \"#utility.yul\":911:917   */\n  dup6\n    /* \"#utility.yul\":907:924   */\n  add\n    /* \"#utility.yul\":900:904   */\n  0x20\n    /* \"#utility.yul\":892:898   */\n  dup4\n    /* \"#utility.yul\":888:905   */\n  add\n    /* \"#utility.yul\":882:933   */\n  mcopy\n    /* \"#utility.yul\":981:982   */\n  0x00\n    /* \"#utility.yul\":953:972   */\n  swap2\n  dup2\n  add\n    /* \"#utility.yul\":974:978   */\n  0x20\n    /* \"#utility.yul\":949:979   */\n  add\n    /* \"#utility.yul\":942:983   */\n  swap2\n  swap1\n  swap2\n  mstore\n    /* \"#utility.yul\":957:963   */\n  swap4\n    /* \"#utility.yul\":290:1013   */\n  swap3\n  pop\n  pop\n  pop\n  jump\t// out\n    /* \"#utility.yul\":1018:1885   */\ntag_3:\n    /* \"#utility.yul\":1166:1172   */\n  0x00\n    /* \"#utility.yul\":1174:1180   */\n  dup1\n    /* \"#utility.yul\":1182:1188   */\n  0x00\n    /* \"#utility.yul\":1190:1196   */\n  dup1\n    /* \"#utility.yul\":1243:1246   */\n  0x80\n    /* \"#utility.yul\":1231:1240   */\n  dup6\n    /* \"#utility.yul\":1222:1229   */\n  dup8\n    /* \"#utility.yul\":1218:1241   */\n  sub\n    /* \"#utility.yul\":1214:1247   */\n  slt\n    /* \"#utility.yul\":1211:1264   */\n  iszero\n  tag_31\n  jumpi\n    /* \"#utility.yul\":1260:1261   */\n  0x00\n    /* \"#utility.yul\":1257:1258   */\n  dup1\n    /* \"#utility.yul\":1250:1262   */\n  revert\n    /* \"#utility.yul\":1211:1264   */\ntag_31:\n    /* \"#utility.yul\":1292:1301   */\n  dup5\n    /* \"#utility.yul\":1286:1302   */\n  mload\n    /* \"#utility.yul\":1311:1350   */\n  tag_32\n    /* \"#utility.yul\":1344:1349   */\n  dup2\n    /* \"#utility.yul\":1311:1350   */\n  tag_12\n  jump\t// in\ntag_32:\n    /* \"#utility.yul\":1419:1421   */\n  0x20\n    /* \"#utility.yul\":1404:1422   */\n  dup7\n  add\n    /* \"#utility.yul\":1398:1423   */\n  mload\n    /* \"#utility.yul\":1369:1374   */\n  swap1\n  swap5\n  pop\n    /* \"#utility.yul\":1432:1473   */\n  tag_33\n    /* \"#utility.yul\":1398:1423   */\n  dup2\n    /* \"#utility.yul\":1432:1473   */\n  tag_12\n  jump\t// in\ntag_33:\n    /* \"#utility.yul\":1543:1545   */\n  0x40\n    /* \"#utility.yul\":1528:1546   */\n  dup7\n  add\n    /* \"#utility.yul\":1522:1547   */\n  mload\n    /* \"#utility.yul\":1492:1499   */\n  swap1\n  swap4\n  pop\n  sub(shl(0x40, 0x01), 0x01)\n    /* \"#utility.yul\":1559:1589   */\n  dup2\n  gt\n    /* \"#utility.yul\":1556:1606   */\n  iszero\n  tag_34\n  jumpi\n    /* \"#utility.yul\":1602:1603   */\n  0x00\n    /* \"#utility.yul\":1599:1600   */\n  dup1\n    /* \"#utility.yul\":1592:1604   */\n  revert\n    /* \"#utility.yul\":1556:1606   */\ntag_34:\n    /* \"#utility.yul\":1625:1686   */\n  tag_35\n    /* \"#utility.yul\":1678:1685   */\n  dup8\n    /* \"#utility.yul\":1669:1675   */\n  dup3\n    /* \"#utility.yul\":1658:1667   */\n  dup9\n    /* \"#utility.yul\":1654:1676   */\n  add\n    /* \"#utility.yul\":1625:1686   */\n  tag_14\n  jump\t// in\ntag_35:\n    /* \"#utility.yul\":1732:1734   */\n  0x60\n    /* \"#utility.yul\":1717:1735   */\n  dup8\n  add\n    /* \"#utility.yul\":1711:1736   */\n  mload\n    /* \"#utility.yul\":1615:1686   */\n  swap1\n  swap4\n  pop\n    /* \"#utility.yul\":1711:1736   */\n  swap1\n  pop\n  sub(shl(0x40, 0x01), 0x01)\n    /* \"#utility.yul\":1748:1780   */\n  dup2\n  gt\n    /* \"#utility.yul\":1745:1797   */\n  iszero\n  tag_36\n  jumpi\n    /* \"#utility.yul\":1793:1794   */\n  0x00\n    /* \"#utility.yul\":1790:1791   */\n  dup1\n    /* \"#utility.yul\":1783:1795   */\n  revert\n    /* \"#utility.yul\":1745:1797   */\ntag_36:\n    /* \"#utility.yul\":1816:1879   */\n  tag_37\n    /* \"#utility.yul\":1871:1878   */\n  dup8\n    /* \"#utility.yul\":1860:1868   */\n  dup3\n    /* \"#utility.yul\":1849:1858   */\n  dup9\n    /* \"#utility.yul\":1845:1869   */\n  add\n    /* \"#utility.yul\":1816:1879   */\n  tag_14\n  jump\t// in\ntag_37:\n    /* \"#utility.yul\":1806:1879   */\n  swap2\n  pop\n  pop\n    /* \"#utility.yul\":1018:1885   */\n  swap3\n  swap6\n  swap2\n  swap5\n  pop\n  swap3\n  pop\n  jump\t// out\n    /* \"#utility.yul\":1890:2270   */\ntag_15:\n    /* \"#utility.yul\":1969:1970   */\n  0x01\n    /* \"#utility.yul\":1965:1977   */\n  dup2\n  dup2\n  shr\n  swap1\n    /* \"#utility.yul\":2012:2024   */\n  dup3\n  and\n  dup1\n    /* \"#utility.yul\":2033:2094   */\n  tag_39\n  jumpi\n    /* \"#utility.yul\":2087:2091   */\n  0x7f\n    /* \"#utility.yul\":2079:2085   */\n  dup3\n    /* \"#utility.yul\":2075:2092   */\n  and\n    /* \"#utility.yul\":2065:2092   */\n  swap2\n  pop\n    /* \"#utility.yul\":2033:2094   */\ntag_39:\n    /* \"#utility.yul\":2140:2142   */\n  0x20\n    /* \"#utility.yul\":2132:2138   */\n  dup3\n    /* \"#utility.yul\":2129:2143   */\n  lt\n    /* \"#utility.yul\":2109:2127   */\n  dup2\n    /* \"#utility.yul\":2106:2144   */\n  sub\n    /* \"#utility.yul\":2103:2264   */\n  tag_40\n  jumpi\n    /* \"#utility.yul\":2186:2196   */\n  0x4e487b71\n    /* \"#utility.yul\":2181:2184   */\n  0xe0\n    /* \"#utility.yul\":2177:2197   */\n  shl\n    /* \"#utility.yul\":2174:2175   */\n  0x00\n    /* \"#utility.yul\":2167:2198   */\n  mstore\n    /* \"#utility.yul\":2221:2225   */\n  0x22\n    /* \"#utility.yul\":2218:2219   */\n  0x04\n    /* \"#utility.yul\":2211:2226   */\n  mstore\n    /* \"#utility.yul\":2249:2253   */\n  0x24\n    /* \"#utility.yul\":2246:2247   */\n  0x00\n    /* \"#utility.yul\":2239:2254   */\n  revert\n    /* \"#utility.yul\":2103:2264   */\ntag_40:\n  pop\n    /* \"#utility.yul\":1890:2270   */\n  swap2\n  swap1\n  pop\n  jump\t// out\n    /* \"#utility.yul\":2401:2919   */\ntag_17:\n    /* \"#utility.yul\":2503:2505   */\n  0x1f\n    /* \"#utility.yul\":2498:2501   */\n  dup3\n    /* \"#utility.yul\":2495:2506   */\n  gt\n    /* \"#utility.yul\":2492:2913   */\n  iszero\n  tag_43\n  jumpi\n    /* \"#utility.yul\":2539:2544   */\n  dup1\n    /* \"#utility.yul\":2536:2537   */\n  0x00\n    /* \"#utility.yul\":2529:2545   */\n  mstore\n    /* \"#utility.yul\":2583:2587   */\n  0x20\n    /* \"#utility.yul\":2580:2581   */\n  0x00\n    /* \"#utility.yul\":2570:2588   */\n  keccak256\n    /* \"#utility.yul\":2653:2655   */\n  0x1f\n    /* \"#utility.yul\":2641:2651   */\n  dup5\n    /* \"#utility.yul\":2637:2656   */\n  add\n    /* \"#utility.yul\":2634:2635   */\n  0x05\n    /* \"#utility.yul\":2630:2657   */\n  shr\n    /* \"#utility.yul\":2624:2628   */\n  dup2\n    /* \"#utility.yul\":2620:2658   */\n  add\n    /* \"#utility.yul\":2689:2693   */\n  0x20\n    /* \"#utility.yul\":2677:2687   */\n  dup6\n    /* \"#utility.yul\":2674:2694   */\n  lt\n    /* \"#utility.yul\":2671:2718   */\n  iszero\n  tag_44\n  jumpi\n  pop\n    /* \"#utility.yul\":2712:2716   */\n  dup1\n    /* \"#utility.yul\":2671:2718   */\ntag_44:\n    /* \"#utility.yul\":2767:2769   */\n  0x1f\n    /* \"#utility.yul\":2762:2765   */\n  dup5\n    /* \"#utility.yul\":2758:2770   */\n  add\n    /* \"#utility.yul\":2755:2756   */\n  0x05\n    /* \"#utility.yul\":2751:2771   */\n  shr\n    /* \"#utility.yul\":2745:2749   */\n  dup3\n    /* \"#utility.yul\":2741:2772   */\n  add\n    /* \"#utility.yul\":2731:2772   */\n  swap2\n  pop\n    /* \"#utility.yul\":2822:2903   */\ntag_45:\n    /* \"#utility.yul\":2840:2842   */\n  dup2\n    /* \"#utility.yul\":2833:2838   */\n  dup2\n    /* \"#utility.yul\":2830:2843   */\n  lt\n    /* \"#utility.yul\":2822:2903   */\n  iszero\n  tag_47\n  jumpi\n    /* \"#utility.yul\":2899:2900   */\n  0x00\n    /* \"#utility.yul\":2885:2901   */\n  dup2\n  sstore\n    /* \"#utility.yul\":2866:2867   */\n  0x01\n    /* \"#utility.yul\":2855:2868   */\n  add\n    /* \"#utility.yul\":2822:2903   */\n  jump(tag_45)\ntag_47:\n    /* \"#utility.yul\":2826:2829   */\n  pop\n  pop\n    /* \"#utility.yul\":2492:2913   */\ntag_43:\n    /* \"#utility.yul\":2401:2919   */\n  pop\n  pop\n  pop\n  jump\t// out\n    /* \"#utility.yul\":3095:4394   */\ntag_8:\n    /* \"#utility.yul\":3215:3225   */\n  dup2\n  mload\n  sub(shl(0x40, 0x01), 0x01)\n    /* \"#utility.yul\":3237:3267   */\n  dup2\n  gt\n    /* \"#utility.yul\":3234:3290   */\n  iszero\n  tag_51\n  jumpi\n    /* \"#utility.yul\":3270:3288   */\n  tag_51\n  tag_13\n  jump\t// in\ntag_51:\n    /* \"#utility.yul\":3299:3396   */\n  tag_52\n    /* \"#utility.yul\":3389:3395   */\n  dup2\n    /* \"#utility.yul\":3349:3387   */\n  tag_53\n    /* \"#utility.yul\":3381:3385   */\n  dup5\n    /* \"#utility.yul\":3375:3386   */\n  sload\n    /* \"#utility.yul\":3349:3387   */\n  tag_15\n  jump\t// in\ntag_53:\n    /* \"#utility.yul\":3343:3347   */\n  dup5\n    /* \"#utility.yul\":3299:3396   */\n  tag_17\n  jump\t// in\ntag_52:\n    /* \"#utility.yul\":3445:3449   */\n  0x20\n    /* \"#utility.yul\":3476:3478   */\n  0x1f\n    /* \"#utility.yul\":3465:3479   */\n  dup3\n  gt\n    /* \"#utility.yul\":3493:3494   */\n  0x01\n    /* \"#utility.yul\":3488:4137   */\n  dup2\n  eq\n  tag_55\n  jumpi\n    /* \"#utility.yul\":4181:4182   */\n  0x00\n    /* \"#utility.yul\":4198:4204   */\n  dup4\n    /* \"#utility.yul\":4195:4284   */\n  iszero\n  tag_56\n  jumpi\n  pop\n    /* \"#utility.yul\":4250:4269   */\n  dup5\n  dup3\n  add\n    /* \"#utility.yul\":4244:4270   */\n  mload\n    /* \"#utility.yul\":4195:4284   */\ntag_56:\n  not(0x00)\n    /* \"#utility.yul\":3052:3053   */\n  0x03\n    /* \"#utility.yul\":3048:3059   */\n  dup6\n  swap1\n  shl\n    /* \"#utility.yul\":3044:3068   */\n  shr\n    /* \"#utility.yul\":3040:3069   */\n  not\n    /* \"#utility.yul\":3030:3070   */\n  and\n    /* \"#utility.yul\":3076:3077   */\n  0x01\n    /* \"#utility.yul\":3072:3083   */\n  dup5\n  swap1\n  shl\n    /* \"#utility.yul\":3027:3084   */\n  or\n    /* \"#utility.yul\":4297:4378   */\n  dup5\n  sstore\n    /* \"#utility.yul\":3458:4388   */\n  jump(tag_47)\n    /* \"#utility.yul\":3488:4137   */\ntag_55:\n    /* \"#utility.yul\":2348:2349   */\n  0x00\n    /* \"#utility.yul\":2341:2355   */\n  dup5\n  dup2\n  mstore\n    /* \"#utility.yul\":2385:2389   */\n  0x20\n    /* \"#utility.yul\":2372:2390   */\n  dup2\n  keccak256\n  not(0x1f)\n    /* \"#utility.yul\":3524:3544   */\n  dup6\n  and\n  swap2\n    /* \"#utility.yul\":3642:3864   */\ntag_59:\n    /* \"#utility.yul\":3656:3663   */\n  dup3\n    /* \"#utility.yul\":3653:3654   */\n  dup2\n    /* \"#utility.yul\":3650:3664   */\n  lt\n    /* \"#utility.yul\":3642:3864   */\n  iszero\n  tag_61\n  jumpi\n    /* \"#utility.yul\":3738:3757   */\n  dup8\n  dup6\n  add\n    /* \"#utility.yul\":3732:3758   */\n  mload\n    /* \"#utility.yul\":3717:3759   */\n  dup3\n  sstore\n    /* \"#utility.yul\":3845:3849   */\n  0x20\n    /* \"#utility.yul\":3830:3850   */\n  swap5\n  dup6\n  add\n  swap5\n    /* \"#utility.yul\":3798:3799   */\n  0x01\n    /* \"#utility.yul\":3786:3800   */\n  swap1\n  swap3\n  add\n  swap2\n    /* \"#utility.yul\":3672:3684   */\n  add\n    /* \"#utility.yul\":3642:3864   */\n  jump(tag_59)\ntag_61:\n    /* \"#utility.yul\":3646:3649   */\n  pop\n    /* \"#utility.yul\":3892:3898   */\n  dup5\n    /* \"#utility.yul\":3883:3890   */\n  dup3\n    /* \"#utility.yul\":3880:3899   */\n  lt\n    /* \"#utility.yul\":3877:4078   */\n  iszero\n  tag_62\n  jumpi\n    /* \"#utility.yul\":3953:3972   */\n  dup7\n  dup5\n  add\n    /* \"#utility.yul\":3947:3973   */\n  mload\n  not(0x00)\n    /* \"#utility.yul\":4036:4037   */\n  0x03\n    /* \"#utility.yul\":4032:4046   */\n  dup8\n  swap1\n  shl\n    /* \"#utility.yul\":4048:4051   */\n  0xf8\n    /* \"#utility.yul\":4028:4052   */\n  and\n    /* \"#utility.yul\":4024:4061   */\n  shr\n    /* \"#utility.yul\":4020:4062   */\n  not\n    /* \"#utility.yul\":4005:4063   */\n  and\n    /* \"#utility.yul\":3990:4064   */\n  dup2\n  sstore\n    /* \"#utility.yul\":3877:4078   */\ntag_62:\n  pop\n  pop\n  pop\n  pop\n    /* \"#utility.yul\":4124:4125   */\n  0x01\n    /* \"#utility.yul\":4108:4122   */\n  swap1\n  dup2\n  shl\n    /* \"#utility.yul\":4104:4126   */\n  add\n    /* \"#utility.yul\":4091:4127   */\n  swap1\n  sstore\n  pop\n    /* \"#utility.yul\":3095:4394   */\n  jump\t// out\ntag_19:\n    /* \"contracts/SavingsToken.sol\":402:3584  contract SavingsToken is ERC20 {... */\n  mload(0x80)\n  mload(0xa0)\n  codecopy(0x00, dataOffset(sub_0), dataSize(sub_0))\n  0x00\n  assignImmutable(\"0xcfc9c1a657282218290355aefa191faca198f2c3c3629b9e2a6f8280ecb57b70\")\n  0x00\n  assignImmutable(\"0x17cafedaaa5d0d04199f2152324a0dd2b33b6b1cf0de7add14d52806a812e454\")\n  return(0x00, dataSize(sub_0))\nstop\n\nsub_0: assembly {\n        /* \"contracts/SavingsToken.sol\":402:3584  contract SavingsToken is ERC20 {... */\n      mstore(0x40, 0x80)\n      callvalue\n      dup1\n      iszero\n      tag_1\n      jumpi\n      0x00\n      dup1\n      revert\n    tag_1:\n      pop\n      jumpi(tag_2, lt(calldatasize, 0x04))\n      shr(0xe0, calldataload(0x00))\n      dup1\n      0x5b02907b\n      gt\n      tag_25\n      jumpi\n      dup1\n      0xa9059cbb\n      gt\n      tag_26\n      jumpi\n      dup1\n      0xa9059cbb\n      eq\n      tag_19\n      jumpi\n      dup1\n      0xad7a672f\n      eq\n      tag_20\n      jumpi\n      dup1\n      0xc4d4803a\n      eq\n      tag_21\n      jumpi\n      dup1\n      0xc86d6ae4\n      eq\n      tag_22\n      jumpi\n      dup1\n      0xdd62ed3e\n      eq\n      tag_23\n      jumpi\n      dup1\n      0xe8e511a4\n      eq\n      tag_24\n      jumpi\n      0x00\n      dup1\n      revert\n    tag_26:\n      dup1\n      0x5b02907b\n      eq\n      tag_14\n      jumpi\n      dup1\n      0x70a08231\n      eq\n      tag_15\n      jumpi\n      dup1\n      0x8380edb7\n      eq\n      tag_16\n      jumpi\n      dup1\n      0x95d89b41\n      eq\n      tag_17\n      jumpi\n      dup1\n      0xa035b1fe\n      eq\n      tag_18\n      jumpi\n      0x00\n      dup1\n      revert\n    tag_25:\n      dup1\n      0x1b862027\n      gt\n      tag_27\n      jumpi\n      dup1\n      0x1b862027\n      eq\n      tag_8\n      jumpi\n      dup1\n      0x205c2878\n      eq\n      tag_9\n      jumpi\n      dup1\n      0x23b872dd\n      eq\n      tag_10\n      jumpi\n      dup1\n      0x2e1a7d4d\n      eq\n      tag_11\n      jumpi\n      dup1\n      0x313ce567\n      eq\n      tag_12\n      jumpi\n      dup1\n      0x3fa84516\n      eq\n      tag_13\n      jumpi\n      0x00\n      dup1\n      revert\n    tag_27:\n      dup1\n      0x01ffc9a7\n      eq\n      tag_3\n      jumpi\n      dup1\n      0x06fdde03\n      eq\n      tag_4\n      jumpi\n      dup1\n      0x095ea7b3\n      eq\n      tag_5\n      jumpi\n      dup1\n      0x0e15561a\n      eq\n      tag_6\n      jumpi\n      dup1\n      0x18160ddd\n      eq\n      tag_7\n      jumpi\n    tag_2:\n      0x00\n      dup1\n      revert\n        /* \"contracts/SavingsToken.sol\":1302:1437  function supportsInterface(bytes4 interfaceId) public view virtual returns (bool) {... */\n    tag_3:\n      tag_28\n      tag_29\n      calldatasize\n      0x04\n      tag_30\n      jump\t// in\n    tag_29:\n      not(sub(shl(0xe0, 0x01), 0x01))\n        /* \"contracts/SavingsToken.sol\":1395:1433  interfaceId == type(ERC20).interfaceId */\n      and\n      shl(0xe1, 0x4a174591)\n      eq\n      swap1\n        /* \"contracts/SavingsToken.sol\":1302:1437  function supportsInterface(bytes4 interfaceId) public view virtual returns (bool) {... */\n      jump\n    tag_28:\n      mload(0x40)\n        /* \"#utility.yul\":470:484   */\n      swap1\n      iszero\n        /* \"#utility.yul\":463:485   */\n      iszero\n        /* \"#utility.yul\":445:486   */\n      dup2\n      mstore\n        /* \"#utility.yul\":433:435   */\n      0x20\n        /* \"#utility.yul\":418:436   */\n      add\n        /* \"contracts/SavingsToken.sol\":1302:1437  function supportsInterface(bytes4 interfaceId) public view virtual returns (bool) {... */\n    tag_32:\n      mload(0x40)\n      dup1\n      swap2\n      sub\n      swap1\n      return\n        /* \"@openzeppelin/contracts/token/ERC20/ERC20.sol\":1779:1868  function name() public view virtual returns (string memory) {... */\n    tag_4:\n      tag_34\n      tag_35\n      jump\t// in\n    tag_34:\n      mload(0x40)\n      tag_32\n      swap2\n      swap1\n      tag_37\n      jump\t// in\n        /* \"@openzeppelin/contracts/token/ERC20/ERC20.sol\":3998:4184  function approve(address spender, uint256 value) public virtual returns (bool) {... */\n    tag_5:\n      tag_28\n      tag_39\n      calldatasize\n      0x04\n      tag_40\n      jump\t// in\n    tag_39:\n      tag_41\n      jump\t// in\n        /* \"contracts/SavingsToken.sol\":559:586  uint256 public totalRewards */\n    tag_6:\n      tag_43\n      sload(0x05)\n      dup2\n      jump\n    tag_43:\n      mload(0x40)\n        /* \"#utility.yul\":1549:1574   */\n      swap1\n      dup2\n      mstore\n        /* \"#utility.yul\":1537:1539   */\n      0x20\n        /* \"#utility.yul\":1522:1540   */\n      add\n        /* \"contracts/SavingsToken.sol\":559:586  uint256 public totalRewards */\n      tag_32\n        /* \"#utility.yul\":1403:1580   */\n      jump\n        /* \"@openzeppelin/contracts/token/ERC20/ERC20.sol\":2849:2946  function totalSupply() public view virtual returns (uint256) {... */\n    tag_7:\n        /* \"@openzeppelin/contracts/token/ERC20/ERC20.sol\":2927:2939  _totalSupply */\n      sload(0x02)\n        /* \"@openzeppelin/contracts/token/ERC20/ERC20.sol\":2849:2946  function totalSupply() public view virtual returns (uint256) {... */\n      jump(tag_43)\n        /* \"contracts/SavingsToken.sol\":1581:1652  function save(uint256 amount) public {... */\n    tag_8:\n      tag_50\n      tag_51\n      calldatasize\n      0x04\n      tag_52\n      jump\t// in\n    tag_51:\n      tag_53\n      jump\t// in\n    tag_50:\n      stop\n        /* \"contracts/SavingsToken.sol\":2362:2857  function withdrawTo(address target, uint256 amount) public {... */\n    tag_9:\n      tag_50\n      tag_55\n      calldatasize\n      0x04\n      tag_40\n      jump\t// in\n    tag_55:\n      tag_56\n      jump\t// in\n        /* \"@openzeppelin/contracts/token/ERC20/ERC20.sol\":4776:5020  function transferFrom(address from, address to, uint256 value) public virtual returns (bool) {... */\n    tag_10:\n      tag_28\n      tag_58\n      calldatasize\n      0x04\n      tag_59\n      jump\t// in\n    tag_58:\n      tag_60\n      jump\t// in\n        /* \"contracts/SavingsToken.sol\":2280:2359  function withdraw(uint256 amount) public {... */\n    tag_11:\n      tag_50\n      tag_63\n      calldatasize\n      0x04\n      tag_52\n      jump\t// in\n    tag_63:\n      tag_64\n      jump\t// in\n        /* \"@openzeppelin/contracts/token/ERC20/ERC20.sol\":2707:2789  function decimals() public view virtual returns (uint8) {... */\n    tag_12:\n      mload(0x40)\n        /* \"@openzeppelin/contracts/token/ERC20/ERC20.sol\":2780:2782  18 */\n      0x12\n        /* \"#utility.yul\":2337:2373   */\n      dup2\n      mstore\n        /* \"#utility.yul\":2325:2327   */\n      0x20\n        /* \"#utility.yul\":2310:2328   */\n      add\n        /* \"@openzeppelin/contracts/token/ERC20/ERC20.sol\":2707:2789  function decimals() public view virtual returns (uint8) {... */\n      tag_32\n        /* \"#utility.yul\":2195:2379   */\n      jump\n        /* \"contracts/SavingsToken.sol\":1655:2136  function saveTo(address account, uint256 amount) public {... */\n    tag_13:\n      tag_50\n      tag_70\n      calldatasize\n      0x04\n      tag_40\n      jump\t// in\n    tag_70:\n      tag_71\n      jump\t// in\n        /* \"contracts/SavingsToken.sol\":3421:3582  function untilUnlocked() public view returns (uint256) {... */\n    tag_14:\n      tag_43\n      tag_73\n      jump\t// in\n        /* \"@openzeppelin/contracts/token/ERC20/ERC20.sol\":3004:3120  function balanceOf(address account) public view virtual returns (uint256) {... */\n    tag_15:\n      tag_43\n      tag_76\n      calldatasize\n      0x04\n      tag_77\n      jump\t// in\n    tag_76:\n      sub(shl(0xa0, 0x01), 0x01)\n        /* \"@openzeppelin/contracts/token/ERC20/ERC20.sol\":3095:3113  _balances[account] */\n      and\n        /* \"@openzeppelin/contracts/token/ERC20/ERC20.sol\":3069:3076  uint256 */\n      0x00\n        /* \"@openzeppelin/contracts/token/ERC20/ERC20.sol\":3095:3113  _balances[account] */\n      swap1\n      dup2\n      mstore\n      0x20\n      dup2\n      swap1\n      mstore\n      0x40\n      swap1\n      keccak256\n      sload\n      swap1\n        /* \"@openzeppelin/contracts/token/ERC20/ERC20.sol\":3004:3120  function balanceOf(address account) public view virtual returns (uint256) {... */\n      jump\n        /* \"contracts/SavingsToken.sol\":3292:3418  function isUnlocked() public view returns (bool) {... */\n    tag_16:\n      tag_28\n      tag_81\n      jump\t// in\n        /* \"@openzeppelin/contracts/token/ERC20/ERC20.sol\":1981:2074  function symbol() public view virtual returns (string memory) {... */\n    tag_17:\n      tag_34\n      tag_84\n      jump\t// in\n        /* \"contracts/SavingsToken.sol\":589:619  uint256 public price = 1 ether */\n    tag_18:\n      tag_43\n      sload(0x06)\n      dup2\n      jump\n        /* \"@openzeppelin/contracts/token/ERC20/ERC20.sol\":3315:3493  function transfer(address to, uint256 value) public virtual returns (bool) {... */\n    tag_19:\n      tag_28\n      tag_90\n      calldatasize\n      0x04\n      tag_40\n      jump\t// in\n    tag_90:\n      tag_91\n      jump\t// in\n        /* \"contracts/SavingsToken.sol\":2953:3099  function totalBalance() public view returns (uint256) {... */\n    tag_20:\n      tag_43\n      tag_94\n      jump\t// in\n        /* \"contracts/SavingsToken.sol\":491:519  IERC20 public immutable zchf */\n    tag_21:\n      tag_96\n      immutable(\"0x17cafedaaa5d0d04199f2152324a0dd2b33b6b1cf0de7add14d52806a812e454\")\n      dup2\n      jump\n    tag_96:\n      mload(0x40)\n      sub(shl(0xa0, 0x01), 0x01)\n        /* \"#utility.yul\":2753:2785   */\n      swap1\n      swap2\n      and\n        /* \"#utility.yul\":2735:2786   */\n      dup2\n      mstore\n        /* \"#utility.yul\":2723:2725   */\n      0x20\n        /* \"#utility.yul\":2708:2726   */\n      add\n        /* \"contracts/SavingsToken.sol\":491:519  IERC20 public immutable zchf */\n      tag_32\n        /* \"#utility.yul\":2575:2792   */\n      jump\n        /* \"contracts/SavingsToken.sol\":522:555  ISavings public immutable savings */\n    tag_22:\n      tag_96\n      immutable(\"0xcfc9c1a657282218290355aefa191faca198f2c3c3629b9e2a6f8280ecb57b70\")\n      dup2\n      jump\n        /* \"@openzeppelin/contracts/token/ERC20/ERC20.sol\":3551:3691  function allowance(address owner, address spender) public view virtual returns (uint256) {... */\n    tag_23:\n      tag_43\n      tag_105\n      calldatasize\n      0x04\n      tag_106\n      jump\t// in\n    tag_105:\n      sub(shl(0xa0, 0x01), 0x01)\n        /* \"@openzeppelin/contracts/token/ERC20/ERC20.sol\":3657:3675  _allowances[owner] */\n      swap2\n      dup3\n      and\n        /* \"@openzeppelin/contracts/token/ERC20/ERC20.sol\":3631:3638  uint256 */\n      0x00\n        /* \"@openzeppelin/contracts/token/ERC20/ERC20.sol\":3657:3675  _allowances[owner] */\n      swap1\n      dup2\n      mstore\n        /* \"@openzeppelin/contracts/token/ERC20/ERC20.sol\":3657:3668  _allowances */\n      0x01\n        /* \"@openzeppelin/contracts/token/ERC20/ERC20.sol\":3657:3675  _allowances[owner] */\n      0x20\n      swap1\n      dup2\n      mstore\n      0x40\n      dup1\n      dup4\n      keccak256\n        /* \"@openzeppelin/contracts/token/ERC20/ERC20.sol\":3657:3684  _allowances[owner][spender] */\n      swap4\n      swap1\n      swap5\n      and\n      dup3\n      mstore\n      swap2\n      swap1\n      swap2\n      mstore\n      keccak256\n      sload\n      swap1\n        /* \"@openzeppelin/contracts/token/ERC20/ERC20.sol\":3551:3691  function allowance(address owner, address spender) public view virtual returns (uint256) {... */\n      jump\n        /* \"contracts/SavingsToken.sol\":3102:3289  function saverBalance(address account) public view returns (uint256) {... */\n    tag_24:\n      tag_43\n      tag_110\n      calldatasize\n      0x04\n      tag_77\n      jump\t// in\n    tag_110:\n      tag_111\n      jump\t// in\n        /* \"@openzeppelin/contracts/token/ERC20/ERC20.sol\":1779:1868  function name() public view virtual returns (string memory) {... */\n    tag_35:\n        /* \"@openzeppelin/contracts/token/ERC20/ERC20.sol\":1824:1837  string memory */\n      0x60\n        /* \"@openzeppelin/contracts/token/ERC20/ERC20.sol\":1856:1861  _name */\n      0x03\n        /* \"@openzeppelin/contracts/token/ERC20/ERC20.sol\":1849:1861  return _name */\n      dup1\n      sload\n      tag_115\n      swap1\n      tag_116\n      jump\t// in\n    tag_115:\n      dup1\n      0x1f\n      add\n      0x20\n      dup1\n      swap2\n      div\n      mul\n      0x20\n      add\n      mload(0x40)\n      swap1\n      dup2\n      add\n      0x40\n      mstore\n      dup1\n      swap3\n      swap2\n      swap1\n      dup2\n      dup2\n      mstore\n      0x20\n      add\n      dup3\n      dup1\n      sload\n      tag_117\n      swap1\n      tag_116\n      jump\t// in\n    tag_117:\n      dup1\n      iszero\n      tag_118\n      jumpi\n      dup1\n      0x1f\n      lt\n      tag_119\n      jumpi\n      0x0100\n      dup1\n      dup4\n      sload\n      div\n      mul\n      dup4\n      mstore\n      swap2\n      0x20\n      add\n      swap2\n      jump(tag_118)\n    tag_119:\n      dup3\n      add\n      swap2\n      swap1\n      0x00\n      mstore\n      keccak256(0x00, 0x20)\n      swap1\n    tag_120:\n      dup2\n      sload\n      dup2\n      mstore\n      swap1\n      0x01\n      add\n      swap1\n      0x20\n      add\n      dup1\n      dup4\n      gt\n      tag_120\n      jumpi\n      dup3\n      swap1\n      sub\n      0x1f\n      and\n      dup3\n      add\n      swap2\n    tag_118:\n      pop\n      pop\n      pop\n      pop\n      pop\n      swap1\n      pop\n        /* \"@openzeppelin/contracts/token/ERC20/ERC20.sol\":1779:1868  function name() public view virtual returns (string memory) {... */\n      swap1\n      jump\t// out\n        /* \"@openzeppelin/contracts/token/ERC20/ERC20.sol\":3998:4184  function approve(address spender, uint256 value) public virtual returns (bool) {... */\n    tag_41:\n        /* \"@openzeppelin/contracts/token/ERC20/ERC20.sol\":4071:4075  bool */\n      0x00\n        /* \"@openzeppelin/contracts/utils/Context.sol\":735:745  msg.sender */\n      caller\n        /* \"@openzeppelin/contracts/token/ERC20/ERC20.sol\":4125:4156  _approve(owner, spender, value) */\n      tag_124\n        /* \"@openzeppelin/contracts/utils/Context.sol\":735:745  msg.sender */\n      dup2\n        /* \"@openzeppelin/contracts/token/ERC20/ERC20.sol\":4141:4148  spender */\n      dup6\n        /* \"@openzeppelin/contracts/token/ERC20/ERC20.sol\":4150:4155  value */\n      dup6\n        /* \"@openzeppelin/contracts/token/ERC20/ERC20.sol\":4125:4133  _approve */\n      tag_125\n        /* \"@openzeppelin/contracts/token/ERC20/ERC20.sol\":4125:4156  _approve(owner, spender, value) */\n      jump\t// in\n    tag_124:\n        /* \"@openzeppelin/contracts/token/ERC20/ERC20.sol\":4173:4177  true */\n      0x01\n        /* \"@openzeppelin/contracts/token/ERC20/ERC20.sol\":4166:4177  return true */\n      swap2\n      pop\n      pop\n        /* \"@openzeppelin/contracts/token/ERC20/ERC20.sol\":3998:4184  function approve(address spender, uint256 value) public virtual returns (bool) {... */\n    tag_121:\n      swap3\n      swap2\n      pop\n      pop\n      jump\t// out\n        /* \"contracts/SavingsToken.sol\":1581:1652  function save(uint256 amount) public {... */\n    tag_53:\n        /* \"contracts/SavingsToken.sol\":1622:1648  saveTo(msg.sender, amount) */\n      tag_128\n        /* \"contracts/SavingsToken.sol\":1629:1639  msg.sender */\n      caller\n        /* \"contracts/SavingsToken.sol\":1641:1647  amount */\n      dup3\n        /* \"contracts/SavingsToken.sol\":1622:1628  saveTo */\n      tag_71\n        /* \"contracts/SavingsToken.sol\":1622:1648  saveTo(msg.sender, amount) */\n      jump\t// in\n    tag_128:\n        /* \"contracts/SavingsToken.sol\":1581:1652  function save(uint256 amount) public {... */\n      pop\n      jump\t// out\n        /* \"contracts/SavingsToken.sol\":2362:2857  function withdrawTo(address target, uint256 amount) public {... */\n    tag_56:\n        /* \"contracts/SavingsToken.sol\":2452:2490  savings.accruedInterest(address(this)) */\n      mload(0x40)\n      shl(0xe0, 0x77267ec3)\n      dup2\n      mstore\n        /* \"contracts/SavingsToken.sol\":2484:2488  this */\n      address\n        /* \"contracts/SavingsToken.sol\":2452:2490  savings.accruedInterest(address(this)) */\n      0x04\n      dup3\n      add\n        /* \"#utility.yul\":2735:2786   */\n      mstore\n        /* \"contracts/SavingsToken.sol\":2425:2441  uint256 interest */\n      0x00\n      swap1\n        /* \"contracts/SavingsToken.sol\":2452:2459  savings */\n      immutable(\"0xcfc9c1a657282218290355aefa191faca198f2c3c3629b9e2a6f8280ecb57b70\")\n      sub(shl(0xa0, 0x01), 0x01)\n        /* \"contracts/SavingsToken.sol\":2452:2475  savings.accruedInterest */\n      and\n      swap1\n      0x77267ec3\n      swap1\n        /* \"#utility.yul\":2708:2726   */\n      0x24\n      add\n        /* \"contracts/SavingsToken.sol\":2452:2490  savings.accruedInterest(address(this)) */\n      0x20\n      mload(0x40)\n      dup1\n      dup4\n      sub\n      dup2\n      dup7\n      gas\n      staticcall\n      iszero\n      dup1\n      iszero\n      tag_133\n      jumpi\n      returndatasize\n      0x00\n      dup1\n      returndatacopy\n      revert(0x00, returndatasize)\n    tag_133:\n      pop\n      pop\n      pop\n      pop\n      mload(0x40)\n      returndatasize\n      not(0x1f)\n      0x1f\n      dup3\n      add\n      and\n      dup3\n      add\n      dup1\n      0x40\n      mstore\n      pop\n      dup2\n      add\n      swap1\n      tag_134\n      swap2\n      swap1\n      tag_135\n      jump\t// in\n    tag_134:\n      sub(shl(0xc0, 0x01), 0x01)\n        /* \"contracts/SavingsToken.sol\":2444:2491  uint256(savings.accruedInterest(address(this))) */\n      and\n        /* \"contracts/SavingsToken.sol\":2425:2491  uint256 interest = uint256(savings.accruedInterest(address(this))) */\n      swap1\n      pop\n        /* \"contracts/SavingsToken.sol\":2511:2512  0 */\n      0x00\n        /* \"contracts/SavingsToken.sol\":2500:2508  interest */\n      dup2\n        /* \"contracts/SavingsToken.sol\":2500:2512  interest > 0 */\n      gt\n        /* \"contracts/SavingsToken.sol\":2500:2533  interest > 0 && totalSupply() > 0 */\n      dup1\n      iszero\n      tag_136\n      jumpi\n      pop\n        /* \"contracts/SavingsToken.sol\":2532:2533  0 */\n      0x00\n        /* \"contracts/SavingsToken.sol\":2516:2529  totalSupply() */\n      tag_137\n        /* \"@openzeppelin/contracts/token/ERC20/ERC20.sol\":2927:2939  _totalSupply */\n      sload(0x02)\n      swap1\n        /* \"@openzeppelin/contracts/token/ERC20/ERC20.sol\":2849:2946  function totalSupply() public view virtual returns (uint256) {... */\n      jump\n        /* \"contracts/SavingsToken.sol\":2516:2529  totalSupply() */\n    tag_137:\n        /* \"contracts/SavingsToken.sol\":2516:2533  totalSupply() > 0 */\n      gt\n        /* \"contracts/SavingsToken.sol\":2500:2533  interest > 0 && totalSupply() > 0 */\n    tag_136:\n        /* \"contracts/SavingsToken.sol\":2496:2619  if (interest > 0 && totalSupply() > 0) {... */\n      iszero\n      tag_138\n      jumpi\n        /* \"contracts/SavingsToken.sol\":2556:2564  interest */\n      dup1\n        /* \"contracts/SavingsToken.sol\":2540:2552  totalRewards */\n      0x05\n      0x00\n        /* \"contracts/SavingsToken.sol\":2540:2564  totalRewards += interest */\n      dup3\n      dup3\n      sload\n      tag_139\n      swap2\n      swap1\n      tag_140\n      jump\t// in\n    tag_139:\n      swap1\n      swap2\n      sstore\n      pop\n      pop\n        /* \"@openzeppelin/contracts/token/ERC20/ERC20.sol\":2927:2939  _totalSupply */\n      sload(0x02)\n        /* \"contracts/SavingsToken.sol\":2579:2597  interest * 1 ether */\n      tag_142\n        /* \"contracts/SavingsToken.sol\":2579:2587  interest */\n      dup3\n        /* \"contracts/SavingsToken.sol\":2590:2597  1 ether */\n      0x0de0b6b3a7640000\n        /* \"contracts/SavingsToken.sol\":2579:2597  interest * 1 ether */\n      tag_143\n      jump\t// in\n    tag_142:\n        /* \"contracts/SavingsToken.sol\":2578:2614  (interest * 1 ether) / totalSupply() */\n      tag_144\n      swap2\n      swap1\n      tag_145\n      jump\t// in\n    tag_144:\n        /* \"contracts/SavingsToken.sol\":2569:2574  price */\n      0x06\n      0x00\n        /* \"contracts/SavingsToken.sol\":2569:2614  price += (interest * 1 ether) / totalSupply() */\n      dup3\n      dup3\n      sload\n      tag_146\n      swap2\n      swap1\n      tag_140\n      jump\t// in\n    tag_146:\n      swap1\n      swap2\n      sstore\n      pop\n      pop\n        /* \"contracts/SavingsToken.sol\":2496:2619  if (interest > 0 && totalSupply() > 0) {... */\n    tag_138:\n        /* \"contracts/SavingsToken.sol\":2623:2648  _burn(msg.sender, amount) */\n      tag_147\n        /* \"contracts/SavingsToken.sol\":2629:2639  msg.sender */\n      caller\n        /* \"contracts/SavingsToken.sol\":2641:2647  amount */\n      dup4\n        /* \"contracts/SavingsToken.sol\":2623:2628  _burn */\n      tag_148\n        /* \"contracts/SavingsToken.sol\":2623:2648  _burn(msg.sender, amount) */\n      jump\t// in\n    tag_147:\n        /* \"contracts/SavingsToken.sol\":2653:2670  uint256 amountOut */\n      0x00\n        /* \"contracts/SavingsToken.sol\":2692:2699  1 ether */\n      0x0de0b6b3a7640000\n        /* \"contracts/SavingsToken.sol\":2683:2688  price */\n      sload(0x06)\n        /* \"contracts/SavingsToken.sol\":2674:2680  amount */\n      dup5\n        /* \"contracts/SavingsToken.sol\":2674:2688  amount * price */\n      tag_149\n      swap2\n      swap1\n      tag_143\n      jump\t// in\n    tag_149:\n        /* \"contracts/SavingsToken.sol\":2673:2699  (amount * price) / 1 ether */\n      tag_150\n      swap2\n      swap1\n      tag_145\n      jump\t// in\n    tag_150:\n        /* \"contracts/SavingsToken.sol\":2653:2699  uint256 amountOut = (amount * price) / 1 ether */\n      swap1\n      pop\n        /* \"contracts/SavingsToken.sol\":2715:2722  savings */\n      immutable(\"0xcfc9c1a657282218290355aefa191faca198f2c3c3629b9e2a6f8280ecb57b70\")\n      sub(shl(0xa0, 0x01), 0x01)\n        /* \"contracts/SavingsToken.sol\":2715:2731  savings.withdraw */\n      and\n      0x1791dc5e\n        /* \"contracts/SavingsToken.sol\":2732:2738  target */\n      dup6\n        /* \"contracts/SavingsToken.sol\":2740:2753  totalSupply() */\n      tag_151\n        /* \"@openzeppelin/contracts/token/ERC20/ERC20.sol\":2927:2939  _totalSupply */\n      sload(0x02)\n      swap1\n        /* \"@openzeppelin/contracts/token/ERC20/ERC20.sol\":2849:2946  function totalSupply() public view virtual returns (uint256) {... */\n      jump\n        /* \"contracts/SavingsToken.sol\":2740:2753  totalSupply() */\n    tag_151:\n        /* \"contracts/SavingsToken.sol\":2740:2758  totalSupply() == 0 */\n      iszero\n        /* \"contracts/SavingsToken.sol\":2740:2799  totalSupply() == 0 ? type(uint192).max : uint192(amountOut) */\n      tag_152\n      jumpi\n        /* \"contracts/SavingsToken.sol\":2789:2798  amountOut */\n      dup4\n        /* \"contracts/SavingsToken.sol\":2740:2799  totalSupply() == 0 ? type(uint192).max : uint192(amountOut) */\n      jump(tag_153)\n    tag_152:\n      sub(shl(0xc0, 0x01), 0x01)\n    tag_153:\n        /* \"contracts/SavingsToken.sol\":2715:2800  savings.withdraw(target, totalSupply() == 0 ? type(uint192).max : uint192(amountOut)) */\n      mload(0x40)\n      not(sub(shl(0xe0, 0x01), 0x01))\n      0xe0\n      dup6\n      swap1\n      shl\n      and\n      dup2\n      mstore\n      sub(shl(0xa0, 0x01), 0x01)\n        /* \"#utility.yul\":5124:5156   */\n      swap1\n      swap3\n      and\n        /* \"contracts/SavingsToken.sol\":2715:2800  savings.withdraw(target, totalSupply() == 0 ? type(uint192).max : uint192(amountOut)) */\n      0x04\n      dup4\n      add\n        /* \"#utility.yul\":5106:5157   */\n      mstore\n      sub(shl(0xc0, 0x01), 0x01)\n        /* \"#utility.yul\":5193:5225   */\n      and\n        /* \"#utility.yul\":5173:5191   */\n      0x24\n      dup3\n      add\n        /* \"#utility.yul\":5166:5226   */\n      mstore\n        /* \"#utility.yul\":5079:5097   */\n      0x44\n      add\n        /* \"contracts/SavingsToken.sol\":2715:2800  savings.withdraw(target, totalSupply() == 0 ? type(uint192).max : uint192(amountOut)) */\n      0x20\n      mload(0x40)\n      dup1\n      dup4\n      sub\n      dup2\n      0x00\n      dup8\n      gas\n      call\n      iszero\n      dup1\n      iszero\n      tag_157\n      jumpi\n      returndatasize\n      0x00\n      dup1\n      returndatacopy\n      revert(0x00, returndatasize)\n    tag_157:\n      pop\n      pop\n      pop\n      pop\n      mload(0x40)\n      returndatasize\n      not(0x1f)\n      0x1f\n      dup3\n      add\n      and\n      dup3\n      add\n      dup1\n      0x40\n      mstore\n      pop\n      dup2\n      add\n      swap1\n      tag_158\n      swap2\n      swap1\n      tag_159\n      jump\t// in\n    tag_158:\n        /* \"contracts/SavingsToken.sol\":2847:2852  price */\n      sload(0x06)\n        /* \"contracts/SavingsToken.sol\":2810:2853  Withdrawn(target, amount, amountOut, price) */\n      0x40\n      dup1\n      mload\n        /* \"#utility.yul\":5628:5653   */\n      dup7\n      dup2\n      mstore\n        /* \"#utility.yul\":5684:5686   */\n      0x20\n        /* \"#utility.yul\":5669:5687   */\n      dup2\n      add\n        /* \"#utility.yul\":5662:5696   */\n      dup5\n      swap1\n      mstore\n        /* \"#utility.yul\":5712:5730   */\n      swap1\n      dup2\n      add\n        /* \"#utility.yul\":5705:5739   */\n      swap2\n      swap1\n      swap2\n      mstore\n        /* \"contracts/SavingsToken.sol\":2703:2800  amountOut = savings.withdraw(target, totalSupply() == 0 ? type(uint192).max : uint192(amountOut)) */\n      swap1\n      swap2\n      pop\n      sub(shl(0xa0, 0x01), 0x01)\n        /* \"contracts/SavingsToken.sol\":2810:2853  Withdrawn(target, amount, amountOut, price) */\n      dup6\n      and\n      swap1\n      0x75e161b3e824b114fc1a33274bd7091918dd4e639cede50b78b15a4eea956a21\n      swap1\n        /* \"#utility.yul\":5616:5618   */\n      0x60\n        /* \"#utility.yul\":5601:5619   */\n      add\n        /* \"contracts/SavingsToken.sol\":2810:2853  Withdrawn(target, amount, amountOut, price) */\n    tag_160:\n      mload(0x40)\n      dup1\n      swap2\n      sub\n      swap1\n      log2\n        /* \"contracts/SavingsToken.sol\":2421:2857  {... */\n      pop\n      pop\n        /* \"contracts/SavingsToken.sol\":2362:2857  function withdrawTo(address target, uint256 amount) public {... */\n      pop\n      pop\n      jump\t// out\n        /* \"@openzeppelin/contracts/token/ERC20/ERC20.sol\":4776:5020  function transferFrom(address from, address to, uint256 value) public virtual returns (bool) {... */\n    tag_60:\n        /* \"@openzeppelin/contracts/token/ERC20/ERC20.sol\":4863:4867  bool */\n      0x00\n        /* \"@openzeppelin/contracts/utils/Context.sol\":735:745  msg.sender */\n      caller\n        /* \"@openzeppelin/contracts/token/ERC20/ERC20.sol\":4919:4956  _spendAllowance(from, spender, value) */\n      tag_164\n        /* \"@openzeppelin/contracts/token/ERC20/ERC20.sol\":4935:4939  from */\n      dup6\n        /* \"@openzeppelin/contracts/utils/Context.sol\":735:745  msg.sender */\n      dup3\n        /* \"@openzeppelin/contracts/token/ERC20/ERC20.sol\":4950:4955  value */\n      dup6\n        /* \"@openzeppelin/contracts/token/ERC20/ERC20.sol\":4919:4934  _spendAllowance */\n      tag_165\n        /* \"@openzeppelin/contracts/token/ERC20/ERC20.sol\":4919:4956  _spendAllowance(from, spender, value) */\n      jump\t// in\n    tag_164:\n        /* \"@openzeppelin/contracts/token/ERC20/ERC20.sol\":4966:4992  _transfer(from, to, value) */\n      tag_166\n        /* \"@openzeppelin/contracts/token/ERC20/ERC20.sol\":4976:4980  from */\n      dup6\n        /* \"@openzeppelin/contracts/token/ERC20/ERC20.sol\":4982:4984  to */\n      dup6\n        /* \"@openzeppelin/contracts/token/ERC20/ERC20.sol\":4986:4991  value */\n      dup6\n        /* \"@openzeppelin/contracts/token/ERC20/ERC20.sol\":4966:4975  _transfer */\n      tag_167\n        /* \"@openzeppelin/contracts/token/ERC20/ERC20.sol\":4966:4992  _transfer(from, to, value) */\n      jump\t// in\n    tag_166:\n      pop\n        /* \"@openzeppelin/contracts/token/ERC20/ERC20.sol\":5009:5013  true */\n      0x01\n      swap5\n        /* \"@openzeppelin/contracts/token/ERC20/ERC20.sol\":4776:5020  function transferFrom(address from, address to, uint256 value) public virtual returns (bool) {... */\n      swap4\n      pop\n      pop\n      pop\n      pop\n      jump\t// out\n        /* \"contracts/SavingsToken.sol\":2280:2359  function withdraw(uint256 amount) public {... */\n    tag_64:\n        /* \"contracts/SavingsToken.sol\":2325:2355  withdrawTo(msg.sender, amount) */\n      tag_128\n        /* \"contracts/SavingsToken.sol\":2336:2346  msg.sender */\n      caller\n        /* \"contracts/SavingsToken.sol\":2348:2354  amount */\n      dup3\n        /* \"contracts/SavingsToken.sol\":2325:2335  withdrawTo */\n      tag_56\n        /* \"contracts/SavingsToken.sol\":2325:2355  withdrawTo(msg.sender, amount) */\n      jump\t// in\n        /* \"contracts/SavingsToken.sol\":1655:2136  function saveTo(address account, uint256 amount) public {... */\n    tag_71:\n        /* \"contracts/SavingsToken.sol\":1742:1780  savings.accruedInterest(address(this)) */\n      mload(0x40)\n      shl(0xe0, 0x77267ec3)\n      dup2\n      mstore\n        /* \"contracts/SavingsToken.sol\":1774:1778  this */\n      address\n        /* \"contracts/SavingsToken.sol\":1742:1780  savings.accruedInterest(address(this)) */\n      0x04\n      dup3\n      add\n        /* \"#utility.yul\":2735:2786   */\n      mstore\n        /* \"contracts/SavingsToken.sol\":1715:1731  uint256 interest */\n      0x00\n      swap1\n        /* \"contracts/SavingsToken.sol\":1742:1749  savings */\n      immutable(\"0xcfc9c1a657282218290355aefa191faca198f2c3c3629b9e2a6f8280ecb57b70\")\n      sub(shl(0xa0, 0x01), 0x01)\n        /* \"contracts/SavingsToken.sol\":1742:1765  savings.accruedInterest */\n      and\n      swap1\n      0x77267ec3\n      swap1\n        /* \"#utility.yul\":2708:2726   */\n      0x24\n      add\n        /* \"contracts/SavingsToken.sol\":1742:1780  savings.accruedInterest(address(this)) */\n      0x20\n      mload(0x40)\n      dup1\n      dup4\n      sub\n      dup2\n      dup7\n      gas\n      staticcall\n      iszero\n      dup1\n      iszero\n      tag_174\n      jumpi\n      returndatasize\n      0x00\n      dup1\n      returndatacopy\n      revert(0x00, returndatasize)\n    tag_174:\n      pop\n      pop\n      pop\n      pop\n      mload(0x40)\n      returndatasize\n      not(0x1f)\n      0x1f\n      dup3\n      add\n      and\n      dup3\n      add\n      dup1\n      0x40\n      mstore\n      pop\n      dup2\n      add\n      swap1\n      tag_175\n      swap2\n      swap1\n      tag_135\n      jump\t// in\n    tag_175:\n      sub(shl(0xc0, 0x01), 0x01)\n        /* \"contracts/SavingsToken.sol\":1734:1781  uint256(savings.accruedInterest(address(this))) */\n      and\n        /* \"contracts/SavingsToken.sol\":1715:1781  uint256 interest = uint256(savings.accruedInterest(address(this))) */\n      swap1\n      pop\n        /* \"contracts/SavingsToken.sol\":1801:1802  0 */\n      0x00\n        /* \"contracts/SavingsToken.sol\":1790:1798  interest */\n      dup2\n        /* \"contracts/SavingsToken.sol\":1790:1802  interest > 0 */\n      gt\n        /* \"contracts/SavingsToken.sol\":1790:1823  interest > 0 && totalSupply() > 0 */\n      dup1\n      iszero\n      tag_176\n      jumpi\n      pop\n        /* \"contracts/SavingsToken.sol\":1822:1823  0 */\n      0x00\n        /* \"contracts/SavingsToken.sol\":1806:1819  totalSupply() */\n      tag_177\n        /* \"@openzeppelin/contracts/token/ERC20/ERC20.sol\":2927:2939  _totalSupply */\n      sload(0x02)\n      swap1\n        /* \"@openzeppelin/contracts/token/ERC20/ERC20.sol\":2849:2946  function totalSupply() public view virtual returns (uint256) {... */\n      jump\n        /* \"contracts/SavingsToken.sol\":1806:1819  totalSupply() */\n    tag_177:\n        /* \"contracts/SavingsToken.sol\":1806:1823  totalSupply() > 0 */\n      gt\n        /* \"contracts/SavingsToken.sol\":1790:1823  interest > 0 && totalSupply() > 0 */\n    tag_176:\n        /* \"contracts/SavingsToken.sol\":1786:1909  if (interest > 0 && totalSupply() > 0) {... */\n      iszero\n      tag_178\n      jumpi\n        /* \"contracts/SavingsToken.sol\":1846:1854  interest */\n      dup1\n        /* \"contracts/SavingsToken.sol\":1830:1842  totalRewards */\n      0x05\n      0x00\n        /* \"contracts/SavingsToken.sol\":1830:1854  totalRewards += interest */\n      dup3\n      dup3\n      sload\n      tag_179\n      swap2\n      swap1\n      tag_140\n      jump\t// in\n    tag_179:\n      swap1\n      swap2\n      sstore\n      pop\n      pop\n        /* \"@openzeppelin/contracts/token/ERC20/ERC20.sol\":2927:2939  _totalSupply */\n      sload(0x02)\n        /* \"contracts/SavingsToken.sol\":1869:1887  interest * 1 ether */\n      tag_181\n        /* \"contracts/SavingsToken.sol\":1869:1877  interest */\n      dup3\n        /* \"contracts/SavingsToken.sol\":1880:1887  1 ether */\n      0x0de0b6b3a7640000\n        /* \"contracts/SavingsToken.sol\":1869:1887  interest * 1 ether */\n      tag_143\n      jump\t// in\n    tag_181:\n        /* \"contracts/SavingsToken.sol\":1868:1904  (interest * 1 ether) / totalSupply() */\n      tag_182\n      swap2\n      swap1\n      tag_145\n      jump\t// in\n    tag_182:\n        /* \"contracts/SavingsToken.sol\":1859:1864  price */\n      0x06\n      0x00\n        /* \"contracts/SavingsToken.sol\":1859:1904  price += (interest * 1 ether) / totalSupply() */\n      dup3\n      dup3\n      sload\n      tag_183\n      swap2\n      swap1\n      tag_140\n      jump\t// in\n    tag_183:\n      swap1\n      swap2\n      sstore\n      pop\n      pop\n        /* \"contracts/SavingsToken.sol\":1786:1909  if (interest > 0 && totalSupply() > 0) {... */\n    tag_178:\n        /* \"contracts/SavingsToken.sol\":1913:1969  zchf.safeTransferFrom(msg.sender, address(this), amount) */\n      tag_184\n      sub(shl(0xa0, 0x01), 0x01)\n        /* \"contracts/SavingsToken.sol\":1913:1917  zchf */\n      immutable(\"0x17cafedaaa5d0d04199f2152324a0dd2b33b6b1cf0de7add14d52806a812e454\")\n        /* \"contracts/SavingsToken.sol\":1913:1934  zchf.safeTransferFrom */\n      and\n        /* \"contracts/SavingsToken.sol\":1935:1945  msg.sender */\n      caller\n        /* \"contracts/SavingsToken.sol\":1955:1959  this */\n      address\n        /* \"contracts/SavingsToken.sol\":1962:1968  amount */\n      dup6\n        /* \"contracts/SavingsToken.sol\":1913:1934  zchf.safeTransferFrom */\n      tag_185\n        /* \"contracts/SavingsToken.sol\":1913:1969  zchf.safeTransferFrom(msg.sender, address(this), amount) */\n      jump\t// in\n    tag_184:\n        /* \"contracts/SavingsToken.sol\":1973:2002  savings.save(uint192(amount)) */\n      mload(0x40)\n      shl(0xe2, 0x3f512705)\n      dup2\n      mstore\n      sub(shl(0xc0, 0x01), 0x01)\n        /* \"#utility.yul\":5914:5946   */\n      dup4\n      and\n        /* \"contracts/SavingsToken.sol\":1973:2002  savings.save(uint192(amount)) */\n      0x04\n      dup3\n      add\n        /* \"#utility.yul\":5896:5947   */\n      mstore\n        /* \"contracts/SavingsToken.sol\":1973:1980  savings */\n      immutable(\"0xcfc9c1a657282218290355aefa191faca198f2c3c3629b9e2a6f8280ecb57b70\")\n      sub(shl(0xa0, 0x01), 0x01)\n        /* \"contracts/SavingsToken.sol\":1973:1985  savings.save */\n      and\n      swap1\n      0xfd449c14\n      swap1\n        /* \"#utility.yul\":5869:5887   */\n      0x24\n      add\n        /* \"contracts/SavingsToken.sol\":1973:2002  savings.save(uint192(amount)) */\n      0x00\n      mload(0x40)\n      dup1\n      dup4\n      sub\n      dup2\n      0x00\n      dup8\n      dup1\n      extcodesize\n      iszero\n      dup1\n      iszero\n      tag_188\n      jumpi\n      0x00\n      dup1\n      revert\n    tag_188:\n      pop\n      gas\n      call\n      iszero\n      dup1\n      iszero\n      tag_190\n      jumpi\n      returndatasize\n      0x00\n      dup1\n      returndatacopy\n      revert(0x00, returndatasize)\n    tag_190:\n      pop\n      pop\n      pop\n      pop\n        /* \"contracts/SavingsToken.sol\":2007:2024  uint256 amountOut */\n      0x00\n        /* \"contracts/SavingsToken.sol\":2048:2053  price */\n      sload(0x06)\n        /* \"contracts/SavingsToken.sol\":2028:2034  amount */\n      dup4\n        /* \"contracts/SavingsToken.sol\":2037:2044  1 ether */\n      0x0de0b6b3a7640000\n        /* \"contracts/SavingsToken.sol\":2028:2044  amount * 1 ether */\n      tag_191\n      swap2\n      swap1\n      tag_143\n      jump\t// in\n    tag_191:\n        /* \"contracts/SavingsToken.sol\":2027:2053  (amount * 1 ether) / price */\n      tag_192\n      swap2\n      swap1\n      tag_145\n      jump\t// in\n    tag_192:\n        /* \"contracts/SavingsToken.sol\":2007:2053  uint256 amountOut = (amount * 1 ether) / price */\n      swap1\n      pop\n        /* \"contracts/SavingsToken.sol\":2057:2082  _mint(account, amountOut) */\n      tag_193\n        /* \"contracts/SavingsToken.sol\":2063:2070  account */\n      dup5\n        /* \"contracts/SavingsToken.sol\":2072:2081  amountOut */\n      dup3\n        /* \"contracts/SavingsToken.sol\":2057:2062  _mint */\n      tag_194\n        /* \"contracts/SavingsToken.sol\":2057:2082  _mint(account, amountOut) */\n      jump\t// in\n    tag_193:\n        /* \"contracts/SavingsToken.sol\":2126:2131  price */\n      sload(0x06)\n        /* \"contracts/SavingsToken.sol\":2092:2132  Saved(account, amount, amountOut, price) */\n      0x40\n      dup1\n      mload\n        /* \"#utility.yul\":5628:5653   */\n      dup6\n      dup2\n      mstore\n        /* \"#utility.yul\":5684:5686   */\n      0x20\n        /* \"#utility.yul\":5669:5687   */\n      dup2\n      add\n        /* \"#utility.yul\":5662:5696   */\n      dup5\n      swap1\n      mstore\n        /* \"#utility.yul\":5712:5730   */\n      swap1\n      dup2\n      add\n        /* \"#utility.yul\":5705:5739   */\n      swap2\n      swap1\n      swap2\n      mstore\n      sub(shl(0xa0, 0x01), 0x01)\n        /* \"contracts/SavingsToken.sol\":2092:2132  Saved(account, amount, amountOut, price) */\n      dup6\n      and\n      swap1\n      0x710967c2c90aa017caf1df3ec721b9981e4350d9c6398f8acf4cfacd1aec73f8\n      swap1\n        /* \"#utility.yul\":5616:5618   */\n      0x60\n        /* \"#utility.yul\":5601:5619   */\n      add\n        /* \"contracts/SavingsToken.sol\":2092:2132  Saved(account, amount, amountOut, price) */\n      tag_160\n        /* \"#utility.yul\":5426:5745   */\n      jump\n        /* \"contracts/SavingsToken.sol\":3421:3582  function untilUnlocked() public view returns (uint256) {... */\n    tag_73:\n        /* \"contracts/SavingsToken.sol\":3467:3474  uint256 */\n      0x00\n        /* \"contracts/SavingsToken.sol\":3484:3496  isUnlocked() */\n      tag_197\n        /* \"contracts/SavingsToken.sol\":3484:3494  isUnlocked */\n      tag_81\n        /* \"contracts/SavingsToken.sol\":3484:3496  isUnlocked() */\n      jump\t// in\n    tag_197:\n        /* \"contracts/SavingsToken.sol\":3480:3506  if (isUnlocked()) return 0 */\n      iszero\n      tag_198\n      jumpi\n      pop\n        /* \"contracts/SavingsToken.sol\":3505:3506  0 */\n      0x00\n      swap1\n        /* \"contracts/SavingsToken.sol\":3421:3582  function untilUnlocked() public view returns (uint256) {... */\n      jump\t// out\n        /* \"contracts/SavingsToken.sol\":3480:3506  if (isUnlocked()) return 0 */\n    tag_198:\n        /* \"contracts/SavingsToken.sol\":3556:3563  savings */\n      immutable(\"0xcfc9c1a657282218290355aefa191faca198f2c3c3629b9e2a6f8280ecb57b70\")\n      sub(shl(0xa0, 0x01), 0x01)\n        /* \"contracts/SavingsToken.sol\":3556:3576  savings.currentTicks */\n      and\n      0xb079f163\n        /* \"contracts/SavingsToken.sol\":3556:3578  savings.currentTicks() */\n      mload(0x40)\n      dup2\n      0xffffffff\n      and\n      0xe0\n      shl\n      dup2\n      mstore\n      0x04\n      add\n      0x20\n      mload(0x40)\n      dup1\n      dup4\n      sub\n      dup2\n      dup7\n      gas\n      staticcall\n      iszero\n      dup1\n      iszero\n      tag_200\n      jumpi\n      returndatasize\n      0x00\n      dup1\n      returndatacopy\n      revert(0x00, returndatasize)\n    tag_200:\n      pop\n      pop\n      pop\n      pop\n      mload(0x40)\n      returndatasize\n      not(0x1f)\n      0x1f\n      dup3\n      add\n      and\n      dup3\n      add\n      dup1\n      0x40\n      mstore\n      pop\n      dup2\n      add\n      swap1\n      tag_201\n      swap2\n      swap1\n      tag_202\n      jump\t// in\n    tag_201:\n        /* \"contracts/SavingsToken.sol\":3517:3547  savings.savings(address(this)) */\n      mload(0x40)\n      shl(0xe0, 0x1f7cdd5f)\n      dup2\n      mstore\n        /* \"contracts/SavingsToken.sol\":3541:3545  this */\n      address\n        /* \"contracts/SavingsToken.sol\":3517:3547  savings.savings(address(this)) */\n      0x04\n      dup3\n      add\n        /* \"#utility.yul\":2735:2786   */\n      mstore\n        /* \"contracts/SavingsToken.sol\":3517:3524  savings */\n      immutable(\"0xcfc9c1a657282218290355aefa191faca198f2c3c3629b9e2a6f8280ecb57b70\")\n      sub(shl(0xa0, 0x01), 0x01)\n        /* \"contracts/SavingsToken.sol\":3517:3532  savings.savings */\n      and\n      swap1\n      0x1f7cdd5f\n      swap1\n        /* \"#utility.yul\":2708:2726   */\n      0x24\n      add\n        /* \"contracts/SavingsToken.sol\":3517:3547  savings.savings(address(this)) */\n      0x40\n      dup1\n      mload\n      dup1\n      dup4\n      sub\n      dup2\n      dup7\n      gas\n      staticcall\n      iszero\n      dup1\n      iszero\n      tag_205\n      jumpi\n      returndatasize\n      0x00\n      dup1\n      returndatacopy\n      revert(0x00, returndatasize)\n    tag_205:\n      pop\n      pop\n      pop\n      pop\n      mload(0x40)\n      returndatasize\n      not(0x1f)\n      0x1f\n      dup3\n      add\n      and\n      dup3\n      add\n      dup1\n      0x40\n      mstore\n      pop\n      dup2\n      add\n      swap1\n      tag_206\n      swap2\n      swap1\n      tag_207\n      jump\t// in\n    tag_206:\n        /* \"contracts/SavingsToken.sol\":3517:3553  savings.savings(address(this)).ticks */\n      0x20\n      add\n      mload\n        /* \"contracts/SavingsToken.sol\":3517:3578  savings.savings(address(this)).ticks - savings.currentTicks() */\n      tag_208\n      swap2\n      swap1\n      tag_209\n      jump\t// in\n    tag_208:\n        /* \"contracts/SavingsToken.sol\":3510:3578  return savings.savings(address(this)).ticks - savings.currentTicks() */\n      0xffffffffffffffff\n      and\n      swap1\n      pop\n        /* \"contracts/SavingsToken.sol\":3421:3582  function untilUnlocked() public view returns (uint256) {... */\n      swap1\n      jump\t// out\n        /* \"contracts/SavingsToken.sol\":3292:3418  function isUnlocked() public view returns (bool) {... */\n    tag_81:\n        /* \"contracts/SavingsToken.sol\":3378:3408  savings.savings(address(this)) */\n      mload(0x40)\n      shl(0xe0, 0x1f7cdd5f)\n      dup2\n      mstore\n        /* \"contracts/SavingsToken.sol\":3402:3406  this */\n      address\n        /* \"contracts/SavingsToken.sol\":3378:3408  savings.savings(address(this)) */\n      0x04\n      dup3\n      add\n        /* \"#utility.yul\":2735:2786   */\n      mstore\n        /* \"contracts/SavingsToken.sol\":3335:3339  bool */\n      0x00\n      swap1\n        /* \"contracts/SavingsToken.sol\":3378:3385  savings */\n      immutable(\"0xcfc9c1a657282218290355aefa191faca198f2c3c3629b9e2a6f8280ecb57b70\")\n      sub(shl(0xa0, 0x01), 0x01)\n        /* \"contracts/SavingsToken.sol\":3378:3393  savings.savings */\n      and\n      swap1\n      0x1f7cdd5f\n      swap1\n        /* \"#utility.yul\":2708:2726   */\n      0x24\n      add\n        /* \"contracts/SavingsToken.sol\":3378:3408  savings.savings(address(this)) */\n      0x40\n      dup1\n      mload\n      dup1\n      dup4\n      sub\n      dup2\n      dup7\n      gas\n      staticcall\n      iszero\n      dup1\n      iszero\n      tag_214\n      jumpi\n      returndatasize\n      0x00\n      dup1\n      returndatacopy\n      revert(0x00, returndatasize)\n    tag_214:\n      pop\n      pop\n      pop\n      pop\n      mload(0x40)\n      returndatasize\n      not(0x1f)\n      0x1f\n      dup3\n      add\n      and\n      dup3\n      add\n      dup1\n      0x40\n      mstore\n      pop\n      dup2\n      add\n      swap1\n      tag_215\n      swap2\n      swap1\n      tag_207\n      jump\t// in\n    tag_215:\n        /* \"contracts/SavingsToken.sol\":3378:3414  savings.savings(address(this)).ticks */\n      0x20\n      add\n      mload\n        /* \"contracts/SavingsToken.sol\":3352:3414  savings.currentTicks() >= savings.savings(address(this)).ticks */\n      0xffffffffffffffff\n      and\n        /* \"contracts/SavingsToken.sol\":3352:3359  savings */\n      immutable(\"0xcfc9c1a657282218290355aefa191faca198f2c3c3629b9e2a6f8280ecb57b70\")\n      sub(shl(0xa0, 0x01), 0x01)\n        /* \"contracts/SavingsToken.sol\":3352:3372  savings.currentTicks */\n      and\n      0xb079f163\n        /* \"contracts/SavingsToken.sol\":3352:3374  savings.currentTicks() */\n      mload(0x40)\n      dup2\n      0xffffffff\n      and\n      0xe0\n      shl\n      dup2\n      mstore\n      0x04\n      add\n      0x20\n      mload(0x40)\n      dup1\n      dup4\n      sub\n      dup2\n      dup7\n      gas\n      staticcall\n      iszero\n      dup1\n      iszero\n      tag_217\n      jumpi\n      returndatasize\n      0x00\n      dup1\n      returndatacopy\n      revert(0x00, returndatasize)\n    tag_217:\n      pop\n      pop\n      pop\n      pop\n      mload(0x40)\n      returndatasize\n      not(0x1f)\n      0x1f\n      dup3\n      add\n      and\n      dup3\n      add\n      dup1\n      0x40\n      mstore\n      pop\n      dup2\n      add\n      swap1\n      tag_218\n      swap2\n      swap1\n      tag_202\n      jump\t// in\n    tag_218:\n        /* \"contracts/SavingsToken.sol\":3352:3414  savings.currentTicks() >= savings.savings(address(this)).ticks */\n      0xffffffffffffffff\n      and\n      lt\n      iszero\n        /* \"contracts/SavingsToken.sol\":3345:3414  return savings.currentTicks() >= savings.savings(address(this)).ticks */\n      swap1\n      pop\n        /* \"contracts/SavingsToken.sol\":3292:3418  function isUnlocked() public view returns (bool) {... */\n      swap1\n      jump\t// out\n        /* \"@openzeppelin/contracts/token/ERC20/ERC20.sol\":1981:2074  function symbol() public view virtual returns (string memory) {... */\n    tag_84:\n        /* \"@openzeppelin/contracts/token/ERC20/ERC20.sol\":2028:2041  string memory */\n      0x60\n        /* \"@openzeppelin/contracts/token/ERC20/ERC20.sol\":2060:2067  _symbol */\n      0x04\n        /* \"@openzeppelin/contracts/token/ERC20/ERC20.sol\":2053:2067  return _symbol */\n      dup1\n      sload\n      tag_115\n      swap1\n      tag_116\n      jump\t// in\n        /* \"@openzeppelin/contracts/token/ERC20/ERC20.sol\":3315:3493  function transfer(address to, uint256 value) public virtual returns (bool) {... */\n    tag_91:\n        /* \"@openzeppelin/contracts/token/ERC20/ERC20.sol\":3384:3388  bool */\n      0x00\n        /* \"@openzeppelin/contracts/utils/Context.sol\":735:745  msg.sender */\n      caller\n        /* \"@openzeppelin/contracts/token/ERC20/ERC20.sol\":3438:3465  _transfer(owner, to, value) */\n      tag_124\n        /* \"@openzeppelin/contracts/utils/Context.sol\":735:745  msg.sender */\n      dup2\n        /* \"@openzeppelin/contracts/token/ERC20/ERC20.sol\":3455:3457  to */\n      dup6\n        /* \"@openzeppelin/contracts/token/ERC20/ERC20.sol\":3459:3464  value */\n      dup6\n        /* \"@openzeppelin/contracts/token/ERC20/ERC20.sol\":3438:3447  _transfer */\n      tag_167\n        /* \"@openzeppelin/contracts/token/ERC20/ERC20.sol\":3438:3465  _transfer(owner, to, value) */\n      jump\t// in\n        /* \"contracts/SavingsToken.sol\":2953:3099  function totalBalance() public view returns (uint256) {... */\n    tag_94:\n        /* \"contracts/SavingsToken.sol\":3057:3095  savings.accruedInterest(address(this)) */\n      mload(0x40)\n      shl(0xe0, 0x77267ec3)\n      dup2\n      mstore\n        /* \"contracts/SavingsToken.sol\":3089:3093  this */\n      address\n        /* \"contracts/SavingsToken.sol\":3057:3095  savings.accruedInterest(address(this)) */\n      0x04\n      dup3\n      add\n        /* \"#utility.yul\":2735:2786   */\n      mstore\n        /* \"contracts/SavingsToken.sol\":2998:3005  uint256 */\n      0x00\n      swap1\n        /* \"contracts/SavingsToken.sol\":3057:3064  savings */\n      immutable(\"0xcfc9c1a657282218290355aefa191faca198f2c3c3629b9e2a6f8280ecb57b70\")\n      sub(shl(0xa0, 0x01), 0x01)\n        /* \"contracts/SavingsToken.sol\":3057:3080  savings.accruedInterest */\n      and\n      swap1\n      0x77267ec3\n      swap1\n        /* \"#utility.yul\":2708:2726   */\n      0x24\n      add\n        /* \"contracts/SavingsToken.sol\":3057:3095  savings.accruedInterest(address(this)) */\n      0x20\n      mload(0x40)\n      dup1\n      dup4\n      sub\n      dup2\n      dup7\n      gas\n      staticcall\n      iszero\n      dup1\n      iszero\n      tag_231\n      jumpi\n      returndatasize\n      0x00\n      dup1\n      returndatacopy\n      revert(0x00, returndatasize)\n    tag_231:\n      pop\n      pop\n      pop\n      pop\n      mload(0x40)\n      returndatasize\n      not(0x1f)\n      0x1f\n      dup3\n      add\n      and\n      dup3\n      add\n      dup1\n      0x40\n      mstore\n      pop\n      dup2\n      add\n      swap1\n      tag_232\n      swap2\n      swap1\n      tag_135\n      jump\t// in\n    tag_232:\n        /* \"contracts/SavingsToken.sol\":3018:3048  savings.savings(address(this)) */\n      mload(0x40)\n      shl(0xe0, 0x1f7cdd5f)\n      dup2\n      mstore\n        /* \"contracts/SavingsToken.sol\":3042:3046  this */\n      address\n        /* \"contracts/SavingsToken.sol\":3018:3048  savings.savings(address(this)) */\n      0x04\n      dup3\n      add\n        /* \"#utility.yul\":2735:2786   */\n      mstore\n        /* \"contracts/SavingsToken.sol\":3018:3025  savings */\n      immutable(\"0xcfc9c1a657282218290355aefa191faca198f2c3c3629b9e2a6f8280ecb57b70\")\n      sub(shl(0xa0, 0x01), 0x01)\n        /* \"contracts/SavingsToken.sol\":3018:3033  savings.savings */\n      and\n      swap1\n      0x1f7cdd5f\n      swap1\n        /* \"#utility.yul\":2708:2726   */\n      0x24\n      add\n        /* \"contracts/SavingsToken.sol\":3018:3048  savings.savings(address(this)) */\n      0x40\n      dup1\n      mload\n      dup1\n      dup4\n      sub\n      dup2\n      dup7\n      gas\n      staticcall\n      iszero\n      dup1\n      iszero\n      tag_235\n      jumpi\n      returndatasize\n      0x00\n      dup1\n      returndatacopy\n      revert(0x00, returndatasize)\n    tag_235:\n      pop\n      pop\n      pop\n      pop\n      mload(0x40)\n      returndatasize\n      not(0x1f)\n      0x1f\n      dup3\n      add\n      and\n      dup3\n      add\n      dup1\n      0x40\n      mstore\n      pop\n      dup2\n      add\n      swap1\n      tag_236\n      swap2\n      swap1\n      tag_207\n      jump\t// in\n    tag_236:\n        /* \"contracts/SavingsToken.sol\":3018:3054  savings.savings(address(this)).saved */\n      mload\n        /* \"contracts/SavingsToken.sol\":3018:3095  savings.savings(address(this)).saved + savings.accruedInterest(address(this)) */\n      tag_237\n      swap2\n      swap1\n      tag_238\n      jump\t// in\n    tag_237:\n      sub(shl(0xc0, 0x01), 0x01)\n        /* \"contracts/SavingsToken.sol\":3011:3095  return savings.savings(address(this)).saved + savings.accruedInterest(address(this)) */\n      and\n      swap1\n      pop\n        /* \"contracts/SavingsToken.sol\":2953:3099  function totalBalance() public view returns (uint256) {... */\n      swap1\n      jump\t// out\n        /* \"contracts/SavingsToken.sol\":3102:3289  function saverBalance(address account) public view returns (uint256) {... */\n    tag_111:\n        /* \"contracts/SavingsToken.sol\":3162:3169  uint256 */\n      0x00\n        /* \"contracts/SavingsToken.sol\":3175:3187  uint256 totS */\n      dup1\n        /* \"contracts/SavingsToken.sol\":3190:3203  totalSupply() */\n      tag_241\n        /* \"@openzeppelin/contracts/token/ERC20/ERC20.sol\":2927:2939  _totalSupply */\n      sload(0x02)\n      swap1\n        /* \"@openzeppelin/contracts/token/ERC20/ERC20.sol\":2849:2946  function totalSupply() public view virtual returns (uint256) {... */\n      jump\n        /* \"contracts/SavingsToken.sol\":3190:3203  totalSupply() */\n    tag_241:\n        /* \"contracts/SavingsToken.sol\":3175:3203  uint256 totS = totalSupply() */\n      swap1\n      pop\n        /* \"contracts/SavingsToken.sol\":3211:3215  totS */\n      dup1\n        /* \"contracts/SavingsToken.sol\":3219:3220  0 */\n      0x00\n        /* \"contracts/SavingsToken.sol\":3211:3220  totS == 0 */\n      sub\n        /* \"contracts/SavingsToken.sol\":3207:3230  if (totS == 0) return 0 */\n      tag_242\n      jumpi\n      pop\n        /* \"contracts/SavingsToken.sol\":3229:3230  0 */\n      0x00\n      swap3\n        /* \"contracts/SavingsToken.sol\":3102:3289  function saverBalance(address account) public view returns (uint256) {... */\n      swap2\n      pop\n      pop\n      jump\t// out\n        /* \"contracts/SavingsToken.sol\":3207:3230  if (totS == 0) return 0 */\n    tag_242:\n        /* \"contracts/SavingsToken.sol\":3281:3285  totS */\n      dup1\n        /* \"contracts/SavingsToken.sol\":3259:3277  balanceOf(account) */\n      tag_243\n        /* \"contracts/SavingsToken.sol\":3269:3276  account */\n      dup5\n      sub(shl(0xa0, 0x01), 0x01)\n        /* \"@openzeppelin/contracts/token/ERC20/ERC20.sol\":3095:3113  _balances[account] */\n      and\n        /* \"@openzeppelin/contracts/token/ERC20/ERC20.sol\":3069:3076  uint256 */\n      0x00\n        /* \"@openzeppelin/contracts/token/ERC20/ERC20.sol\":3095:3113  _balances[account] */\n      swap1\n      dup2\n      mstore\n      0x20\n      dup2\n      swap1\n      mstore\n      0x40\n      swap1\n      keccak256\n      sload\n      swap1\n        /* \"@openzeppelin/contracts/token/ERC20/ERC20.sol\":3004:3120  function balanceOf(address account) public view virtual returns (uint256) {... */\n      jump\n        /* \"contracts/SavingsToken.sol\":3259:3277  balanceOf(account) */\n    tag_243:\n        /* \"contracts/SavingsToken.sol\":3242:3256  totalBalance() */\n      tag_244\n        /* \"contracts/SavingsToken.sol\":3242:3254  totalBalance */\n      tag_94\n        /* \"contracts/SavingsToken.sol\":3242:3256  totalBalance() */\n      jump\t// in\n    tag_244:\n        /* \"contracts/SavingsToken.sol\":3242:3277  totalBalance() * balanceOf(account) */\n      tag_245\n      swap2\n      swap1\n      tag_143\n      jump\t// in\n    tag_245:\n        /* \"contracts/SavingsToken.sol\":3241:3285  (totalBalance() * balanceOf(account)) / totS */\n      tag_246\n      swap2\n      swap1\n      tag_145\n      jump\t// in\n    tag_246:\n        /* \"contracts/SavingsToken.sol\":3234:3285  return (totalBalance() * balanceOf(account)) / totS */\n      swap4\n        /* \"contracts/SavingsToken.sol\":3102:3289  function saverBalance(address account) public view returns (uint256) {... */\n      swap3\n      pop\n      pop\n      pop\n      jump\t// out\n        /* \"@openzeppelin/contracts/token/ERC20/ERC20.sol\":8726:8854  function _approve(address owner, address spender, uint256 value) internal {... */\n    tag_125:\n        /* \"@openzeppelin/contracts/token/ERC20/ERC20.sol\":8810:8847  _approve(owner, spender, value, true) */\n      tag_249\n        /* \"@openzeppelin/contracts/token/ERC20/ERC20.sol\":8819:8824  owner */\n      dup4\n        /* \"@openzeppelin/contracts/token/ERC20/ERC20.sol\":8826:8833  spender */\n      dup4\n        /* \"@openzeppelin/contracts/token/ERC20/ERC20.sol\":8835:8840  value */\n      dup4\n        /* \"@openzeppelin/contracts/token/ERC20/ERC20.sol\":8842:8846  true */\n      0x01\n        /* \"@openzeppelin/contracts/token/ERC20/ERC20.sol\":8810:8818  _approve */\n      tag_250\n        /* \"@openzeppelin/contracts/token/ERC20/ERC20.sol\":8810:8847  _approve(owner, spender, value, true) */\n      jump\t// in\n    tag_249:\n        /* \"@openzeppelin/contracts/token/ERC20/ERC20.sol\":8726:8854  function _approve(address owner, address spender, uint256 value) internal {... */\n      pop\n      pop\n      pop\n      jump\t// out\n        /* \"@openzeppelin/contracts/token/ERC20/ERC20.sol\":7984:8190  function _burn(address account, uint256 value) internal {... */\n    tag_148:\n      sub(shl(0xa0, 0x01), 0x01)\n        /* \"@openzeppelin/contracts/token/ERC20/ERC20.sol\":8054:8075  account == address(0) */\n      dup3\n      and\n        /* \"@openzeppelin/contracts/token/ERC20/ERC20.sol\":8050:8139  if (account == address(0)) {... */\n      tag_252\n      jumpi\n        /* \"@openzeppelin/contracts/token/ERC20/ERC20.sol\":8098:8128  ERC20InvalidSender(address(0)) */\n      mload(0x40)\n      shl(0xe1, 0x4b637e8f)\n      dup2\n      mstore\n        /* \"@openzeppelin/contracts/token/ERC20/ERC20.sol\":8125:8126  0 */\n      0x00\n        /* \"@openzeppelin/contracts/token/ERC20/ERC20.sol\":8098:8128  ERC20InvalidSender(address(0)) */\n      0x04\n      dup3\n      add\n        /* \"#utility.yul\":2735:2786   */\n      mstore\n        /* \"#utility.yul\":2708:2726   */\n      0x24\n      add\n        /* \"@openzeppelin/contracts/token/ERC20/ERC20.sol\":8098:8128  ERC20InvalidSender(address(0)) */\n    tag_253:\n      mload(0x40)\n      dup1\n      swap2\n      sub\n      swap1\n      revert\n        /* \"@openzeppelin/contracts/token/ERC20/ERC20.sol\":8050:8139  if (account == address(0)) {... */\n    tag_252:\n        /* \"@openzeppelin/contracts/token/ERC20/ERC20.sol\":8148:8183  _update(account, address(0), value) */\n      tag_254\n        /* \"@openzeppelin/contracts/token/ERC20/ERC20.sol\":8156:8163  account */\n      dup3\n        /* \"@openzeppelin/contracts/token/ERC20/ERC20.sol\":8173:8174  0 */\n      0x00\n        /* \"@openzeppelin/contracts/token/ERC20/ERC20.sol\":8177:8182  value */\n      dup4\n        /* \"@openzeppelin/contracts/token/ERC20/ERC20.sol\":8148:8155  _update */\n      tag_255\n        /* \"@openzeppelin/contracts/token/ERC20/ERC20.sol\":8148:8183  _update(account, address(0), value) */\n      jump\t// in\n    tag_254:\n        /* \"@openzeppelin/contracts/token/ERC20/ERC20.sol\":7984:8190  function _burn(address account, uint256 value) internal {... */\n      pop\n      pop\n      jump\t// out\n        /* \"@openzeppelin/contracts/token/ERC20/ERC20.sol\":10415:10892  function _spendAllowance(address owner, address spender, uint256 value) internal virtual {... */\n    tag_165:\n      sub(shl(0xa0, 0x01), 0x01)\n        /* \"@openzeppelin/contracts/token/ERC20/ERC20.sol\":3657:3675  _allowances[owner] */\n      dup4\n      dup2\n      and\n        /* \"@openzeppelin/contracts/token/ERC20/ERC20.sol\":10514:10538  uint256 currentAllowance */\n      0x00\n        /* \"@openzeppelin/contracts/token/ERC20/ERC20.sol\":3657:3675  _allowances[owner] */\n      swap1\n      dup2\n      mstore\n        /* \"@openzeppelin/contracts/token/ERC20/ERC20.sol\":3657:3668  _allowances */\n      0x01\n        /* \"@openzeppelin/contracts/token/ERC20/ERC20.sol\":3657:3675  _allowances[owner] */\n      0x20\n      swap1\n      dup2\n      mstore\n      0x40\n      dup1\n      dup4\n      keccak256\n        /* \"@openzeppelin/contracts/token/ERC20/ERC20.sol\":3657:3684  _allowances[owner][spender] */\n      swap4\n      dup7\n      and\n      dup4\n      mstore\n      swap3\n      swap1\n      mstore\n      keccak256\n      sload\n      not(0x00)\n        /* \"@openzeppelin/contracts/token/ERC20/ERC20.sol\":10580:10617  currentAllowance != type(uint256).max */\n      dup2\n      eq\n        /* \"@openzeppelin/contracts/token/ERC20/ERC20.sol\":10576:10886  if (currentAllowance != type(uint256).max) {... */\n      tag_262\n      jumpi\n        /* \"@openzeppelin/contracts/token/ERC20/ERC20.sol\":10656:10661  value */\n      dup2\n        /* \"@openzeppelin/contracts/token/ERC20/ERC20.sol\":10637:10653  currentAllowance */\n      dup2\n        /* \"@openzeppelin/contracts/token/ERC20/ERC20.sol\":10637:10661  currentAllowance < value */\n      lt\n        /* \"@openzeppelin/contracts/token/ERC20/ERC20.sol\":10633:10763  if (currentAllowance < value) {... */\n      iszero\n      tag_259\n      jumpi\n        /* \"@openzeppelin/contracts/token/ERC20/ERC20.sol\":10688:10748  ERC20InsufficientAllowance(spender, currentAllowance, value) */\n      mload(0x40)\n      shl(0xe1, 0x7dc7a0d9)\n      dup2\n      mstore\n      sub(shl(0xa0, 0x01), 0x01)\n        /* \"#utility.yul\":7655:7687   */\n      dup5\n      and\n        /* \"@openzeppelin/contracts/token/ERC20/ERC20.sol\":10688:10748  ERC20InsufficientAllowance(spender, currentAllowance, value) */\n      0x04\n      dup3\n      add\n        /* \"#utility.yul\":7637:7688   */\n      mstore\n        /* \"#utility.yul\":7704:7722   */\n      0x24\n      dup2\n      add\n        /* \"#utility.yul\":7697:7731   */\n      dup3\n      swap1\n      mstore\n        /* \"#utility.yul\":7747:7765   */\n      0x44\n      dup2\n      add\n        /* \"#utility.yul\":7740:7774   */\n      dup4\n      swap1\n      mstore\n        /* \"#utility.yul\":7610:7628   */\n      0x64\n      add\n        /* \"@openzeppelin/contracts/token/ERC20/ERC20.sol\":10688:10748  ERC20InsufficientAllowance(spender, currentAllowance, value) */\n      tag_253\n        /* \"#utility.yul\":7435:7780   */\n      jump\n        /* \"@openzeppelin/contracts/token/ERC20/ERC20.sol\":10633:10763  if (currentAllowance < value) {... */\n    tag_259:\n        /* \"@openzeppelin/contracts/token/ERC20/ERC20.sol\":10804:10861  _approve(owner, spender, currentAllowance - value, false) */\n      tag_262\n        /* \"@openzeppelin/contracts/token/ERC20/ERC20.sol\":10813:10818  owner */\n      dup5\n        /* \"@openzeppelin/contracts/token/ERC20/ERC20.sol\":10820:10827  spender */\n      dup5\n        /* \"@openzeppelin/contracts/token/ERC20/ERC20.sol\":10848:10853  value */\n      dup5\n        /* \"@openzeppelin/contracts/token/ERC20/ERC20.sol\":10829:10845  currentAllowance */\n      dup5\n        /* \"@openzeppelin/contracts/token/ERC20/ERC20.sol\":10829:10853  currentAllowance - value */\n      sub\n        /* \"@openzeppelin/contracts/token/ERC20/ERC20.sol\":10855:10860  false */\n      0x00\n        /* \"@openzeppelin/contracts/token/ERC20/ERC20.sol\":10804:10812  _approve */\n      tag_250\n        /* \"@openzeppelin/contracts/token/ERC20/ERC20.sol\":10804:10861  _approve(owner, spender, currentAllowance - value, false) */\n      jump\t// in\n    tag_262:\n        /* \"@openzeppelin/contracts/token/ERC20/ERC20.sol\":10504:10892  {... */\n      pop\n        /* \"@openzeppelin/contracts/token/ERC20/ERC20.sol\":10415:10892  function _spendAllowance(address owner, address spender, uint256 value) internal virtual {... */\n      pop\n      pop\n      pop\n      jump\t// out\n        /* \"@openzeppelin/contracts/token/ERC20/ERC20.sol\":5393:5693  function _transfer(address from, address to, uint256 value) internal {... */\n    tag_167:\n      sub(shl(0xa0, 0x01), 0x01)\n        /* \"@openzeppelin/contracts/token/ERC20/ERC20.sol\":5476:5494  from == address(0) */\n      dup4\n      and\n        /* \"@openzeppelin/contracts/token/ERC20/ERC20.sol\":5472:5558  if (from == address(0)) {... */\n      tag_264\n      jumpi\n        /* \"@openzeppelin/contracts/token/ERC20/ERC20.sol\":5517:5547  ERC20InvalidSender(address(0)) */\n      mload(0x40)\n      shl(0xe1, 0x4b637e8f)\n      dup2\n      mstore\n        /* \"@openzeppelin/contracts/token/ERC20/ERC20.sol\":5544:5545  0 */\n      0x00\n        /* \"@openzeppelin/contracts/token/ERC20/ERC20.sol\":5517:5547  ERC20InvalidSender(address(0)) */\n      0x04\n      dup3\n      add\n        /* \"#utility.yul\":2735:2786   */\n      mstore\n        /* \"#utility.yul\":2708:2726   */\n      0x24\n      add\n        /* \"@openzeppelin/contracts/token/ERC20/ERC20.sol\":5517:5547  ERC20InvalidSender(address(0)) */\n      tag_253\n        /* \"#utility.yul\":2575:2792   */\n      jump\n        /* \"@openzeppelin/contracts/token/ERC20/ERC20.sol\":5472:5558  if (from == address(0)) {... */\n    tag_264:\n      sub(shl(0xa0, 0x01), 0x01)\n        /* \"@openzeppelin/contracts/token/ERC20/ERC20.sol\":5571:5587  to == address(0) */\n      dup3\n      and\n        /* \"@openzeppelin/contracts/token/ERC20/ERC20.sol\":5567:5653  if (to == address(0)) {... */\n      tag_266\n      jumpi\n        /* \"@openzeppelin/contracts/token/ERC20/ERC20.sol\":5610:5642  ERC20InvalidReceiver(address(0)) */\n      mload(0x40)\n      shl(0xe0, 0xec442f05)\n      dup2\n      mstore\n        /* \"@openzeppelin/contracts/token/ERC20/ERC20.sol\":5639:5640  0 */\n      0x00\n        /* \"@openzeppelin/contracts/token/ERC20/ERC20.sol\":5610:5642  ERC20InvalidReceiver(address(0)) */\n      0x04\n      dup3\n      add\n        /* \"#utility.yul\":2735:2786   */\n      mstore\n        /* \"#utility.yul\":2708:2726   */\n      0x24\n      add\n        /* \"@openzeppelin/contracts/token/ERC20/ERC20.sol\":5610:5642  ERC20InvalidReceiver(address(0)) */\n      tag_253\n        /* \"#utility.yul\":2575:2792   */\n      jump\n        /* \"@openzeppelin/contracts/token/ERC20/ERC20.sol\":5567:5653  if (to == address(0)) {... */\n    tag_266:\n        /* \"@openzeppelin/contracts/token/ERC20/ERC20.sol\":5662:5686  _update(from, to, value) */\n      tag_249\n        /* \"@openzeppelin/contracts/token/ERC20/ERC20.sol\":5670:5674  from */\n      dup4\n        /* \"@openzeppelin/contracts/token/ERC20/ERC20.sol\":5676:5678  to */\n      dup4\n        /* \"@openzeppelin/contracts/token/ERC20/ERC20.sol\":5680:5685  value */\n      dup4\n        /* \"@openzeppelin/contracts/token/ERC20/ERC20.sol\":5662:5669  _update */\n      tag_255\n        /* \"@openzeppelin/contracts/token/ERC20/ERC20.sol\":5662:5686  _update(from, to, value) */\n      jump\t// in\n        /* \"@openzeppelin/contracts/token/ERC20/utils/SafeERC20.sol\":1670:1858  function safeTransferFrom(IERC20 token, address from, address to, uint256 value) internal {... */\n    tag_185:\n        /* \"@openzeppelin/contracts/token/ERC20/utils/SafeERC20.sol\":1797:1850  abi.encodeCall(token.transferFrom, (from, to, value)) */\n      0x40\n      dup1\n      mload\n      sub(shl(0xa0, 0x01), 0x01)\n        /* \"#utility.yul\":8005:8037   */\n      dup6\n      dup2\n      and\n        /* \"@openzeppelin/contracts/token/ERC20/utils/SafeERC20.sol\":1797:1850  abi.encodeCall(token.transferFrom, (from, to, value)) */\n      0x24\n      dup4\n      add\n        /* \"#utility.yul\":7987:8038   */\n      mstore\n        /* \"#utility.yul\":8074:8106   */\n      dup5\n      and\n        /* \"#utility.yul\":8054:8072   */\n      0x44\n      dup3\n      add\n        /* \"#utility.yul\":8047:8107   */\n      mstore\n        /* \"#utility.yul\":8123:8141   */\n      0x64\n      dup1\n      dup3\n      add\n        /* \"#utility.yul\":8116:8150   */\n      dup5\n      swap1\n      mstore\n        /* \"@openzeppelin/contracts/token/ERC20/utils/SafeERC20.sol\":1797:1850  abi.encodeCall(token.transferFrom, (from, to, value)) */\n      dup3\n      mload\n      dup1\n      dup4\n      sub\n      swap1\n      swap2\n      add\n      dup2\n      mstore\n        /* \"#utility.yul\":7960:7978   */\n      0x84\n      swap1\n      swap2\n      add\n        /* \"@openzeppelin/contracts/token/ERC20/utils/SafeERC20.sol\":1797:1850  abi.encodeCall(token.transferFrom, (from, to, value)) */\n      swap1\n      swap2\n      mstore\n      0x20\n      dup2\n      add\n      dup1\n      mload\n      sub(shl(0xe0, 0x01), 0x01)\n      and\n      shl(0xe0, 0x23b872dd)\n      or\n      swap1\n      mstore\n        /* \"@openzeppelin/contracts/token/ERC20/utils/SafeERC20.sol\":1770:1851  _callOptionalReturn(token, abi.encodeCall(token.transferFrom, (from, to, value))) */\n      tag_262\n      swap1\n        /* \"@openzeppelin/contracts/token/ERC20/utils/SafeERC20.sol\":1790:1795  token */\n      dup6\n      swap1\n        /* \"@openzeppelin/contracts/token/ERC20/utils/SafeERC20.sol\":1770:1789  _callOptionalReturn */\n      tag_273\n        /* \"@openzeppelin/contracts/token/ERC20/utils/SafeERC20.sol\":1770:1851  _callOptionalReturn(token, abi.encodeCall(token.transferFrom, (from, to, value))) */\n      jump\t// in\n        /* \"@openzeppelin/contracts/token/ERC20/ERC20.sol\":7458:7666  function _mint(address account, uint256 value) internal {... */\n    tag_194:\n      sub(shl(0xa0, 0x01), 0x01)\n        /* \"@openzeppelin/contracts/token/ERC20/ERC20.sol\":7528:7549  account == address(0) */\n      dup3\n      and\n        /* \"@openzeppelin/contracts/token/ERC20/ERC20.sol\":7524:7615  if (account == address(0)) {... */\n      tag_275\n      jumpi\n        /* \"@openzeppelin/contracts/token/ERC20/ERC20.sol\":7572:7604  ERC20InvalidReceiver(address(0)) */\n      mload(0x40)\n      shl(0xe0, 0xec442f05)\n      dup2\n      mstore\n        /* \"@openzeppelin/contracts/token/ERC20/ERC20.sol\":7601:7602  0 */\n      0x00\n        /* \"@openzeppelin/contracts/token/ERC20/ERC20.sol\":7572:7604  ERC20InvalidReceiver(address(0)) */\n      0x04\n      dup3\n      add\n        /* \"#utility.yul\":2735:2786   */\n      mstore\n        /* \"#utility.yul\":2708:2726   */\n      0x24\n      add\n        /* \"@openzeppelin/contracts/token/ERC20/ERC20.sol\":7572:7604  ERC20InvalidReceiver(address(0)) */\n      tag_253\n        /* \"#utility.yul\":2575:2792   */\n      jump\n        /* \"@openzeppelin/contracts/token/ERC20/ERC20.sol\":7524:7615  if (account == address(0)) {... */\n    tag_275:\n        /* \"@openzeppelin/contracts/token/ERC20/ERC20.sol\":7624:7659  _update(address(0), account, value) */\n      tag_254\n        /* \"@openzeppelin/contracts/token/ERC20/ERC20.sol\":7640:7641  0 */\n      0x00\n        /* \"@openzeppelin/contracts/token/ERC20/ERC20.sol\":7644:7651  account */\n      dup4\n        /* \"@openzeppelin/contracts/token/ERC20/ERC20.sol\":7653:7658  value */\n      dup4\n        /* \"@openzeppelin/contracts/token/ERC20/ERC20.sol\":7624:7631  _update */\n      tag_255\n        /* \"@openzeppelin/contracts/token/ERC20/ERC20.sol\":7624:7659  _update(address(0), account, value) */\n      jump\t// in\n        /* \"@openzeppelin/contracts/token/ERC20/ERC20.sol\":9701:10133  function _approve(address owner, address spender, uint256 value, bool emitEvent) internal virtual {... */\n    tag_250:\n      sub(shl(0xa0, 0x01), 0x01)\n        /* \"@openzeppelin/contracts/token/ERC20/ERC20.sol\":9813:9832  owner == address(0) */\n      dup5\n      and\n        /* \"@openzeppelin/contracts/token/ERC20/ERC20.sol\":9809:9898  if (owner == address(0)) {... */\n      tag_279\n      jumpi\n        /* \"@openzeppelin/contracts/token/ERC20/ERC20.sol\":9855:9887  ERC20InvalidApprover(address(0)) */\n      mload(0x40)\n      shl(0xe0, 0xe602df05)\n      dup2\n      mstore\n        /* \"@openzeppelin/contracts/token/ERC20/ERC20.sol\":9884:9885  0 */\n      0x00\n        /* \"@openzeppelin/contracts/token/ERC20/ERC20.sol\":9855:9887  ERC20InvalidApprover(address(0)) */\n      0x04\n      dup3\n      add\n        /* \"#utility.yul\":2735:2786   */\n      mstore\n        /* \"#utility.yul\":2708:2726   */\n      0x24\n      add\n        /* \"@openzeppelin/contracts/token/ERC20/ERC20.sol\":9855:9887  ERC20InvalidApprover(address(0)) */\n      tag_253\n        /* \"#utility.yul\":2575:2792   */\n      jump\n        /* \"@openzeppelin/contracts/token/ERC20/ERC20.sol\":9809:9898  if (owner == address(0)) {... */\n    tag_279:\n      sub(shl(0xa0, 0x01), 0x01)\n        /* \"@openzeppelin/contracts/token/ERC20/ERC20.sol\":9911:9932  spender == address(0) */\n      dup4\n      and\n        /* \"@openzeppelin/contracts/token/ERC20/ERC20.sol\":9907:9997  if (spender == address(0)) {... */\n      tag_281\n      jumpi\n        /* \"@openzeppelin/contracts/token/ERC20/ERC20.sol\":9955:9986  ERC20InvalidSpender(address(0)) */\n      mload(0x40)\n      shl(0xe1, 0x4a1406b1)\n      dup2\n      mstore\n        /* \"@openzeppelin/contracts/token/ERC20/ERC20.sol\":9983:9984  0 */\n      0x00\n        /* \"@openzeppelin/contracts/token/ERC20/ERC20.sol\":9955:9986  ERC20InvalidSpender(address(0)) */\n      0x04\n      dup3\n      add\n        /* \"#utility.yul\":2735:2786   */\n      mstore\n        /* \"#utility.yul\":2708:2726   */\n      0x24\n      add\n        /* \"@openzeppelin/contracts/token/ERC20/ERC20.sol\":9955:9986  ERC20InvalidSpender(address(0)) */\n      tag_253\n        /* \"#utility.yul\":2575:2792   */\n      jump\n        /* \"@openzeppelin/contracts/token/ERC20/ERC20.sol\":9907:9997  if (spender == address(0)) {... */\n    tag_281:\n      sub(shl(0xa0, 0x01), 0x01)\n        /* \"@openzeppelin/contracts/token/ERC20/ERC20.sol\":10006:10024  _allowances[owner] */\n      dup1\n      dup6\n      and\n      0x00\n      swap1\n      dup2\n      mstore\n        /* \"@openzeppelin/contracts/token/ERC20/ERC20.sol\":10006:10017  _allowances */\n      0x01\n        /* \"@openzeppelin/contracts/token/ERC20/ERC20.sol\":10006:10024  _allowances[owner] */\n      0x20\n      swap1\n      dup2\n      mstore\n      0x40\n      dup1\n      dup4\n      keccak256\n        /* \"@openzeppelin/contracts/token/ERC20/ERC20.sol\":10006:10033  _allowances[owner][spender] */\n      swap4\n      dup8\n      and\n      dup4\n      mstore\n      swap3\n      swap1\n      mstore\n      keccak256\n        /* \"@openzeppelin/contracts/token/ERC20/ERC20.sol\":10006:10041  _allowances[owner][spender] = value */\n      dup3\n      swap1\n      sstore\n        /* \"@openzeppelin/contracts/token/ERC20/ERC20.sol\":10051:10127  if (emitEvent) {... */\n      dup1\n      iszero\n      tag_262\n      jumpi\n        /* \"@openzeppelin/contracts/token/ERC20/ERC20.sol\":10101:10108  spender */\n      dup3\n      sub(shl(0xa0, 0x01), 0x01)\n        /* \"@openzeppelin/contracts/token/ERC20/ERC20.sol\":10085:10116  Approval(owner, spender, value) */\n      and\n        /* \"@openzeppelin/contracts/token/ERC20/ERC20.sol\":10094:10099  owner */\n      dup5\n      sub(shl(0xa0, 0x01), 0x01)\n        /* \"@openzeppelin/contracts/token/ERC20/ERC20.sol\":10085:10116  Approval(owner, spender, value) */\n      and\n      0x8c5be1e5ebec7d5bd14f71427d1e84f3dd0314c0f7b2291e5b200ac8c7c3b925\n        /* \"@openzeppelin/contracts/token/ERC20/ERC20.sol\":10110:10115  value */\n      dup5\n        /* \"@openzeppelin/contracts/token/ERC20/ERC20.sol\":10085:10116  Approval(owner, spender, value) */\n      mload(0x40)\n      tag_284\n      swap2\n        /* \"#utility.yul\":1549:1574   */\n      dup2\n      mstore\n        /* \"#utility.yul\":1537:1539   */\n      0x20\n        /* \"#utility.yul\":1522:1540   */\n      add\n      swap1\n        /* \"#utility.yul\":1403:1580   */\n      jump\n        /* \"@openzeppelin/contracts/token/ERC20/ERC20.sol\":10085:10116  Approval(owner, spender, value) */\n    tag_284:\n      mload(0x40)\n      dup1\n      swap2\n      sub\n      swap1\n      log3\n        /* \"@openzeppelin/contracts/token/ERC20/ERC20.sol\":9701:10133  function _approve(address owner, address spender, uint256 value, bool emitEvent) internal virtual {... */\n      pop\n      pop\n      pop\n      pop\n      jump\t// out\n        /* \"@openzeppelin/contracts/token/ERC20/ERC20.sol\":6008:7115  function _update(address from, address to, uint256 value) internal virtual {... */\n    tag_255:\n      sub(shl(0xa0, 0x01), 0x01)\n        /* \"@openzeppelin/contracts/token/ERC20/ERC20.sol\":6097:6115  from == address(0) */\n      dup4\n      and\n        /* \"@openzeppelin/contracts/token/ERC20/ERC20.sol\":6093:6633  if (from == address(0)) {... */\n      tag_286\n      jumpi\n        /* \"@openzeppelin/contracts/token/ERC20/ERC20.sol\":6249:6254  value */\n      dup1\n        /* \"@openzeppelin/contracts/token/ERC20/ERC20.sol\":6233:6245  _totalSupply */\n      0x02\n      0x00\n        /* \"@openzeppelin/contracts/token/ERC20/ERC20.sol\":6233:6254  _totalSupply += value */\n      dup3\n      dup3\n      sload\n      tag_287\n      swap2\n      swap1\n      tag_140\n      jump\t// in\n    tag_287:\n      swap1\n      swap2\n      sstore\n      pop\n        /* \"@openzeppelin/contracts/token/ERC20/ERC20.sol\":6093:6633  if (from == address(0)) {... */\n      tag_288\n      swap1\n      pop\n      jump\n    tag_286:\n      sub(shl(0xa0, 0x01), 0x01)\n        /* \"@openzeppelin/contracts/token/ERC20/ERC20.sol\":6307:6322  _balances[from] */\n      dup4\n      and\n        /* \"@openzeppelin/contracts/token/ERC20/ERC20.sol\":6285:6304  uint256 fromBalance */\n      0x00\n        /* \"@openzeppelin/contracts/token/ERC20/ERC20.sol\":6307:6322  _balances[from] */\n      swap1\n      dup2\n      mstore\n      0x20\n      dup2\n      swap1\n      mstore\n      0x40\n      swap1\n      keccak256\n      sload\n        /* \"@openzeppelin/contracts/token/ERC20/ERC20.sol\":6340:6359  fromBalance < value */\n      dup2\n      dup2\n      lt\n        /* \"@openzeppelin/contracts/token/ERC20/ERC20.sol\":6336:6451  if (fromBalance < value) {... */\n      iszero\n      tag_289\n      jumpi\n        /* \"@openzeppelin/contracts/token/ERC20/ERC20.sol\":6386:6436  ERC20InsufficientBalance(from, fromBalance, value) */\n      mload(0x40)\n      shl(0xe2, 0x391434e3)\n      dup2\n      mstore\n      sub(shl(0xa0, 0x01), 0x01)\n        /* \"#utility.yul\":7655:7687   */\n      dup6\n      and\n        /* \"@openzeppelin/contracts/token/ERC20/ERC20.sol\":6386:6436  ERC20InsufficientBalance(from, fromBalance, value) */\n      0x04\n      dup3\n      add\n        /* \"#utility.yul\":7637:7688   */\n      mstore\n        /* \"#utility.yul\":7704:7722   */\n      0x24\n      dup2\n      add\n        /* \"#utility.yul\":7697:7731   */\n      dup3\n      swap1\n      mstore\n        /* \"#utility.yul\":7747:7765   */\n      0x44\n      dup2\n      add\n        /* \"#utility.yul\":7740:7774   */\n      dup4\n      swap1\n      mstore\n        /* \"#utility.yul\":7610:7628   */\n      0x64\n      add\n        /* \"@openzeppelin/contracts/token/ERC20/ERC20.sol\":6386:6436  ERC20InsufficientBalance(from, fromBalance, value) */\n      tag_253\n        /* \"#utility.yul\":7435:7780   */\n      jump\n        /* \"@openzeppelin/contracts/token/ERC20/ERC20.sol\":6336:6451  if (fromBalance < value) {... */\n    tag_289:\n      sub(shl(0xa0, 0x01), 0x01)\n        /* \"@openzeppelin/contracts/token/ERC20/ERC20.sol\":6571:6586  _balances[from] */\n      dup5\n      and\n        /* \"@openzeppelin/contracts/token/ERC20/ERC20.sol\":6571:6580  _balances */\n      0x00\n        /* \"@openzeppelin/contracts/token/ERC20/ERC20.sol\":6571:6586  _balances[from] */\n      swap1\n      dup2\n      mstore\n      0x20\n      dup2\n      swap1\n      mstore\n      0x40\n      swap1\n      keccak256\n        /* \"@openzeppelin/contracts/token/ERC20/ERC20.sol\":6589:6608  fromBalance - value */\n      swap1\n      dup3\n      swap1\n      sub\n        /* \"@openzeppelin/contracts/token/ERC20/ERC20.sol\":6571:6608  _balances[from] = fromBalance - value */\n      swap1\n      sstore\n        /* \"@openzeppelin/contracts/token/ERC20/ERC20.sol\":6093:6633  if (from == address(0)) {... */\n    tag_288:\n      sub(shl(0xa0, 0x01), 0x01)\n        /* \"@openzeppelin/contracts/token/ERC20/ERC20.sol\":6647:6663  to == address(0) */\n      dup3\n      and\n        /* \"@openzeppelin/contracts/token/ERC20/ERC20.sol\":6643:7068  if (to == address(0)) {... */\n      tag_291\n      jumpi\n        /* \"@openzeppelin/contracts/token/ERC20/ERC20.sol\":6810:6822  _totalSupply */\n      0x02\n        /* \"@openzeppelin/contracts/token/ERC20/ERC20.sol\":6810:6831  _totalSupply -= value */\n      dup1\n      sload\n      dup3\n      swap1\n      sub\n      swap1\n      sstore\n        /* \"@openzeppelin/contracts/token/ERC20/ERC20.sol\":6643:7068  if (to == address(0)) {... */\n      jump(tag_292)\n    tag_291:\n      sub(shl(0xa0, 0x01), 0x01)\n        /* \"@openzeppelin/contracts/token/ERC20/ERC20.sol\":7021:7034  _balances[to] */\n      dup3\n      and\n        /* \"@openzeppelin/contracts/token/ERC20/ERC20.sol\":7021:7030  _balances */\n      0x00\n        /* \"@openzeppelin/contracts/token/ERC20/ERC20.sol\":7021:7034  _balances[to] */\n      swap1\n      dup2\n      mstore\n      0x20\n      dup2\n      swap1\n      mstore\n      0x40\n      swap1\n      keccak256\n        /* \"@openzeppelin/contracts/token/ERC20/ERC20.sol\":7021:7043  _balances[to] += value */\n      dup1\n      sload\n      dup3\n      add\n      swap1\n      sstore\n        /* \"@openzeppelin/contracts/token/ERC20/ERC20.sol\":6643:7068  if (to == address(0)) {... */\n    tag_292:\n        /* \"@openzeppelin/contracts/token/ERC20/ERC20.sol\":7098:7100  to */\n      dup2\n      sub(shl(0xa0, 0x01), 0x01)\n        /* \"@openzeppelin/contracts/token/ERC20/ERC20.sol\":7083:7108  Transfer(from, to, value) */\n      and\n        /* \"@openzeppelin/contracts/token/ERC20/ERC20.sol\":7092:7096  from */\n      dup4\n      sub(shl(0xa0, 0x01), 0x01)\n        /* \"@openzeppelin/contracts/token/ERC20/ERC20.sol\":7083:7108  Transfer(from, to, value) */\n      and\n      0xddf252ad1be2c89b69c2b068fc378daa952ba7f163c4a11628f55a4df523b3ef\n        /* \"@openzeppelin/contracts/token/ERC20/ERC20.sol\":7102:7107  value */\n      dup4\n        /* \"@openzeppelin/contracts/token/ERC20/ERC20.sol\":7083:7108  Transfer(from, to, value) */\n      mload(0x40)\n      tag_293\n      swap2\n        /* \"#utility.yul\":1549:1574   */\n      dup2\n      mstore\n        /* \"#utility.yul\":1537:1539   */\n      0x20\n        /* \"#utility.yul\":1522:1540   */\n      add\n      swap1\n        /* \"#utility.yul\":1403:1580   */\n      jump\n        /* \"@openzeppelin/contracts/token/ERC20/ERC20.sol\":7083:7108  Transfer(from, to, value) */\n    tag_293:\n      mload(0x40)\n      dup1\n      swap2\n      sub\n      swap1\n      log3\n        /* \"@openzeppelin/contracts/token/ERC20/ERC20.sol\":6008:7115  function _update(address from, address to, uint256 value) internal virtual {... */\n      pop\n      pop\n      pop\n      jump\t// out\n        /* \"@openzeppelin/contracts/token/ERC20/utils/SafeERC20.sol\":7738:8458  function _callOptionalReturn(IERC20 token, bytes memory data) private {... */\n    tag_273:\n        /* \"@openzeppelin/contracts/token/ERC20/utils/SafeERC20.sol\":7818:7836  uint256 returnSize */\n      0x00\n        /* \"@openzeppelin/contracts/token/ERC20/utils/SafeERC20.sol\":7846:7865  uint256 returnValue */\n      dup1\n        /* \"@openzeppelin/contracts/token/ERC20/utils/SafeERC20.sol\":7984:7988  0x20 */\n      0x20\n        /* \"@openzeppelin/contracts/token/ERC20/utils/SafeERC20.sol\":7981:7982  0 */\n      0x00\n        /* \"@openzeppelin/contracts/token/ERC20/utils/SafeERC20.sol\":7974:7978  data */\n      dup5\n        /* \"@openzeppelin/contracts/token/ERC20/utils/SafeERC20.sol\":7968:7979  mload(data) */\n      mload\n        /* \"@openzeppelin/contracts/token/ERC20/utils/SafeERC20.sol\":7961:7965  0x20 */\n      0x20\n        /* \"@openzeppelin/contracts/token/ERC20/utils/SafeERC20.sol\":7955:7959  data */\n      dup7\n        /* \"@openzeppelin/contracts/token/ERC20/utils/SafeERC20.sol\":7951:7966  add(data, 0x20) */\n      add\n        /* \"@openzeppelin/contracts/token/ERC20/utils/SafeERC20.sol\":7948:7949  0 */\n      0x00\n        /* \"@openzeppelin/contracts/token/ERC20/utils/SafeERC20.sol\":7941:7946  token */\n      dup9\n        /* \"@openzeppelin/contracts/token/ERC20/utils/SafeERC20.sol\":7934:7939  gas() */\n      gas\n        /* \"@openzeppelin/contracts/token/ERC20/utils/SafeERC20.sol\":7929:7989  call(gas(), token, 0, add(data, 0x20), mload(data), 0, 0x20) */\n      call\n        /* \"@openzeppelin/contracts/token/ERC20/utils/SafeERC20.sol\":8041:8048  success */\n      dup1\n        /* \"@openzeppelin/contracts/token/ERC20/utils/SafeERC20.sol\":8031:8207  if iszero(success) {... */\n      tag_295\n      jumpi\n        /* \"@openzeppelin/contracts/token/ERC20/utils/SafeERC20.sol\":8085:8089  0x40 */\n      0x40\n        /* \"@openzeppelin/contracts/token/ERC20/utils/SafeERC20.sol\":8079:8090  mload(0x40) */\n      mload\n        /* \"@openzeppelin/contracts/token/ERC20/utils/SafeERC20.sol\":8130:8146  returndatasize() */\n      returndatasize\n        /* \"@openzeppelin/contracts/token/ERC20/utils/SafeERC20.sol\":8127:8128  0 */\n      0x00\n        /* \"@openzeppelin/contracts/token/ERC20/utils/SafeERC20.sol\":8122:8125  ptr */\n      dup3\n        /* \"@openzeppelin/contracts/token/ERC20/utils/SafeERC20.sol\":8107:8147  returndatacopy(ptr, 0, returndatasize()) */\n      returndatacopy\n        /* \"@openzeppelin/contracts/token/ERC20/utils/SafeERC20.sol\":8176:8192  returndatasize() */\n      returndatasize\n        /* \"@openzeppelin/contracts/token/ERC20/utils/SafeERC20.sol\":8171:8174  ptr */\n      dup2\n        /* \"@openzeppelin/contracts/token/ERC20/utils/SafeERC20.sol\":8164:8193  revert(ptr, returndatasize()) */\n      revert\n        /* \"@openzeppelin/contracts/token/ERC20/utils/SafeERC20.sol\":8031:8207  if iszero(success) {... */\n    tag_295:\n      pop\n      pop\n        /* \"@openzeppelin/contracts/token/ERC20/utils/SafeERC20.sol\":8284:8285  0 */\n      0x00\n        /* \"@openzeppelin/contracts/token/ERC20/utils/SafeERC20.sol\":8278:8286  mload(0) */\n      mload\n        /* \"@openzeppelin/contracts/token/ERC20/utils/SafeERC20.sol\":8234:8250  returndatasize() */\n      returndatasize\n      swap2\n      pop\n        /* \"@openzeppelin/contracts/token/ERC20/utils/SafeERC20.sol\":8310:8325  returnSize == 0 */\n      dup2\n      iszero\n        /* \"@openzeppelin/contracts/token/ERC20/utils/SafeERC20.sol\":8310:8378  returnSize == 0 ? address(token).code.length == 0 : returnValue != 1 */\n      tag_296\n      jumpi\n        /* \"@openzeppelin/contracts/token/ERC20/utils/SafeERC20.sol\":8362:8373  returnValue */\n      dup1\n        /* \"@openzeppelin/contracts/token/ERC20/utils/SafeERC20.sol\":8377:8378  1 */\n      0x01\n        /* \"@openzeppelin/contracts/token/ERC20/utils/SafeERC20.sol\":8362:8378  returnValue != 1 */\n      eq\n      iszero\n        /* \"@openzeppelin/contracts/token/ERC20/utils/SafeERC20.sol\":8310:8378  returnSize == 0 ? address(token).code.length == 0 : returnValue != 1 */\n      jump(tag_297)\n    tag_296:\n      sub(shl(0xa0, 0x01), 0x01)\n        /* \"@openzeppelin/contracts/token/ERC20/utils/SafeERC20.sol\":8328:8354  address(token).code.length */\n      dup5\n      and\n      extcodesize\n        /* \"@openzeppelin/contracts/token/ERC20/utils/SafeERC20.sol\":8328:8359  address(token).code.length == 0 */\n      iszero\n        /* \"@openzeppelin/contracts/token/ERC20/utils/SafeERC20.sol\":8310:8378  returnSize == 0 ? address(token).code.length == 0 : returnValue != 1 */\n    tag_297:\n        /* \"@openzeppelin/contracts/token/ERC20/utils/SafeERC20.sol\":8306:8452  if (returnSize == 0 ? address(token).code.length == 0 : returnValue != 1) {... */\n      iszero\n      tag_262\n      jumpi\n        /* \"@openzeppelin/contracts/token/ERC20/utils/SafeERC20.sol\":8401:8441  SafeERC20FailedOperation(address(token)) */\n      mload(0x40)\n      shl(0xe0, 0x5274afe7)\n      dup2\n      mstore\n      sub(shl(0xa0, 0x01), 0x01)\n        /* \"#utility.yul\":2753:2785   */\n      dup6\n      and\n        /* \"@openzeppelin/contracts/token/ERC20/utils/SafeERC20.sol\":8401:8441  SafeERC20FailedOperation(address(token)) */\n      0x04\n      dup3\n      add\n        /* \"#utility.yul\":2735:2786   */\n      mstore\n        /* \"#utility.yul\":2708:2726   */\n      0x24\n      add\n        /* \"@openzeppelin/contracts/token/ERC20/utils/SafeERC20.sol\":8401:8441  SafeERC20FailedOperation(address(token)) */\n      tag_253\n        /* \"#utility.yul\":2575:2792   */\n      jump\n        /* \"#utility.yul\":14:300   */\n    tag_30:\n        /* \"#utility.yul\":72:78   */\n      0x00\n        /* \"#utility.yul\":125:127   */\n      0x20\n        /* \"#utility.yul\":113:122   */\n      dup3\n        /* \"#utility.yul\":104:111   */\n      dup5\n        /* \"#utility.yul\":100:123   */\n      sub\n        /* \"#utility.yul\":96:128   */\n      slt\n        /* \"#utility.yul\":93:145   */\n      iszero\n      tag_306\n      jumpi\n        /* \"#utility.yul\":141:142   */\n      0x00\n        /* \"#utility.yul\":138:139   */\n      dup1\n        /* \"#utility.yul\":131:143   */\n      revert\n        /* \"#utility.yul\":93:145   */\n    tag_306:\n        /* \"#utility.yul\":167:190   */\n      dup2\n      calldataload\n      not(sub(shl(0xe0, 0x01), 0x01))\n        /* \"#utility.yul\":219:251   */\n      dup2\n      and\n        /* \"#utility.yul\":209:252   */\n      dup2\n      eq\n        /* \"#utility.yul\":199:270   */\n      tag_246\n      jumpi\n        /* \"#utility.yul\":266:267   */\n      0x00\n        /* \"#utility.yul\":263:264   */\n      dup1\n        /* \"#utility.yul\":256:268   */\n      revert\n        /* \"#utility.yul\":497:915   */\n    tag_37:\n        /* \"#utility.yul\":646:648   */\n      0x20\n        /* \"#utility.yul\":635:644   */\n      dup2\n        /* \"#utility.yul\":628:649   */\n      mstore\n        /* \"#utility.yul\":609:613   */\n      0x00\n        /* \"#utility.yul\":678:684   */\n      dup3\n        /* \"#utility.yul\":672:685   */\n      mload\n        /* \"#utility.yul\":721:727   */\n      dup1\n        /* \"#utility.yul\":716:718   */\n      0x20\n        /* \"#utility.yul\":705:714   */\n      dup5\n        /* \"#utility.yul\":701:719   */\n      add\n        /* \"#utility.yul\":694:728   */\n      mstore\n        /* \"#utility.yul\":780:786   */\n      dup1\n        /* \"#utility.yul\":775:777   */\n      0x20\n        /* \"#utility.yul\":767:773   */\n      dup6\n        /* \"#utility.yul\":763:778   */\n      add\n        /* \"#utility.yul\":758:760   */\n      0x40\n        /* \"#utility.yul\":747:756   */\n      dup6\n        /* \"#utility.yul\":743:761   */\n      add\n        /* \"#utility.yul\":737:787   */\n      mcopy\n        /* \"#utility.yul\":836:837   */\n      0x00\n        /* \"#utility.yul\":831:833   */\n      0x40\n        /* \"#utility.yul\":822:828   */\n      dup3\n        /* \"#utility.yul\":811:820   */\n      dup6\n        /* \"#utility.yul\":807:829   */\n      add\n        /* \"#utility.yul\":803:834   */\n      add\n        /* \"#utility.yul\":796:838   */\n      mstore\n        /* \"#utility.yul\":906:908   */\n      0x40\n        /* \"#utility.yul\":899:901   */\n      0x1f\n        /* \"#utility.yul\":895:902   */\n      not\n        /* \"#utility.yul\":890:892   */\n      0x1f\n        /* \"#utility.yul\":882:888   */\n      dup4\n        /* \"#utility.yul\":878:893   */\n      add\n        /* \"#utility.yul\":874:903   */\n      and\n        /* \"#utility.yul\":863:872   */\n      dup5\n        /* \"#utility.yul\":859:904   */\n      add\n        /* \"#utility.yul\":855:909   */\n      add\n        /* \"#utility.yul\":847:909   */\n      swap2\n      pop\n      pop\n        /* \"#utility.yul\":497:915   */\n      swap3\n      swap2\n      pop\n      pop\n      jump\t// out\n        /* \"#utility.yul\":920:1093   */\n    tag_300:\n        /* \"#utility.yul\":988:1008   */\n      dup1\n      calldataload\n      sub(shl(0xa0, 0x01), 0x01)\n        /* \"#utility.yul\":1037:1068   */\n      dup2\n      and\n        /* \"#utility.yul\":1027:1069   */\n      dup2\n      eq\n        /* \"#utility.yul\":1017:1087   */\n      tag_311\n      jumpi\n        /* \"#utility.yul\":1083:1084   */\n      0x00\n        /* \"#utility.yul\":1080:1081   */\n      dup1\n        /* \"#utility.yul\":1073:1085   */\n      revert\n        /* \"#utility.yul\":1017:1087   */\n    tag_311:\n        /* \"#utility.yul\":920:1093   */\n      swap2\n      swap1\n      pop\n      jump\t// out\n        /* \"#utility.yul\":1098:1398   */\n    tag_40:\n        /* \"#utility.yul\":1166:1172   */\n      0x00\n        /* \"#utility.yul\":1174:1180   */\n      dup1\n        /* \"#utility.yul\":1227:1229   */\n      0x40\n        /* \"#utility.yul\":1215:1224   */\n      dup4\n        /* \"#utility.yul\":1206:1213   */\n      dup6\n        /* \"#utility.yul\":1202:1225   */\n      sub\n        /* \"#utility.yul\":1198:1230   */\n      slt\n        /* \"#utility.yul\":1195:1247   */\n      iszero\n      tag_313\n      jumpi\n        /* \"#utility.yul\":1243:1244   */\n      0x00\n        /* \"#utility.yul\":1240:1241   */\n      dup1\n        /* \"#utility.yul\":1233:1245   */\n      revert\n        /* \"#utility.yul\":1195:1247   */\n    tag_313:\n        /* \"#utility.yul\":1266:1295   */\n      tag_314\n        /* \"#utility.yul\":1285:1294   */\n      dup4\n        /* \"#utility.yul\":1266:1295   */\n      tag_300\n      jump\t// in\n    tag_314:\n        /* \"#utility.yul\":1256:1295   */\n      swap5\n        /* \"#utility.yul\":1364:1366   */\n      0x20\n        /* \"#utility.yul\":1349:1367   */\n      swap4\n      swap1\n      swap4\n      add\n        /* \"#utility.yul\":1336:1368   */\n      calldataload\n      swap4\n      pop\n      pop\n      pop\n        /* \"#utility.yul\":1098:1398   */\n      jump\t// out\n        /* \"#utility.yul\":1585:1811   */\n    tag_52:\n        /* \"#utility.yul\":1644:1650   */\n      0x00\n        /* \"#utility.yul\":1697:1699   */\n      0x20\n        /* \"#utility.yul\":1685:1694   */\n      dup3\n        /* \"#utility.yul\":1676:1683   */\n      dup5\n        /* \"#utility.yul\":1672:1695   */\n      sub\n        /* \"#utility.yul\":1668:1700   */\n      slt\n        /* \"#utility.yul\":1665:1717   */\n      iszero\n      tag_317\n      jumpi\n        /* \"#utility.yul\":1713:1714   */\n      0x00\n        /* \"#utility.yul\":1710:1711   */\n      dup1\n        /* \"#utility.yul\":1703:1715   */\n      revert\n        /* \"#utility.yul\":1665:1717   */\n    tag_317:\n      pop\n        /* \"#utility.yul\":1758:1781   */\n      calldataload\n      swap2\n        /* \"#utility.yul\":1585:1811   */\n      swap1\n      pop\n      jump\t// out\n        /* \"#utility.yul\":1816:2190   */\n    tag_59:\n        /* \"#utility.yul\":1893:1899   */\n      0x00\n        /* \"#utility.yul\":1901:1907   */\n      dup1\n        /* \"#utility.yul\":1909:1915   */\n      0x00\n        /* \"#utility.yul\":1962:1964   */\n      0x60\n        /* \"#utility.yul\":1950:1959   */\n      dup5\n        /* \"#utility.yul\":1941:1948   */\n      dup7\n        /* \"#utility.yul\":1937:1960   */\n      sub\n        /* \"#utility.yul\":1933:1965   */\n      slt\n        /* \"#utility.yul\":1930:1982   */\n      iszero\n      tag_319\n      jumpi\n        /* \"#utility.yul\":1978:1979   */\n      0x00\n        /* \"#utility.yul\":1975:1976   */\n      dup1\n        /* \"#utility.yul\":1968:1980   */\n      revert\n        /* \"#utility.yul\":1930:1982   */\n    tag_319:\n        /* \"#utility.yul\":2001:2030   */\n      tag_320\n        /* \"#utility.yul\":2020:2029   */\n      dup5\n        /* \"#utility.yul\":2001:2030   */\n      tag_300\n      jump\t// in\n    tag_320:\n        /* \"#utility.yul\":1991:2030   */\n      swap3\n      pop\n        /* \"#utility.yul\":2049:2087   */\n      tag_321\n        /* \"#utility.yul\":2083:2085   */\n      0x20\n        /* \"#utility.yul\":2072:2081   */\n      dup6\n        /* \"#utility.yul\":2068:2086   */\n      add\n        /* \"#utility.yul\":2049:2087   */\n      tag_300\n      jump\t// in\n    tag_321:\n        /* \"#utility.yul\":1816:2190   */\n      swap3\n      swap6\n        /* \"#utility.yul\":2039:2087   */\n      swap3\n      swap5\n      pop\n      pop\n      pop\n        /* \"#utility.yul\":2156:2158   */\n      0x40\n        /* \"#utility.yul\":2141:2159   */\n      swap2\n      swap1\n      swap2\n      add\n        /* \"#utility.yul\":2128:2160   */\n      calldataload\n      swap1\n        /* \"#utility.yul\":1816:2190   */\n      jump\t// out\n        /* \"#utility.yul\":2384:2570   */\n    tag_77:\n        /* \"#utility.yul\":2443:2449   */\n      0x00\n        /* \"#utility.yul\":2496:2498   */\n      0x20\n        /* \"#utility.yul\":2484:2493   */\n      dup3\n        /* \"#utility.yul\":2475:2482   */\n      dup5\n        /* \"#utility.yul\":2471:2494   */\n      sub\n        /* \"#utility.yul\":2467:2499   */\n      slt\n        /* \"#utility.yul\":2464:2516   */\n      iszero\n      tag_324\n      jumpi\n        /* \"#utility.yul\":2512:2513   */\n      0x00\n        /* \"#utility.yul\":2509:2510   */\n      dup1\n        /* \"#utility.yul\":2502:2514   */\n      revert\n        /* \"#utility.yul\":2464:2516   */\n    tag_324:\n        /* \"#utility.yul\":2535:2564   */\n      tag_246\n        /* \"#utility.yul\":2554:2563   */\n      dup3\n        /* \"#utility.yul\":2535:2564   */\n      tag_300\n      jump\t// in\n        /* \"#utility.yul\":3022:3282   */\n    tag_106:\n        /* \"#utility.yul\":3090:3096   */\n      0x00\n        /* \"#utility.yul\":3098:3104   */\n      dup1\n        /* \"#utility.yul\":3151:3153   */\n      0x40\n        /* \"#utility.yul\":3139:3148   */\n      dup4\n        /* \"#utility.yul\":3130:3137   */\n      dup6\n        /* \"#utility.yul\":3126:3149   */\n      sub\n        /* \"#utility.yul\":3122:3154   */\n      slt\n        /* \"#utility.yul\":3119:3171   */\n      iszero\n      tag_329\n      jumpi\n        /* \"#utility.yul\":3167:3168   */\n      0x00\n        /* \"#utility.yul\":3164:3165   */\n      dup1\n        /* \"#utility.yul\":3157:3169   */\n      revert\n        /* \"#utility.yul\":3119:3171   */\n    tag_329:\n        /* \"#utility.yul\":3190:3219   */\n      tag_330\n        /* \"#utility.yul\":3209:3218   */\n      dup4\n        /* \"#utility.yul\":3190:3219   */\n      tag_300\n      jump\t// in\n    tag_330:\n        /* \"#utility.yul\":3180:3219   */\n      swap2\n      pop\n        /* \"#utility.yul\":3238:3276   */\n      tag_331\n        /* \"#utility.yul\":3272:3274   */\n      0x20\n        /* \"#utility.yul\":3261:3270   */\n      dup5\n        /* \"#utility.yul\":3257:3275   */\n      add\n        /* \"#utility.yul\":3238:3276   */\n      tag_300\n      jump\t// in\n    tag_331:\n        /* \"#utility.yul\":3228:3276   */\n      swap1\n      pop\n        /* \"#utility.yul\":3022:3282   */\n      swap3\n      pop\n      swap3\n      swap1\n      pop\n      jump\t// out\n        /* \"#utility.yul\":3287:3667   */\n    tag_116:\n        /* \"#utility.yul\":3366:3367   */\n      0x01\n        /* \"#utility.yul\":3362:3374   */\n      dup2\n      dup2\n      shr\n      swap1\n        /* \"#utility.yul\":3409:3421   */\n      dup3\n      and\n      dup1\n        /* \"#utility.yul\":3430:3491   */\n      tag_333\n      jumpi\n        /* \"#utility.yul\":3484:3488   */\n      0x7f\n        /* \"#utility.yul\":3476:3482   */\n      dup3\n        /* \"#utility.yul\":3472:3489   */\n      and\n        /* \"#utility.yul\":3462:3489   */\n      swap2\n      pop\n        /* \"#utility.yul\":3430:3491   */\n    tag_333:\n        /* \"#utility.yul\":3537:3539   */\n      0x20\n        /* \"#utility.yul\":3529:3535   */\n      dup3\n        /* \"#utility.yul\":3526:3540   */\n      lt\n        /* \"#utility.yul\":3506:3524   */\n      dup2\n        /* \"#utility.yul\":3503:3541   */\n      sub\n        /* \"#utility.yul\":3500:3661   */\n      tag_334\n      jumpi\n        /* \"#utility.yul\":3583:3593   */\n      0x4e487b71\n        /* \"#utility.yul\":3578:3581   */\n      0xe0\n        /* \"#utility.yul\":3574:3594   */\n      shl\n        /* \"#utility.yul\":3571:3572   */\n      0x00\n        /* \"#utility.yul\":3564:3595   */\n      mstore\n        /* \"#utility.yul\":3618:3622   */\n      0x22\n        /* \"#utility.yul\":3615:3616   */\n      0x04\n        /* \"#utility.yul\":3608:3623   */\n      mstore\n        /* \"#utility.yul\":3646:3650   */\n      0x24\n        /* \"#utility.yul\":3643:3644   */\n      0x00\n        /* \"#utility.yul\":3636:3651   */\n      revert\n        /* \"#utility.yul\":3500:3661   */\n    tag_334:\n      pop\n        /* \"#utility.yul\":3287:3667   */\n      swap2\n      swap1\n      pop\n      jump\t// out\n        /* \"#utility.yul\":3880:4057   */\n    tag_301:\n        /* \"#utility.yul\":3959:3972   */\n      dup1\n      mload\n      sub(shl(0xc0, 0x01), 0x01)\n        /* \"#utility.yul\":4001:4032   */\n      dup2\n      and\n        /* \"#utility.yul\":3991:4033   */\n      dup2\n      eq\n        /* \"#utility.yul\":3981:4051   */\n      tag_311\n      jumpi\n        /* \"#utility.yul\":4047:4048   */\n      0x00\n        /* \"#utility.yul\":4044:4045   */\n      dup1\n        /* \"#utility.yul\":4037:4049   */\n      revert\n        /* \"#utility.yul\":4062:4270   */\n    tag_135:\n        /* \"#utility.yul\":4132:4138   */\n      0x00\n        /* \"#utility.yul\":4185:4187   */\n      0x20\n        /* \"#utility.yul\":4173:4182   */\n      dup3\n        /* \"#utility.yul\":4164:4171   */\n      dup5\n        /* \"#utility.yul\":4160:4183   */\n      sub\n        /* \"#utility.yul\":4156:4188   */\n      slt\n        /* \"#utility.yul\":4153:4205   */\n      iszero\n      tag_339\n      jumpi\n        /* \"#utility.yul\":4201:4202   */\n      0x00\n        /* \"#utility.yul\":4198:4199   */\n      dup1\n        /* \"#utility.yul\":4191:4203   */\n      revert\n        /* \"#utility.yul\":4153:4205   */\n    tag_339:\n        /* \"#utility.yul\":4224:4264   */\n      tag_246\n        /* \"#utility.yul\":4254:4263   */\n      dup3\n        /* \"#utility.yul\":4224:4264   */\n      tag_301\n      jump\t// in\n        /* \"#utility.yul\":4275:4402   */\n    tag_302:\n        /* \"#utility.yul\":4336:4346   */\n      0x4e487b71\n        /* \"#utility.yul\":4331:4334   */\n      0xe0\n        /* \"#utility.yul\":4327:4347   */\n      shl\n        /* \"#utility.yul\":4324:4325   */\n      0x00\n        /* \"#utility.yul\":4317:4348   */\n      mstore\n        /* \"#utility.yul\":4367:4371   */\n      0x11\n        /* \"#utility.yul\":4364:4365   */\n      0x04\n        /* \"#utility.yul\":4357:4372   */\n      mstore\n        /* \"#utility.yul\":4391:4395   */\n      0x24\n        /* \"#utility.yul\":4388:4389   */\n      0x00\n        /* \"#utility.yul\":4381:4396   */\n      revert\n        /* \"#utility.yul\":4407:4532   */\n    tag_140:\n        /* \"#utility.yul\":4472:4481   */\n      dup1\n      dup3\n      add\n        /* \"#utility.yul\":4493:4503   */\n      dup1\n      dup3\n      gt\n        /* \"#utility.yul\":4490:4526   */\n      iszero\n      tag_121\n      jumpi\n        /* \"#utility.yul\":4506:4524   */\n      tag_121\n      tag_302\n      jump\t// in\n        /* \"#utility.yul\":4537:4705   */\n    tag_143:\n        /* \"#utility.yul\":4610:4619   */\n      dup1\n      dup3\n      mul\n        /* \"#utility.yul\":4641:4650   */\n      dup2\n      iszero\n        /* \"#utility.yul\":4658:4673   */\n      dup3\n      dup3\n      div\n        /* \"#utility.yul\":4652:4674   */\n      dup5\n      eq\n        /* \"#utility.yul\":4638:4675   */\n      or\n        /* \"#utility.yul\":4628:4699   */\n      tag_121\n      jumpi\n        /* \"#utility.yul\":4679:4697   */\n      tag_121\n      tag_302\n      jump\t// in\n        /* \"#utility.yul\":4710:4927   */\n    tag_145:\n        /* \"#utility.yul\":4750:4751   */\n      0x00\n        /* \"#utility.yul\":4776:4777   */\n      dup3\n        /* \"#utility.yul\":4766:4898   */\n      tag_349\n      jumpi\n        /* \"#utility.yul\":4820:4830   */\n      0x4e487b71\n        /* \"#utility.yul\":4815:4818   */\n      0xe0\n        /* \"#utility.yul\":4811:4831   */\n      shl\n        /* \"#utility.yul\":4808:4809   */\n      0x00\n        /* \"#utility.yul\":4801:4832   */\n      mstore\n        /* \"#utility.yul\":4855:4859   */\n      0x12\n        /* \"#utility.yul\":4852:4853   */\n      0x04\n        /* \"#utility.yul\":4845:4860   */\n      mstore\n        /* \"#utility.yul\":4883:4887   */\n      0x24\n        /* \"#utility.yul\":4880:4881   */\n      0x00\n        /* \"#utility.yul\":4873:4888   */\n      revert\n        /* \"#utility.yul\":4766:4898   */\n    tag_349:\n      pop\n        /* \"#utility.yul\":4912:4921   */\n      div\n      swap1\n        /* \"#utility.yul\":4710:4927   */\n      jump\t// out\n        /* \"#utility.yul\":5237:5421   */\n    tag_159:\n        /* \"#utility.yul\":5307:5313   */\n      0x00\n        /* \"#utility.yul\":5360:5362   */\n      0x20\n        /* \"#utility.yul\":5348:5357   */\n      dup3\n        /* \"#utility.yul\":5339:5346   */\n      dup5\n        /* \"#utility.yul\":5335:5358   */\n      sub\n        /* \"#utility.yul\":5331:5363   */\n      slt\n        /* \"#utility.yul\":5328:5380   */\n      iszero\n      tag_352\n      jumpi\n        /* \"#utility.yul\":5376:5377   */\n      0x00\n        /* \"#utility.yul\":5373:5374   */\n      dup1\n        /* \"#utility.yul\":5366:5378   */\n      revert\n        /* \"#utility.yul\":5328:5380   */\n    tag_352:\n      pop\n        /* \"#utility.yul\":5399:5415   */\n      mload\n      swap2\n        /* \"#utility.yul\":5237:5421   */\n      swap1\n      pop\n      jump\t// out\n        /* \"#utility.yul\":5958:6133   */\n    tag_303:\n        /* \"#utility.yul\":6036:6049   */\n      dup1\n      mload\n        /* \"#utility.yul\":6089:6107   */\n      0xffffffffffffffff\n        /* \"#utility.yul\":6078:6108   */\n      dup2\n      and\n        /* \"#utility.yul\":6068:6109   */\n      dup2\n      eq\n        /* \"#utility.yul\":6058:6127   */\n      tag_311\n      jumpi\n        /* \"#utility.yul\":6123:6124   */\n      0x00\n        /* \"#utility.yul\":6120:6121   */\n      dup1\n        /* \"#utility.yul\":6113:6125   */\n      revert\n        /* \"#utility.yul\":6138:6344   */\n    tag_202:\n        /* \"#utility.yul\":6207:6213   */\n      0x00\n        /* \"#utility.yul\":6260:6262   */\n      0x20\n        /* \"#utility.yul\":6248:6257   */\n      dup3\n        /* \"#utility.yul\":6239:6246   */\n      dup5\n        /* \"#utility.yul\":6235:6258   */\n      sub\n        /* \"#utility.yul\":6231:6263   */\n      slt\n        /* \"#utility.yul\":6228:6280   */\n      iszero\n      tag_358\n      jumpi\n        /* \"#utility.yul\":6276:6277   */\n      0x00\n        /* \"#utility.yul\":6273:6274   */\n      dup1\n        /* \"#utility.yul\":6266:6278   */\n      revert\n        /* \"#utility.yul\":6228:6280   */\n    tag_358:\n        /* \"#utility.yul\":6299:6338   */\n      tag_246\n        /* \"#utility.yul\":6328:6337   */\n      dup3\n        /* \"#utility.yul\":6299:6338   */\n      tag_303\n      jump\t// in\n        /* \"#utility.yul\":6349:7031   */\n    tag_207:\n        /* \"#utility.yul\":6444:6450   */\n      0x00\n        /* \"#utility.yul\":6504:6506   */\n      0x40\n        /* \"#utility.yul\":6492:6501   */\n      dup3\n        /* \"#utility.yul\":6483:6490   */\n      dup5\n        /* \"#utility.yul\":6479:6502   */\n      sub\n        /* \"#utility.yul\":6475:6507   */\n      slt\n        /* \"#utility.yul\":6519:6521   */\n      dup1\n        /* \"#utility.yul\":6516:6538   */\n      iszero\n      tag_361\n      jumpi\n        /* \"#utility.yul\":6534:6535   */\n      0x00\n        /* \"#utility.yul\":6531:6532   */\n      dup1\n        /* \"#utility.yul\":6524:6536   */\n      revert\n        /* \"#utility.yul\":6516:6538   */\n    tag_361:\n      pop\n        /* \"#utility.yul\":6583:6585   */\n      0x40\n        /* \"#utility.yul\":6577:6586   */\n      dup1\n      mload\n      swap1\n        /* \"#utility.yul\":6613:6628   */\n      dup2\n      add\n        /* \"#utility.yul\":6658:6676   */\n      0xffffffffffffffff\n        /* \"#utility.yul\":6643:6677   */\n      dup2\n      gt\n        /* \"#utility.yul\":6679:6701   */\n      dup3\n      dup3\n      lt\n        /* \"#utility.yul\":6640:6702   */\n      or\n        /* \"#utility.yul\":6637:6822   */\n      iszero\n      tag_362\n      jumpi\n        /* \"#utility.yul\":6744:6754   */\n      0x4e487b71\n        /* \"#utility.yul\":6739:6742   */\n      0xe0\n        /* \"#utility.yul\":6735:6755   */\n      shl\n        /* \"#utility.yul\":6732:6733   */\n      0x00\n        /* \"#utility.yul\":6725:6756   */\n      mstore\n        /* \"#utility.yul\":6779:6783   */\n      0x41\n        /* \"#utility.yul\":6776:6777   */\n      0x04\n        /* \"#utility.yul\":6769:6784   */\n      mstore\n        /* \"#utility.yul\":6807:6811   */\n      0x24\n        /* \"#utility.yul\":6804:6805   */\n      0x00\n        /* \"#utility.yul\":6797:6812   */\n      revert\n        /* \"#utility.yul\":6637:6822   */\n    tag_362:\n        /* \"#utility.yul\":6838:6840   */\n      0x40\n        /* \"#utility.yul\":6831:6853   */\n      mstore\n        /* \"#utility.yul\":6877:6917   */\n      tag_363\n        /* \"#utility.yul\":6907:6916   */\n      dup4\n        /* \"#utility.yul\":6877:6917   */\n      tag_301\n      jump\t// in\n    tag_363:\n        /* \"#utility.yul\":6869:6875   */\n      dup2\n        /* \"#utility.yul\":6862:6918   */\n      mstore\n        /* \"#utility.yul\":6951:6999   */\n      tag_364\n        /* \"#utility.yul\":6995:6997   */\n      0x20\n        /* \"#utility.yul\":6984:6993   */\n      dup5\n        /* \"#utility.yul\":6980:6998   */\n      add\n        /* \"#utility.yul\":6951:6999   */\n      tag_303\n      jump\t// in\n    tag_364:\n        /* \"#utility.yul\":6946:6948   */\n      0x20\n        /* \"#utility.yul\":6934:6949   */\n      dup3\n      add\n        /* \"#utility.yul\":6927:7000   */\n      mstore\n        /* \"#utility.yul\":6938:6944   */\n      swap4\n        /* \"#utility.yul\":6349:7031   */\n      swap3\n      pop\n      pop\n      pop\n      jump\t// out\n        /* \"#utility.yul\":7036:7230   */\n    tag_209:\n        /* \"#utility.yul\":7141:7159   */\n      0xffffffffffffffff\n        /* \"#utility.yul\":7134:7160   */\n      dup3\n      dup2\n      and\n        /* \"#utility.yul\":7106:7132   */\n      dup3\n      dup3\n      and\n        /* \"#utility.yul\":7102:7161   */\n      sub\n      swap1\n        /* \"#utility.yul\":7173:7201   */\n      dup2\n      gt\n        /* \"#utility.yul\":7170:7224   */\n      iszero\n      tag_121\n      jumpi\n        /* \"#utility.yul\":7204:7222   */\n      tag_121\n      tag_302\n      jump\t// in\n        /* \"#utility.yul\":7235:7430   */\n    tag_238:\n      sub(shl(0xc0, 0x01), 0x01)\n        /* \"#utility.yul\":7304:7331   */\n      dup2\n      dup2\n      and\n        /* \"#utility.yul\":7333:7360   */\n      dup4\n      dup3\n      and\n        /* \"#utility.yul\":7300:7361   */\n      add\n      swap1\n        /* \"#utility.yul\":7373:7401   */\n      dup2\n      gt\n        /* \"#utility.yul\":7370:7424   */\n      iszero\n      tag_121\n      jumpi\n        /* \"#utility.yul\":7404:7422   */\n      tag_121\n      tag_302\n      jump\t// in\n\n    auxdata: 0xa2646970667358221220a916b5f2bff402efc05fdea2f793fddc7e5e99cb07466b2b5cf5ec62f295fbb564736f6c634300081a0033\n}\n",
				"bytecode": {
					"linkReferences": {},
					"object": "60c0604052670de0b6b3a764000060065534801561001b575f80fd5b5060405161172338038061172383398101604081905261003a91610125565b818160036100488382610234565b5060046100558282610234565b5050506001600160a01b0393841660805250501660a0526102ee565b6001600160a01b0381168114610085575f80fd5b50565b634e487b7160e01b5f52604160045260245ffd5b5f82601f8301126100ab575f80fd5b81516001600160401b038111156100c4576100c4610088565b604051601f8201601f19908116603f011681016001600160401b03811182821017156100f2576100f2610088565b604052818152838201602001851015610109575f80fd5b8160208501602083015e5f918101602001919091529392505050565b5f805f8060808587031215610138575f80fd5b845161014381610071565b602086015190945061015481610071565b60408601519093506001600160401b0381111561016f575f80fd5b61017b8782880161009c565b606087015190935090506001600160401b03811115610198575f80fd5b6101a48782880161009c565b91505092959194509250565b600181811c908216806101c457607f821691505b6020821081036101e257634e487b7160e01b5f52602260045260245ffd5b50919050565b601f82111561022f57805f5260205f20601f840160051c8101602085101561020d5750805b601f840160051c820191505b8181101561022c575f8155600101610219565b50505b505050565b81516001600160401b0381111561024d5761024d610088565b6102618161025b84546101b0565b846101e8565b6020601f821160018114610293575f831561027c5750848201515b5f19600385901b1c1916600184901b17845561022c565b5f84815260208120601f198516915b828110156102c257878501518255602094850194600190920191016102a2565b50848210156102df57868401515f19600387901b60f8161c191681555b50505050600190811b01905550565b60805160a0516113c761035c5f395f81816102d9015281816104130152818161052501528181610683015281816107b8015281816108a70152818161093a015281816109de01528181610a5e01528181610b200152610ba601525f818161029a015261077201526113c75ff3fe608060405234801561000f575f80fd5b506004361061013d575f3560e01c80635b02907b116100b4578063a9059cbb11610079578063a9059cbb1461027a578063ad7a672f1461028d578063c4d4803a14610295578063c86d6ae4146102d4578063dd62ed3e146102fb578063e8e511a414610333575f80fd5b80635b02907b1461023157806370a08231146102395780638380edb71461026157806395d89b4114610269578063a035b1fe14610271575f80fd5b80631b862027116101055780631b862027146101c1578063205c2878146101d657806323b872dd146101e95780632e1a7d4d146101fc578063313ce5671461020f5780633fa845161461021e575f80fd5b806301ffc9a71461014157806306fdde031461017a578063095ea7b31461018f5780630e15561a146101a257806318160ddd146101b9575b5f80fd5b61016561014f3660046110a6565b6001600160e01b031916634a17459160e11b1490565b60405190151581526020015b60405180910390f35b610182610346565b60405161017191906110cd565b61016561019d36600461111d565b6103d6565b6101ab60055481565b604051908152602001610171565b6002546101ab565b6101d46101cf366004611145565b6103ef565b005b6101d46101e436600461111d565b6103fc565b6101656101f736600461115c565b61063f565b6101d461020a366004611145565b610662565b60405160128152602001610171565b6101d461022c36600461111d565b61066c565b6101ab610892565b6101ab610247366004611196565b6001600160a01b03165f9081526020819052604090205490565b6101656109c7565b610182610aed565b6101ab60065481565b61016561028836600461111d565b610afc565b6101ab610b09565b6102bc7f000000000000000000000000000000000000000000000000000000000000000081565b6040516001600160a01b039091168152602001610171565b6102bc7f000000000000000000000000000000000000000000000000000000000000000081565b6101ab6103093660046111af565b6001600160a01b039182165f90815260016020908152604080832093909416825291909152205490565b6101ab610341366004611196565b610c2f565b606060038054610355906111e0565b80601f0160208091040260200160405190810160405280929190818152602001828054610381906111e0565b80156103cc5780601f106103a3576101008083540402835291602001916103cc565b820191905f5260205f20905b8154815290600101906020018083116103af57829003601f168201915b5050505050905090565b5f336103e3818585610c8d565b60019150505b92915050565b6103f9338261066c565b50565b6040516377267ec360e01b81523060048201525f907f00000000000000000000000000000000000000000000000000000000000000006001600160a01b0316906377267ec390602401602060405180830381865afa158015610460573d5f803e3d5ffd5b505050506040513d601f19601f82011682018060405250810190610484919061122e565b6001600160c01b031690505f811180156104a557505f6104a360025490565b115b156104f5578060055f8282546104bb919061125b565b90915550506002546104d582670de0b6b3a764000061126e565b6104df9190611285565b60065f8282546104ef919061125b565b90915550505b6104ff3383610c9f565b5f670de0b6b3a764000060065484610517919061126e565b6105219190611285565b90507f00000000000000000000000000000000000000000000000000000000000000006001600160a01b0316631791dc5e8561055c60025490565b156105675783610570565b6001600160c01b035b6040516001600160e01b031960e085901b1681526001600160a01b0390921660048301526001600160c01b031660248201526044016020604051808303815f875af11580156105c1573d5f803e3d5ffd5b505050506040513d601f19601f820116820180604052508101906105e591906112a4565b6006546040805186815260208101849052908101919091529091506001600160a01b038516907f75e161b3e824b114fc1a33274bd7091918dd4e639cede50b78b15a4eea956a21906060015b60405180910390a250505050565b5f3361064c858285610cdc565b610657858585610d57565b506001949350505050565b6103f933826103fc565b6040516377267ec360e01b81523060048201525f907f00000000000000000000000000000000000000000000000000000000000000006001600160a01b0316906377267ec390602401602060405180830381865afa1580156106d0573d5f803e3d5ffd5b505050506040513d601f19601f820116820180604052508101906106f4919061122e565b6001600160c01b031690505f8111801561071557505f61071360025490565b115b15610765578060055f82825461072b919061125b565b909155505060025461074582670de0b6b3a764000061126e565b61074f9190611285565b60065f82825461075f919061125b565b90915550505b61079a6001600160a01b037f000000000000000000000000000000000000000000000000000000000000000016333085610db4565b604051633f51270560e21b81526001600160c01b03831660048201527f00000000000000000000000000000000000000000000000000000000000000006001600160a01b03169063fd449c14906024015f604051808303815f87803b158015610801575f80fd5b505af1158015610813573d5f803e3d5ffd5b505050505f60065483670de0b6b3a764000061082f919061126e565b6108399190611285565b90506108458482610e0e565b6006546040805185815260208101849052908101919091526001600160a01b038516907f710967c2c90aa017caf1df3ec721b9981e4350d9c6398f8acf4cfacd1aec73f890606001610631565b5f61089b6109c7565b156108a557505f90565b7f00000000000000000000000000000000000000000000000000000000000000006001600160a01b031663b079f1636040518163ffffffff1660e01b8152600401602060405180830381865afa158015610901573d5f803e3d5ffd5b505050506040513d601f19601f8201168201806040525081019061092591906112d2565b604051631f7cdd5f60e01b81523060048201527f00000000000000000000000000000000000000000000000000000000000000006001600160a01b031690631f7cdd5f906024016040805180830381865afa158015610986573d5f803e3d5ffd5b505050506040513d601f19601f820116820180604052508101906109aa91906112eb565b602001516109b89190611352565b67ffffffffffffffff16905090565b604051631f7cdd5f60e01b81523060048201525f907f00000000000000000000000000000000000000000000000000000000000000006001600160a01b031690631f7cdd5f906024016040805180830381865afa158015610a2a573d5f803e3d5ffd5b505050506040513d601f19601f82011682018060405250810190610a4e91906112eb565b6020015167ffffffffffffffff167f00000000000000000000000000000000000000000000000000000000000000006001600160a01b031663b079f1636040518163ffffffff1660e01b8152600401602060405180830381865afa158015610ab8573d5f803e3d5ffd5b505050506040513d601f19601f82011682018060405250810190610adc91906112d2565b67ffffffffffffffff161015905090565b606060048054610355906111e0565b5f336103e3818585610d57565b6040516377267ec360e01b81523060048201525f907f00000000000000000000000000000000000000000000000000000000000000006001600160a01b0316906377267ec390602401602060405180830381865afa158015610b6d573d5f803e3d5ffd5b505050506040513d601f19601f82011682018060405250810190610b91919061122e565b604051631f7cdd5f60e01b81523060048201527f00000000000000000000000000000000000000000000000000000000000000006001600160a01b031690631f7cdd5f906024016040805180830381865afa158015610bf2573d5f803e3d5ffd5b505050506040513d601f19601f82011682018060405250810190610c1691906112eb565b51610c219190611372565b6001600160c01b0316905090565b5f80610c3a60025490565b9050805f03610c4b57505f92915050565b80610c6a846001600160a01b03165f9081526020819052604090205490565b610c72610b09565b610c7c919061126e565b610c869190611285565b9392505050565b610c9a8383836001610e42565b505050565b6001600160a01b038216610ccd57604051634b637e8f60e11b81525f60048201526024015b60405180910390fd5b610cd8825f83610f14565b5050565b6001600160a01b038381165f908152600160209081526040808320938616835292905220545f198114610d515781811015610d4357604051637dc7a0d960e11b81526001600160a01b03841660048201526024810182905260448101839052606401610cc4565b610d5184848484035f610e42565b50505050565b6001600160a01b038316610d8057604051634b637e8f60e11b81525f6004820152602401610cc4565b6001600160a01b038216610da95760405163ec442f0560e01b81525f6004820152602401610cc4565b610c9a838383610f14565b604080516001600160a01b0385811660248301528416604482015260648082018490528251808303909101815260849091019091526020810180516001600160e01b03166323b872dd60e01b179052610d5190859061103a565b6001600160a01b038216610e375760405163ec442f0560e01b81525f6004820152602401610cc4565b610cd85f8383610f14565b6001600160a01b038416610e6b5760405163e602df0560e01b81525f6004820152602401610cc4565b6001600160a01b038316610e9457604051634a1406b160e11b81525f6004820152602401610cc4565b6001600160a01b038085165f9081526001602090815260408083209387168352929052208290558015610d5157826001600160a01b0316846001600160a01b03167f8c5be1e5ebec7d5bd14f71427d1e84f3dd0314c0f7b2291e5b200ac8c7c3b92584604051610f0691815260200190565b60405180910390a350505050565b6001600160a01b038316610f3e578060025f828254610f33919061125b565b90915550610fae9050565b6001600160a01b0383165f9081526020819052604090205481811015610f905760405163391434e360e21b81526001600160a01b03851660048201526024810182905260448101839052606401610cc4565b6001600160a01b0384165f9081526020819052604090209082900390555b6001600160a01b038216610fca57600280548290039055610fe8565b6001600160a01b0382165f9081526020819052604090208054820190555b816001600160a01b0316836001600160a01b03167fddf252ad1be2c89b69c2b068fc378daa952ba7f163c4a11628f55a4df523b3ef8360405161102d91815260200190565b60405180910390a3505050565b5f8060205f8451602086015f885af180611059576040513d5f823e3d81fd5b50505f513d9150811561107057806001141561107d565b6001600160a01b0384163b155b15610d5157604051635274afe760e01b81526001600160a01b0385166004820152602401610cc4565b5f602082840312156110b6575f80fd5b81356001600160e01b031981168114610c86575f80fd5b602081525f82518060208401528060208501604085015e5f604082850101526040601f19601f83011684010191505092915050565b80356001600160a01b0381168114611118575f80fd5b919050565b5f806040838503121561112e575f80fd5b61113783611102565b946020939093013593505050565b5f60208284031215611155575f80fd5b5035919050565b5f805f6060848603121561116e575f80fd5b61117784611102565b925061118560208501611102565b929592945050506040919091013590565b5f602082840312156111a6575f80fd5b610c8682611102565b5f80604083850312156111c0575f80fd5b6111c983611102565b91506111d760208401611102565b90509250929050565b600181811c908216806111f457607f821691505b60208210810361121257634e487b7160e01b5f52602260045260245ffd5b50919050565b80516001600160c01b0381168114611118575f80fd5b5f6020828403121561123e575f80fd5b610c8682611218565b634e487b7160e01b5f52601160045260245ffd5b808201808211156103e9576103e9611247565b80820281158282048414176103e9576103e9611247565b5f8261129f57634e487b7160e01b5f52601260045260245ffd5b500490565b5f602082840312156112b4575f80fd5b5051919050565b805167ffffffffffffffff81168114611118575f80fd5b5f602082840312156112e2575f80fd5b610c86826112bb565b5f60408284031280156112fc575f80fd5b506040805190810167ffffffffffffffff8111828210171561132c57634e487b7160e01b5f52604160045260245ffd5b60405261133883611218565b8152611346602084016112bb565b60208201529392505050565b67ffffffffffffffff82811682821603908111156103e9576103e9611247565b6001600160c01b0381811683821601908111156103e9576103e961124756fea2646970667358221220a916b5f2bff402efc05fdea2f793fddc7e5e99cb07466b2b5cf5ec62f295fbb564736f6c634300081a0033",
					"opcodes": "PUSH1 0xC0 PUSH1 0x40 MSTORE PUSH8 0xDE0B6B3A7640000 PUSH1 0x6 SSTORE CALLVALUE DUP1 ISZERO PUSH2 0x1B JUMPI PUSH0 DUP1 REVERT JUMPDEST POP PUSH1 0x40 MLOAD PUSH2 0x1723 CODESIZE SUB DUP1 PUSH2 0x1723 DUP4 CODECOPY DUP2 ADD PUSH1 0x40 DUP2 SWAP1 MSTORE PUSH2 0x3A SWAP2 PUSH2 0x125 JUMP JUMPDEST DUP2 DUP2 PUSH1 0x3 PUSH2 0x48 DUP4 DUP3 PUSH2 0x234 JUMP JUMPDEST POP PUSH1 0x4 PUSH2 0x55 DUP3 DUP3 PUSH2 0x234 JUMP JUMPDEST POP POP POP PUSH1 0x1 PUSH1 0x1 PUSH1 0xA0 SHL SUB SWAP4 DUP5 AND PUSH1 0x80 MSTORE POP POP AND PUSH1 0xA0 MSTORE PUSH2 0x2EE JUMP JUMPDEST PUSH1 0x1 PUSH1 0x1 PUSH1 0xA0 SHL SUB DUP2 AND DUP2 EQ PUSH2 0x85 JUMPI PUSH0 DUP1 REVERT JUMPDEST POP JUMP JUMPDEST PUSH4 0x4E487B71 PUSH1 0xE0 SHL PUSH0 MSTORE PUSH1 0x41 PUSH1 0x4 MSTORE PUSH1 0x24 PUSH0 REVERT JUMPDEST PUSH0 DUP3 PUSH1 0x1F DUP4 ADD SLT PUSH2 0xAB JUMPI PUSH0 DUP1 REVERT JUMPDEST DUP2 MLOAD PUSH1 0x1 PUSH1 0x1 PUSH1 0x40 SHL SUB DUP2 GT ISZERO PUSH2 0xC4 JUMPI PUSH2 0xC4 PUSH2 0x88 JUMP JUMPDEST PUSH1 0x40 MLOAD PUSH1 0x1F DUP3 ADD PUSH1 0x1F NOT SWAP1 DUP2 AND PUSH1 0x3F ADD AND DUP2 ADD PUSH1 0x1 PUSH1 0x1 PUSH1 0x40 SHL SUB DUP2 GT DUP3 DUP3 LT OR ISZERO PUSH2 0xF2 JUMPI PUSH2 0xF2 PUSH2 0x88 JUMP JUMPDEST PUSH1 0x40 MSTORE DUP2 DUP2 MSTORE DUP4 DUP3 ADD PUSH1 0x20 ADD DUP6 LT ISZERO PUSH2 0x109 JUMPI PUSH0 DUP1 REVERT JUMPDEST DUP2 PUSH1 0x20 DUP6 ADD PUSH1 0x20 DUP4 ADD MCOPY PUSH0 SWAP2 DUP2 ADD PUSH1 0x20 ADD SWAP2 SWAP1 SWAP2 MSTORE SWAP4 SWAP3 POP POP POP JUMP JUMPDEST PUSH0 DUP1 PUSH0 DUP1 PUSH1 0x80 DUP6 DUP8 SUB SLT ISZERO PUSH2 0x138 JUMPI PUSH0 DUP1 REVERT JUMPDEST DUP5 MLOAD PUSH2 0x143 DUP2 PUSH2 0x71 JUMP JUMPDEST PUSH1 0x20 DUP7 ADD MLOAD SWAP1 SWAP5 POP PUSH2 0x154 DUP2 PUSH2 0x71 JUMP JUMPDEST PUSH1 0x40 DUP7 ADD MLOAD SWAP1 SWAP4 POP PUSH1 0x1 PUSH1 0x1 PUSH1 0x40 SHL SUB DUP2 GT ISZERO PUSH2 0x16F JUMPI PUSH0 DUP1 REVERT JUMPDEST PUSH2 0x17B DUP8 DUP3 DUP9 ADD PUSH2 0x9C JUMP JUMPDEST PUSH1 0x60 DUP8 ADD MLOAD SWAP1 SWAP4 POP SWAP1 POP PUSH1 0x1 PUSH1 0x1 PUSH1 0x40 SHL SUB DUP2 GT ISZERO PUSH2 0x198 JUMPI PUSH0 DUP1 REVERT JUMPDEST PUSH2 0x1A4 DUP8 DUP3 DUP9 ADD PUSH2 0x9C JUMP JUMPDEST SWAP2 POP POP SWAP3 SWAP6 SWAP2 SWAP5 POP SWAP3 POP JUMP JUMPDEST PUSH1 0x1 DUP2 DUP2 SHR SWAP1 DUP3 AND DUP1 PUSH2 0x1C4 JUMPI PUSH1 0x7F DUP3 AND SWAP2 POP JUMPDEST PUSH1 0x20 DUP3 LT DUP2 SUB PUSH2 0x1E2 JUMPI PUSH4 0x4E487B71 PUSH1 0xE0 SHL PUSH0 MSTORE PUSH1 0x22 PUSH1 0x4 MSTORE PUSH1 0x24 PUSH0 REVERT JUMPDEST POP SWAP2 SWAP1 POP JUMP JUMPDEST PUSH1 0x1F DUP3 GT ISZERO PUSH2 0x22F JUMPI DUP1 PUSH0 MSTORE PUSH1 0x20 PUSH0 KECCAK256 PUSH1 0x1F DUP5 ADD PUSH1 0x5 SHR DUP2 ADD PUSH1 0x20 DUP6 LT ISZERO PUSH2 0x20D JUMPI POP DUP1 JUMPDEST PUSH1 0x1F DUP5 ADD PUSH1 0x5 SHR DUP3 ADD SWAP2 POP JUMPDEST DUP2 DUP2 LT ISZERO PUSH2 0x22C JUMPI PUSH0 DUP2 SSTORE PUSH1 0x1 ADD PUSH2 0x219 JUMP JUMPDEST POP POP JUMPDEST POP POP POP JUMP JUMPDEST DUP2 MLOAD PUSH1 0x1 PUSH1 0x1 PUSH1 0x40 SHL SUB DUP2 GT ISZERO PUSH2 0x24D JUMPI PUSH2 0x24D PUSH2 0x88 JUMP JUMPDEST PUSH2 0x261 DUP2 PUSH2 0x25B DUP5 SLOAD PUSH2 0x1B0 JUMP JUMPDEST DUP5 PUSH2 0x1E8 JUMP JUMPDEST PUSH1 0x20 PUSH1 0x1F DUP3 GT PUSH1 0x1 DUP2 EQ PUSH2 0x293 JUMPI PUSH0 DUP4 ISZERO PUSH2 0x27C JUMPI POP DUP5 DUP3 ADD MLOAD JUMPDEST PUSH0 NOT PUSH1 0x3 DUP6 SWAP1 SHL SHR NOT AND PUSH1 0x1 DUP5 SWAP1 SHL OR DUP5 SSTORE PUSH2 0x22C JUMP JUMPDEST PUSH0 DUP5 DUP2 MSTORE PUSH1 0x20 DUP2 KECCAK256 PUSH1 0x1F NOT DUP6 AND SWAP2 JUMPDEST DUP3 DUP2 LT ISZERO PUSH2 0x2C2 JUMPI DUP8 DUP6 ADD MLOAD DUP3 SSTORE PUSH1 0x20 SWAP5 DUP6 ADD SWAP5 PUSH1 0x1 SWAP1 SWAP3 ADD SWAP2 ADD PUSH2 0x2A2 JUMP JUMPDEST POP DUP5 DUP3 LT ISZERO PUSH2 0x2DF JUMPI DUP7 DUP5 ADD MLOAD PUSH0 NOT PUSH1 0x3 DUP8 SWAP1 SHL PUSH1 0xF8 AND SHR NOT AND DUP2 SSTORE JUMPDEST POP POP POP POP PUSH1 0x1 SWAP1 DUP2 SHL ADD SWAP1 SSTORE POP JUMP JUMPDEST PUSH1 0x80 MLOAD PUSH1 0xA0 MLOAD PUSH2 0x13C7 PUSH2 0x35C PUSH0 CODECOPY PUSH0 DUP2 DUP2 PUSH2 0x2D9 ADD MSTORE DUP2 DUP2 PUSH2 0x413 ADD MSTORE DUP2 DUP2 PUSH2 0x525 ADD MSTORE DUP2 DUP2 PUSH2 0x683 ADD MSTORE DUP2 DUP2 PUSH2 0x7B8 ADD MSTORE DUP2 DUP2 PUSH2 0x8A7 ADD MSTORE DUP2 DUP2 PUSH2 0x93A ADD MSTORE DUP2 DUP2 PUSH2 0x9DE ADD MSTORE DUP2 DUP2 PUSH2 0xA5E ADD MSTORE DUP2 DUP2 PUSH2 0xB20 ADD MSTORE PUSH2 0xBA6 ADD MSTORE PUSH0 DUP2 DUP2 PUSH2 0x29A ADD MSTORE PUSH2 0x772 ADD MSTORE PUSH2 0x13C7 PUSH0 RETURN INVALID PUSH1 0x80 PUSH1 0x40 MSTORE CALLVALUE DUP1 ISZERO PUSH2 0xF JUMPI PUSH0 DUP1 REVERT JUMPDEST POP PUSH1 0x4 CALLDATASIZE LT PUSH2 0x13D JUMPI PUSH0 CALLDATALOAD PUSH1 0xE0 SHR DUP1 PUSH4 0x5B02907B GT PUSH2 0xB4 JUMPI DUP1 PUSH4 0xA9059CBB GT PUSH2 0x79 JUMPI DUP1 PUSH4 0xA9059CBB EQ PUSH2 0x27A JUMPI DUP1 PUSH4 0xAD7A672F EQ PUSH2 0x28D JUMPI DUP1 PUSH4 0xC4D4803A EQ PUSH2 0x295 JUMPI DUP1 PUSH4 0xC86D6AE4 EQ PUSH2 0x2D4 JUMPI DUP1 PUSH4 0xDD62ED3E EQ PUSH2 0x2FB JUMPI DUP1 PUSH4 0xE8E511A4 EQ PUSH2 0x333 JUMPI PUSH0 DUP1 REVERT JUMPDEST DUP1 PUSH4 0x5B02907B EQ PUSH2 0x231 JUMPI DUP1 PUSH4 0x70A08231 EQ PUSH2 0x239 JUMPI DUP1 PUSH4 0x8380EDB7 EQ PUSH2 0x261 JUMPI DUP1 PUSH4 0x95D89B41 EQ PUSH2 0x269 JUMPI DUP1 PUSH4 0xA035B1FE EQ PUSH2 0x271 JUMPI PUSH0 DUP1 REVERT JUMPDEST DUP1 PUSH4 0x1B862027 GT PUSH2 0x105 JUMPI DUP1 PUSH4 0x1B862027 EQ PUSH2 0x1C1 JUMPI DUP1 PUSH4 0x205C2878 EQ PUSH2 0x1D6 JUMPI DUP1 PUSH4 0x23B872DD EQ PUSH2 0x1E9 JUMPI DUP1 PUSH4 0x2E1A7D4D EQ PUSH2 0x1FC JUMPI DUP1 PUSH4 0x313CE567 EQ PUSH2 0x20F JUMPI DUP1 PUSH4 0x3FA84516 EQ PUSH2 0x21E JUMPI PUSH0 DUP1 REVERT JUMPDEST DUP1 PUSH4 0x1FFC9A7 EQ PUSH2 0x141 JUMPI DUP1 PUSH4 0x6FDDE03 EQ PUSH2 0x17A JUMPI DUP1 PUSH4 0x95EA7B3 EQ PUSH2 0x18F JUMPI DUP1 PUSH4 0xE15561A EQ PUSH2 0x1A2 JUMPI DUP1 PUSH4 0x18160DDD EQ PUSH2 0x1B9 JUMPI JUMPDEST PUSH0 DUP1 REVERT JUMPDEST PUSH2 0x165 PUSH2 0x14F CALLDATASIZE PUSH1 0x4 PUSH2 0x10A6 JUMP JUMPDEST PUSH1 0x1 PUSH1 0x1 PUSH1 0xE0 SHL SUB NOT AND PUSH4 0x4A174591 PUSH1 0xE1 SHL EQ SWAP1 JUMP JUMPDEST PUSH1 0x40 MLOAD SWAP1 ISZERO ISZERO DUP2 MSTORE PUSH1 0x20 ADD JUMPDEST PUSH1 0x40 MLOAD DUP1 SWAP2 SUB SWAP1 RETURN JUMPDEST PUSH2 0x182 PUSH2 0x346 JUMP JUMPDEST PUSH1 0x40 MLOAD PUSH2 0x171 SWAP2 SWAP1 PUSH2 0x10CD JUMP JUMPDEST PUSH2 0x165 PUSH2 0x19D CALLDATASIZE PUSH1 0x4 PUSH2 0x111D JUMP JUMPDEST PUSH2 0x3D6 JUMP JUMPDEST PUSH2 0x1AB PUSH1 0x5 SLOAD DUP2 JUMP JUMPDEST PUSH1 0x40 MLOAD SWAP1 DUP2 MSTORE PUSH1 0x20 ADD PUSH2 0x171 JUMP JUMPDEST PUSH1 0x2 SLOAD PUSH2 0x1AB JUMP JUMPDEST PUSH2 0x1D4 PUSH2 0x1CF CALLDATASIZE PUSH1 0x4 PUSH2 0x1145 JUMP JUMPDEST PUSH2 0x3EF JUMP JUMPDEST STOP JUMPDEST PUSH2 0x1D4 PUSH2 0x1E4 CALLDATASIZE PUSH1 0x4 PUSH2 0x111D JUMP JUMPDEST PUSH2 0x3FC JUMP JUMPDEST PUSH2 0x165 PUSH2 0x1F7 CALLDATASIZE PUSH1 0x4 PUSH2 0x115C JUMP JUMPDEST PUSH2 0x63F JUMP JUMPDEST PUSH2 0x1D4 PUSH2 0x20A CALLDATASIZE PUSH1 0x4 PUSH2 0x1145 JUMP JUMPDEST PUSH2 0x662 JUMP JUMPDEST PUSH1 0x40 MLOAD PUSH1 0x12 DUP2 MSTORE PUSH1 0x20 ADD PUSH2 0x171 JUMP JUMPDEST PUSH2 0x1D4 PUSH2 0x22C CALLDATASIZE PUSH1 0x4 PUSH2 0x111D JUMP JUMPDEST PUSH2 0x66C JUMP JUMPDEST PUSH2 0x1AB PUSH2 0x892 JUMP JUMPDEST PUSH2 0x1AB PUSH2 0x247 CALLDATASIZE PUSH1 0x4 PUSH2 0x1196 JUMP JUMPDEST PUSH1 0x1 PUSH1 0x1 PUSH1 0xA0 SHL SUB AND PUSH0 SWAP1 DUP2 MSTORE PUSH1 0x20 DUP2 SWAP1 MSTORE PUSH1 0x40 SWAP1 KECCAK256 SLOAD SWAP1 JUMP JUMPDEST PUSH2 0x165 PUSH2 0x9C7 JUMP JUMPDEST PUSH2 0x182 PUSH2 0xAED JUMP JUMPDEST PUSH2 0x1AB PUSH1 0x6 SLOAD DUP2 JUMP JUMPDEST PUSH2 0x165 PUSH2 0x288 CALLDATASIZE PUSH1 0x4 PUSH2 0x111D JUMP JUMPDEST PUSH2 0xAFC JUMP JUMPDEST PUSH2 0x1AB PUSH2 0xB09 JUMP JUMPDEST PUSH2 0x2BC PUSH32 0x0 DUP2 JUMP JUMPDEST PUSH1 0x40 MLOAD PUSH1 0x1 PUSH1 0x1 PUSH1 0xA0 SHL SUB SWAP1 SWAP2 AND DUP2 MSTORE PUSH1 0x20 ADD PUSH2 0x171 JUMP JUMPDEST PUSH2 0x2BC PUSH32 0x0 DUP2 JUMP JUMPDEST PUSH2 0x1AB PUSH2 0x309 CALLDATASIZE PUSH1 0x4 PUSH2 0x11AF JUMP JUMPDEST PUSH1 0x1 PUSH1 0x1 PUSH1 0xA0 SHL SUB SWAP2 DUP3 AND PUSH0 SWAP1 DUP2 MSTORE PUSH1 0x1 PUSH1 0x20 SWAP1 DUP2 MSTORE PUSH1 0x40 DUP1 DUP4 KECCAK256 SWAP4 SWAP1 SWAP5 AND DUP3 MSTORE SWAP2 SWAP1 SWAP2 MSTORE KECCAK256 SLOAD SWAP1 JUMP JUMPDEST PUSH2 0x1AB PUSH2 0x341 CALLDATASIZE PUSH1 0x4 PUSH2 0x1196 JUMP JUMPDEST PUSH2 0xC2F JUMP JUMPDEST PUSH1 0x60 PUSH1 0x3 DUP1 SLOAD PUSH2 0x355 SWAP1 PUSH2 0x11E0 JUMP JUMPDEST DUP1 PUSH1 0x1F ADD PUSH1 0x20 DUP1 SWAP2 DIV MUL PUSH1 0x20 ADD PUSH1 0x40 MLOAD SWAP1 DUP2 ADD PUSH1 0x40 MSTORE DUP1 SWAP3 SWAP2 SWAP1 DUP2 DUP2 MSTORE PUSH1 0x20 ADD DUP3 DUP1 SLOAD PUSH2 0x381 SWAP1 PUSH2 0x11E0 JUMP JUMPDEST DUP1 ISZERO PUSH2 0x3CC JUMPI DUP1 PUSH1 0x1F LT PUSH2 0x3A3 JUMPI PUSH2 0x100 DUP1 DUP4 SLOAD DIV MUL DUP4 MSTORE SWAP2 PUSH1 0x20 ADD SWAP2 PUSH2 0x3CC JUMP JUMPDEST DUP3 ADD SWAP2 SWAP1 PUSH0 MSTORE PUSH1 0x20 PUSH0 KECCAK256 SWAP1 JUMPDEST DUP2 SLOAD DUP2 MSTORE SWAP1 PUSH1 0x1 ADD SWAP1 PUSH1 0x20 ADD DUP1 DUP4 GT PUSH2 0x3AF JUMPI DUP3 SWAP1 SUB PUSH1 0x1F AND DUP3 ADD SWAP2 JUMPDEST POP POP POP POP POP SWAP1 POP SWAP1 JUMP JUMPDEST PUSH0 CALLER PUSH2 0x3E3 DUP2 DUP6 DUP6 PUSH2 0xC8D JUMP JUMPDEST PUSH1 0x1 SWAP2 POP POP JUMPDEST SWAP3 SWAP2 POP POP JUMP JUMPDEST PUSH2 0x3F9 CALLER DUP3 PUSH2 0x66C JUMP JUMPDEST POP JUMP JUMPDEST PUSH1 0x40 MLOAD PUSH4 0x77267EC3 PUSH1 0xE0 SHL DUP2 MSTORE ADDRESS PUSH1 0x4 DUP3 ADD MSTORE PUSH0 SWAP1 PUSH32 0x0 PUSH1 0x1 PUSH1 0x1 PUSH1 0xA0 SHL SUB AND SWAP1 PUSH4 0x77267EC3 SWAP1 PUSH1 0x24 ADD PUSH1 0x20 PUSH1 0x40 MLOAD DUP1 DUP4 SUB DUP2 DUP7 GAS STATICCALL ISZERO DUP1 ISZERO PUSH2 0x460 JUMPI RETURNDATASIZE PUSH0 DUP1 RETURNDATACOPY RETURNDATASIZE PUSH0 REVERT JUMPDEST POP POP POP POP PUSH1 0x40 MLOAD RETURNDATASIZE PUSH1 0x1F NOT PUSH1 0x1F DUP3 ADD AND DUP3 ADD DUP1 PUSH1 0x40 MSTORE POP DUP2 ADD SWAP1 PUSH2 0x484 SWAP2 SWAP1 PUSH2 0x122E JUMP JUMPDEST PUSH1 0x1 PUSH1 0x1 PUSH1 0xC0 SHL SUB AND SWAP1 POP PUSH0 DUP2 GT DUP1 ISZERO PUSH2 0x4A5 JUMPI POP PUSH0 PUSH2 0x4A3 PUSH1 0x2 SLOAD SWAP1 JUMP JUMPDEST GT JUMPDEST ISZERO PUSH2 0x4F5 JUMPI DUP1 PUSH1 0x5 PUSH0 DUP3 DUP3 SLOAD PUSH2 0x4BB SWAP2 SWAP1 PUSH2 0x125B JUMP JUMPDEST SWAP1 SWAP2 SSTORE POP POP PUSH1 0x2 SLOAD PUSH2 0x4D5 DUP3 PUSH8 0xDE0B6B3A7640000 PUSH2 0x126E JUMP JUMPDEST PUSH2 0x4DF SWAP2 SWAP1 PUSH2 0x1285 JUMP JUMPDEST PUSH1 0x6 PUSH0 DUP3 DUP3 SLOAD PUSH2 0x4EF SWAP2 SWAP1 PUSH2 0x125B JUMP JUMPDEST SWAP1 SWAP2 SSTORE POP POP JUMPDEST PUSH2 0x4FF CALLER DUP4 PUSH2 0xC9F JUMP JUMPDEST PUSH0 PUSH8 0xDE0B6B3A7640000 PUSH1 0x6 SLOAD DUP5 PUSH2 0x517 SWAP2 SWAP1 PUSH2 0x126E JUMP JUMPDEST PUSH2 0x521 SWAP2 SWAP1 PUSH2 0x1285 JUMP JUMPDEST SWAP1 POP PUSH32 0x0 PUSH1 0x1 PUSH1 0x1 PUSH1 0xA0 SHL SUB AND PUSH4 0x1791DC5E DUP6 PUSH2 0x55C PUSH1 0x2 SLOAD SWAP1 JUMP JUMPDEST ISZERO PUSH2 0x567 JUMPI DUP4 PUSH2 0x570 JUMP JUMPDEST PUSH1 0x1 PUSH1 0x1 PUSH1 0xC0 SHL SUB JUMPDEST PUSH1 0x40 MLOAD PUSH1 0x1 PUSH1 0x1 PUSH1 0xE0 SHL SUB NOT PUSH1 0xE0 DUP6 SWAP1 SHL AND DUP2 MSTORE PUSH1 0x1 PUSH1 0x1 PUSH1 0xA0 SHL SUB SWAP1 SWAP3 AND PUSH1 0x4 DUP4 ADD MSTORE PUSH1 0x1 PUSH1 0x1 PUSH1 0xC0 SHL SUB AND PUSH1 0x24 DUP3 ADD MSTORE PUSH1 0x44 ADD PUSH1 0x20 PUSH1 0x40 MLOAD DUP1 DUP4 SUB DUP2 PUSH0 DUP8 GAS CALL ISZERO DUP1 ISZERO PUSH2 0x5C1 JUMPI RETURNDATASIZE PUSH0 DUP1 RETURNDATACOPY RETURNDATASIZE PUSH0 REVERT JUMPDEST POP POP POP POP PUSH1 0x40 MLOAD RETURNDATASIZE PUSH1 0x1F NOT PUSH1 0x1F DUP3 ADD AND DUP3 ADD DUP1 PUSH1 0x40 MSTORE POP DUP2 ADD SWAP1 PUSH2 0x5E5 SWAP2 SWAP1 PUSH2 0x12A4 JUMP JUMPDEST PUSH1 0x6 SLOAD PUSH1 0x40 DUP1 MLOAD DUP7 DUP2 MSTORE PUSH1 0x20 DUP2 ADD DUP5 SWAP1 MSTORE SWAP1 DUP2 ADD SWAP2 SWAP1 SWAP2 MSTORE SWAP1 SWAP2 POP PUSH1 0x1 PUSH1 0x1 PUSH1 0xA0 SHL SUB DUP6 AND SWAP1 PUSH32 0x75E161B3E824B114FC1A33274BD7091918DD4E639CEDE50B78B15A4EEA956A21 SWAP1 PUSH1 0x60 ADD JUMPDEST PUSH1 0x40 MLOAD DUP1 SWAP2 SUB SWAP1 LOG2 POP POP POP POP JUMP JUMPDEST PUSH0 CALLER PUSH2 0x64C DUP6 DUP3 DUP6 PUSH2 0xCDC JUMP JUMPDEST PUSH2 0x657 DUP6 DUP6 DUP6 PUSH2 0xD57 JUMP JUMPDEST POP PUSH1 0x1 SWAP5 SWAP4 POP POP POP POP JUMP JUMPDEST PUSH2 0x3F9 CALLER DUP3 PUSH2 0x3FC JUMP JUMPDEST PUSH1 0x40 MLOAD PUSH4 0x77267EC3 PUSH1 0xE0 SHL DUP2 MSTORE ADDRESS PUSH1 0x4 DUP3 ADD MSTORE PUSH0 SWAP1 PUSH32 0x0 PUSH1 0x1 PUSH1 0x1 PUSH1 0xA0 SHL SUB AND SWAP1 PUSH4 0x77267EC3 SWAP1 PUSH1 0x24 ADD PUSH1 0x20 PUSH1 0x40 MLOAD DUP1 DUP4 SUB DUP2 DUP7 GAS STATICCALL ISZERO DUP1 ISZERO PUSH2 0x6D0 JUMPI RETURNDATASIZE PUSH0 DUP1 RETURNDATACOPY RETURNDATASIZE PUSH0 REVERT JUMPDEST POP POP POP POP PUSH1 0x40 MLOAD RETURNDATASIZE PUSH1 0x1F NOT PUSH1 0x1F DUP3 ADD AND DUP3 ADD DUP1 PUSH1 0x40 MSTORE POP DUP2 ADD SWAP1 PUSH2 0x6F4 SWAP2 SWAP1 PUSH2 0x122E JUMP JUMPDEST PUSH1 0x1 PUSH1 0x1 PUSH1 0xC0 SHL SUB AND SWAP1 POP PUSH0 DUP2 GT DUP1 ISZERO PUSH2 0x715 JUMPI POP PUSH0 PUSH2 0x713 PUSH1 0x2 SLOAD SWAP1 JUMP JUMPDEST GT JUMPDEST ISZERO PUSH2 0x765 JUMPI DUP1 PUSH1 0x5 PUSH0 DUP3 DUP3 SLOAD PUSH2 0x72B SWAP2 SWAP1 PUSH2 0x125B JUMP JUMPDEST SWAP1 SWAP2 SSTORE POP POP PUSH1 0x2 SLOAD PUSH2 0x745 DUP3 PUSH8 0xDE0B6B3A7640000 PUSH2 0x126E JUMP JUMPDEST PUSH2 0x74F SWAP2 SWAP1 PUSH2 0x1285 JUMP JUMPDEST PUSH1 0x6 PUSH0 DUP3 DUP3 SLOAD PUSH2 0x75F SWAP2 SWAP1 PUSH2 0x125B JUMP JUMPDEST SWAP1 SWAP2 SSTORE POP POP JUMPDEST PUSH2 0x79A PUSH1 0x1 PUSH1 0x1 PUSH1 0xA0 SHL SUB PUSH32 0x0 AND CALLER ADDRESS DUP6 PUSH2 0xDB4 JUMP JUMPDEST PUSH1 0x40 MLOAD PUSH4 0x3F512705 PUSH1 0xE2 SHL DUP2 MSTORE PUSH1 0x1 PUSH1 0x1 PUSH1 0xC0 SHL SUB DUP4 AND PUSH1 0x4 DUP3 ADD MSTORE PUSH32 0x0 PUSH1 0x1 PUSH1 0x1 PUSH1 0xA0 SHL SUB AND SWAP1 PUSH4 0xFD449C14 SWAP1 PUSH1 0x24 ADD PUSH0 PUSH1 0x40 MLOAD DUP1 DUP4 SUB DUP2 PUSH0 DUP8 DUP1 EXTCODESIZE ISZERO DUP1 ISZERO PUSH2 0x801 JUMPI PUSH0 DUP1 REVERT JUMPDEST POP GAS CALL ISZERO DUP1 ISZERO PUSH2 0x813 JUMPI RETURNDATASIZE PUSH0 DUP1 RETURNDATACOPY RETURNDATASIZE PUSH0 REVERT JUMPDEST POP POP POP POP PUSH0 PUSH1 0x6 SLOAD DUP4 PUSH8 0xDE0B6B3A7640000 PUSH2 0x82F SWAP2 SWAP1 PUSH2 0x126E JUMP JUMPDEST PUSH2 0x839 SWAP2 SWAP1 PUSH2 0x1285 JUMP JUMPDEST SWAP1 POP PUSH2 0x845 DUP5 DUP3 PUSH2 0xE0E JUMP JUMPDEST PUSH1 0x6 SLOAD PUSH1 0x40 DUP1 MLOAD DUP6 DUP2 MSTORE PUSH1 0x20 DUP2 ADD DUP5 SWAP1 MSTORE SWAP1 DUP2 ADD SWAP2 SWAP1 SWAP2 MSTORE PUSH1 0x1 PUSH1 0x1 PUSH1 0xA0 SHL SUB DUP6 AND SWAP1 PUSH32 0x710967C2C90AA017CAF1DF3EC721B9981E4350D9C6398F8ACF4CFACD1AEC73F8 SWAP1 PUSH1 0x60 ADD PUSH2 0x631 JUMP JUMPDEST PUSH0 PUSH2 0x89B PUSH2 0x9C7 JUMP JUMPDEST ISZERO PUSH2 0x8A5 JUMPI POP PUSH0 SWAP1 JUMP JUMPDEST PUSH32 0x0 PUSH1 0x1 PUSH1 0x1 PUSH1 0xA0 SHL SUB AND PUSH4 0xB079F163 PUSH1 0x40 MLOAD DUP2 PUSH4 0xFFFFFFFF AND PUSH1 0xE0 SHL DUP2 MSTORE PUSH1 0x4 ADD PUSH1 0x20 PUSH1 0x40 MLOAD DUP1 DUP4 SUB DUP2 DUP7 GAS STATICCALL ISZERO DUP1 ISZERO PUSH2 0x901 JUMPI RETURNDATASIZE PUSH0 DUP1 RETURNDATACOPY RETURNDATASIZE PUSH0 REVERT JUMPDEST POP POP POP POP PUSH1 0x40 MLOAD RETURNDATASIZE PUSH1 0x1F NOT PUSH1 0x1F DUP3 ADD AND DUP3 ADD DUP1 PUSH1 0x40 MSTORE POP DUP2 ADD SWAP1 PUSH2 0x925 SWAP2 SWAP1 PUSH2 0x12D2 JUMP JUMPDEST PUSH1 0x40 MLOAD PUSH4 0x1F7CDD5F PUSH1 0xE0 SHL DUP2 MSTORE ADDRESS PUSH1 0x4 DUP3 ADD MSTORE PUSH32 0x0 PUSH1 0x1 PUSH1 0x1 PUSH1 0xA0 SHL SUB AND SWAP1 PUSH4 0x1F7CDD5F SWAP1 PUSH1 0x24 ADD PUSH1 0x40 DUP1 MLOAD DUP1 DUP4 SUB DUP2 DUP7 GAS STATICCALL ISZERO DUP1 ISZERO PUSH2 0x986 JUMPI RETURNDATASIZE PUSH0 DUP1 RETURNDATACOPY RETURNDATASIZE PUSH0 REVERT JUMPDEST POP POP POP POP PUSH1 0x40 MLOAD RETURNDATASIZE PUSH1 0x1F NOT PUSH1 0x1F DUP3 ADD AND DUP3 ADD DUP1 PUSH1 0x40 MSTORE POP DUP2 ADD SWAP1 PUSH2 0x9AA SWAP2 SWAP1 PUSH2 0x12EB JUMP JUMPDEST PUSH1 0x20 ADD MLOAD PUSH2 0x9B8 SWAP2 SWAP1 PUSH2 0x1352 JUMP JUMPDEST PUSH8 0xFFFFFFFFFFFFFFFF AND SWAP1 POP SWAP1 JUMP JUMPDEST PUSH1 0x40 MLOAD PUSH4 0x1F7CDD5F PUSH1 0xE0 SHL DUP2 MSTORE ADDRESS PUSH1 0x4 DUP3 ADD MSTORE PUSH0 SWAP1 PUSH32 0x0 PUSH1 0x1 PUSH1 0x1 PUSH1 0xA0 SHL SUB AND SWAP1 PUSH4 0x1F7CDD5F SWAP1 PUSH1 0x24 ADD PUSH1 0x40 DUP1 MLOAD DUP1 DUP4 SUB DUP2 DUP7 GAS STATICCALL ISZERO DUP1 ISZERO PUSH2 0xA2A JUMPI RETURNDATASIZE PUSH0 DUP1 RETURNDATACOPY RETURNDATASIZE PUSH0 REVERT JUMPDEST POP POP POP POP PUSH1 0x40 MLOAD RETURNDATASIZE PUSH1 0x1F NOT PUSH1 0x1F DUP3 ADD AND DUP3 ADD DUP1 PUSH1 0x40 MSTORE POP DUP2 ADD SWAP1 PUSH2 0xA4E SWAP2 SWAP1 PUSH2 0x12EB JUMP JUMPDEST PUSH1 0x20 ADD MLOAD PUSH8 0xFFFFFFFFFFFFFFFF AND PUSH32 0x0 PUSH1 0x1 PUSH1 0x1 PUSH1 0xA0 SHL SUB AND PUSH4 0xB079F163 PUSH1 0x40 MLOAD DUP2 PUSH4 0xFFFFFFFF AND PUSH1 0xE0 SHL DUP2 MSTORE PUSH1 0x4 ADD PUSH1 0x20 PUSH1 0x40 MLOAD DUP1 DUP4 SUB DUP2 DUP7 GAS STATICCALL ISZERO DUP1 ISZERO PUSH2 0xAB8 JUMPI RETURNDATASIZE PUSH0 DUP1 RETURNDATACOPY RETURNDATASIZE PUSH0 REVERT JUMPDEST POP POP POP POP PUSH1 0x40 MLOAD RETURNDATASIZE PUSH1 0x1F NOT PUSH1 0x1F DUP3 ADD AND DUP3 ADD DUP1 PUSH1 0x40 MSTORE POP DUP2 ADD SWAP1 PUSH2 0xADC SWAP2 SWAP1 PUSH2 0x12D2 JUMP JUMPDEST PUSH8 0xFFFFFFFFFFFFFFFF AND LT ISZERO SWAP1 POP SWAP1 JUMP JUMPDEST PUSH1 0x60 PUSH1 0x4 DUP1 SLOAD PUSH2 0x355 SWAP1 PUSH2 0x11E0 JUMP JUMPDEST PUSH0 CALLER PUSH2 0x3E3 DUP2 DUP6 DUP6 PUSH2 0xD57 JUMP JUMPDEST PUSH1 0x40 MLOAD PUSH4 0x77267EC3 PUSH1 0xE0 SHL DUP2 MSTORE ADDRESS PUSH1 0x4 DUP3 ADD MSTORE PUSH0 SWAP1 PUSH32 0x0 PUSH1 0x1 PUSH1 0x1 PUSH1 0xA0 SHL SUB AND SWAP1 PUSH4 0x77267EC3 SWAP1 PUSH1 0x24 ADD PUSH1 0x20 PUSH1 0x40 MLOAD DUP1 DUP4 SUB DUP2 DUP7 GAS STATICCALL ISZERO DUP1 ISZERO PUSH2 0xB6D JUMPI RETURNDATASIZE PUSH0 DUP1 RETURNDATACOPY RETURNDATASIZE PUSH0 REVERT JUMPDEST POP POP POP POP PUSH1 0x40 MLOAD RETURNDATASIZE PUSH1 0x1F NOT PUSH1 0x1F DUP3 ADD AND DUP3 ADD DUP1 PUSH1 0x40 MSTORE POP DUP2 ADD SWAP1 PUSH2 0xB91 SWAP2 SWAP1 PUSH2 0x122E JUMP JUMPDEST PUSH1 0x40 MLOAD PUSH4 0x1F7CDD5F PUSH1 0xE0 SHL DUP2 MSTORE ADDRESS PUSH1 0x4 DUP3 ADD MSTORE PUSH32 0x0 PUSH1 0x1 PUSH1 0x1 PUSH1 0xA0 SHL SUB AND SWAP1 PUSH4 0x1F7CDD5F SWAP1 PUSH1 0x24 ADD PUSH1 0x40 DUP1 MLOAD DUP1 DUP4 SUB DUP2 DUP7 GAS STATICCALL ISZERO DUP1 ISZERO PUSH2 0xBF2 JUMPI RETURNDATASIZE PUSH0 DUP1 RETURNDATACOPY RETURNDATASIZE PUSH0 REVERT JUMPDEST POP POP POP POP PUSH1 0x40 MLOAD RETURNDATASIZE PUSH1 0x1F NOT PUSH1 0x1F DUP3 ADD AND DUP3 ADD DUP1 PUSH1 0x40 MSTORE POP DUP2 ADD SWAP1 PUSH2 0xC16 SWAP2 SWAP1 PUSH2 0x12EB JUMP JUMPDEST MLOAD PUSH2 0xC21 SWAP2 SWAP1 PUSH2 0x1372 JUMP JUMPDEST PUSH1 0x1 PUSH1 0x1 PUSH1 0xC0 SHL SUB AND SWAP1 POP SWAP1 JUMP JUMPDEST PUSH0 DUP1 PUSH2 0xC3A PUSH1 0x2 SLOAD SWAP1 JUMP JUMPDEST SWAP1 POP DUP1 PUSH0 SUB PUSH2 0xC4B JUMPI POP PUSH0 SWAP3 SWAP2 POP POP JUMP JUMPDEST DUP1 PUSH2 0xC6A DUP5 PUSH1 0x1 PUSH1 0x1 PUSH1 0xA0 SHL SUB AND PUSH0 SWAP1 DUP2 MSTORE PUSH1 0x20 DUP2 SWAP1 MSTORE PUSH1 0x40 SWAP1 KECCAK256 SLOAD SWAP1 JUMP JUMPDEST PUSH2 0xC72 PUSH2 0xB09 JUMP JUMPDEST PUSH2 0xC7C SWAP2 SWAP1 PUSH2 0x126E JUMP JUMPDEST PUSH2 0xC86 SWAP2 SWAP1 PUSH2 0x1285 JUMP JUMPDEST SWAP4 SWAP3 POP POP POP JUMP JUMPDEST PUSH2 0xC9A DUP4 DUP4 DUP4 PUSH1 0x1 PUSH2 0xE42 JUMP JUMPDEST POP POP POP JUMP JUMPDEST PUSH1 0x1 PUSH1 0x1 PUSH1 0xA0 SHL SUB DUP3 AND PUSH2 0xCCD JUMPI PUSH1 0x40 MLOAD PUSH4 0x4B637E8F PUSH1 0xE1 SHL DUP2 MSTORE PUSH0 PUSH1 0x4 DUP3 ADD MSTORE PUSH1 0x24 ADD JUMPDEST PUSH1 0x40 MLOAD DUP1 SWAP2 SUB SWAP1 REVERT JUMPDEST PUSH2 0xCD8 DUP3 PUSH0 DUP4 PUSH2 0xF14 JUMP JUMPDEST POP POP JUMP JUMPDEST PUSH1 0x1 PUSH1 0x1 PUSH1 0xA0 SHL SUB DUP4 DUP2 AND PUSH0 SWAP1 DUP2 MSTORE PUSH1 0x1 PUSH1 0x20 SWAP1 DUP2 MSTORE PUSH1 0x40 DUP1 DUP4 KECCAK256 SWAP4 DUP7 AND DUP4 MSTORE SWAP3 SWAP1 MSTORE KECCAK256 SLOAD PUSH0 NOT DUP2 EQ PUSH2 0xD51 JUMPI DUP2 DUP2 LT ISZERO PUSH2 0xD43 JUMPI PUSH1 0x40 MLOAD PUSH4 0x7DC7A0D9 PUSH1 0xE1 SHL DUP2 MSTORE PUSH1 0x1 PUSH1 0x1 PUSH1 0xA0 SHL SUB DUP5 AND PUSH1 0x4 DUP3 ADD MSTORE PUSH1 0x24 DUP2 ADD DUP3 SWAP1 MSTORE PUSH1 0x44 DUP2 ADD DUP4 SWAP1 MSTORE PUSH1 0x64 ADD PUSH2 0xCC4 JUMP JUMPDEST PUSH2 0xD51 DUP5 DUP5 DUP5 DUP5 SUB PUSH0 PUSH2 0xE42 JUMP JUMPDEST POP POP POP POP JUMP JUMPDEST PUSH1 0x1 PUSH1 0x1 PUSH1 0xA0 SHL SUB DUP4 AND PUSH2 0xD80 JUMPI PUSH1 0x40 MLOAD PUSH4 0x4B637E8F PUSH1 0xE1 SHL DUP2 MSTORE PUSH0 PUSH1 0x4 DUP3 ADD MSTORE PUSH1 0x24 ADD PUSH2 0xCC4 JUMP JUMPDEST PUSH1 0x1 PUSH1 0x1 PUSH1 0xA0 SHL SUB DUP3 AND PUSH2 0xDA9 JUMPI PUSH1 0x40 MLOAD PUSH4 0xEC442F05 PUSH1 0xE0 SHL DUP2 MSTORE PUSH0 PUSH1 0x4 DUP3 ADD MSTORE PUSH1 0x24 ADD PUSH2 0xCC4 JUMP JUMPDEST PUSH2 0xC9A DUP4 DUP4 DUP4 PUSH2 0xF14 JUMP JUMPDEST PUSH1 0x40 DUP1 MLOAD PUSH1 0x1 PUSH1 0x1 PUSH1 0xA0 SHL SUB DUP6 DUP2 AND PUSH1 0x24 DUP4 ADD MSTORE DUP5 AND PUSH1 0x44 DUP3 ADD MSTORE PUSH1 0x64 DUP1 DUP3 ADD DUP5 SWAP1 MSTORE DUP3 MLOAD DUP1 DUP4 SUB SWAP1 SWAP2 ADD DUP2 MSTORE PUSH1 0x84 SWAP1 SWAP2 ADD SWAP1 SWAP2 MSTORE PUSH1 0x20 DUP2 ADD DUP1 MLOAD PUSH1 0x1 PUSH1 0x1 PUSH1 0xE0 SHL SUB AND PUSH4 0x23B872DD PUSH1 0xE0 SHL OR SWAP1 MSTORE PUSH2 0xD51 SWAP1 DUP6 SWAP1 PUSH2 0x103A JUMP JUMPDEST PUSH1 0x1 PUSH1 0x1 PUSH1 0xA0 SHL SUB DUP3 AND PUSH2 0xE37 JUMPI PUSH1 0x40 MLOAD PUSH4 0xEC442F05 PUSH1 0xE0 SHL DUP2 MSTORE PUSH0 PUSH1 0x4 DUP3 ADD MSTORE PUSH1 0x24 ADD PUSH2 0xCC4 JUMP JUMPDEST PUSH2 0xCD8 PUSH0 DUP4 DUP4 PUSH2 0xF14 JUMP JUMPDEST PUSH1 0x1 PUSH1 0x1 PUSH1 0xA0 SHL SUB DUP5 AND PUSH2 0xE6B JUMPI PUSH1 0x40 MLOAD PUSH4 0xE602DF05 PUSH1 0xE0 SHL DUP2 MSTORE PUSH0 PUSH1 0x4 DUP3 ADD MSTORE PUSH1 0x24 ADD PUSH2 0xCC4 JUMP JUMPDEST PUSH1 0x1 PUSH1 0x1 PUSH1 0xA0 SHL SUB DUP4 AND PUSH2 0xE94 JUMPI PUSH1 0x40 MLOAD PUSH4 0x4A1406B1 PUSH1 0xE1 SHL DUP2 MSTORE PUSH0 PUSH1 0x4 DUP3 ADD MSTORE PUSH1 0x24 ADD PUSH2 0xCC4 JUMP JUMPDEST PUSH1 0x1 PUSH1 0x1 PUSH1 0xA0 SHL SUB DUP1 DUP6 AND PUSH0 SWAP1 DUP2 MSTORE PUSH1 0x1 PUSH1 0x20 SWAP1 DUP2 MSTORE PUSH1 0x40 DUP1 DUP4 KECCAK256 SWAP4 DUP8 AND DUP4 MSTORE SWAP3 SWAP1 MSTORE KECCAK256 DUP3 SWAP1 SSTORE DUP1 ISZERO PUSH2 0xD51 JUMPI DUP3 PUSH1 0x1 PUSH1 0x1 PUSH1 0xA0 SHL SUB AND DUP5 PUSH1 0x1 PUSH1 0x1 PUSH1 0xA0 SHL SUB AND PUSH32 0x8C5BE1E5EBEC7D5BD14F71427D1E84F3DD0314C0F7B2291E5B200AC8C7C3B925 DUP5 PUSH1 0x40 MLOAD PUSH2 0xF06 SWAP2 DUP2 MSTORE PUSH1 0x20 ADD SWAP1 JUMP JUMPDEST PUSH1 0x40 MLOAD DUP1 SWAP2 SUB SWAP1 LOG3 POP POP POP POP JUMP JUMPDEST PUSH1 0x1 PUSH1 0x1 PUSH1 0xA0 SHL SUB DUP4 AND PUSH2 0xF3E JUMPI DUP1 PUSH1 0x2 PUSH0 DUP3 DUP3 SLOAD PUSH2 0xF33 SWAP2 SWAP1 PUSH2 0x125B JUMP JUMPDEST SWAP1 SWAP2 SSTORE POP PUSH2 0xFAE SWAP1 POP JUMP JUMPDEST PUSH1 0x1 PUSH1 0x1 PUSH1 0xA0 SHL SUB DUP4 AND PUSH0 SWAP1 DUP2 MSTORE PUSH1 0x20 DUP2 SWAP1 MSTORE PUSH1 0x40 SWAP1 KECCAK256 SLOAD DUP2 DUP2 LT ISZERO PUSH2 0xF90 JUMPI PUSH1 0x40 MLOAD PUSH4 0x391434E3 PUSH1 0xE2 SHL DUP2 MSTORE PUSH1 0x1 PUSH1 0x1 PUSH1 0xA0 SHL SUB DUP6 AND PUSH1 0x4 DUP3 ADD MSTORE PUSH1 0x24 DUP2 ADD DUP3 SWAP1 MSTORE PUSH1 0x44 DUP2 ADD DUP4 SWAP1 MSTORE PUSH1 0x64 ADD PUSH2 0xCC4 JUMP JUMPDEST PUSH1 0x1 PUSH1 0x1 PUSH1 0xA0 SHL SUB DUP5 AND PUSH0 SWAP1 DUP2 MSTORE PUSH1 0x20 DUP2 SWAP1 MSTORE PUSH1 0x40 SWAP1 KECCAK256 SWAP1 DUP3 SWAP1 SUB SWAP1 SSTORE JUMPDEST PUSH1 0x1 PUSH1 0x1 PUSH1 0xA0 SHL SUB DUP3 AND PUSH2 0xFCA JUMPI PUSH1 0x2 DUP1 SLOAD DUP3 SWAP1 SUB SWAP1 SSTORE PUSH2 0xFE8 JUMP JUMPDEST PUSH1 0x1 PUSH1 0x1 PUSH1 0xA0 SHL SUB DUP3 AND PUSH0 SWAP1 DUP2 MSTORE PUSH1 0x20 DUP2 SWAP1 MSTORE PUSH1 0x40 SWAP1 KECCAK256 DUP1 SLOAD DUP3 ADD SWAP1 SSTORE JUMPDEST DUP2 PUSH1 0x1 PUSH1 0x1 PUSH1 0xA0 SHL SUB AND DUP4 PUSH1 0x1 PUSH1 0x1 PUSH1 0xA0 SHL SUB AND PUSH32 0xDDF252AD1BE2C89B69C2B068FC378DAA952BA7F163C4A11628F55A4DF523B3EF DUP4 PUSH1 0x40 MLOAD PUSH2 0x102D SWAP2 DUP2 MSTORE PUSH1 0x20 ADD SWAP1 JUMP JUMPDEST PUSH1 0x40 MLOAD DUP1 SWAP2 SUB SWAP1 LOG3 POP POP POP JUMP JUMPDEST PUSH0 DUP1 PUSH1 0x20 PUSH0 DUP5 MLOAD PUSH1 0x20 DUP7 ADD PUSH0 DUP9 GAS CALL DUP1 PUSH2 0x1059 JUMPI PUSH1 0x40 MLOAD RETURNDATASIZE PUSH0 DUP3 RETURNDATACOPY RETURNDATASIZE DUP2 REVERT JUMPDEST POP POP PUSH0 MLOAD RETURNDATASIZE SWAP2 POP DUP2 ISZERO PUSH2 0x1070 JUMPI DUP1 PUSH1 0x1 EQ ISZERO PUSH2 0x107D JUMP JUMPDEST PUSH1 0x1 PUSH1 0x1 PUSH1 0xA0 SHL SUB DUP5 AND EXTCODESIZE ISZERO JUMPDEST ISZERO PUSH2 0xD51 JUMPI PUSH1 0x40 MLOAD PUSH4 0x5274AFE7 PUSH1 0xE0 SHL DUP2 MSTORE PUSH1 0x1 PUSH1 0x1 PUSH1 0xA0 SHL SUB DUP6 AND PUSH1 0x4 DUP3 ADD MSTORE PUSH1 0x24 ADD PUSH2 0xCC4 JUMP JUMPDEST PUSH0 PUSH1 0x20 DUP3 DUP5 SUB SLT ISZERO PUSH2 0x10B6 JUMPI PUSH0 DUP1 REVERT JUMPDEST DUP2 CALLDATALOAD PUSH1 0x1 PUSH1 0x1 PUSH1 0xE0 SHL SUB NOT DUP2 AND DUP2 EQ PUSH2 0xC86 JUMPI PUSH0 DUP1 REVERT JUMPDEST PUSH1 0x20 DUP2 MSTORE PUSH0 DUP3 MLOAD DUP1 PUSH1 0x20 DUP5 ADD MSTORE DUP1 PUSH1 0x20 DUP6 ADD PUSH1 0x40 DUP6 ADD MCOPY PUSH0 PUSH1 0x40 DUP3 DUP6 ADD ADD MSTORE PUSH1 0x40 PUSH1 0x1F NOT PUSH1 0x1F DUP4 ADD AND DUP5 ADD ADD SWAP2 POP POP SWAP3 SWAP2 POP POP JUMP JUMPDEST DUP1 CALLDATALOAD PUSH1 0x1 PUSH1 0x1 PUSH1 0xA0 SHL SUB DUP2 AND DUP2 EQ PUSH2 0x1118 JUMPI PUSH0 DUP1 REVERT JUMPDEST SWAP2 SWAP1 POP JUMP JUMPDEST PUSH0 DUP1 PUSH1 0x40 DUP4 DUP6 SUB SLT ISZERO PUSH2 0x112E JUMPI PUSH0 DUP1 REVERT JUMPDEST PUSH2 0x1137 DUP4 PUSH2 0x1102 JUMP JUMPDEST SWAP5 PUSH1 0x20 SWAP4 SWAP1 SWAP4 ADD CALLDATALOAD SWAP4 POP POP POP JUMP JUMPDEST PUSH0 PUSH1 0x20 DUP3 DUP5 SUB SLT ISZERO PUSH2 0x1155 JUMPI PUSH0 DUP1 REVERT JUMPDEST POP CALLDATALOAD SWAP2 SWAP1 POP JUMP JUMPDEST PUSH0 DUP1 PUSH0 PUSH1 0x60 DUP5 DUP7 SUB SLT ISZERO PUSH2 0x116E JUMPI PUSH0 DUP1 REVERT JUMPDEST PUSH2 0x1177 DUP5 PUSH2 0x1102 JUMP JUMPDEST SWAP3 POP PUSH2 0x1185 PUSH1 0x20 DUP6 ADD PUSH2 0x1102 JUMP JUMPDEST SWAP3 SWAP6 SWAP3 SWAP5 POP POP POP PUSH1 0x40 SWAP2 SWAP1 SWAP2 ADD CALLDATALOAD SWAP1 JUMP JUMPDEST PUSH0 PUSH1 0x20 DUP3 DUP5 SUB SLT ISZERO PUSH2 0x11A6 JUMPI PUSH0 DUP1 REVERT JUMPDEST PUSH2 0xC86 DUP3 PUSH2 0x1102 JUMP JUMPDEST PUSH0 DUP1 PUSH1 0x40 DUP4 DUP6 SUB SLT ISZERO PUSH2 0x11C0 JUMPI PUSH0 DUP1 REVERT JUMPDEST PUSH2 0x11C9 DUP4 PUSH2 0x1102 JUMP JUMPDEST SWAP2 POP PUSH2 0x11D7 PUSH1 0x20 DUP5 ADD PUSH2 0x1102 JUMP JUMPDEST SWAP1 POP SWAP3 POP SWAP3 SWAP1 POP JUMP JUMPDEST PUSH1 0x1 DUP2 DUP2 SHR SWAP1 DUP3 AND DUP1 PUSH2 0x11F4 JUMPI PUSH1 0x7F DUP3 AND SWAP2 POP JUMPDEST PUSH1 0x20 DUP3 LT DUP2 SUB PUSH2 0x1212 JUMPI PUSH4 0x4E487B71 PUSH1 0xE0 SHL PUSH0 MSTORE PUSH1 0x22 PUSH1 0x4 MSTORE PUSH1 0x24 PUSH0 REVERT JUMPDEST POP SWAP2 SWAP1 POP JUMP JUMPDEST DUP1 MLOAD PUSH1 0x1 PUSH1 0x1 PUSH1 0xC0 SHL SUB DUP2 AND DUP2 EQ PUSH2 0x1118 JUMPI PUSH0 DUP1 REVERT JUMPDEST PUSH0 PUSH1 0x20 DUP3 DUP5 SUB SLT ISZERO PUSH2 0x123E JUMPI PUSH0 DUP1 REVERT JUMPDEST PUSH2 0xC86 DUP3 PUSH2 0x1218 JUMP JUMPDEST PUSH4 0x4E487B71 PUSH1 0xE0 SHL PUSH0 MSTORE PUSH1 0x11 PUSH1 0x4 MSTORE PUSH1 0x24 PUSH0 REVERT JUMPDEST DUP1 DUP3 ADD DUP1 DUP3 GT ISZERO PUSH2 0x3E9 JUMPI PUSH2 0x3E9 PUSH2 0x1247 JUMP JUMPDEST DUP1 DUP3 MUL DUP2 ISZERO DUP3 DUP3 DIV DUP5 EQ OR PUSH2 0x3E9 JUMPI PUSH2 0x3E9 PUSH2 0x1247 JUMP JUMPDEST PUSH0 DUP3 PUSH2 0x129F JUMPI PUSH4 0x4E487B71 PUSH1 0xE0 SHL PUSH0 MSTORE PUSH1 0x12 PUSH1 0x4 MSTORE PUSH1 0x24 PUSH0 REVERT JUMPDEST POP DIV SWAP1 JUMP JUMPDEST PUSH0 PUSH1 0x20 DUP3 DUP5 SUB SLT ISZERO PUSH2 0x12B4 JUMPI PUSH0 DUP1 REVERT JUMPDEST POP MLOAD SWAP2 SWAP1 POP JUMP JUMPDEST DUP1 MLOAD PUSH8 0xFFFFFFFFFFFFFFFF DUP2 AND DUP2 EQ PUSH2 0x1118 JUMPI PUSH0 DUP1 REVERT JUMPDEST PUSH0 PUSH1 0x20 DUP3 DUP5 SUB SLT ISZERO PUSH2 0x12E2 JUMPI PUSH0 DUP1 REVERT JUMPDEST PUSH2 0xC86 DUP3 PUSH2 0x12BB JUMP JUMPDEST PUSH0 PUSH1 0x40 DUP3 DUP5 SUB SLT DUP1 ISZERO PUSH2 0x12FC JUMPI PUSH0 DUP1 REVERT JUMPDEST POP PUSH1 0x40 DUP1 MLOAD SWAP1 DUP2 ADD PUSH8 0xFFFFFFFFFFFFFFFF DUP2 GT DUP3 DUP3 LT OR ISZERO PUSH2 0x132C JUMPI PUSH4 0x4E487B71 PUSH1 0xE0 SHL PUSH0 MSTORE PUSH1 0x41 PUSH1 0x4 MSTORE PUSH1 0x24 PUSH0 REVERT JUMPDEST PUSH1 0x40 MSTORE PUSH2 0x1338 DUP4 PUSH2 0x1218 JUMP JUMPDEST DUP2 MSTORE PUSH2 0x1346 PUSH1 0x20 DUP5 ADD PUSH2 0x12BB JUMP JUMPDEST PUSH1 0x20 DUP3 ADD MSTORE SWAP4 SWAP3 POP POP POP JUMP JUMPDEST PUSH8 0xFFFFFFFFFFFFFFFF DUP3 DUP2 AND DUP3 DUP3 AND SUB SWAP1 DUP2 GT ISZERO PUSH2 0x3E9 JUMPI PUSH2 0x3E9 PUSH2 0x1247 JUMP JUMPDEST PUSH1 0x1 PUSH1 0x1 PUSH1 0xC0 SHL SUB DUP2 DUP2 AND DUP4 DUP3 AND ADD SWAP1 DUP2 GT ISZERO PUSH2 0x3E9 JUMPI PUSH2 0x3E9 PUSH2 0x1247 JUMP INVALID LOG2 PUSH5 0x6970667358 0x22 SLT KECCAK256 0xA9 AND 0xB5 CALLCODE 0xBF DELEGATECALL MUL 0xEF 0xC0 PUSH0 0xDE LOG2 0xF7 SWAP4 REVERT 0xDC PUSH31 0x5E99CB07466B2B5CF5EC62F295FBB564736F6C634300081A00330000000000 "
				},
				"gasEstimates": {
					"creation": {
						"codeDepositCost": "1012600",
						"executionCost": "infinite",
						"totalCost": "infinite"
					},
					"external": {
						"allowance(address,address)": "infinite",
						"approve(address,uint256)": "24769",
						"balanceOf(address)": "2582",
						"decimals()": "287",
						"isUnlocked()": "infinite",
						"name()": "infinite",
						"price()": "2405",
						"save(uint256)": "infinite",
						"saveTo(address,uint256)": "infinite",
						"saverBalance(address)": "infinite",
						"savings()": "infinite",
						"supportsInterface(bytes4)": "368",
						"symbol()": "infinite",
						"totalBalance()": "infinite",
						"totalRewards()": "2384",
						"totalSupply()": "2403",
						"transfer(address,uint256)": "51227",
						"transferFrom(address,address,uint256)": "infinite",
						"untilUnlocked()": "infinite",
						"withdraw(uint256)": "infinite",
						"withdrawTo(address,uint256)": "infinite",
						"zchf()": "infinite"
					}
				},
				"methodIdentifiers": {
					"allowance(address,address)": "dd62ed3e",
					"approve(address,uint256)": "095ea7b3",
					"balanceOf(address)": "70a08231",
					"decimals()": "313ce567",
					"isUnlocked()": "8380edb7",
					"name()": "06fdde03",
					"price()": "a035b1fe",
					"save(uint256)": "1b862027",
					"saveTo(address,uint256)": "3fa84516",
					"saverBalance(address)": "e8e511a4",
					"savings()": "c86d6ae4",
					"supportsInterface(bytes4)": "01ffc9a7",
					"symbol()": "95d89b41",
					"totalBalance()": "ad7a672f",
					"totalRewards()": "0e15561a",
					"totalSupply()": "18160ddd",
					"transfer(address,uint256)": "a9059cbb",
					"transferFrom(address,address,uint256)": "23b872dd",
					"untilUnlocked()": "5b02907b",
					"withdraw(uint256)": "2e1a7d4d",
					"withdrawTo(address,uint256)": "205c2878",
					"zchf()": "c4d4803a"
				}
			},
			"storageLayout": {
				"storage": [
					{
						"astId": 249,
						"contract": "contracts/SavingsToken.sol:SavingsToken",
						"label": "_balances",
						"offset": 0,
						"slot": "0",
						"type": "t_mapping(t_address,t_uint256)"
					},
					{
						"astId": 255,
						"contract": "contracts/SavingsToken.sol:SavingsToken",
						"label": "_allowances",
						"offset": 0,
						"slot": "1",
						"type": "t_mapping(t_address,t_mapping(t_address,t_uint256))"
					},
					{
						"astId": 257,
						"contract": "contracts/SavingsToken.sol:SavingsToken",
						"label": "_totalSupply",
						"offset": 0,
						"slot": "2",
						"type": "t_uint256"
					},
					{
						"astId": 259,
						"contract": "contracts/SavingsToken.sol:SavingsToken",
						"label": "_name",
						"offset": 0,
						"slot": "3",
						"type": "t_string_storage"
					},
					{
						"astId": 261,
						"contract": "contracts/SavingsToken.sol:SavingsToken",
						"label": "_symbol",
						"offset": 0,
						"slot": "4",
						"type": "t_string_storage"
					},
					{
						"astId": 5031,
						"contract": "contracts/SavingsToken.sol:SavingsToken",
						"label": "totalRewards",
						"offset": 0,
						"slot": "5",
						"type": "t_uint256"
					},
					{
						"astId": 5034,
						"contract": "contracts/SavingsToken.sol:SavingsToken",
						"label": "price",
						"offset": 0,
						"slot": "6",
						"type": "t_uint256"
					}
				],
				"types": {
					"t_address": {
						"encoding": "inplace",
						"label": "address",
						"numberOfBytes": "20"
					},
					"t_mapping(t_address,t_mapping(t_address,t_uint256))": {
						"encoding": "mapping",
						"key": "t_address",
						"label": "mapping(address => mapping(address => uint256))",
						"numberOfBytes": "32",
						"value": "t_mapping(t_address,t_uint256)"
					},
					"t_mapping(t_address,t_uint256)": {
						"encoding": "mapping",
						"key": "t_address",
						"label": "mapping(address => uint256)",
						"numberOfBytes": "32",
						"value": "t_uint256"
					},
					"t_string_storage": {
						"encoding": "bytes",
						"label": "string",
						"numberOfBytes": "32"
					},
					"t_uint256": {
						"encoding": "inplace",
						"label": "uint256",
						"numberOfBytes": "32"
					}
				}
			},
			"userdoc": {
				"kind": "user",
				"methods": {},
				"version": 1
			}
		}
	}
}