{
	"data": {
		"bytecode": {
			"linkReferences": {},
			"object": "60c0604052670de0b6b3a76400006006553480156200001c575f80fd5b5060405162001840380380620018408339810160408190526200003f9162000151565b818160036200004f83826200026d565b5060046200005e82826200026d565b5050506001600160a01b0393841660805250501660a05262000335565b6001600160a01b038116811462000090575f80fd5b50565b634e487b7160e01b5f52604160045260245ffd5b5f82601f830112620000b7575f80fd5b81516001600160401b0380821115620000d457620000d462000093565b604051601f8301601f19908116603f01168101908282118183101715620000ff57620000ff62000093565b816040528381526020925086838588010111156200011b575f80fd5b5f91505b838210156200013e57858201830151818301840152908201906200011f565b5f93810190920192909252949350505050565b5f805f806080858703121562000165575f80fd5b845162000172816200007b565b602086015190945062000185816200007b565b60408601519093506001600160401b0380821115620001a2575f80fd5b620001b088838901620000a7565b93506060870151915080821115620001c6575f80fd5b50620001d587828801620000a7565b91505092959194509250565b600181811c90821680620001f657607f821691505b6020821081036200021557634e487b7160e01b5f52602260045260245ffd5b50919050565b601f82111562000268575f81815260208120601f850160051c81016020861015620002435750805b601f850160051c820191505b8181101562000264578281556001016200024f565b5050505b505050565b81516001600160401b0381111562000289576200028962000093565b620002a1816200029a8454620001e1565b846200021b565b602080601f831160018114620002d7575f8415620002bf5750858301515b5f19600386901b1c1916600185901b17855562000264565b5f85815260208120601f198616915b828110156200030757888601518255948401946001909101908401620002e6565b50858210156200032557878501515f19600388901b60f8161c191681555b5050505050600190811b01905550565b60805160a051611495620003ab5f395f81816102c90152818161042c015281816105a8015281816106b9015281816107a90152818161083c015281816108c801528181610972015281816109f201528181610ab401528181610b3a0152610c4a01525f818161028a015261067301526114955ff3fe608060405234801561000f575f80fd5b506004361061013d575f3560e01c80635b02907b116100b4578063ad7a672f11610079578063ad7a672f1461027d578063c4d4803a14610285578063c86d6ae4146102c4578063d54ad2a1146102eb578063dd62ed3e146102f4578063e8e511a41461032c575f80fd5b80635b02907b1461022a57806370a08231146102325780638380edb71461025a57806395d89b4114610262578063a9059cbb1461026a575f80fd5b8063205c287811610105578063205c2878146101c757806323b872dd146101da5780632e1a7d4d146101ed578063313ce5671461020057806334109b331461020f5780633fa8451614610217575f80fd5b806301ffc9a71461014157806306fdde031461017a578063095ea7b31461018f57806318160ddd146101a25780631b862027146101b4575b5f80fd5b61016561014f366004611136565b6001600160e01b031916634a17459160e11b1490565b60405190151581526020015b60405180910390f35b61018261033f565b604051610171919061115d565b61016561019d3660046111c3565b6103cf565b6002545b604051908152602001610171565b6101a66101c23660046111eb565b6103e8565b6101a66101d53660046111c3565b6103f3565b6101656101e8366004611202565b610547565b6101a66101fb3660046111eb565b61056a565b60405160128152602001610171565b6101a6610575565b6101a66102253660046111c3565b61065d565b6101a6610793565b6101a661024036600461123b565b6001600160a01b03165f9081526020819052604090205490565b61016561095b565b610182610a81565b6101656102783660046111c3565b610a90565b6101a6610a9d565b6102ac7f000000000000000000000000000000000000000000000000000000000000000081565b6040516001600160a01b039091168152602001610171565b6102ac7f000000000000000000000000000000000000000000000000000000000000000081565b6101a660055481565b6101a6610302366004611254565b6001600160a01b039182165f90815260016020908152604080832093909416825291909152205490565b6101a661033a36600461123b565b610bc3565b60606003805461034e90611285565b80601f016020809104026020016040519081016040528092919081815260200182805461037a90611285565b80156103c55780601f1061039c576101008083540402835291602001916103c5565b820191905f5260205f20905b8154815290600101906020018083116103a857829003601f168201915b5050505050905090565b5f336103dc818585610c21565b60019150505b92915050565b5f6103e2338361065d565b5f6103fc610c33565b6104063383610d2f565b5f670de0b6b3a76400006006548461041e91906112d1565b61042891906112e8565b90507f00000000000000000000000000000000000000000000000000000000000000006001600160a01b0316631791dc5e8561046360025490565b1561046e5783610477565b6001600160c01b035b6040516001600160e01b031960e085901b1681526001600160a01b0390921660048301526001600160c01b031660248201526044016020604051808303815f875af11580156104c8573d5f803e3d5ffd5b505050506040513d601f19601f820116820180604052508101906104ec9190611307565b6006546040805186815260208101849052908101919091529091506001600160a01b038516907f75e161b3e824b114fc1a33274bd7091918dd4e639cede50b78b15a4eea956a21906060015b60405180910390a29392505050565b5f33610554858285610d6c565b61055f858585610de7565b506001949350505050565b5f6103e233836103f3565b5f8061058060025490565b9050805f0361059157505060065490565b6040516377267ec360e01b81523060048201525f907f00000000000000000000000000000000000000000000000000000000000000006001600160a01b0316906377267ec390602401602060405180830381865afa1580156105f5573d5f803e3d5ffd5b505050506040513d601f19601f820116820180604052508101906106199190611334565b6001600160c01b0316905061062d60025490565b61063f82670de0b6b3a76400006112d1565b61064991906112e8565b600654610656919061134d565b9250505090565b5f610666610c33565b61069b6001600160a01b037f000000000000000000000000000000000000000000000000000000000000000016333085610e44565b604051633f51270560e21b81526001600160c01b03831660048201527f00000000000000000000000000000000000000000000000000000000000000006001600160a01b03169063fd449c14906024015f604051808303815f87803b158015610702575f80fd5b505af1158015610714573d5f803e3d5ffd5b505050505f60065483670de0b6b3a764000061073091906112d1565b61073a91906112e8565b90506107468482610e9e565b6006546040805185815260208101849052908101919091526001600160a01b038516907f710967c2c90aa017caf1df3ec721b9981e4350d9c6398f8acf4cfacd1aec73f890606001610538565b5f61079c61095b565b156107a657505f90565b5f7f00000000000000000000000000000000000000000000000000000000000000006001600160a01b031663b079f1636040518163ffffffff1660e01b8152600401602060405180830381865afa158015610803573d5f803e3d5ffd5b505050506040513d601f19601f820116820180604052508101906108279190611377565b604051631f7cdd5f60e01b81523060048201527f00000000000000000000000000000000000000000000000000000000000000006001600160a01b031690631f7cdd5f906024016040805180830381865afa158015610888573d5f803e3d5ffd5b505050506040513d601f19601f820116820180604052508101906108ac9190611390565b602001516108ba91906113f5565b67ffffffffffffffff1690507f00000000000000000000000000000000000000000000000000000000000000006001600160a01b03166306a7b3766040518163ffffffff1660e01b8152600401602060405180830381865afa158015610922573d5f803e3d5ffd5b505050506040513d601f19601f82011682018060405250810190610946919061141d565b6109559062ffffff16826112e8565b91505090565b604051631f7cdd5f60e01b81523060048201525f907f00000000000000000000000000000000000000000000000000000000000000006001600160a01b031690631f7cdd5f906024016040805180830381865afa1580156109be573d5f803e3d5ffd5b505050506040513d601f19601f820116820180604052508101906109e29190611390565b6020015167ffffffffffffffff167f00000000000000000000000000000000000000000000000000000000000000006001600160a01b031663b079f1636040518163ffffffff1660e01b8152600401602060405180830381865afa158015610a4c573d5f803e3d5ffd5b505050506040513d601f19601f82011682018060405250810190610a709190611377565b67ffffffffffffffff161015905090565b60606004805461034e90611285565b5f336103dc818585610de7565b6040516377267ec360e01b81523060048201525f907f00000000000000000000000000000000000000000000000000000000000000006001600160a01b0316906377267ec390602401602060405180830381865afa158015610b01573d5f803e3d5ffd5b505050506040513d601f19601f82011682018060405250810190610b259190611334565b604051631f7cdd5f60e01b81523060048201527f00000000000000000000000000000000000000000000000000000000000000006001600160a01b031690631f7cdd5f906024016040805180830381865afa158015610b86573d5f803e3d5ffd5b505050506040513d601f19601f82011682018060405250810190610baa9190611390565b51610bb5919061143f565b6001600160c01b0316905090565b5f80610bce60025490565b9050805f03610bdf57505f92915050565b80610bfe846001600160a01b03165f9081526020819052604090205490565b610c06610a9d565b610c1091906112d1565b610c1a91906112e8565b9392505050565b610c2e8383836001610ed2565b505050565b6040516377267ec360e01b81523060048201525f907f00000000000000000000000000000000000000000000000000000000000000006001600160a01b0316906377267ec390602401602060405180830381865afa158015610c97573d5f803e3d5ffd5b505050506040513d601f19601f82011682018060405250810190610cbb9190611334565b6001600160c01b031690505f81118015610cdc57505f610cda60025490565b115b15610d2c578060055f828254610cf2919061134d565b9091555050600254610d0c82670de0b6b3a76400006112d1565b610d1691906112e8565b60065f828254610d26919061134d565b90915550505b50565b6001600160a01b038216610d5d57604051634b637e8f60e11b81525f60048201526024015b60405180910390fd5b610d68825f83610fa4565b5050565b6001600160a01b038381165f908152600160209081526040808320938616835292905220545f198114610de15781811015610dd357604051637dc7a0d960e11b81526001600160a01b03841660048201526024810182905260448101839052606401610d54565b610de184848484035f610ed2565b50505050565b6001600160a01b038316610e1057604051634b637e8f60e11b81525f6004820152602401610d54565b6001600160a01b038216610e395760405163ec442f0560e01b81525f6004820152602401610d54565b610c2e838383610fa4565b604080516001600160a01b0385811660248301528416604482015260648082018490528251808303909101815260849091019091526020810180516001600160e01b03166323b872dd60e01b179052610de19085906110ca565b6001600160a01b038216610ec75760405163ec442f0560e01b81525f6004820152602401610d54565b610d685f8383610fa4565b6001600160a01b038416610efb5760405163e602df0560e01b81525f6004820152602401610d54565b6001600160a01b038316610f2457604051634a1406b160e11b81525f6004820152602401610d54565b6001600160a01b038085165f9081526001602090815260408083209387168352929052208290558015610de157826001600160a01b0316846001600160a01b03167f8c5be1e5ebec7d5bd14f71427d1e84f3dd0314c0f7b2291e5b200ac8c7c3b92584604051610f9691815260200190565b60405180910390a350505050565b6001600160a01b038316610fce578060025f828254610fc3919061134d565b9091555061103e9050565b6001600160a01b0383165f90815260208190526040902054818110156110205760405163391434e360e21b81526001600160a01b03851660048201526024810182905260448101839052606401610d54565b6001600160a01b0384165f9081526020819052604090209082900390555b6001600160a01b03821661105a57600280548290039055611078565b6001600160a01b0382165f9081526020819052604090208054820190555b816001600160a01b0316836001600160a01b03167fddf252ad1be2c89b69c2b068fc378daa952ba7f163c4a11628f55a4df523b3ef836040516110bd91815260200190565b60405180910390a3505050565b5f8060205f8451602086015f885af1806110e9576040513d5f823e3d81fd5b50505f513d9150811561110057806001141561110d565b6001600160a01b0384163b155b15610de157604051635274afe760e01b81526001600160a01b0385166004820152602401610d54565b5f60208284031215611146575f80fd5b81356001600160e01b031981168114610c1a575f80fd5b5f6020808352835180828501525f5b818110156111885785810183015185820160400152820161116c565b505f604082860101526040601f19601f8301168501019250505092915050565b80356001600160a01b03811681146111be575f80fd5b919050565b5f80604083850312156111d4575f80fd5b6111dd836111a8565b946020939093013593505050565b5f602082840312156111fb575f80fd5b5035919050565b5f805f60608486031215611214575f80fd5b61121d846111a8565b925061122b602085016111a8565b9150604084013590509250925092565b5f6020828403121561124b575f80fd5b610c1a826111a8565b5f8060408385031215611265575f80fd5b61126e836111a8565b915061127c602084016111a8565b90509250929050565b600181811c9082168061129957607f821691505b6020821081036112b757634e487b7160e01b5f52602260045260245ffd5b50919050565b634e487b7160e01b5f52601160045260245ffd5b80820281158282048414176103e2576103e26112bd565b5f8261130257634e487b7160e01b5f52601260045260245ffd5b500490565b5f60208284031215611317575f80fd5b5051919050565b80516001600160c01b03811681146111be575f80fd5b5f60208284031215611344575f80fd5b610c1a8261131e565b808201808211156103e2576103e26112bd565b805167ffffffffffffffff811681146111be575f80fd5b5f60208284031215611387575f80fd5b610c1a82611360565b5f604082840312156113a0575f80fd5b6040516040810181811067ffffffffffffffff821117156113cf57634e487b7160e01b5f52604160045260245ffd5b6040526113db8361131e565b81526113e960208401611360565b60208201529392505050565b67ffffffffffffffff828116828216039080821115611416576114166112bd565b5092915050565b5f6020828403121561142d575f80fd5b815162ffffff81168114610c1a575f80fd5b6001600160c01b03818116838216019080821115611416576114166112bd56fea2646970667358221220f6a1dd0cc152b6cb0f6ba53c4b89d330d34a1f343f7c6685c6413a6747a6820d64736f6c63430008140033",
			"opcodes": "PUSH1 0xC0 PUSH1 0x40 MSTORE PUSH8 0xDE0B6B3A7640000 PUSH1 0x6 SSTORE CALLVALUE DUP1 ISZERO PUSH3 0x1C JUMPI PUSH0 DUP1 REVERT JUMPDEST POP PUSH1 0x40 MLOAD PUSH3 0x1840 CODESIZE SUB DUP1 PUSH3 0x1840 DUP4 CODECOPY DUP2 ADD PUSH1 0x40 DUP2 SWAP1 MSTORE PUSH3 0x3F SWAP2 PUSH3 0x151 JUMP JUMPDEST DUP2 DUP2 PUSH1 0x3 PUSH3 0x4F DUP4 DUP3 PUSH3 0x26D JUMP JUMPDEST POP PUSH1 0x4 PUSH3 0x5E DUP3 DUP3 PUSH3 0x26D JUMP JUMPDEST POP POP POP PUSH1 0x1 PUSH1 0x1 PUSH1 0xA0 SHL SUB SWAP4 DUP5 AND PUSH1 0x80 MSTORE POP POP AND PUSH1 0xA0 MSTORE PUSH3 0x335 JUMP JUMPDEST PUSH1 0x1 PUSH1 0x1 PUSH1 0xA0 SHL SUB DUP2 AND DUP2 EQ PUSH3 0x90 JUMPI PUSH0 DUP1 REVERT JUMPDEST POP JUMP JUMPDEST PUSH4 0x4E487B71 PUSH1 0xE0 SHL PUSH0 MSTORE PUSH1 0x41 PUSH1 0x4 MSTORE PUSH1 0x24 PUSH0 REVERT JUMPDEST PUSH0 DUP3 PUSH1 0x1F DUP4 ADD SLT PUSH3 0xB7 JUMPI PUSH0 DUP1 REVERT JUMPDEST DUP2 MLOAD PUSH1 0x1 PUSH1 0x1 PUSH1 0x40 SHL SUB DUP1 DUP3 GT ISZERO PUSH3 0xD4 JUMPI PUSH3 0xD4 PUSH3 0x93 JUMP JUMPDEST PUSH1 0x40 MLOAD PUSH1 0x1F DUP4 ADD PUSH1 0x1F NOT SWAP1 DUP2 AND PUSH1 0x3F ADD AND DUP2 ADD SWAP1 DUP3 DUP3 GT DUP2 DUP4 LT OR ISZERO PUSH3 0xFF JUMPI PUSH3 0xFF PUSH3 0x93 JUMP JUMPDEST DUP2 PUSH1 0x40 MSTORE DUP4 DUP2 MSTORE PUSH1 0x20 SWAP3 POP DUP7 DUP4 DUP6 DUP9 ADD ADD GT ISZERO PUSH3 0x11B JUMPI PUSH0 DUP1 REVERT JUMPDEST PUSH0 SWAP2 POP JUMPDEST DUP4 DUP3 LT ISZERO PUSH3 0x13E JUMPI DUP6 DUP3 ADD DUP4 ADD MLOAD DUP2 DUP4 ADD DUP5 ADD MSTORE SWAP1 DUP3 ADD SWAP1 PUSH3 0x11F JUMP JUMPDEST PUSH0 SWAP4 DUP2 ADD SWAP1 SWAP3 ADD SWAP3 SWAP1 SWAP3 MSTORE SWAP5 SWAP4 POP POP POP POP JUMP JUMPDEST PUSH0 DUP1 PUSH0 DUP1 PUSH1 0x80 DUP6 DUP8 SUB SLT ISZERO PUSH3 0x165 JUMPI PUSH0 DUP1 REVERT JUMPDEST DUP5 MLOAD PUSH3 0x172 DUP2 PUSH3 0x7B JUMP JUMPDEST PUSH1 0x20 DUP7 ADD MLOAD SWAP1 SWAP5 POP PUSH3 0x185 DUP2 PUSH3 0x7B JUMP JUMPDEST PUSH1 0x40 DUP7 ADD MLOAD SWAP1 SWAP4 POP PUSH1 0x1 PUSH1 0x1 PUSH1 0x40 SHL SUB DUP1 DUP3 GT ISZERO PUSH3 0x1A2 JUMPI PUSH0 DUP1 REVERT JUMPDEST PUSH3 0x1B0 DUP9 DUP4 DUP10 ADD PUSH3 0xA7 JUMP JUMPDEST SWAP4 POP PUSH1 0x60 DUP8 ADD MLOAD SWAP2 POP DUP1 DUP3 GT ISZERO PUSH3 0x1C6 JUMPI PUSH0 DUP1 REVERT JUMPDEST POP PUSH3 0x1D5 DUP8 DUP3 DUP9 ADD PUSH3 0xA7 JUMP JUMPDEST SWAP2 POP POP SWAP3 SWAP6 SWAP2 SWAP5 POP SWAP3 POP JUMP JUMPDEST PUSH1 0x1 DUP2 DUP2 SHR SWAP1 DUP3 AND DUP1 PUSH3 0x1F6 JUMPI PUSH1 0x7F DUP3 AND SWAP2 POP JUMPDEST PUSH1 0x20 DUP3 LT DUP2 SUB PUSH3 0x215 JUMPI PUSH4 0x4E487B71 PUSH1 0xE0 SHL PUSH0 MSTORE PUSH1 0x22 PUSH1 0x4 MSTORE PUSH1 0x24 PUSH0 REVERT JUMPDEST POP SWAP2 SWAP1 POP JUMP JUMPDEST PUSH1 0x1F DUP3 GT ISZERO PUSH3 0x268 JUMPI PUSH0 DUP2 DUP2 MSTORE PUSH1 0x20 DUP2 KECCAK256 PUSH1 0x1F DUP6 ADD PUSH1 0x5 SHR DUP2 ADD PUSH1 0x20 DUP7 LT ISZERO PUSH3 0x243 JUMPI POP DUP1 JUMPDEST PUSH1 0x1F DUP6 ADD PUSH1 0x5 SHR DUP3 ADD SWAP2 POP JUMPDEST DUP2 DUP2 LT ISZERO PUSH3 0x264 JUMPI DUP3 DUP2 SSTORE PUSH1 0x1 ADD PUSH3 0x24F JUMP JUMPDEST POP POP POP JUMPDEST POP POP POP JUMP JUMPDEST DUP2 MLOAD PUSH1 0x1 PUSH1 0x1 PUSH1 0x40 SHL SUB DUP2 GT ISZERO PUSH3 0x289 JUMPI PUSH3 0x289 PUSH3 0x93 JUMP JUMPDEST PUSH3 0x2A1 DUP2 PUSH3 0x29A DUP5 SLOAD PUSH3 0x1E1 JUMP JUMPDEST DUP5 PUSH3 0x21B JUMP JUMPDEST PUSH1 0x20 DUP1 PUSH1 0x1F DUP4 GT PUSH1 0x1 DUP2 EQ PUSH3 0x2D7 JUMPI PUSH0 DUP5 ISZERO PUSH3 0x2BF JUMPI POP DUP6 DUP4 ADD MLOAD JUMPDEST PUSH0 NOT PUSH1 0x3 DUP7 SWAP1 SHL SHR NOT AND PUSH1 0x1 DUP6 SWAP1 SHL OR DUP6 SSTORE PUSH3 0x264 JUMP JUMPDEST PUSH0 DUP6 DUP2 MSTORE PUSH1 0x20 DUP2 KECCAK256 PUSH1 0x1F NOT DUP7 AND SWAP2 JUMPDEST DUP3 DUP2 LT ISZERO PUSH3 0x307 JUMPI DUP9 DUP7 ADD MLOAD DUP3 SSTORE SWAP5 DUP5 ADD SWAP5 PUSH1 0x1 SWAP1 SWAP2 ADD SWAP1 DUP5 ADD PUSH3 0x2E6 JUMP JUMPDEST POP DUP6 DUP3 LT ISZERO PUSH3 0x325 JUMPI DUP8 DUP6 ADD MLOAD PUSH0 NOT PUSH1 0x3 DUP9 SWAP1 SHL PUSH1 0xF8 AND SHR NOT AND DUP2 SSTORE JUMPDEST POP POP POP POP POP PUSH1 0x1 SWAP1 DUP2 SHL ADD SWAP1 SSTORE POP JUMP JUMPDEST PUSH1 0x80 MLOAD PUSH1 0xA0 MLOAD PUSH2 0x1495 PUSH3 0x3AB PUSH0 CODECOPY PUSH0 DUP2 DUP2 PUSH2 0x2C9 ADD MSTORE DUP2 DUP2 PUSH2 0x42C ADD MSTORE DUP2 DUP2 PUSH2 0x5A8 ADD MSTORE DUP2 DUP2 PUSH2 0x6B9 ADD MSTORE DUP2 DUP2 PUSH2 0x7A9 ADD MSTORE DUP2 DUP2 PUSH2 0x83C ADD MSTORE DUP2 DUP2 PUSH2 0x8C8 ADD MSTORE DUP2 DUP2 PUSH2 0x972 ADD MSTORE DUP2 DUP2 PUSH2 0x9F2 ADD MSTORE DUP2 DUP2 PUSH2 0xAB4 ADD MSTORE DUP2 DUP2 PUSH2 0xB3A ADD MSTORE PUSH2 0xC4A ADD MSTORE PUSH0 DUP2 DUP2 PUSH2 0x28A ADD MSTORE PUSH2 0x673 ADD MSTORE PUSH2 0x1495 PUSH0 RETURN INVALID PUSH1 0x80 PUSH1 0x40 MSTORE CALLVALUE DUP1 ISZERO PUSH2 0xF JUMPI PUSH0 DUP1 REVERT JUMPDEST POP PUSH1 0x4 CALLDATASIZE LT PUSH2 0x13D JUMPI PUSH0 CALLDATALOAD PUSH1 0xE0 SHR DUP1 PUSH4 0x5B02907B GT PUSH2 0xB4 JUMPI DUP1 PUSH4 0xAD7A672F GT PUSH2 0x79 JUMPI DUP1 PUSH4 0xAD7A672F EQ PUSH2 0x27D JUMPI DUP1 PUSH4 0xC4D4803A EQ PUSH2 0x285 JUMPI DUP1 PUSH4 0xC86D6AE4 EQ PUSH2 0x2C4 JUMPI DUP1 PUSH4 0xD54AD2A1 EQ PUSH2 0x2EB JUMPI DUP1 PUSH4 0xDD62ED3E EQ PUSH2 0x2F4 JUMPI DUP1 PUSH4 0xE8E511A4 EQ PUSH2 0x32C JUMPI PUSH0 DUP1 REVERT JUMPDEST DUP1 PUSH4 0x5B02907B EQ PUSH2 0x22A JUMPI DUP1 PUSH4 0x70A08231 EQ PUSH2 0x232 JUMPI DUP1 PUSH4 0x8380EDB7 EQ PUSH2 0x25A JUMPI DUP1 PUSH4 0x95D89B41 EQ PUSH2 0x262 JUMPI DUP1 PUSH4 0xA9059CBB EQ PUSH2 0x26A JUMPI PUSH0 DUP1 REVERT JUMPDEST DUP1 PUSH4 0x205C2878 GT PUSH2 0x105 JUMPI DUP1 PUSH4 0x205C2878 EQ PUSH2 0x1C7 JUMPI DUP1 PUSH4 0x23B872DD EQ PUSH2 0x1DA JUMPI DUP1 PUSH4 0x2E1A7D4D EQ PUSH2 0x1ED JUMPI DUP1 PUSH4 0x313CE567 EQ PUSH2 0x200 JUMPI DUP1 PUSH4 0x34109B33 EQ PUSH2 0x20F JUMPI DUP1 PUSH4 0x3FA84516 EQ PUSH2 0x217 JUMPI PUSH0 DUP1 REVERT JUMPDEST DUP1 PUSH4 0x1FFC9A7 EQ PUSH2 0x141 JUMPI DUP1 PUSH4 0x6FDDE03 EQ PUSH2 0x17A JUMPI DUP1 PUSH4 0x95EA7B3 EQ PUSH2 0x18F JUMPI DUP1 PUSH4 0x18160DDD EQ PUSH2 0x1A2 JUMPI DUP1 PUSH4 0x1B862027 EQ PUSH2 0x1B4 JUMPI JUMPDEST PUSH0 DUP1 REVERT JUMPDEST PUSH2 0x165 PUSH2 0x14F CALLDATASIZE PUSH1 0x4 PUSH2 0x1136 JUMP JUMPDEST PUSH1 0x1 PUSH1 0x1 PUSH1 0xE0 SHL SUB NOT AND PUSH4 0x4A174591 PUSH1 0xE1 SHL EQ SWAP1 JUMP JUMPDEST PUSH1 0x40 MLOAD SWAP1 ISZERO ISZERO DUP2 MSTORE PUSH1 0x20 ADD JUMPDEST PUSH1 0x40 MLOAD DUP1 SWAP2 SUB SWAP1 RETURN JUMPDEST PUSH2 0x182 PUSH2 0x33F JUMP JUMPDEST PUSH1 0x40 MLOAD PUSH2 0x171 SWAP2 SWAP1 PUSH2 0x115D JUMP JUMPDEST PUSH2 0x165 PUSH2 0x19D CALLDATASIZE PUSH1 0x4 PUSH2 0x11C3 JUMP JUMPDEST PUSH2 0x3CF JUMP JUMPDEST PUSH1 0x2 SLOAD JUMPDEST PUSH1 0x40 MLOAD SWAP1 DUP2 MSTORE PUSH1 0x20 ADD PUSH2 0x171 JUMP JUMPDEST PUSH2 0x1A6 PUSH2 0x1C2 CALLDATASIZE PUSH1 0x4 PUSH2 0x11EB JUMP JUMPDEST PUSH2 0x3E8 JUMP JUMPDEST PUSH2 0x1A6 PUSH2 0x1D5 CALLDATASIZE PUSH1 0x4 PUSH2 0x11C3 JUMP JUMPDEST PUSH2 0x3F3 JUMP JUMPDEST PUSH2 0x165 PUSH2 0x1E8 CALLDATASIZE PUSH1 0x4 PUSH2 0x1202 JUMP JUMPDEST PUSH2 0x547 JUMP JUMPDEST PUSH2 0x1A6 PUSH2 0x1FB CALLDATASIZE PUSH1 0x4 PUSH2 0x11EB JUMP JUMPDEST PUSH2 0x56A JUMP JUMPDEST PUSH1 0x40 MLOAD PUSH1 0x12 DUP2 MSTORE PUSH1 0x20 ADD PUSH2 0x171 JUMP JUMPDEST PUSH2 0x1A6 PUSH2 0x575 JUMP JUMPDEST PUSH2 0x1A6 PUSH2 0x225 CALLDATASIZE PUSH1 0x4 PUSH2 0x11C3 JUMP JUMPDEST PUSH2 0x65D JUMP JUMPDEST PUSH2 0x1A6 PUSH2 0x793 JUMP JUMPDEST PUSH2 0x1A6 PUSH2 0x240 CALLDATASIZE PUSH1 0x4 PUSH2 0x123B JUMP JUMPDEST PUSH1 0x1 PUSH1 0x1 PUSH1 0xA0 SHL SUB AND PUSH0 SWAP1 DUP2 MSTORE PUSH1 0x20 DUP2 SWAP1 MSTORE PUSH1 0x40 SWAP1 KECCAK256 SLOAD SWAP1 JUMP JUMPDEST PUSH2 0x165 PUSH2 0x95B JUMP JUMPDEST PUSH2 0x182 PUSH2 0xA81 JUMP JUMPDEST PUSH2 0x165 PUSH2 0x278 CALLDATASIZE PUSH1 0x4 PUSH2 0x11C3 JUMP JUMPDEST PUSH2 0xA90 JUMP JUMPDEST PUSH2 0x1A6 PUSH2 0xA9D JUMP JUMPDEST PUSH2 0x2AC PUSH32 0x0 DUP2 JUMP JUMPDEST PUSH1 0x40 MLOAD PUSH1 0x1 PUSH1 0x1 PUSH1 0xA0 SHL SUB SWAP1 SWAP2 AND DUP2 MSTORE PUSH1 0x20 ADD PUSH2 0x171 JUMP JUMPDEST PUSH2 0x2AC PUSH32 0x0 DUP2 JUMP JUMPDEST PUSH2 0x1A6 PUSH1 0x5 SLOAD DUP2 JUMP JUMPDEST PUSH2 0x1A6 PUSH2 0x302 CALLDATASIZE PUSH1 0x4 PUSH2 0x1254 JUMP JUMPDEST PUSH1 0x1 PUSH1 0x1 PUSH1 0xA0 SHL SUB SWAP2 DUP3 AND PUSH0 SWAP1 DUP2 MSTORE PUSH1 0x1 PUSH1 0x20 SWAP1 DUP2 MSTORE PUSH1 0x40 DUP1 DUP4 KECCAK256 SWAP4 SWAP1 SWAP5 AND DUP3 MSTORE SWAP2 SWAP1 SWAP2 MSTORE KECCAK256 SLOAD SWAP1 JUMP JUMPDEST PUSH2 0x1A6 PUSH2 0x33A CALLDATASIZE PUSH1 0x4 PUSH2 0x123B JUMP JUMPDEST PUSH2 0xBC3 JUMP JUMPDEST PUSH1 0x60 PUSH1 0x3 DUP1 SLOAD PUSH2 0x34E SWAP1 PUSH2 0x1285 JUMP JUMPDEST DUP1 PUSH1 0x1F ADD PUSH1 0x20 DUP1 SWAP2 DIV MUL PUSH1 0x20 ADD PUSH1 0x40 MLOAD SWAP1 DUP2 ADD PUSH1 0x40 MSTORE DUP1 SWAP3 SWAP2 SWAP1 DUP2 DUP2 MSTORE PUSH1 0x20 ADD DUP3 DUP1 SLOAD PUSH2 0x37A SWAP1 PUSH2 0x1285 JUMP JUMPDEST DUP1 ISZERO PUSH2 0x3C5 JUMPI DUP1 PUSH1 0x1F LT PUSH2 0x39C JUMPI PUSH2 0x100 DUP1 DUP4 SLOAD DIV MUL DUP4 MSTORE SWAP2 PUSH1 0x20 ADD SWAP2 PUSH2 0x3C5 JUMP JUMPDEST DUP3 ADD SWAP2 SWAP1 PUSH0 MSTORE PUSH1 0x20 PUSH0 KECCAK256 SWAP1 JUMPDEST DUP2 SLOAD DUP2 MSTORE SWAP1 PUSH1 0x1 ADD SWAP1 PUSH1 0x20 ADD DUP1 DUP4 GT PUSH2 0x3A8 JUMPI DUP3 SWAP1 SUB PUSH1 0x1F AND DUP3 ADD SWAP2 JUMPDEST POP POP POP POP POP SWAP1 POP SWAP1 JUMP JUMPDEST PUSH0 CALLER PUSH2 0x3DC DUP2 DUP6 DUP6 PUSH2 0xC21 JUMP JUMPDEST PUSH1 0x1 SWAP2 POP POP JUMPDEST SWAP3 SWAP2 POP POP JUMP JUMPDEST PUSH0 PUSH2 0x3E2 CALLER DUP4 PUSH2 0x65D JUMP JUMPDEST PUSH0 PUSH2 0x3FC PUSH2 0xC33 JUMP JUMPDEST PUSH2 0x406 CALLER DUP4 PUSH2 0xD2F JUMP JUMPDEST PUSH0 PUSH8 0xDE0B6B3A7640000 PUSH1 0x6 SLOAD DUP5 PUSH2 0x41E SWAP2 SWAP1 PUSH2 0x12D1 JUMP JUMPDEST PUSH2 0x428 SWAP2 SWAP1 PUSH2 0x12E8 JUMP JUMPDEST SWAP1 POP PUSH32 0x0 PUSH1 0x1 PUSH1 0x1 PUSH1 0xA0 SHL SUB AND PUSH4 0x1791DC5E DUP6 PUSH2 0x463 PUSH1 0x2 SLOAD SWAP1 JUMP JUMPDEST ISZERO PUSH2 0x46E JUMPI DUP4 PUSH2 0x477 JUMP JUMPDEST PUSH1 0x1 PUSH1 0x1 PUSH1 0xC0 SHL SUB JUMPDEST PUSH1 0x40 MLOAD PUSH1 0x1 PUSH1 0x1 PUSH1 0xE0 SHL SUB NOT PUSH1 0xE0 DUP6 SWAP1 SHL AND DUP2 MSTORE PUSH1 0x1 PUSH1 0x1 PUSH1 0xA0 SHL SUB SWAP1 SWAP3 AND PUSH1 0x4 DUP4 ADD MSTORE PUSH1 0x1 PUSH1 0x1 PUSH1 0xC0 SHL SUB AND PUSH1 0x24 DUP3 ADD MSTORE PUSH1 0x44 ADD PUSH1 0x20 PUSH1 0x40 MLOAD DUP1 DUP4 SUB DUP2 PUSH0 DUP8 GAS CALL ISZERO DUP1 ISZERO PUSH2 0x4C8 JUMPI RETURNDATASIZE PUSH0 DUP1 RETURNDATACOPY RETURNDATASIZE PUSH0 REVERT JUMPDEST POP POP POP POP PUSH1 0x40 MLOAD RETURNDATASIZE PUSH1 0x1F NOT PUSH1 0x1F DUP3 ADD AND DUP3 ADD DUP1 PUSH1 0x40 MSTORE POP DUP2 ADD SWAP1 PUSH2 0x4EC SWAP2 SWAP1 PUSH2 0x1307 JUMP JUMPDEST PUSH1 0x6 SLOAD PUSH1 0x40 DUP1 MLOAD DUP7 DUP2 MSTORE PUSH1 0x20 DUP2 ADD DUP5 SWAP1 MSTORE SWAP1 DUP2 ADD SWAP2 SWAP1 SWAP2 MSTORE SWAP1 SWAP2 POP PUSH1 0x1 PUSH1 0x1 PUSH1 0xA0 SHL SUB DUP6 AND SWAP1 PUSH32 0x75E161B3E824B114FC1A33274BD7091918DD4E639CEDE50B78B15A4EEA956A21 SWAP1 PUSH1 0x60 ADD JUMPDEST PUSH1 0x40 MLOAD DUP1 SWAP2 SUB SWAP1 LOG2 SWAP4 SWAP3 POP POP POP JUMP JUMPDEST PUSH0 CALLER PUSH2 0x554 DUP6 DUP3 DUP6 PUSH2 0xD6C JUMP JUMPDEST PUSH2 0x55F DUP6 DUP6 DUP6 PUSH2 0xDE7 JUMP JUMPDEST POP PUSH1 0x1 SWAP5 SWAP4 POP POP POP POP JUMP JUMPDEST PUSH0 PUSH2 0x3E2 CALLER DUP4 PUSH2 0x3F3 JUMP JUMPDEST PUSH0 DUP1 PUSH2 0x580 PUSH1 0x2 SLOAD SWAP1 JUMP JUMPDEST SWAP1 POP DUP1 PUSH0 SUB PUSH2 0x591 JUMPI POP POP PUSH1 0x6 SLOAD SWAP1 JUMP JUMPDEST PUSH1 0x40 MLOAD PUSH4 0x77267EC3 PUSH1 0xE0 SHL DUP2 MSTORE ADDRESS PUSH1 0x4 DUP3 ADD MSTORE PUSH0 SWAP1 PUSH32 0x0 PUSH1 0x1 PUSH1 0x1 PUSH1 0xA0 SHL SUB AND SWAP1 PUSH4 0x77267EC3 SWAP1 PUSH1 0x24 ADD PUSH1 0x20 PUSH1 0x40 MLOAD DUP1 DUP4 SUB DUP2 DUP7 GAS STATICCALL ISZERO DUP1 ISZERO PUSH2 0x5F5 JUMPI RETURNDATASIZE PUSH0 DUP1 RETURNDATACOPY RETURNDATASIZE PUSH0 REVERT JUMPDEST POP POP POP POP PUSH1 0x40 MLOAD RETURNDATASIZE PUSH1 0x1F NOT PUSH1 0x1F DUP3 ADD AND DUP3 ADD DUP1 PUSH1 0x40 MSTORE POP DUP2 ADD SWAP1 PUSH2 0x619 SWAP2 SWAP1 PUSH2 0x1334 JUMP JUMPDEST PUSH1 0x1 PUSH1 0x1 PUSH1 0xC0 SHL SUB AND SWAP1 POP PUSH2 0x62D PUSH1 0x2 SLOAD SWAP1 JUMP JUMPDEST PUSH2 0x63F DUP3 PUSH8 0xDE0B6B3A7640000 PUSH2 0x12D1 JUMP JUMPDEST PUSH2 0x649 SWAP2 SWAP1 PUSH2 0x12E8 JUMP JUMPDEST PUSH1 0x6 SLOAD PUSH2 0x656 SWAP2 SWAP1 PUSH2 0x134D JUMP JUMPDEST SWAP3 POP POP POP SWAP1 JUMP JUMPDEST PUSH0 PUSH2 0x666 PUSH2 0xC33 JUMP JUMPDEST PUSH2 0x69B PUSH1 0x1 PUSH1 0x1 PUSH1 0xA0 SHL SUB PUSH32 0x0 AND CALLER ADDRESS DUP6 PUSH2 0xE44 JUMP JUMPDEST PUSH1 0x40 MLOAD PUSH4 0x3F512705 PUSH1 0xE2 SHL DUP2 MSTORE PUSH1 0x1 PUSH1 0x1 PUSH1 0xC0 SHL SUB DUP4 AND PUSH1 0x4 DUP3 ADD MSTORE PUSH32 0x0 PUSH1 0x1 PUSH1 0x1 PUSH1 0xA0 SHL SUB AND SWAP1 PUSH4 0xFD449C14 SWAP1 PUSH1 0x24 ADD PUSH0 PUSH1 0x40 MLOAD DUP1 DUP4 SUB DUP2 PUSH0 DUP8 DUP1 EXTCODESIZE ISZERO DUP1 ISZERO PUSH2 0x702 JUMPI PUSH0 DUP1 REVERT JUMPDEST POP GAS CALL ISZERO DUP1 ISZERO PUSH2 0x714 JUMPI RETURNDATASIZE PUSH0 DUP1 RETURNDATACOPY RETURNDATASIZE PUSH0 REVERT JUMPDEST POP POP POP POP PUSH0 PUSH1 0x6 SLOAD DUP4 PUSH8 0xDE0B6B3A7640000 PUSH2 0x730 SWAP2 SWAP1 PUSH2 0x12D1 JUMP JUMPDEST PUSH2 0x73A SWAP2 SWAP1 PUSH2 0x12E8 JUMP JUMPDEST SWAP1 POP PUSH2 0x746 DUP5 DUP3 PUSH2 0xE9E JUMP JUMPDEST PUSH1 0x6 SLOAD PUSH1 0x40 DUP1 MLOAD DUP6 DUP2 MSTORE PUSH1 0x20 DUP2 ADD DUP5 SWAP1 MSTORE SWAP1 DUP2 ADD SWAP2 SWAP1 SWAP2 MSTORE PUSH1 0x1 PUSH1 0x1 PUSH1 0xA0 SHL SUB DUP6 AND SWAP1 PUSH32 0x710967C2C90AA017CAF1DF3EC721B9981E4350D9C6398F8ACF4CFACD1AEC73F8 SWAP1 PUSH1 0x60 ADD PUSH2 0x538 JUMP JUMPDEST PUSH0 PUSH2 0x79C PUSH2 0x95B JUMP JUMPDEST ISZERO PUSH2 0x7A6 JUMPI POP PUSH0 SWAP1 JUMP JUMPDEST PUSH0 PUSH32 0x0 PUSH1 0x1 PUSH1 0x1 PUSH1 0xA0 SHL SUB AND PUSH4 0xB079F163 PUSH1 0x40 MLOAD DUP2 PUSH4 0xFFFFFFFF AND PUSH1 0xE0 SHL DUP2 MSTORE PUSH1 0x4 ADD PUSH1 0x20 PUSH1 0x40 MLOAD DUP1 DUP4 SUB DUP2 DUP7 GAS STATICCALL ISZERO DUP1 ISZERO PUSH2 0x803 JUMPI RETURNDATASIZE PUSH0 DUP1 RETURNDATACOPY RETURNDATASIZE PUSH0 REVERT JUMPDEST POP POP POP POP PUSH1 0x40 MLOAD RETURNDATASIZE PUSH1 0x1F NOT PUSH1 0x1F DUP3 ADD AND DUP3 ADD DUP1 PUSH1 0x40 MSTORE POP DUP2 ADD SWAP1 PUSH2 0x827 SWAP2 SWAP1 PUSH2 0x1377 JUMP JUMPDEST PUSH1 0x40 MLOAD PUSH4 0x1F7CDD5F PUSH1 0xE0 SHL DUP2 MSTORE ADDRESS PUSH1 0x4 DUP3 ADD MSTORE PUSH32 0x0 PUSH1 0x1 PUSH1 0x1 PUSH1 0xA0 SHL SUB AND SWAP1 PUSH4 0x1F7CDD5F SWAP1 PUSH1 0x24 ADD PUSH1 0x40 DUP1 MLOAD DUP1 DUP4 SUB DUP2 DUP7 GAS STATICCALL ISZERO DUP1 ISZERO PUSH2 0x888 JUMPI RETURNDATASIZE PUSH0 DUP1 RETURNDATACOPY RETURNDATASIZE PUSH0 REVERT JUMPDEST POP POP POP POP PUSH1 0x40 MLOAD RETURNDATASIZE PUSH1 0x1F NOT PUSH1 0x1F DUP3 ADD AND DUP3 ADD DUP1 PUSH1 0x40 MSTORE POP DUP2 ADD SWAP1 PUSH2 0x8AC SWAP2 SWAP1 PUSH2 0x1390 JUMP JUMPDEST PUSH1 0x20 ADD MLOAD PUSH2 0x8BA SWAP2 SWAP1 PUSH2 0x13F5 JUMP JUMPDEST PUSH8 0xFFFFFFFFFFFFFFFF AND SWAP1 POP PUSH32 0x0 PUSH1 0x1 PUSH1 0x1 PUSH1 0xA0 SHL SUB AND PUSH4 0x6A7B376 PUSH1 0x40 MLOAD DUP2 PUSH4 0xFFFFFFFF AND PUSH1 0xE0 SHL DUP2 MSTORE PUSH1 0x4 ADD PUSH1 0x20 PUSH1 0x40 MLOAD DUP1 DUP4 SUB DUP2 DUP7 GAS STATICCALL ISZERO DUP1 ISZERO PUSH2 0x922 JUMPI RETURNDATASIZE PUSH0 DUP1 RETURNDATACOPY RETURNDATASIZE PUSH0 REVERT JUMPDEST POP POP POP POP PUSH1 0x40 MLOAD RETURNDATASIZE PUSH1 0x1F NOT PUSH1 0x1F DUP3 ADD AND DUP3 ADD DUP1 PUSH1 0x40 MSTORE POP DUP2 ADD SWAP1 PUSH2 0x946 SWAP2 SWAP1 PUSH2 0x141D JUMP JUMPDEST PUSH2 0x955 SWAP1 PUSH3 0xFFFFFF AND DUP3 PUSH2 0x12E8 JUMP JUMPDEST SWAP2 POP POP SWAP1 JUMP JUMPDEST PUSH1 0x40 MLOAD PUSH4 0x1F7CDD5F PUSH1 0xE0 SHL DUP2 MSTORE ADDRESS PUSH1 0x4 DUP3 ADD MSTORE PUSH0 SWAP1 PUSH32 0x0 PUSH1 0x1 PUSH1 0x1 PUSH1 0xA0 SHL SUB AND SWAP1 PUSH4 0x1F7CDD5F SWAP1 PUSH1 0x24 ADD PUSH1 0x40 DUP1 MLOAD DUP1 DUP4 SUB DUP2 DUP7 GAS STATICCALL ISZERO DUP1 ISZERO PUSH2 0x9BE JUMPI RETURNDATASIZE PUSH0 DUP1 RETURNDATACOPY RETURNDATASIZE PUSH0 REVERT JUMPDEST POP POP POP POP PUSH1 0x40 MLOAD RETURNDATASIZE PUSH1 0x1F NOT PUSH1 0x1F DUP3 ADD AND DUP3 ADD DUP1 PUSH1 0x40 MSTORE POP DUP2 ADD SWAP1 PUSH2 0x9E2 SWAP2 SWAP1 PUSH2 0x1390 JUMP JUMPDEST PUSH1 0x20 ADD MLOAD PUSH8 0xFFFFFFFFFFFFFFFF AND PUSH32 0x0 PUSH1 0x1 PUSH1 0x1 PUSH1 0xA0 SHL SUB AND PUSH4 0xB079F163 PUSH1 0x40 MLOAD DUP2 PUSH4 0xFFFFFFFF AND PUSH1 0xE0 SHL DUP2 MSTORE PUSH1 0x4 ADD PUSH1 0x20 PUSH1 0x40 MLOAD DUP1 DUP4 SUB DUP2 DUP7 GAS STATICCALL ISZERO DUP1 ISZERO PUSH2 0xA4C JUMPI RETURNDATASIZE PUSH0 DUP1 RETURNDATACOPY RETURNDATASIZE PUSH0 REVERT JUMPDEST POP POP POP POP PUSH1 0x40 MLOAD RETURNDATASIZE PUSH1 0x1F NOT PUSH1 0x1F DUP3 ADD AND DUP3 ADD DUP1 PUSH1 0x40 MSTORE POP DUP2 ADD SWAP1 PUSH2 0xA70 SWAP2 SWAP1 PUSH2 0x1377 JUMP JUMPDEST PUSH8 0xFFFFFFFFFFFFFFFF AND LT ISZERO SWAP1 POP SWAP1 JUMP JUMPDEST PUSH1 0x60 PUSH1 0x4 DUP1 SLOAD PUSH2 0x34E SWAP1 PUSH2 0x1285 JUMP JUMPDEST PUSH0 CALLER PUSH2 0x3DC DUP2 DUP6 DUP6 PUSH2 0xDE7 JUMP JUMPDEST PUSH1 0x40 MLOAD PUSH4 0x77267EC3 PUSH1 0xE0 SHL DUP2 MSTORE ADDRESS PUSH1 0x4 DUP3 ADD MSTORE PUSH0 SWAP1 PUSH32 0x0 PUSH1 0x1 PUSH1 0x1 PUSH1 0xA0 SHL SUB AND SWAP1 PUSH4 0x77267EC3 SWAP1 PUSH1 0x24 ADD PUSH1 0x20 PUSH1 0x40 MLOAD DUP1 DUP4 SUB DUP2 DUP7 GAS STATICCALL ISZERO DUP1 ISZERO PUSH2 0xB01 JUMPI RETURNDATASIZE PUSH0 DUP1 RETURNDATACOPY RETURNDATASIZE PUSH0 REVERT JUMPDEST POP POP POP POP PUSH1 0x40 MLOAD RETURNDATASIZE PUSH1 0x1F NOT PUSH1 0x1F DUP3 ADD AND DUP3 ADD DUP1 PUSH1 0x40 MSTORE POP DUP2 ADD SWAP1 PUSH2 0xB25 SWAP2 SWAP1 PUSH2 0x1334 JUMP JUMPDEST PUSH1 0x40 MLOAD PUSH4 0x1F7CDD5F PUSH1 0xE0 SHL DUP2 MSTORE ADDRESS PUSH1 0x4 DUP3 ADD MSTORE PUSH32 0x0 PUSH1 0x1 PUSH1 0x1 PUSH1 0xA0 SHL SUB AND SWAP1 PUSH4 0x1F7CDD5F SWAP1 PUSH1 0x24 ADD PUSH1 0x40 DUP1 MLOAD DUP1 DUP4 SUB DUP2 DUP7 GAS STATICCALL ISZERO DUP1 ISZERO PUSH2 0xB86 JUMPI RETURNDATASIZE PUSH0 DUP1 RETURNDATACOPY RETURNDATASIZE PUSH0 REVERT JUMPDEST POP POP POP POP PUSH1 0x40 MLOAD RETURNDATASIZE PUSH1 0x1F NOT PUSH1 0x1F DUP3 ADD AND DUP3 ADD DUP1 PUSH1 0x40 MSTORE POP DUP2 ADD SWAP1 PUSH2 0xBAA SWAP2 SWAP1 PUSH2 0x1390 JUMP JUMPDEST MLOAD PUSH2 0xBB5 SWAP2 SWAP1 PUSH2 0x143F JUMP JUMPDEST PUSH1 0x1 PUSH1 0x1 PUSH1 0xC0 SHL SUB AND SWAP1 POP SWAP1 JUMP JUMPDEST PUSH0 DUP1 PUSH2 0xBCE PUSH1 0x2 SLOAD SWAP1 JUMP JUMPDEST SWAP1 POP DUP1 PUSH0 SUB PUSH2 0xBDF JUMPI POP PUSH0 SWAP3 SWAP2 POP POP JUMP JUMPDEST DUP1 PUSH2 0xBFE DUP5 PUSH1 0x1 PUSH1 0x1 PUSH1 0xA0 SHL SUB AND PUSH0 SWAP1 DUP2 MSTORE PUSH1 0x20 DUP2 SWAP1 MSTORE PUSH1 0x40 SWAP1 KECCAK256 SLOAD SWAP1 JUMP JUMPDEST PUSH2 0xC06 PUSH2 0xA9D JUMP JUMPDEST PUSH2 0xC10 SWAP2 SWAP1 PUSH2 0x12D1 JUMP JUMPDEST PUSH2 0xC1A SWAP2 SWAP1 PUSH2 0x12E8 JUMP JUMPDEST SWAP4 SWAP3 POP POP POP JUMP JUMPDEST PUSH2 0xC2E DUP4 DUP4 DUP4 PUSH1 0x1 PUSH2 0xED2 JUMP JUMPDEST POP POP POP JUMP JUMPDEST PUSH1 0x40 MLOAD PUSH4 0x77267EC3 PUSH1 0xE0 SHL DUP2 MSTORE ADDRESS PUSH1 0x4 DUP3 ADD MSTORE PUSH0 SWAP1 PUSH32 0x0 PUSH1 0x1 PUSH1 0x1 PUSH1 0xA0 SHL SUB AND SWAP1 PUSH4 0x77267EC3 SWAP1 PUSH1 0x24 ADD PUSH1 0x20 PUSH1 0x40 MLOAD DUP1 DUP4 SUB DUP2 DUP7 GAS STATICCALL ISZERO DUP1 ISZERO PUSH2 0xC97 JUMPI RETURNDATASIZE PUSH0 DUP1 RETURNDATACOPY RETURNDATASIZE PUSH0 REVERT JUMPDEST POP POP POP POP PUSH1 0x40 MLOAD RETURNDATASIZE PUSH1 0x1F NOT PUSH1 0x1F DUP3 ADD AND DUP3 ADD DUP1 PUSH1 0x40 MSTORE POP DUP2 ADD SWAP1 PUSH2 0xCBB SWAP2 SWAP1 PUSH2 0x1334 JUMP JUMPDEST PUSH1 0x1 PUSH1 0x1 PUSH1 0xC0 SHL SUB AND SWAP1 POP PUSH0 DUP2 GT DUP1 ISZERO PUSH2 0xCDC JUMPI POP PUSH0 PUSH2 0xCDA PUSH1 0x2 SLOAD SWAP1 JUMP JUMPDEST GT JUMPDEST ISZERO PUSH2 0xD2C JUMPI DUP1 PUSH1 0x5 PUSH0 DUP3 DUP3 SLOAD PUSH2 0xCF2 SWAP2 SWAP1 PUSH2 0x134D JUMP JUMPDEST SWAP1 SWAP2 SSTORE POP POP PUSH1 0x2 SLOAD PUSH2 0xD0C DUP3 PUSH8 0xDE0B6B3A7640000 PUSH2 0x12D1 JUMP JUMPDEST PUSH2 0xD16 SWAP2 SWAP1 PUSH2 0x12E8 JUMP JUMPDEST PUSH1 0x6 PUSH0 DUP3 DUP3 SLOAD PUSH2 0xD26 SWAP2 SWAP1 PUSH2 0x134D JUMP JUMPDEST SWAP1 SWAP2 SSTORE POP POP JUMPDEST POP JUMP JUMPDEST PUSH1 0x1 PUSH1 0x1 PUSH1 0xA0 SHL SUB DUP3 AND PUSH2 0xD5D JUMPI PUSH1 0x40 MLOAD PUSH4 0x4B637E8F PUSH1 0xE1 SHL DUP2 MSTORE PUSH0 PUSH1 0x4 DUP3 ADD MSTORE PUSH1 0x24 ADD JUMPDEST PUSH1 0x40 MLOAD DUP1 SWAP2 SUB SWAP1 REVERT JUMPDEST PUSH2 0xD68 DUP3 PUSH0 DUP4 PUSH2 0xFA4 JUMP JUMPDEST POP POP JUMP JUMPDEST PUSH1 0x1 PUSH1 0x1 PUSH1 0xA0 SHL SUB DUP4 DUP2 AND PUSH0 SWAP1 DUP2 MSTORE PUSH1 0x1 PUSH1 0x20 SWAP1 DUP2 MSTORE PUSH1 0x40 DUP1 DUP4 KECCAK256 SWAP4 DUP7 AND DUP4 MSTORE SWAP3 SWAP1 MSTORE KECCAK256 SLOAD PUSH0 NOT DUP2 EQ PUSH2 0xDE1 JUMPI DUP2 DUP2 LT ISZERO PUSH2 0xDD3 JUMPI PUSH1 0x40 MLOAD PUSH4 0x7DC7A0D9 PUSH1 0xE1 SHL DUP2 MSTORE PUSH1 0x1 PUSH1 0x1 PUSH1 0xA0 SHL SUB DUP5 AND PUSH1 0x4 DUP3 ADD MSTORE PUSH1 0x24 DUP2 ADD DUP3 SWAP1 MSTORE PUSH1 0x44 DUP2 ADD DUP4 SWAP1 MSTORE PUSH1 0x64 ADD PUSH2 0xD54 JUMP JUMPDEST PUSH2 0xDE1 DUP5 DUP5 DUP5 DUP5 SUB PUSH0 PUSH2 0xED2 JUMP JUMPDEST POP POP POP POP JUMP JUMPDEST PUSH1 0x1 PUSH1 0x1 PUSH1 0xA0 SHL SUB DUP4 AND PUSH2 0xE10 JUMPI PUSH1 0x40 MLOAD PUSH4 0x4B637E8F PUSH1 0xE1 SHL DUP2 MSTORE PUSH0 PUSH1 0x4 DUP3 ADD MSTORE PUSH1 0x24 ADD PUSH2 0xD54 JUMP JUMPDEST PUSH1 0x1 PUSH1 0x1 PUSH1 0xA0 SHL SUB DUP3 AND PUSH2 0xE39 JUMPI PUSH1 0x40 MLOAD PUSH4 0xEC442F05 PUSH1 0xE0 SHL DUP2 MSTORE PUSH0 PUSH1 0x4 DUP3 ADD MSTORE PUSH1 0x24 ADD PUSH2 0xD54 JUMP JUMPDEST PUSH2 0xC2E DUP4 DUP4 DUP4 PUSH2 0xFA4 JUMP JUMPDEST PUSH1 0x40 DUP1 MLOAD PUSH1 0x1 PUSH1 0x1 PUSH1 0xA0 SHL SUB DUP6 DUP2 AND PUSH1 0x24 DUP4 ADD MSTORE DUP5 AND PUSH1 0x44 DUP3 ADD MSTORE PUSH1 0x64 DUP1 DUP3 ADD DUP5 SWAP1 MSTORE DUP3 MLOAD DUP1 DUP4 SUB SWAP1 SWAP2 ADD DUP2 MSTORE PUSH1 0x84 SWAP1 SWAP2 ADD SWAP1 SWAP2 MSTORE PUSH1 0x20 DUP2 ADD DUP1 MLOAD PUSH1 0x1 PUSH1 0x1 PUSH1 0xE0 SHL SUB AND PUSH4 0x23B872DD PUSH1 0xE0 SHL OR SWAP1 MSTORE PUSH2 0xDE1 SWAP1 DUP6 SWAP1 PUSH2 0x10CA JUMP JUMPDEST PUSH1 0x1 PUSH1 0x1 PUSH1 0xA0 SHL SUB DUP3 AND PUSH2 0xEC7 JUMPI PUSH1 0x40 MLOAD PUSH4 0xEC442F05 PUSH1 0xE0 SHL DUP2 MSTORE PUSH0 PUSH1 0x4 DUP3 ADD MSTORE PUSH1 0x24 ADD PUSH2 0xD54 JUMP JUMPDEST PUSH2 0xD68 PUSH0 DUP4 DUP4 PUSH2 0xFA4 JUMP JUMPDEST PUSH1 0x1 PUSH1 0x1 PUSH1 0xA0 SHL SUB DUP5 AND PUSH2 0xEFB JUMPI PUSH1 0x40 MLOAD PUSH4 0xE602DF05 PUSH1 0xE0 SHL DUP2 MSTORE PUSH0 PUSH1 0x4 DUP3 ADD MSTORE PUSH1 0x24 ADD PUSH2 0xD54 JUMP JUMPDEST PUSH1 0x1 PUSH1 0x1 PUSH1 0xA0 SHL SUB DUP4 AND PUSH2 0xF24 JUMPI PUSH1 0x40 MLOAD PUSH4 0x4A1406B1 PUSH1 0xE1 SHL DUP2 MSTORE PUSH0 PUSH1 0x4 DUP3 ADD MSTORE PUSH1 0x24 ADD PUSH2 0xD54 JUMP JUMPDEST PUSH1 0x1 PUSH1 0x1 PUSH1 0xA0 SHL SUB DUP1 DUP6 AND PUSH0 SWAP1 DUP2 MSTORE PUSH1 0x1 PUSH1 0x20 SWAP1 DUP2 MSTORE PUSH1 0x40 DUP1 DUP4 KECCAK256 SWAP4 DUP8 AND DUP4 MSTORE SWAP3 SWAP1 MSTORE KECCAK256 DUP3 SWAP1 SSTORE DUP1 ISZERO PUSH2 0xDE1 JUMPI DUP3 PUSH1 0x1 PUSH1 0x1 PUSH1 0xA0 SHL SUB AND DUP5 PUSH1 0x1 PUSH1 0x1 PUSH1 0xA0 SHL SUB AND PUSH32 0x8C5BE1E5EBEC7D5BD14F71427D1E84F3DD0314C0F7B2291E5B200AC8C7C3B925 DUP5 PUSH1 0x40 MLOAD PUSH2 0xF96 SWAP2 DUP2 MSTORE PUSH1 0x20 ADD SWAP1 JUMP JUMPDEST PUSH1 0x40 MLOAD DUP1 SWAP2 SUB SWAP1 LOG3 POP POP POP POP JUMP JUMPDEST PUSH1 0x1 PUSH1 0x1 PUSH1 0xA0 SHL SUB DUP4 AND PUSH2 0xFCE JUMPI DUP1 PUSH1 0x2 PUSH0 DUP3 DUP3 SLOAD PUSH2 0xFC3 SWAP2 SWAP1 PUSH2 0x134D JUMP JUMPDEST SWAP1 SWAP2 SSTORE POP PUSH2 0x103E SWAP1 POP JUMP JUMPDEST PUSH1 0x1 PUSH1 0x1 PUSH1 0xA0 SHL SUB DUP4 AND PUSH0 SWAP1 DUP2 MSTORE PUSH1 0x20 DUP2 SWAP1 MSTORE PUSH1 0x40 SWAP1 KECCAK256 SLOAD DUP2 DUP2 LT ISZERO PUSH2 0x1020 JUMPI PUSH1 0x40 MLOAD PUSH4 0x391434E3 PUSH1 0xE2 SHL DUP2 MSTORE PUSH1 0x1 PUSH1 0x1 PUSH1 0xA0 SHL SUB DUP6 AND PUSH1 0x4 DUP3 ADD MSTORE PUSH1 0x24 DUP2 ADD DUP3 SWAP1 MSTORE PUSH1 0x44 DUP2 ADD DUP4 SWAP1 MSTORE PUSH1 0x64 ADD PUSH2 0xD54 JUMP JUMPDEST PUSH1 0x1 PUSH1 0x1 PUSH1 0xA0 SHL SUB DUP5 AND PUSH0 SWAP1 DUP2 MSTORE PUSH1 0x20 DUP2 SWAP1 MSTORE PUSH1 0x40 SWAP1 KECCAK256 SWAP1 DUP3 SWAP1 SUB SWAP1 SSTORE JUMPDEST PUSH1 0x1 PUSH1 0x1 PUSH1 0xA0 SHL SUB DUP3 AND PUSH2 0x105A JUMPI PUSH1 0x2 DUP1 SLOAD DUP3 SWAP1 SUB SWAP1 SSTORE PUSH2 0x1078 JUMP JUMPDEST PUSH1 0x1 PUSH1 0x1 PUSH1 0xA0 SHL SUB DUP3 AND PUSH0 SWAP1 DUP2 MSTORE PUSH1 0x20 DUP2 SWAP1 MSTORE PUSH1 0x40 SWAP1 KECCAK256 DUP1 SLOAD DUP3 ADD SWAP1 SSTORE JUMPDEST DUP2 PUSH1 0x1 PUSH1 0x1 PUSH1 0xA0 SHL SUB AND DUP4 PUSH1 0x1 PUSH1 0x1 PUSH1 0xA0 SHL SUB AND PUSH32 0xDDF252AD1BE2C89B69C2B068FC378DAA952BA7F163C4A11628F55A4DF523B3EF DUP4 PUSH1 0x40 MLOAD PUSH2 0x10BD SWAP2 DUP2 MSTORE PUSH1 0x20 ADD SWAP1 JUMP JUMPDEST PUSH1 0x40 MLOAD DUP1 SWAP2 SUB SWAP1 LOG3 POP POP POP JUMP JUMPDEST PUSH0 DUP1 PUSH1 0x20 PUSH0 DUP5 MLOAD PUSH1 0x20 DUP7 ADD PUSH0 DUP9 GAS CALL DUP1 PUSH2 0x10E9 JUMPI PUSH1 0x40 MLOAD RETURNDATASIZE PUSH0 DUP3 RETURNDATACOPY RETURNDATASIZE DUP2 REVERT JUMPDEST POP POP PUSH0 MLOAD RETURNDATASIZE SWAP2 POP DUP2 ISZERO PUSH2 0x1100 JUMPI DUP1 PUSH1 0x1 EQ ISZERO PUSH2 0x110D JUMP JUMPDEST PUSH1 0x1 PUSH1 0x1 PUSH1 0xA0 SHL SUB DUP5 AND EXTCODESIZE ISZERO JUMPDEST ISZERO PUSH2 0xDE1 JUMPI PUSH1 0x40 MLOAD PUSH4 0x5274AFE7 PUSH1 0xE0 SHL DUP2 MSTORE PUSH1 0x1 PUSH1 0x1 PUSH1 0xA0 SHL SUB DUP6 AND PUSH1 0x4 DUP3 ADD MSTORE PUSH1 0x24 ADD PUSH2 0xD54 JUMP JUMPDEST PUSH0 PUSH1 0x20 DUP3 DUP5 SUB SLT ISZERO PUSH2 0x1146 JUMPI PUSH0 DUP1 REVERT JUMPDEST DUP2 CALLDATALOAD PUSH1 0x1 PUSH1 0x1 PUSH1 0xE0 SHL SUB NOT DUP2 AND DUP2 EQ PUSH2 0xC1A JUMPI PUSH0 DUP1 REVERT JUMPDEST PUSH0 PUSH1 0x20 DUP1 DUP4 MSTORE DUP4 MLOAD DUP1 DUP3 DUP6 ADD MSTORE PUSH0 JUMPDEST DUP2 DUP2 LT ISZERO PUSH2 0x1188 JUMPI DUP6 DUP2 ADD DUP4 ADD MLOAD DUP6 DUP3 ADD PUSH1 0x40 ADD MSTORE DUP3 ADD PUSH2 0x116C JUMP JUMPDEST POP PUSH0 PUSH1 0x40 DUP3 DUP7 ADD ADD MSTORE PUSH1 0x40 PUSH1 0x1F NOT PUSH1 0x1F DUP4 ADD AND DUP6 ADD ADD SWAP3 POP POP POP SWAP3 SWAP2 POP POP JUMP JUMPDEST DUP1 CALLDATALOAD PUSH1 0x1 PUSH1 0x1 PUSH1 0xA0 SHL SUB DUP2 AND DUP2 EQ PUSH2 0x11BE JUMPI PUSH0 DUP1 REVERT JUMPDEST SWAP2 SWAP1 POP JUMP JUMPDEST PUSH0 DUP1 PUSH1 0x40 DUP4 DUP6 SUB SLT ISZERO PUSH2 0x11D4 JUMPI PUSH0 DUP1 REVERT JUMPDEST PUSH2 0x11DD DUP4 PUSH2 0x11A8 JUMP JUMPDEST SWAP5 PUSH1 0x20 SWAP4 SWAP1 SWAP4 ADD CALLDATALOAD SWAP4 POP POP POP JUMP JUMPDEST PUSH0 PUSH1 0x20 DUP3 DUP5 SUB SLT ISZERO PUSH2 0x11FB JUMPI PUSH0 DUP1 REVERT JUMPDEST POP CALLDATALOAD SWAP2 SWAP1 POP JUMP JUMPDEST PUSH0 DUP1 PUSH0 PUSH1 0x60 DUP5 DUP7 SUB SLT ISZERO PUSH2 0x1214 JUMPI PUSH0 DUP1 REVERT JUMPDEST PUSH2 0x121D DUP5 PUSH2 0x11A8 JUMP JUMPDEST SWAP3 POP PUSH2 0x122B PUSH1 0x20 DUP6 ADD PUSH2 0x11A8 JUMP JUMPDEST SWAP2 POP PUSH1 0x40 DUP5 ADD CALLDATALOAD SWAP1 POP SWAP3 POP SWAP3 POP SWAP3 JUMP JUMPDEST PUSH0 PUSH1 0x20 DUP3 DUP5 SUB SLT ISZERO PUSH2 0x124B JUMPI PUSH0 DUP1 REVERT JUMPDEST PUSH2 0xC1A DUP3 PUSH2 0x11A8 JUMP JUMPDEST PUSH0 DUP1 PUSH1 0x40 DUP4 DUP6 SUB SLT ISZERO PUSH2 0x1265 JUMPI PUSH0 DUP1 REVERT JUMPDEST PUSH2 0x126E DUP4 PUSH2 0x11A8 JUMP JUMPDEST SWAP2 POP PUSH2 0x127C PUSH1 0x20 DUP5 ADD PUSH2 0x11A8 JUMP JUMPDEST SWAP1 POP SWAP3 POP SWAP3 SWAP1 POP JUMP JUMPDEST PUSH1 0x1 DUP2 DUP2 SHR SWAP1 DUP3 AND DUP1 PUSH2 0x1299 JUMPI PUSH1 0x7F DUP3 AND SWAP2 POP JUMPDEST PUSH1 0x20 DUP3 LT DUP2 SUB PUSH2 0x12B7 JUMPI PUSH4 0x4E487B71 PUSH1 0xE0 SHL PUSH0 MSTORE PUSH1 0x22 PUSH1 0x4 MSTORE PUSH1 0x24 PUSH0 REVERT JUMPDEST POP SWAP2 SWAP1 POP JUMP JUMPDEST PUSH4 0x4E487B71 PUSH1 0xE0 SHL PUSH0 MSTORE PUSH1 0x11 PUSH1 0x4 MSTORE PUSH1 0x24 PUSH0 REVERT JUMPDEST DUP1 DUP3 MUL DUP2 ISZERO DUP3 DUP3 DIV DUP5 EQ OR PUSH2 0x3E2 JUMPI PUSH2 0x3E2 PUSH2 0x12BD JUMP JUMPDEST PUSH0 DUP3 PUSH2 0x1302 JUMPI PUSH4 0x4E487B71 PUSH1 0xE0 SHL PUSH0 MSTORE PUSH1 0x12 PUSH1 0x4 MSTORE PUSH1 0x24 PUSH0 REVERT JUMPDEST POP DIV SWAP1 JUMP JUMPDEST PUSH0 PUSH1 0x20 DUP3 DUP5 SUB SLT ISZERO PUSH2 0x1317 JUMPI PUSH0 DUP1 REVERT JUMPDEST POP MLOAD SWAP2 SWAP1 POP JUMP JUMPDEST DUP1 MLOAD PUSH1 0x1 PUSH1 0x1 PUSH1 0xC0 SHL SUB DUP2 AND DUP2 EQ PUSH2 0x11BE JUMPI PUSH0 DUP1 REVERT JUMPDEST PUSH0 PUSH1 0x20 DUP3 DUP5 SUB SLT ISZERO PUSH2 0x1344 JUMPI PUSH0 DUP1 REVERT JUMPDEST PUSH2 0xC1A DUP3 PUSH2 0x131E JUMP JUMPDEST DUP1 DUP3 ADD DUP1 DUP3 GT ISZERO PUSH2 0x3E2 JUMPI PUSH2 0x3E2 PUSH2 0x12BD JUMP JUMPDEST DUP1 MLOAD PUSH8 0xFFFFFFFFFFFFFFFF DUP2 AND DUP2 EQ PUSH2 0x11BE JUMPI PUSH0 DUP1 REVERT JUMPDEST PUSH0 PUSH1 0x20 DUP3 DUP5 SUB SLT ISZERO PUSH2 0x1387 JUMPI PUSH0 DUP1 REVERT JUMPDEST PUSH2 0xC1A DUP3 PUSH2 0x1360 JUMP JUMPDEST PUSH0 PUSH1 0x40 DUP3 DUP5 SUB SLT ISZERO PUSH2 0x13A0 JUMPI PUSH0 DUP1 REVERT JUMPDEST PUSH1 0x40 MLOAD PUSH1 0x40 DUP2 ADD DUP2 DUP2 LT PUSH8 0xFFFFFFFFFFFFFFFF DUP3 GT OR ISZERO PUSH2 0x13CF JUMPI PUSH4 0x4E487B71 PUSH1 0xE0 SHL PUSH0 MSTORE PUSH1 0x41 PUSH1 0x4 MSTORE PUSH1 0x24 PUSH0 REVERT JUMPDEST PUSH1 0x40 MSTORE PUSH2 0x13DB DUP4 PUSH2 0x131E JUMP JUMPDEST DUP2 MSTORE PUSH2 0x13E9 PUSH1 0x20 DUP5 ADD PUSH2 0x1360 JUMP JUMPDEST PUSH1 0x20 DUP3 ADD MSTORE SWAP4 SWAP3 POP POP POP JUMP JUMPDEST PUSH8 0xFFFFFFFFFFFFFFFF DUP3 DUP2 AND DUP3 DUP3 AND SUB SWAP1 DUP1 DUP3 GT ISZERO PUSH2 0x1416 JUMPI PUSH2 0x1416 PUSH2 0x12BD JUMP JUMPDEST POP SWAP3 SWAP2 POP POP JUMP JUMPDEST PUSH0 PUSH1 0x20 DUP3 DUP5 SUB SLT ISZERO PUSH2 0x142D JUMPI PUSH0 DUP1 REVERT JUMPDEST DUP2 MLOAD PUSH3 0xFFFFFF DUP2 AND DUP2 EQ PUSH2 0xC1A JUMPI PUSH0 DUP1 REVERT JUMPDEST PUSH1 0x1 PUSH1 0x1 PUSH1 0xC0 SHL SUB DUP2 DUP2 AND DUP4 DUP3 AND ADD SWAP1 DUP1 DUP3 GT ISZERO PUSH2 0x1416 JUMPI PUSH2 0x1416 PUSH2 0x12BD JUMP INVALID LOG2 PUSH5 0x6970667358 0x22 SLT KECCAK256 0xF6 LOG1 0xDD 0xC 0xC1 MSTORE 0xB6 0xCB 0xF PUSH12 0xA53C4B89D330D34A1F343F7C PUSH7 0x85C6413A6747A6 DUP3 0xD PUSH5 0x736F6C6343 STOP ADDMOD EQ STOP CALLER "
		},
		"gasEstimates": {
			"creation": {
				"codeDepositCost": "1053800",
				"executionCost": "infinite",
				"totalCost": "infinite"
			},
			"external": {
				"allowance(address,address)": "infinite",
				"approve(address,uint256)": "24769",
				"balanceOf(address)": "2582",
				"convertToAsset()": "infinite",
				"decimals()": "265",
				"isUnlocked()": "infinite",
				"name()": "infinite",
				"save(uint256)": "infinite",
				"saveTo(address,uint256)": "infinite",
				"saverBalance(address)": "infinite",
				"savings()": "infinite",
				"supportsInterface(bytes4)": "368",
				"symbol()": "infinite",
				"totalBalance()": "infinite",
				"totalClaimed()": "2382",
				"totalSupply()": "2370",
				"transfer(address,uint256)": "51316",
				"transferFrom(address,address,uint256)": "infinite",
				"untilUnlocked()": "infinite",
				"withdraw(uint256)": "infinite",
				"withdrawTo(address,uint256)": "infinite",
				"zchf()": "infinite"
			},
			"internal": {
				"_update()": "infinite"
			}
		},
		"methodIdentifiers": {
			"allowance(address,address)": "dd62ed3e",
			"approve(address,uint256)": "095ea7b3",
			"balanceOf(address)": "70a08231",
			"convertToAsset()": "34109b33",
			"decimals()": "313ce567",
			"isUnlocked()": "8380edb7",
			"name()": "06fdde03",
			"save(uint256)": "1b862027",
			"saveTo(address,uint256)": "3fa84516",
			"saverBalance(address)": "e8e511a4",
			"savings()": "c86d6ae4",
			"supportsInterface(bytes4)": "01ffc9a7",
			"symbol()": "95d89b41",
			"totalBalance()": "ad7a672f",
			"totalClaimed()": "d54ad2a1",
			"totalSupply()": "18160ddd",
			"transfer(address,uint256)": "a9059cbb",
			"transferFrom(address,address,uint256)": "23b872dd",
			"untilUnlocked()": "5b02907b",
			"withdraw(uint256)": "2e1a7d4d",
			"withdrawTo(address,uint256)": "205c2878",
			"zchf()": "c4d4803a"
		}
	},
	"abi": [
		{
			"inputs": [
				{
					"internalType": "contract IERC20",
					"name": "_zchf",
					"type": "address"
				},
				{
					"internalType": "contract ISavings",
					"name": "_savings",
					"type": "address"
				},
				{
					"internalType": "string",
					"name": "name",
					"type": "string"
				},
				{
					"internalType": "string",
					"name": "symbol",
					"type": "string"
				}
			],
			"stateMutability": "nonpayable",
			"type": "constructor"
		},
		{
			"inputs": [
				{
					"internalType": "address",
					"name": "spender",
					"type": "address"
				},
				{
					"internalType": "uint256",
					"name": "allowance",
					"type": "uint256"
				},
				{
					"internalType": "uint256",
					"name": "needed",
					"type": "uint256"
				}
			],
			"name": "ERC20InsufficientAllowance",
			"type": "error"
		},
		{
			"inputs": [
				{
					"internalType": "address",
					"name": "sender",
					"type": "address"
				},
				{
					"internalType": "uint256",
					"name": "balance",
					"type": "uint256"
				},
				{
					"internalType": "uint256",
					"name": "needed",
					"type": "uint256"
				}
			],
			"name": "ERC20InsufficientBalance",
			"type": "error"
		},
		{
			"inputs": [
				{
					"internalType": "address",
					"name": "approver",
					"type": "address"
				}
			],
			"name": "ERC20InvalidApprover",
			"type": "error"
		},
		{
			"inputs": [
				{
					"internalType": "address",
					"name": "receiver",
					"type": "address"
				}
			],
			"name": "ERC20InvalidReceiver",
			"type": "error"
		},
		{
			"inputs": [
				{
					"internalType": "address",
					"name": "sender",
					"type": "address"
				}
			],
			"name": "ERC20InvalidSender",
			"type": "error"
		},
		{
			"inputs": [
				{
					"internalType": "address",
					"name": "spender",
					"type": "address"
				}
			],
			"name": "ERC20InvalidSpender",
			"type": "error"
		},
		{
			"inputs": [
				{
					"internalType": "address",
					"name": "token",
					"type": "address"
				}
			],
			"name": "SafeERC20FailedOperation",
			"type": "error"
		},
		{
			"anonymous": false,
			"inputs": [
				{
					"indexed": true,
					"internalType": "address",
					"name": "owner",
					"type": "address"
				},
				{
					"indexed": true,
					"internalType": "address",
					"name": "spender",
					"type": "address"
				},
				{
					"indexed": false,
					"internalType": "uint256",
					"name": "value",
					"type": "uint256"
				}
			],
			"name": "Approval",
			"type": "event"
		},
		{
			"anonymous": false,
			"inputs": [
				{
					"indexed": true,
					"internalType": "address",
					"name": "saver",
					"type": "address"
				},
				{
					"indexed": false,
					"internalType": "uint256",
					"name": "amountIn",
					"type": "uint256"
				},
				{
					"indexed": false,
					"internalType": "uint256",
					"name": "sharesMinted",
					"type": "uint256"
				},
				{
					"indexed": false,
					"internalType": "uint256",
					"name": "price",
					"type": "uint256"
				}
			],
			"name": "Saved",
			"type": "event"
		},
		{
			"anonymous": false,
			"inputs": [
				{
					"indexed": true,
					"internalType": "address",
					"name": "from",
					"type": "address"
				},
				{
					"indexed": true,
					"internalType": "address",
					"name": "to",
					"type": "address"
				},
				{
					"indexed": false,
					"internalType": "uint256",
					"name": "value",
					"type": "uint256"
				}
			],
			"name": "Transfer",
			"type": "event"
		},
		{
			"anonymous": false,
			"inputs": [
				{
					"indexed": true,
					"internalType": "address",
					"name": "saver",
					"type": "address"
				},
				{
					"indexed": false,
					"internalType": "uint256",
					"name": "sharesBurned",
					"type": "uint256"
				},
				{
					"indexed": false,
					"internalType": "uint256",
					"name": "amountOut",
					"type": "uint256"
				},
				{
					"indexed": false,
					"internalType": "uint256",
					"name": "price",
					"type": "uint256"
				}
			],
			"name": "Withdrawn",
			"type": "event"
		},
		{
			"inputs": [
				{
					"internalType": "address",
					"name": "owner",
					"type": "address"
				},
				{
					"internalType": "address",
					"name": "spender",
					"type": "address"
				}
			],
			"name": "allowance",
			"outputs": [
				{
					"internalType": "uint256",
					"name": "",
					"type": "uint256"
				}
			],
			"stateMutability": "view",
			"type": "function"
		},
		{
			"inputs": [
				{
					"internalType": "address",
					"name": "spender",
					"type": "address"
				},
				{
					"internalType": "uint256",
					"name": "value",
					"type": "uint256"
				}
			],
			"name": "approve",
			"outputs": [
				{
					"internalType": "bool",
					"name": "",
					"type": "bool"
				}
			],
			"stateMutability": "nonpayable",
			"type": "function"
		},
		{
			"inputs": [
				{
					"internalType": "address",
					"name": "account",
					"type": "address"
				}
			],
			"name": "balanceOf",
			"outputs": [
				{
					"internalType": "uint256",
					"name": "",
					"type": "uint256"
				}
			],
			"stateMutability": "view",
			"type": "function"
		},
		{
			"inputs": [],
			"name": "convertToAsset",
			"outputs": [
				{
					"internalType": "uint256",
					"name": "",
					"type": "uint256"
				}
			],
			"stateMutability": "view",
			"type": "function"
		},
		{
			"inputs": [],
			"name": "decimals",
			"outputs": [
				{
					"internalType": "uint8",
					"name": "",
					"type": "uint8"
				}
			],
			"stateMutability": "view",
			"type": "function"
		},
		{
			"inputs": [],
			"name": "isUnlocked",
			"outputs": [
				{
					"internalType": "bool",
					"name": "",
					"type": "bool"
				}
			],
			"stateMutability": "view",
			"type": "function"
		},
		{
			"inputs": [],
			"name": "name",
			"outputs": [
				{
					"internalType": "string",
					"name": "",
					"type": "string"
				}
			],
			"stateMutability": "view",
			"type": "function"
		},
		{
			"inputs": [
				{
					"internalType": "uint256",
					"name": "amount",
					"type": "uint256"
				}
			],
			"name": "save",
			"outputs": [
				{
					"internalType": "uint256",
					"name": "",
					"type": "uint256"
				}
			],
			"stateMutability": "nonpayable",
			"type": "function"
		},
		{
			"inputs": [
				{
					"internalType": "address",
					"name": "account",
					"type": "address"
				},
				{
					"internalType": "uint256",
					"name": "amount",
					"type": "uint256"
				}
			],
			"name": "saveTo",
			"outputs": [
				{
					"internalType": "uint256",
					"name": "",
					"type": "uint256"
				}
			],
			"stateMutability": "nonpayable",
			"type": "function"
		},
		{
			"inputs": [
				{
					"internalType": "address",
					"name": "account",
					"type": "address"
				}
			],
			"name": "saverBalance",
			"outputs": [
				{
					"internalType": "uint256",
					"name": "",
					"type": "uint256"
				}
			],
			"stateMutability": "view",
			"type": "function"
		},
		{
			"inputs": [],
			"name": "savings",
			"outputs": [
				{
					"internalType": "contract ISavings",
					"name": "",
					"type": "address"
				}
			],
			"stateMutability": "view",
			"type": "function"
		},
		{
			"inputs": [
				{
					"internalType": "bytes4",
					"name": "interfaceId",
					"type": "bytes4"
				}
			],
			"name": "supportsInterface",
			"outputs": [
				{
					"internalType": "bool",
					"name": "",
					"type": "bool"
				}
			],
			"stateMutability": "view",
			"type": "function"
		},
		{
			"inputs": [],
			"name": "symbol",
			"outputs": [
				{
					"internalType": "string",
					"name": "",
					"type": "string"
				}
			],
			"stateMutability": "view",
			"type": "function"
		},
		{
			"inputs": [],
			"name": "totalBalance",
			"outputs": [
				{
					"internalType": "uint256",
					"name": "",
					"type": "uint256"
				}
			],
			"stateMutability": "view",
			"type": "function"
		},
		{
			"inputs": [],
			"name": "totalClaimed",
			"outputs": [
				{
					"internalType": "uint256",
					"name": "",
					"type": "uint256"
				}
			],
			"stateMutability": "view",
			"type": "function"
		},
		{
			"inputs": [],
			"name": "totalSupply",
			"outputs": [
				{
					"internalType": "uint256",
					"name": "",
					"type": "uint256"
				}
			],
			"stateMutability": "view",
			"type": "function"
		},
		{
			"inputs": [
				{
					"internalType": "address",
					"name": "to",
					"type": "address"
				},
				{
					"internalType": "uint256",
					"name": "value",
					"type": "uint256"
				}
			],
			"name": "transfer",
			"outputs": [
				{
					"internalType": "bool",
					"name": "",
					"type": "bool"
				}
			],
			"stateMutability": "nonpayable",
			"type": "function"
		},
		{
			"inputs": [
				{
					"internalType": "address",
					"name": "from",
					"type": "address"
				},
				{
					"internalType": "address",
					"name": "to",
					"type": "address"
				},
				{
					"internalType": "uint256",
					"name": "value",
					"type": "uint256"
				}
			],
			"name": "transferFrom",
			"outputs": [
				{
					"internalType": "bool",
					"name": "",
					"type": "bool"
				}
			],
			"stateMutability": "nonpayable",
			"type": "function"
		},
		{
			"inputs": [],
			"name": "untilUnlocked",
			"outputs": [
				{
					"internalType": "uint256",
					"name": "",
					"type": "uint256"
				}
			],
			"stateMutability": "view",
			"type": "function"
		},
		{
			"inputs": [
				{
					"internalType": "uint256",
					"name": "shares",
					"type": "uint256"
				}
			],
			"name": "withdraw",
			"outputs": [
				{
					"internalType": "uint256",
					"name": "",
					"type": "uint256"
				}
			],
			"stateMutability": "nonpayable",
			"type": "function"
		},
		{
			"inputs": [
				{
					"internalType": "address",
					"name": "target",
					"type": "address"
				},
				{
					"internalType": "uint256",
					"name": "shares",
					"type": "uint256"
				}
			],
			"name": "withdrawTo",
			"outputs": [
				{
					"internalType": "uint256",
					"name": "",
					"type": "uint256"
				}
			],
			"stateMutability": "nonpayable",
			"type": "function"
		},
		{
			"inputs": [],
			"name": "zchf",
			"outputs": [
				{
					"internalType": "contract IERC20",
					"name": "",
					"type": "address"
				}
			],
			"stateMutability": "view",
			"type": "function"
		}
	]
}