{
	"data": {
		"bytecode": {
			"linkReferences": {},
			"object": "60c0604052670de0b6b3a764000060065534801561001b575f80fd5b506040516118dc3803806118dc83398101604081905261003a91610125565b818160036100488382610234565b5060046100558282610234565b5050506001600160a01b0393841660805250501660a0526102ee565b6001600160a01b0381168114610085575f80fd5b50565b634e487b7160e01b5f52604160045260245ffd5b5f82601f8301126100ab575f80fd5b81516001600160401b038111156100c4576100c4610088565b604051601f8201601f19908116603f011681016001600160401b03811182821017156100f2576100f2610088565b604052818152838201602001851015610109575f80fd5b8160208501602083015e5f918101602001919091529392505050565b5f805f8060808587031215610138575f80fd5b845161014381610071565b602086015190945061015481610071565b60408601519093506001600160401b0381111561016f575f80fd5b61017b8782880161009c565b606087015190935090506001600160401b03811115610198575f80fd5b6101a48782880161009c565b91505092959194509250565b600181811c908216806101c457607f821691505b6020821081036101e257634e487b7160e01b5f52602260045260245ffd5b50919050565b601f82111561022f57805f5260205f20601f840160051c8101602085101561020d5750805b601f840160051c820191505b8181101561022c575f8155600101610219565b50505b505050565b81516001600160401b0381111561024d5761024d610088565b6102618161025b84546101b0565b846101e8565b6020601f821160018114610293575f831561027c5750848201515b5f19600385901b1c1916600184901b17845561022c565b5f84815260208120601f198516915b828110156102c257878501518255602094850194600190920191016102a2565b50848210156102df57868401515f19600387901b60f8161c191681555b50505050600190811b01905550565b60805160a05161157261036a5f395f81816102df015281816104220152818161053401528181610692015281816107c7015281816108b70152818161094a015281816109d601528181610a8001528181610b0001528181610bc101528181610ca90152610d2f01525f81816102a0015261078101526115725ff3fe608060405234801561000f575f80fd5b5060043610610148575f3560e01c806370a08231116100bf578063ad7a672f11610079578063ad7a672f14610293578063c4d4803a1461029b578063c86d6ae4146102da578063d54ad2a114610301578063dd62ed3e1461030a578063e8e511a414610342575f80fd5b806370a08231146102375780638380edb71461025f5780638ddf67341461026757806395d89b411461026f578063a035b1fe14610277578063a9059cbb14610280575f80fd5b8063205c287811610110578063205c2878146101d457806323b872dd146101e75780632e1a7d4d146101fa578063313ce5671461020d5780633fa845161461021c5780635b02907b1461022f575f80fd5b806301ffc9a71461014c57806306fdde0314610185578063095ea7b31461019a57806318160ddd146101ad5780631b862027146101bf575b5f80fd5b61017061015a36600461122f565b6001600160e01b031916634a17459160e11b1490565b60405190151581526020015b60405180910390f35b61018d610355565b60405161017c9190611256565b6101706101a83660046112a6565b6103e5565b6002545b60405190815260200161017c565b6101d26101cd3660046112ce565b6103fe565b005b6101d26101e23660046112a6565b61040b565b6101706101f53660046112e5565b61064e565b6101d26102083660046112ce565b610671565b6040516012815260200161017c565b6101d261022a3660046112a6565b61067b565b6101b16108a1565b6101b161024536600461131f565b6001600160a01b03165f9081526020819052604090205490565b610170610a69565b6101b1610b8f565b61018d610c76565b6101b160065481565b61017061028e3660046112a6565b610c85565b6101b1610c92565b6102c27f000000000000000000000000000000000000000000000000000000000000000081565b6040516001600160a01b03909116815260200161017c565b6102c27f000000000000000000000000000000000000000000000000000000000000000081565b6101b160055481565b6101b1610318366004611338565b6001600160a01b039182165f90815260016020908152604080832093909416825291909152205490565b6101b161035036600461131f565b610db8565b60606003805461036490611369565b80601f016020809104026020016040519081016040528092919081815260200182805461039090611369565b80156103db5780601f106103b2576101008083540402835291602001916103db565b820191905f5260205f20905b8154815290600101906020018083116103be57829003601f168201915b5050505050905090565b5f336103f2818585610e16565b60019150505b92915050565b610408338261067b565b50565b6040516377267ec360e01b81523060048201525f907f00000000000000000000000000000000000000000000000000000000000000006001600160a01b0316906377267ec390602401602060405180830381865afa15801561046f573d5f803e3d5ffd5b505050506040513d601f19601f8201168201806040525081019061049391906113b7565b6001600160c01b031690505f811180156104b457505f6104b260025490565b115b15610504578060055f8282546104ca91906113e4565b90915550506002546104e482670de0b6b3a76400006113f7565b6104ee919061140e565b60065f8282546104fe91906113e4565b90915550505b61050e3383610e28565b5f670de0b6b3a76400006006548461052691906113f7565b610530919061140e565b90507f00000000000000000000000000000000000000000000000000000000000000006001600160a01b0316631791dc5e8561056b60025490565b15610576578361057f565b6001600160c01b035b6040516001600160e01b031960e085901b1681526001600160a01b0390921660048301526001600160c01b031660248201526044016020604051808303815f875af11580156105d0573d5f803e3d5ffd5b505050506040513d601f19601f820116820180604052508101906105f4919061142d565b6006546040805186815260208101849052908101919091529091506001600160a01b038516907f75e161b3e824b114fc1a33274bd7091918dd4e639cede50b78b15a4eea956a21906060015b60405180910390a250505050565b5f3361065b858285610e65565b610666858585610ee0565b506001949350505050565b610408338261040b565b6040516377267ec360e01b81523060048201525f907f00000000000000000000000000000000000000000000000000000000000000006001600160a01b0316906377267ec390602401602060405180830381865afa1580156106df573d5f803e3d5ffd5b505050506040513d601f19601f8201168201806040525081019061070391906113b7565b6001600160c01b031690505f8111801561072457505f61072260025490565b115b15610774578060055f82825461073a91906113e4565b909155505060025461075482670de0b6b3a76400006113f7565b61075e919061140e565b60065f82825461076e91906113e4565b90915550505b6107a96001600160a01b037f000000000000000000000000000000000000000000000000000000000000000016333085610f3d565b604051633f51270560e21b81526001600160c01b03831660048201527f00000000000000000000000000000000000000000000000000000000000000006001600160a01b03169063fd449c14906024015f604051808303815f87803b158015610810575f80fd5b505af1158015610822573d5f803e3d5ffd5b505050505f60065483670de0b6b3a764000061083e91906113f7565b610848919061140e565b90506108548482610f97565b6006546040805185815260208101849052908101919091526001600160a01b038516907f710967c2c90aa017caf1df3ec721b9981e4350d9c6398f8acf4cfacd1aec73f890606001610640565b5f6108aa610a69565b156108b457505f90565b5f7f00000000000000000000000000000000000000000000000000000000000000006001600160a01b031663b079f1636040518163ffffffff1660e01b8152600401602060405180830381865afa158015610911573d5f803e3d5ffd5b505050506040513d601f19601f82011682018060405250810190610935919061145b565b604051631f7cdd5f60e01b81523060048201527f00000000000000000000000000000000000000000000000000000000000000006001600160a01b031690631f7cdd5f906024016040805180830381865afa158015610996573d5f803e3d5ffd5b505050506040513d601f19601f820116820180604052508101906109ba9190611474565b602001516109c891906114db565b67ffffffffffffffff1690507f00000000000000000000000000000000000000000000000000000000000000006001600160a01b03166306a7b3766040518163ffffffff1660e01b8152600401602060405180830381865afa158015610a30573d5f803e3d5ffd5b505050506040513d601f19601f82011682018060405250810190610a5491906114fb565b610a639062ffffff168261140e565b91505090565b604051631f7cdd5f60e01b81523060048201525f907f00000000000000000000000000000000000000000000000000000000000000006001600160a01b031690631f7cdd5f906024016040805180830381865afa158015610acc573d5f803e3d5ffd5b505050506040513d601f19601f82011682018060405250810190610af09190611474565b6020015167ffffffffffffffff167f00000000000000000000000000000000000000000000000000000000000000006001600160a01b031663b079f1636040518163ffffffff1660e01b8152600401602060405180830381865afa158015610b5a573d5f803e3d5ffd5b505050506040513d601f19601f82011682018060405250810190610b7e919061145b565b67ffffffffffffffff161015905090565b5f80610b9a60025490565b9050805f03610baa575f91505090565b6040516377267ec360e01b81523060048201525f907f00000000000000000000000000000000000000000000000000000000000000006001600160a01b0316906377267ec390602401602060405180830381865afa158015610c0e573d5f803e3d5ffd5b505050506040513d601f19601f82011682018060405250810190610c3291906113b7565b6001600160c01b03169050610c4660025490565b610c5882670de0b6b3a76400006113f7565b610c62919061140e565b600654610c6f91906113e4565b9250505090565b60606004805461036490611369565b5f336103f2818585610ee0565b6040516377267ec360e01b81523060048201525f907f00000000000000000000000000000000000000000000000000000000000000006001600160a01b0316906377267ec390602401602060405180830381865afa158015610cf6573d5f803e3d5ffd5b505050506040513d601f19601f82011682018060405250810190610d1a91906113b7565b604051631f7cdd5f60e01b81523060048201527f00000000000000000000000000000000000000000000000000000000000000006001600160a01b031690631f7cdd5f906024016040805180830381865afa158015610d7b573d5f803e3d5ffd5b505050506040513d601f19601f82011682018060405250810190610d9f9190611474565b51610daa919061151d565b6001600160c01b0316905090565b5f80610dc360025490565b9050805f03610dd457505f92915050565b80610df3846001600160a01b03165f9081526020819052604090205490565b610dfb610c92565b610e0591906113f7565b610e0f919061140e565b9392505050565b610e238383836001610fcb565b505050565b6001600160a01b038216610e5657604051634b637e8f60e11b81525f60048201526024015b60405180910390fd5b610e61825f8361109d565b5050565b6001600160a01b038381165f908152600160209081526040808320938616835292905220545f198114610eda5781811015610ecc57604051637dc7a0d960e11b81526001600160a01b03841660048201526024810182905260448101839052606401610e4d565b610eda84848484035f610fcb565b50505050565b6001600160a01b038316610f0957604051634b637e8f60e11b81525f6004820152602401610e4d565b6001600160a01b038216610f325760405163ec442f0560e01b81525f6004820152602401610e4d565b610e2383838361109d565b604080516001600160a01b0385811660248301528416604482015260648082018490528251808303909101815260849091019091526020810180516001600160e01b03166323b872dd60e01b179052610eda9085906111c3565b6001600160a01b038216610fc05760405163ec442f0560e01b81525f6004820152602401610e4d565b610e615f838361109d565b6001600160a01b038416610ff45760405163e602df0560e01b81525f6004820152602401610e4d565b6001600160a01b03831661101d57604051634a1406b160e11b81525f6004820152602401610e4d565b6001600160a01b038085165f9081526001602090815260408083209387168352929052208290558015610eda57826001600160a01b0316846001600160a01b03167f8c5be1e5ebec7d5bd14f71427d1e84f3dd0314c0f7b2291e5b200ac8c7c3b9258460405161108f91815260200190565b60405180910390a350505050565b6001600160a01b0383166110c7578060025f8282546110bc91906113e4565b909155506111379050565b6001600160a01b0383165f90815260208190526040902054818110156111195760405163391434e360e21b81526001600160a01b03851660048201526024810182905260448101839052606401610e4d565b6001600160a01b0384165f9081526020819052604090209082900390555b6001600160a01b03821661115357600280548290039055611171565b6001600160a01b0382165f9081526020819052604090208054820190555b816001600160a01b0316836001600160a01b03167fddf252ad1be2c89b69c2b068fc378daa952ba7f163c4a11628f55a4df523b3ef836040516111b691815260200190565b60405180910390a3505050565b5f8060205f8451602086015f885af1806111e2576040513d5f823e3d81fd5b50505f513d915081156111f9578060011415611206565b6001600160a01b0384163b155b15610eda57604051635274afe760e01b81526001600160a01b0385166004820152602401610e4d565b5f6020828403121561123f575f80fd5b81356001600160e01b031981168114610e0f575f80fd5b602081525f82518060208401528060208501604085015e5f604082850101526040601f19601f83011684010191505092915050565b80356001600160a01b03811681146112a1575f80fd5b919050565b5f80604083850312156112b7575f80fd5b6112c08361128b565b946020939093013593505050565b5f602082840312156112de575f80fd5b5035919050565b5f805f606084860312156112f7575f80fd5b6113008461128b565b925061130e6020850161128b565b929592945050506040919091013590565b5f6020828403121561132f575f80fd5b610e0f8261128b565b5f8060408385031215611349575f80fd5b6113528361128b565b91506113606020840161128b565b90509250929050565b600181811c9082168061137d57607f821691505b60208210810361139b57634e487b7160e01b5f52602260045260245ffd5b50919050565b80516001600160c01b03811681146112a1575f80fd5b5f602082840312156113c7575f80fd5b610e0f826113a1565b634e487b7160e01b5f52601160045260245ffd5b808201808211156103f8576103f86113d0565b80820281158282048414176103f8576103f86113d0565b5f8261142857634e487b7160e01b5f52601260045260245ffd5b500490565b5f6020828403121561143d575f80fd5b5051919050565b805167ffffffffffffffff811681146112a1575f80fd5b5f6020828403121561146b575f80fd5b610e0f82611444565b5f6040828403128015611485575f80fd5b506040805190810167ffffffffffffffff811182821017156114b557634e487b7160e01b5f52604160045260245ffd5b6040526114c1836113a1565b81526114cf60208401611444565b60208201529392505050565b67ffffffffffffffff82811682821603908111156103f8576103f86113d0565b5f6020828403121561150b575f80fd5b815162ffffff81168114610e0f575f80fd5b6001600160c01b0381811683821601908111156103f8576103f86113d056fea264697066735822122031bfb974a02164a210df536aefe78bad672bb70c7f7386e14c2013901954163a64736f6c634300081a0033",
			"opcodes": "PUSH1 0xC0 PUSH1 0x40 MSTORE PUSH8 0xDE0B6B3A7640000 PUSH1 0x6 SSTORE CALLVALUE DUP1 ISZERO PUSH2 0x1B JUMPI PUSH0 DUP1 REVERT JUMPDEST POP PUSH1 0x40 MLOAD PUSH2 0x18DC CODESIZE SUB DUP1 PUSH2 0x18DC DUP4 CODECOPY DUP2 ADD PUSH1 0x40 DUP2 SWAP1 MSTORE PUSH2 0x3A SWAP2 PUSH2 0x125 JUMP JUMPDEST DUP2 DUP2 PUSH1 0x3 PUSH2 0x48 DUP4 DUP3 PUSH2 0x234 JUMP JUMPDEST POP PUSH1 0x4 PUSH2 0x55 DUP3 DUP3 PUSH2 0x234 JUMP JUMPDEST POP POP POP PUSH1 0x1 PUSH1 0x1 PUSH1 0xA0 SHL SUB SWAP4 DUP5 AND PUSH1 0x80 MSTORE POP POP AND PUSH1 0xA0 MSTORE PUSH2 0x2EE JUMP JUMPDEST PUSH1 0x1 PUSH1 0x1 PUSH1 0xA0 SHL SUB DUP2 AND DUP2 EQ PUSH2 0x85 JUMPI PUSH0 DUP1 REVERT JUMPDEST POP JUMP JUMPDEST PUSH4 0x4E487B71 PUSH1 0xE0 SHL PUSH0 MSTORE PUSH1 0x41 PUSH1 0x4 MSTORE PUSH1 0x24 PUSH0 REVERT JUMPDEST PUSH0 DUP3 PUSH1 0x1F DUP4 ADD SLT PUSH2 0xAB JUMPI PUSH0 DUP1 REVERT JUMPDEST DUP2 MLOAD PUSH1 0x1 PUSH1 0x1 PUSH1 0x40 SHL SUB DUP2 GT ISZERO PUSH2 0xC4 JUMPI PUSH2 0xC4 PUSH2 0x88 JUMP JUMPDEST PUSH1 0x40 MLOAD PUSH1 0x1F DUP3 ADD PUSH1 0x1F NOT SWAP1 DUP2 AND PUSH1 0x3F ADD AND DUP2 ADD PUSH1 0x1 PUSH1 0x1 PUSH1 0x40 SHL SUB DUP2 GT DUP3 DUP3 LT OR ISZERO PUSH2 0xF2 JUMPI PUSH2 0xF2 PUSH2 0x88 JUMP JUMPDEST PUSH1 0x40 MSTORE DUP2 DUP2 MSTORE DUP4 DUP3 ADD PUSH1 0x20 ADD DUP6 LT ISZERO PUSH2 0x109 JUMPI PUSH0 DUP1 REVERT JUMPDEST DUP2 PUSH1 0x20 DUP6 ADD PUSH1 0x20 DUP4 ADD MCOPY PUSH0 SWAP2 DUP2 ADD PUSH1 0x20 ADD SWAP2 SWAP1 SWAP2 MSTORE SWAP4 SWAP3 POP POP POP JUMP JUMPDEST PUSH0 DUP1 PUSH0 DUP1 PUSH1 0x80 DUP6 DUP8 SUB SLT ISZERO PUSH2 0x138 JUMPI PUSH0 DUP1 REVERT JUMPDEST DUP5 MLOAD PUSH2 0x143 DUP2 PUSH2 0x71 JUMP JUMPDEST PUSH1 0x20 DUP7 ADD MLOAD SWAP1 SWAP5 POP PUSH2 0x154 DUP2 PUSH2 0x71 JUMP JUMPDEST PUSH1 0x40 DUP7 ADD MLOAD SWAP1 SWAP4 POP PUSH1 0x1 PUSH1 0x1 PUSH1 0x40 SHL SUB DUP2 GT ISZERO PUSH2 0x16F JUMPI PUSH0 DUP1 REVERT JUMPDEST PUSH2 0x17B DUP8 DUP3 DUP9 ADD PUSH2 0x9C JUMP JUMPDEST PUSH1 0x60 DUP8 ADD MLOAD SWAP1 SWAP4 POP SWAP1 POP PUSH1 0x1 PUSH1 0x1 PUSH1 0x40 SHL SUB DUP2 GT ISZERO PUSH2 0x198 JUMPI PUSH0 DUP1 REVERT JUMPDEST PUSH2 0x1A4 DUP8 DUP3 DUP9 ADD PUSH2 0x9C JUMP JUMPDEST SWAP2 POP POP SWAP3 SWAP6 SWAP2 SWAP5 POP SWAP3 POP JUMP JUMPDEST PUSH1 0x1 DUP2 DUP2 SHR SWAP1 DUP3 AND DUP1 PUSH2 0x1C4 JUMPI PUSH1 0x7F DUP3 AND SWAP2 POP JUMPDEST PUSH1 0x20 DUP3 LT DUP2 SUB PUSH2 0x1E2 JUMPI PUSH4 0x4E487B71 PUSH1 0xE0 SHL PUSH0 MSTORE PUSH1 0x22 PUSH1 0x4 MSTORE PUSH1 0x24 PUSH0 REVERT JUMPDEST POP SWAP2 SWAP1 POP JUMP JUMPDEST PUSH1 0x1F DUP3 GT ISZERO PUSH2 0x22F JUMPI DUP1 PUSH0 MSTORE PUSH1 0x20 PUSH0 KECCAK256 PUSH1 0x1F DUP5 ADD PUSH1 0x5 SHR DUP2 ADD PUSH1 0x20 DUP6 LT ISZERO PUSH2 0x20D JUMPI POP DUP1 JUMPDEST PUSH1 0x1F DUP5 ADD PUSH1 0x5 SHR DUP3 ADD SWAP2 POP JUMPDEST DUP2 DUP2 LT ISZERO PUSH2 0x22C JUMPI PUSH0 DUP2 SSTORE PUSH1 0x1 ADD PUSH2 0x219 JUMP JUMPDEST POP POP JUMPDEST POP POP POP JUMP JUMPDEST DUP2 MLOAD PUSH1 0x1 PUSH1 0x1 PUSH1 0x40 SHL SUB DUP2 GT ISZERO PUSH2 0x24D JUMPI PUSH2 0x24D PUSH2 0x88 JUMP JUMPDEST PUSH2 0x261 DUP2 PUSH2 0x25B DUP5 SLOAD PUSH2 0x1B0 JUMP JUMPDEST DUP5 PUSH2 0x1E8 JUMP JUMPDEST PUSH1 0x20 PUSH1 0x1F DUP3 GT PUSH1 0x1 DUP2 EQ PUSH2 0x293 JUMPI PUSH0 DUP4 ISZERO PUSH2 0x27C JUMPI POP DUP5 DUP3 ADD MLOAD JUMPDEST PUSH0 NOT PUSH1 0x3 DUP6 SWAP1 SHL SHR NOT AND PUSH1 0x1 DUP5 SWAP1 SHL OR DUP5 SSTORE PUSH2 0x22C JUMP JUMPDEST PUSH0 DUP5 DUP2 MSTORE PUSH1 0x20 DUP2 KECCAK256 PUSH1 0x1F NOT DUP6 AND SWAP2 JUMPDEST DUP3 DUP2 LT ISZERO PUSH2 0x2C2 JUMPI DUP8 DUP6 ADD MLOAD DUP3 SSTORE PUSH1 0x20 SWAP5 DUP6 ADD SWAP5 PUSH1 0x1 SWAP1 SWAP3 ADD SWAP2 ADD PUSH2 0x2A2 JUMP JUMPDEST POP DUP5 DUP3 LT ISZERO PUSH2 0x2DF JUMPI DUP7 DUP5 ADD MLOAD PUSH0 NOT PUSH1 0x3 DUP8 SWAP1 SHL PUSH1 0xF8 AND SHR NOT AND DUP2 SSTORE JUMPDEST POP POP POP POP PUSH1 0x1 SWAP1 DUP2 SHL ADD SWAP1 SSTORE POP JUMP JUMPDEST PUSH1 0x80 MLOAD PUSH1 0xA0 MLOAD PUSH2 0x1572 PUSH2 0x36A PUSH0 CODECOPY PUSH0 DUP2 DUP2 PUSH2 0x2DF ADD MSTORE DUP2 DUP2 PUSH2 0x422 ADD MSTORE DUP2 DUP2 PUSH2 0x534 ADD MSTORE DUP2 DUP2 PUSH2 0x692 ADD MSTORE DUP2 DUP2 PUSH2 0x7C7 ADD MSTORE DUP2 DUP2 PUSH2 0x8B7 ADD MSTORE DUP2 DUP2 PUSH2 0x94A ADD MSTORE DUP2 DUP2 PUSH2 0x9D6 ADD MSTORE DUP2 DUP2 PUSH2 0xA80 ADD MSTORE DUP2 DUP2 PUSH2 0xB00 ADD MSTORE DUP2 DUP2 PUSH2 0xBC1 ADD MSTORE DUP2 DUP2 PUSH2 0xCA9 ADD MSTORE PUSH2 0xD2F ADD MSTORE PUSH0 DUP2 DUP2 PUSH2 0x2A0 ADD MSTORE PUSH2 0x781 ADD MSTORE PUSH2 0x1572 PUSH0 RETURN INVALID PUSH1 0x80 PUSH1 0x40 MSTORE CALLVALUE DUP1 ISZERO PUSH2 0xF JUMPI PUSH0 DUP1 REVERT JUMPDEST POP PUSH1 0x4 CALLDATASIZE LT PUSH2 0x148 JUMPI PUSH0 CALLDATALOAD PUSH1 0xE0 SHR DUP1 PUSH4 0x70A08231 GT PUSH2 0xBF JUMPI DUP1 PUSH4 0xAD7A672F GT PUSH2 0x79 JUMPI DUP1 PUSH4 0xAD7A672F EQ PUSH2 0x293 JUMPI DUP1 PUSH4 0xC4D4803A EQ PUSH2 0x29B JUMPI DUP1 PUSH4 0xC86D6AE4 EQ PUSH2 0x2DA JUMPI DUP1 PUSH4 0xD54AD2A1 EQ PUSH2 0x301 JUMPI DUP1 PUSH4 0xDD62ED3E EQ PUSH2 0x30A JUMPI DUP1 PUSH4 0xE8E511A4 EQ PUSH2 0x342 JUMPI PUSH0 DUP1 REVERT JUMPDEST DUP1 PUSH4 0x70A08231 EQ PUSH2 0x237 JUMPI DUP1 PUSH4 0x8380EDB7 EQ PUSH2 0x25F JUMPI DUP1 PUSH4 0x8DDF6734 EQ PUSH2 0x267 JUMPI DUP1 PUSH4 0x95D89B41 EQ PUSH2 0x26F JUMPI DUP1 PUSH4 0xA035B1FE EQ PUSH2 0x277 JUMPI DUP1 PUSH4 0xA9059CBB EQ PUSH2 0x280 JUMPI PUSH0 DUP1 REVERT JUMPDEST DUP1 PUSH4 0x205C2878 GT PUSH2 0x110 JUMPI DUP1 PUSH4 0x205C2878 EQ PUSH2 0x1D4 JUMPI DUP1 PUSH4 0x23B872DD EQ PUSH2 0x1E7 JUMPI DUP1 PUSH4 0x2E1A7D4D EQ PUSH2 0x1FA JUMPI DUP1 PUSH4 0x313CE567 EQ PUSH2 0x20D JUMPI DUP1 PUSH4 0x3FA84516 EQ PUSH2 0x21C JUMPI DUP1 PUSH4 0x5B02907B EQ PUSH2 0x22F JUMPI PUSH0 DUP1 REVERT JUMPDEST DUP1 PUSH4 0x1FFC9A7 EQ PUSH2 0x14C JUMPI DUP1 PUSH4 0x6FDDE03 EQ PUSH2 0x185 JUMPI DUP1 PUSH4 0x95EA7B3 EQ PUSH2 0x19A JUMPI DUP1 PUSH4 0x18160DDD EQ PUSH2 0x1AD JUMPI DUP1 PUSH4 0x1B862027 EQ PUSH2 0x1BF JUMPI JUMPDEST PUSH0 DUP1 REVERT JUMPDEST PUSH2 0x170 PUSH2 0x15A CALLDATASIZE PUSH1 0x4 PUSH2 0x122F JUMP JUMPDEST PUSH1 0x1 PUSH1 0x1 PUSH1 0xE0 SHL SUB NOT AND PUSH4 0x4A174591 PUSH1 0xE1 SHL EQ SWAP1 JUMP JUMPDEST PUSH1 0x40 MLOAD SWAP1 ISZERO ISZERO DUP2 MSTORE PUSH1 0x20 ADD JUMPDEST PUSH1 0x40 MLOAD DUP1 SWAP2 SUB SWAP1 RETURN JUMPDEST PUSH2 0x18D PUSH2 0x355 JUMP JUMPDEST PUSH1 0x40 MLOAD PUSH2 0x17C SWAP2 SWAP1 PUSH2 0x1256 JUMP JUMPDEST PUSH2 0x170 PUSH2 0x1A8 CALLDATASIZE PUSH1 0x4 PUSH2 0x12A6 JUMP JUMPDEST PUSH2 0x3E5 JUMP JUMPDEST PUSH1 0x2 SLOAD JUMPDEST PUSH1 0x40 MLOAD SWAP1 DUP2 MSTORE PUSH1 0x20 ADD PUSH2 0x17C JUMP JUMPDEST PUSH2 0x1D2 PUSH2 0x1CD CALLDATASIZE PUSH1 0x4 PUSH2 0x12CE JUMP JUMPDEST PUSH2 0x3FE JUMP JUMPDEST STOP JUMPDEST PUSH2 0x1D2 PUSH2 0x1E2 CALLDATASIZE PUSH1 0x4 PUSH2 0x12A6 JUMP JUMPDEST PUSH2 0x40B JUMP JUMPDEST PUSH2 0x170 PUSH2 0x1F5 CALLDATASIZE PUSH1 0x4 PUSH2 0x12E5 JUMP JUMPDEST PUSH2 0x64E JUMP JUMPDEST PUSH2 0x1D2 PUSH2 0x208 CALLDATASIZE PUSH1 0x4 PUSH2 0x12CE JUMP JUMPDEST PUSH2 0x671 JUMP JUMPDEST PUSH1 0x40 MLOAD PUSH1 0x12 DUP2 MSTORE PUSH1 0x20 ADD PUSH2 0x17C JUMP JUMPDEST PUSH2 0x1D2 PUSH2 0x22A CALLDATASIZE PUSH1 0x4 PUSH2 0x12A6 JUMP JUMPDEST PUSH2 0x67B JUMP JUMPDEST PUSH2 0x1B1 PUSH2 0x8A1 JUMP JUMPDEST PUSH2 0x1B1 PUSH2 0x245 CALLDATASIZE PUSH1 0x4 PUSH2 0x131F JUMP JUMPDEST PUSH1 0x1 PUSH1 0x1 PUSH1 0xA0 SHL SUB AND PUSH0 SWAP1 DUP2 MSTORE PUSH1 0x20 DUP2 SWAP1 MSTORE PUSH1 0x40 SWAP1 KECCAK256 SLOAD SWAP1 JUMP JUMPDEST PUSH2 0x170 PUSH2 0xA69 JUMP JUMPDEST PUSH2 0x1B1 PUSH2 0xB8F JUMP JUMPDEST PUSH2 0x18D PUSH2 0xC76 JUMP JUMPDEST PUSH2 0x1B1 PUSH1 0x6 SLOAD DUP2 JUMP JUMPDEST PUSH2 0x170 PUSH2 0x28E CALLDATASIZE PUSH1 0x4 PUSH2 0x12A6 JUMP JUMPDEST PUSH2 0xC85 JUMP JUMPDEST PUSH2 0x1B1 PUSH2 0xC92 JUMP JUMPDEST PUSH2 0x2C2 PUSH32 0x0 DUP2 JUMP JUMPDEST PUSH1 0x40 MLOAD PUSH1 0x1 PUSH1 0x1 PUSH1 0xA0 SHL SUB SWAP1 SWAP2 AND DUP2 MSTORE PUSH1 0x20 ADD PUSH2 0x17C JUMP JUMPDEST PUSH2 0x2C2 PUSH32 0x0 DUP2 JUMP JUMPDEST PUSH2 0x1B1 PUSH1 0x5 SLOAD DUP2 JUMP JUMPDEST PUSH2 0x1B1 PUSH2 0x318 CALLDATASIZE PUSH1 0x4 PUSH2 0x1338 JUMP JUMPDEST PUSH1 0x1 PUSH1 0x1 PUSH1 0xA0 SHL SUB SWAP2 DUP3 AND PUSH0 SWAP1 DUP2 MSTORE PUSH1 0x1 PUSH1 0x20 SWAP1 DUP2 MSTORE PUSH1 0x40 DUP1 DUP4 KECCAK256 SWAP4 SWAP1 SWAP5 AND DUP3 MSTORE SWAP2 SWAP1 SWAP2 MSTORE KECCAK256 SLOAD SWAP1 JUMP JUMPDEST PUSH2 0x1B1 PUSH2 0x350 CALLDATASIZE PUSH1 0x4 PUSH2 0x131F JUMP JUMPDEST PUSH2 0xDB8 JUMP JUMPDEST PUSH1 0x60 PUSH1 0x3 DUP1 SLOAD PUSH2 0x364 SWAP1 PUSH2 0x1369 JUMP JUMPDEST DUP1 PUSH1 0x1F ADD PUSH1 0x20 DUP1 SWAP2 DIV MUL PUSH1 0x20 ADD PUSH1 0x40 MLOAD SWAP1 DUP2 ADD PUSH1 0x40 MSTORE DUP1 SWAP3 SWAP2 SWAP1 DUP2 DUP2 MSTORE PUSH1 0x20 ADD DUP3 DUP1 SLOAD PUSH2 0x390 SWAP1 PUSH2 0x1369 JUMP JUMPDEST DUP1 ISZERO PUSH2 0x3DB JUMPI DUP1 PUSH1 0x1F LT PUSH2 0x3B2 JUMPI PUSH2 0x100 DUP1 DUP4 SLOAD DIV MUL DUP4 MSTORE SWAP2 PUSH1 0x20 ADD SWAP2 PUSH2 0x3DB JUMP JUMPDEST DUP3 ADD SWAP2 SWAP1 PUSH0 MSTORE PUSH1 0x20 PUSH0 KECCAK256 SWAP1 JUMPDEST DUP2 SLOAD DUP2 MSTORE SWAP1 PUSH1 0x1 ADD SWAP1 PUSH1 0x20 ADD DUP1 DUP4 GT PUSH2 0x3BE JUMPI DUP3 SWAP1 SUB PUSH1 0x1F AND DUP3 ADD SWAP2 JUMPDEST POP POP POP POP POP SWAP1 POP SWAP1 JUMP JUMPDEST PUSH0 CALLER PUSH2 0x3F2 DUP2 DUP6 DUP6 PUSH2 0xE16 JUMP JUMPDEST PUSH1 0x1 SWAP2 POP POP JUMPDEST SWAP3 SWAP2 POP POP JUMP JUMPDEST PUSH2 0x408 CALLER DUP3 PUSH2 0x67B JUMP JUMPDEST POP JUMP JUMPDEST PUSH1 0x40 MLOAD PUSH4 0x77267EC3 PUSH1 0xE0 SHL DUP2 MSTORE ADDRESS PUSH1 0x4 DUP3 ADD MSTORE PUSH0 SWAP1 PUSH32 0x0 PUSH1 0x1 PUSH1 0x1 PUSH1 0xA0 SHL SUB AND SWAP1 PUSH4 0x77267EC3 SWAP1 PUSH1 0x24 ADD PUSH1 0x20 PUSH1 0x40 MLOAD DUP1 DUP4 SUB DUP2 DUP7 GAS STATICCALL ISZERO DUP1 ISZERO PUSH2 0x46F JUMPI RETURNDATASIZE PUSH0 DUP1 RETURNDATACOPY RETURNDATASIZE PUSH0 REVERT JUMPDEST POP POP POP POP PUSH1 0x40 MLOAD RETURNDATASIZE PUSH1 0x1F NOT PUSH1 0x1F DUP3 ADD AND DUP3 ADD DUP1 PUSH1 0x40 MSTORE POP DUP2 ADD SWAP1 PUSH2 0x493 SWAP2 SWAP1 PUSH2 0x13B7 JUMP JUMPDEST PUSH1 0x1 PUSH1 0x1 PUSH1 0xC0 SHL SUB AND SWAP1 POP PUSH0 DUP2 GT DUP1 ISZERO PUSH2 0x4B4 JUMPI POP PUSH0 PUSH2 0x4B2 PUSH1 0x2 SLOAD SWAP1 JUMP JUMPDEST GT JUMPDEST ISZERO PUSH2 0x504 JUMPI DUP1 PUSH1 0x5 PUSH0 DUP3 DUP3 SLOAD PUSH2 0x4CA SWAP2 SWAP1 PUSH2 0x13E4 JUMP JUMPDEST SWAP1 SWAP2 SSTORE POP POP PUSH1 0x2 SLOAD PUSH2 0x4E4 DUP3 PUSH8 0xDE0B6B3A7640000 PUSH2 0x13F7 JUMP JUMPDEST PUSH2 0x4EE SWAP2 SWAP1 PUSH2 0x140E JUMP JUMPDEST PUSH1 0x6 PUSH0 DUP3 DUP3 SLOAD PUSH2 0x4FE SWAP2 SWAP1 PUSH2 0x13E4 JUMP JUMPDEST SWAP1 SWAP2 SSTORE POP POP JUMPDEST PUSH2 0x50E CALLER DUP4 PUSH2 0xE28 JUMP JUMPDEST PUSH0 PUSH8 0xDE0B6B3A7640000 PUSH1 0x6 SLOAD DUP5 PUSH2 0x526 SWAP2 SWAP1 PUSH2 0x13F7 JUMP JUMPDEST PUSH2 0x530 SWAP2 SWAP1 PUSH2 0x140E JUMP JUMPDEST SWAP1 POP PUSH32 0x0 PUSH1 0x1 PUSH1 0x1 PUSH1 0xA0 SHL SUB AND PUSH4 0x1791DC5E DUP6 PUSH2 0x56B PUSH1 0x2 SLOAD SWAP1 JUMP JUMPDEST ISZERO PUSH2 0x576 JUMPI DUP4 PUSH2 0x57F JUMP JUMPDEST PUSH1 0x1 PUSH1 0x1 PUSH1 0xC0 SHL SUB JUMPDEST PUSH1 0x40 MLOAD PUSH1 0x1 PUSH1 0x1 PUSH1 0xE0 SHL SUB NOT PUSH1 0xE0 DUP6 SWAP1 SHL AND DUP2 MSTORE PUSH1 0x1 PUSH1 0x1 PUSH1 0xA0 SHL SUB SWAP1 SWAP3 AND PUSH1 0x4 DUP4 ADD MSTORE PUSH1 0x1 PUSH1 0x1 PUSH1 0xC0 SHL SUB AND PUSH1 0x24 DUP3 ADD MSTORE PUSH1 0x44 ADD PUSH1 0x20 PUSH1 0x40 MLOAD DUP1 DUP4 SUB DUP2 PUSH0 DUP8 GAS CALL ISZERO DUP1 ISZERO PUSH2 0x5D0 JUMPI RETURNDATASIZE PUSH0 DUP1 RETURNDATACOPY RETURNDATASIZE PUSH0 REVERT JUMPDEST POP POP POP POP PUSH1 0x40 MLOAD RETURNDATASIZE PUSH1 0x1F NOT PUSH1 0x1F DUP3 ADD AND DUP3 ADD DUP1 PUSH1 0x40 MSTORE POP DUP2 ADD SWAP1 PUSH2 0x5F4 SWAP2 SWAP1 PUSH2 0x142D JUMP JUMPDEST PUSH1 0x6 SLOAD PUSH1 0x40 DUP1 MLOAD DUP7 DUP2 MSTORE PUSH1 0x20 DUP2 ADD DUP5 SWAP1 MSTORE SWAP1 DUP2 ADD SWAP2 SWAP1 SWAP2 MSTORE SWAP1 SWAP2 POP PUSH1 0x1 PUSH1 0x1 PUSH1 0xA0 SHL SUB DUP6 AND SWAP1 PUSH32 0x75E161B3E824B114FC1A33274BD7091918DD4E639CEDE50B78B15A4EEA956A21 SWAP1 PUSH1 0x60 ADD JUMPDEST PUSH1 0x40 MLOAD DUP1 SWAP2 SUB SWAP1 LOG2 POP POP POP POP JUMP JUMPDEST PUSH0 CALLER PUSH2 0x65B DUP6 DUP3 DUP6 PUSH2 0xE65 JUMP JUMPDEST PUSH2 0x666 DUP6 DUP6 DUP6 PUSH2 0xEE0 JUMP JUMPDEST POP PUSH1 0x1 SWAP5 SWAP4 POP POP POP POP JUMP JUMPDEST PUSH2 0x408 CALLER DUP3 PUSH2 0x40B JUMP JUMPDEST PUSH1 0x40 MLOAD PUSH4 0x77267EC3 PUSH1 0xE0 SHL DUP2 MSTORE ADDRESS PUSH1 0x4 DUP3 ADD MSTORE PUSH0 SWAP1 PUSH32 0x0 PUSH1 0x1 PUSH1 0x1 PUSH1 0xA0 SHL SUB AND SWAP1 PUSH4 0x77267EC3 SWAP1 PUSH1 0x24 ADD PUSH1 0x20 PUSH1 0x40 MLOAD DUP1 DUP4 SUB DUP2 DUP7 GAS STATICCALL ISZERO DUP1 ISZERO PUSH2 0x6DF JUMPI RETURNDATASIZE PUSH0 DUP1 RETURNDATACOPY RETURNDATASIZE PUSH0 REVERT JUMPDEST POP POP POP POP PUSH1 0x40 MLOAD RETURNDATASIZE PUSH1 0x1F NOT PUSH1 0x1F DUP3 ADD AND DUP3 ADD DUP1 PUSH1 0x40 MSTORE POP DUP2 ADD SWAP1 PUSH2 0x703 SWAP2 SWAP1 PUSH2 0x13B7 JUMP JUMPDEST PUSH1 0x1 PUSH1 0x1 PUSH1 0xC0 SHL SUB AND SWAP1 POP PUSH0 DUP2 GT DUP1 ISZERO PUSH2 0x724 JUMPI POP PUSH0 PUSH2 0x722 PUSH1 0x2 SLOAD SWAP1 JUMP JUMPDEST GT JUMPDEST ISZERO PUSH2 0x774 JUMPI DUP1 PUSH1 0x5 PUSH0 DUP3 DUP3 SLOAD PUSH2 0x73A SWAP2 SWAP1 PUSH2 0x13E4 JUMP JUMPDEST SWAP1 SWAP2 SSTORE POP POP PUSH1 0x2 SLOAD PUSH2 0x754 DUP3 PUSH8 0xDE0B6B3A7640000 PUSH2 0x13F7 JUMP JUMPDEST PUSH2 0x75E SWAP2 SWAP1 PUSH2 0x140E JUMP JUMPDEST PUSH1 0x6 PUSH0 DUP3 DUP3 SLOAD PUSH2 0x76E SWAP2 SWAP1 PUSH2 0x13E4 JUMP JUMPDEST SWAP1 SWAP2 SSTORE POP POP JUMPDEST PUSH2 0x7A9 PUSH1 0x1 PUSH1 0x1 PUSH1 0xA0 SHL SUB PUSH32 0x0 AND CALLER ADDRESS DUP6 PUSH2 0xF3D JUMP JUMPDEST PUSH1 0x40 MLOAD PUSH4 0x3F512705 PUSH1 0xE2 SHL DUP2 MSTORE PUSH1 0x1 PUSH1 0x1 PUSH1 0xC0 SHL SUB DUP4 AND PUSH1 0x4 DUP3 ADD MSTORE PUSH32 0x0 PUSH1 0x1 PUSH1 0x1 PUSH1 0xA0 SHL SUB AND SWAP1 PUSH4 0xFD449C14 SWAP1 PUSH1 0x24 ADD PUSH0 PUSH1 0x40 MLOAD DUP1 DUP4 SUB DUP2 PUSH0 DUP8 DUP1 EXTCODESIZE ISZERO DUP1 ISZERO PUSH2 0x810 JUMPI PUSH0 DUP1 REVERT JUMPDEST POP GAS CALL ISZERO DUP1 ISZERO PUSH2 0x822 JUMPI RETURNDATASIZE PUSH0 DUP1 RETURNDATACOPY RETURNDATASIZE PUSH0 REVERT JUMPDEST POP POP POP POP PUSH0 PUSH1 0x6 SLOAD DUP4 PUSH8 0xDE0B6B3A7640000 PUSH2 0x83E SWAP2 SWAP1 PUSH2 0x13F7 JUMP JUMPDEST PUSH2 0x848 SWAP2 SWAP1 PUSH2 0x140E JUMP JUMPDEST SWAP1 POP PUSH2 0x854 DUP5 DUP3 PUSH2 0xF97 JUMP JUMPDEST PUSH1 0x6 SLOAD PUSH1 0x40 DUP1 MLOAD DUP6 DUP2 MSTORE PUSH1 0x20 DUP2 ADD DUP5 SWAP1 MSTORE SWAP1 DUP2 ADD SWAP2 SWAP1 SWAP2 MSTORE PUSH1 0x1 PUSH1 0x1 PUSH1 0xA0 SHL SUB DUP6 AND SWAP1 PUSH32 0x710967C2C90AA017CAF1DF3EC721B9981E4350D9C6398F8ACF4CFACD1AEC73F8 SWAP1 PUSH1 0x60 ADD PUSH2 0x640 JUMP JUMPDEST PUSH0 PUSH2 0x8AA PUSH2 0xA69 JUMP JUMPDEST ISZERO PUSH2 0x8B4 JUMPI POP PUSH0 SWAP1 JUMP JUMPDEST PUSH0 PUSH32 0x0 PUSH1 0x1 PUSH1 0x1 PUSH1 0xA0 SHL SUB AND PUSH4 0xB079F163 PUSH1 0x40 MLOAD DUP2 PUSH4 0xFFFFFFFF AND PUSH1 0xE0 SHL DUP2 MSTORE PUSH1 0x4 ADD PUSH1 0x20 PUSH1 0x40 MLOAD DUP1 DUP4 SUB DUP2 DUP7 GAS STATICCALL ISZERO DUP1 ISZERO PUSH2 0x911 JUMPI RETURNDATASIZE PUSH0 DUP1 RETURNDATACOPY RETURNDATASIZE PUSH0 REVERT JUMPDEST POP POP POP POP PUSH1 0x40 MLOAD RETURNDATASIZE PUSH1 0x1F NOT PUSH1 0x1F DUP3 ADD AND DUP3 ADD DUP1 PUSH1 0x40 MSTORE POP DUP2 ADD SWAP1 PUSH2 0x935 SWAP2 SWAP1 PUSH2 0x145B JUMP JUMPDEST PUSH1 0x40 MLOAD PUSH4 0x1F7CDD5F PUSH1 0xE0 SHL DUP2 MSTORE ADDRESS PUSH1 0x4 DUP3 ADD MSTORE PUSH32 0x0 PUSH1 0x1 PUSH1 0x1 PUSH1 0xA0 SHL SUB AND SWAP1 PUSH4 0x1F7CDD5F SWAP1 PUSH1 0x24 ADD PUSH1 0x40 DUP1 MLOAD DUP1 DUP4 SUB DUP2 DUP7 GAS STATICCALL ISZERO DUP1 ISZERO PUSH2 0x996 JUMPI RETURNDATASIZE PUSH0 DUP1 RETURNDATACOPY RETURNDATASIZE PUSH0 REVERT JUMPDEST POP POP POP POP PUSH1 0x40 MLOAD RETURNDATASIZE PUSH1 0x1F NOT PUSH1 0x1F DUP3 ADD AND DUP3 ADD DUP1 PUSH1 0x40 MSTORE POP DUP2 ADD SWAP1 PUSH2 0x9BA SWAP2 SWAP1 PUSH2 0x1474 JUMP JUMPDEST PUSH1 0x20 ADD MLOAD PUSH2 0x9C8 SWAP2 SWAP1 PUSH2 0x14DB JUMP JUMPDEST PUSH8 0xFFFFFFFFFFFFFFFF AND SWAP1 POP PUSH32 0x0 PUSH1 0x1 PUSH1 0x1 PUSH1 0xA0 SHL SUB AND PUSH4 0x6A7B376 PUSH1 0x40 MLOAD DUP2 PUSH4 0xFFFFFFFF AND PUSH1 0xE0 SHL DUP2 MSTORE PUSH1 0x4 ADD PUSH1 0x20 PUSH1 0x40 MLOAD DUP1 DUP4 SUB DUP2 DUP7 GAS STATICCALL ISZERO DUP1 ISZERO PUSH2 0xA30 JUMPI RETURNDATASIZE PUSH0 DUP1 RETURNDATACOPY RETURNDATASIZE PUSH0 REVERT JUMPDEST POP POP POP POP PUSH1 0x40 MLOAD RETURNDATASIZE PUSH1 0x1F NOT PUSH1 0x1F DUP3 ADD AND DUP3 ADD DUP1 PUSH1 0x40 MSTORE POP DUP2 ADD SWAP1 PUSH2 0xA54 SWAP2 SWAP1 PUSH2 0x14FB JUMP JUMPDEST PUSH2 0xA63 SWAP1 PUSH3 0xFFFFFF AND DUP3 PUSH2 0x140E JUMP JUMPDEST SWAP2 POP POP SWAP1 JUMP JUMPDEST PUSH1 0x40 MLOAD PUSH4 0x1F7CDD5F PUSH1 0xE0 SHL DUP2 MSTORE ADDRESS PUSH1 0x4 DUP3 ADD MSTORE PUSH0 SWAP1 PUSH32 0x0 PUSH1 0x1 PUSH1 0x1 PUSH1 0xA0 SHL SUB AND SWAP1 PUSH4 0x1F7CDD5F SWAP1 PUSH1 0x24 ADD PUSH1 0x40 DUP1 MLOAD DUP1 DUP4 SUB DUP2 DUP7 GAS STATICCALL ISZERO DUP1 ISZERO PUSH2 0xACC JUMPI RETURNDATASIZE PUSH0 DUP1 RETURNDATACOPY RETURNDATASIZE PUSH0 REVERT JUMPDEST POP POP POP POP PUSH1 0x40 MLOAD RETURNDATASIZE PUSH1 0x1F NOT PUSH1 0x1F DUP3 ADD AND DUP3 ADD DUP1 PUSH1 0x40 MSTORE POP DUP2 ADD SWAP1 PUSH2 0xAF0 SWAP2 SWAP1 PUSH2 0x1474 JUMP JUMPDEST PUSH1 0x20 ADD MLOAD PUSH8 0xFFFFFFFFFFFFFFFF AND PUSH32 0x0 PUSH1 0x1 PUSH1 0x1 PUSH1 0xA0 SHL SUB AND PUSH4 0xB079F163 PUSH1 0x40 MLOAD DUP2 PUSH4 0xFFFFFFFF AND PUSH1 0xE0 SHL DUP2 MSTORE PUSH1 0x4 ADD PUSH1 0x20 PUSH1 0x40 MLOAD DUP1 DUP4 SUB DUP2 DUP7 GAS STATICCALL ISZERO DUP1 ISZERO PUSH2 0xB5A JUMPI RETURNDATASIZE PUSH0 DUP1 RETURNDATACOPY RETURNDATASIZE PUSH0 REVERT JUMPDEST POP POP POP POP PUSH1 0x40 MLOAD RETURNDATASIZE PUSH1 0x1F NOT PUSH1 0x1F DUP3 ADD AND DUP3 ADD DUP1 PUSH1 0x40 MSTORE POP DUP2 ADD SWAP1 PUSH2 0xB7E SWAP2 SWAP1 PUSH2 0x145B JUMP JUMPDEST PUSH8 0xFFFFFFFFFFFFFFFF AND LT ISZERO SWAP1 POP SWAP1 JUMP JUMPDEST PUSH0 DUP1 PUSH2 0xB9A PUSH1 0x2 SLOAD SWAP1 JUMP JUMPDEST SWAP1 POP DUP1 PUSH0 SUB PUSH2 0xBAA JUMPI PUSH0 SWAP2 POP POP SWAP1 JUMP JUMPDEST PUSH1 0x40 MLOAD PUSH4 0x77267EC3 PUSH1 0xE0 SHL DUP2 MSTORE ADDRESS PUSH1 0x4 DUP3 ADD MSTORE PUSH0 SWAP1 PUSH32 0x0 PUSH1 0x1 PUSH1 0x1 PUSH1 0xA0 SHL SUB AND SWAP1 PUSH4 0x77267EC3 SWAP1 PUSH1 0x24 ADD PUSH1 0x20 PUSH1 0x40 MLOAD DUP1 DUP4 SUB DUP2 DUP7 GAS STATICCALL ISZERO DUP1 ISZERO PUSH2 0xC0E JUMPI RETURNDATASIZE PUSH0 DUP1 RETURNDATACOPY RETURNDATASIZE PUSH0 REVERT JUMPDEST POP POP POP POP PUSH1 0x40 MLOAD RETURNDATASIZE PUSH1 0x1F NOT PUSH1 0x1F DUP3 ADD AND DUP3 ADD DUP1 PUSH1 0x40 MSTORE POP DUP2 ADD SWAP1 PUSH2 0xC32 SWAP2 SWAP1 PUSH2 0x13B7 JUMP JUMPDEST PUSH1 0x1 PUSH1 0x1 PUSH1 0xC0 SHL SUB AND SWAP1 POP PUSH2 0xC46 PUSH1 0x2 SLOAD SWAP1 JUMP JUMPDEST PUSH2 0xC58 DUP3 PUSH8 0xDE0B6B3A7640000 PUSH2 0x13F7 JUMP JUMPDEST PUSH2 0xC62 SWAP2 SWAP1 PUSH2 0x140E JUMP JUMPDEST PUSH1 0x6 SLOAD PUSH2 0xC6F SWAP2 SWAP1 PUSH2 0x13E4 JUMP JUMPDEST SWAP3 POP POP POP SWAP1 JUMP JUMPDEST PUSH1 0x60 PUSH1 0x4 DUP1 SLOAD PUSH2 0x364 SWAP1 PUSH2 0x1369 JUMP JUMPDEST PUSH0 CALLER PUSH2 0x3F2 DUP2 DUP6 DUP6 PUSH2 0xEE0 JUMP JUMPDEST PUSH1 0x40 MLOAD PUSH4 0x77267EC3 PUSH1 0xE0 SHL DUP2 MSTORE ADDRESS PUSH1 0x4 DUP3 ADD MSTORE PUSH0 SWAP1 PUSH32 0x0 PUSH1 0x1 PUSH1 0x1 PUSH1 0xA0 SHL SUB AND SWAP1 PUSH4 0x77267EC3 SWAP1 PUSH1 0x24 ADD PUSH1 0x20 PUSH1 0x40 MLOAD DUP1 DUP4 SUB DUP2 DUP7 GAS STATICCALL ISZERO DUP1 ISZERO PUSH2 0xCF6 JUMPI RETURNDATASIZE PUSH0 DUP1 RETURNDATACOPY RETURNDATASIZE PUSH0 REVERT JUMPDEST POP POP POP POP PUSH1 0x40 MLOAD RETURNDATASIZE PUSH1 0x1F NOT PUSH1 0x1F DUP3 ADD AND DUP3 ADD DUP1 PUSH1 0x40 MSTORE POP DUP2 ADD SWAP1 PUSH2 0xD1A SWAP2 SWAP1 PUSH2 0x13B7 JUMP JUMPDEST PUSH1 0x40 MLOAD PUSH4 0x1F7CDD5F PUSH1 0xE0 SHL DUP2 MSTORE ADDRESS PUSH1 0x4 DUP3 ADD MSTORE PUSH32 0x0 PUSH1 0x1 PUSH1 0x1 PUSH1 0xA0 SHL SUB AND SWAP1 PUSH4 0x1F7CDD5F SWAP1 PUSH1 0x24 ADD PUSH1 0x40 DUP1 MLOAD DUP1 DUP4 SUB DUP2 DUP7 GAS STATICCALL ISZERO DUP1 ISZERO PUSH2 0xD7B JUMPI RETURNDATASIZE PUSH0 DUP1 RETURNDATACOPY RETURNDATASIZE PUSH0 REVERT JUMPDEST POP POP POP POP PUSH1 0x40 MLOAD RETURNDATASIZE PUSH1 0x1F NOT PUSH1 0x1F DUP3 ADD AND DUP3 ADD DUP1 PUSH1 0x40 MSTORE POP DUP2 ADD SWAP1 PUSH2 0xD9F SWAP2 SWAP1 PUSH2 0x1474 JUMP JUMPDEST MLOAD PUSH2 0xDAA SWAP2 SWAP1 PUSH2 0x151D JUMP JUMPDEST PUSH1 0x1 PUSH1 0x1 PUSH1 0xC0 SHL SUB AND SWAP1 POP SWAP1 JUMP JUMPDEST PUSH0 DUP1 PUSH2 0xDC3 PUSH1 0x2 SLOAD SWAP1 JUMP JUMPDEST SWAP1 POP DUP1 PUSH0 SUB PUSH2 0xDD4 JUMPI POP PUSH0 SWAP3 SWAP2 POP POP JUMP JUMPDEST DUP1 PUSH2 0xDF3 DUP5 PUSH1 0x1 PUSH1 0x1 PUSH1 0xA0 SHL SUB AND PUSH0 SWAP1 DUP2 MSTORE PUSH1 0x20 DUP2 SWAP1 MSTORE PUSH1 0x40 SWAP1 KECCAK256 SLOAD SWAP1 JUMP JUMPDEST PUSH2 0xDFB PUSH2 0xC92 JUMP JUMPDEST PUSH2 0xE05 SWAP2 SWAP1 PUSH2 0x13F7 JUMP JUMPDEST PUSH2 0xE0F SWAP2 SWAP1 PUSH2 0x140E JUMP JUMPDEST SWAP4 SWAP3 POP POP POP JUMP JUMPDEST PUSH2 0xE23 DUP4 DUP4 DUP4 PUSH1 0x1 PUSH2 0xFCB JUMP JUMPDEST POP POP POP JUMP JUMPDEST PUSH1 0x1 PUSH1 0x1 PUSH1 0xA0 SHL SUB DUP3 AND PUSH2 0xE56 JUMPI PUSH1 0x40 MLOAD PUSH4 0x4B637E8F PUSH1 0xE1 SHL DUP2 MSTORE PUSH0 PUSH1 0x4 DUP3 ADD MSTORE PUSH1 0x24 ADD JUMPDEST PUSH1 0x40 MLOAD DUP1 SWAP2 SUB SWAP1 REVERT JUMPDEST PUSH2 0xE61 DUP3 PUSH0 DUP4 PUSH2 0x109D JUMP JUMPDEST POP POP JUMP JUMPDEST PUSH1 0x1 PUSH1 0x1 PUSH1 0xA0 SHL SUB DUP4 DUP2 AND PUSH0 SWAP1 DUP2 MSTORE PUSH1 0x1 PUSH1 0x20 SWAP1 DUP2 MSTORE PUSH1 0x40 DUP1 DUP4 KECCAK256 SWAP4 DUP7 AND DUP4 MSTORE SWAP3 SWAP1 MSTORE KECCAK256 SLOAD PUSH0 NOT DUP2 EQ PUSH2 0xEDA JUMPI DUP2 DUP2 LT ISZERO PUSH2 0xECC JUMPI PUSH1 0x40 MLOAD PUSH4 0x7DC7A0D9 PUSH1 0xE1 SHL DUP2 MSTORE PUSH1 0x1 PUSH1 0x1 PUSH1 0xA0 SHL SUB DUP5 AND PUSH1 0x4 DUP3 ADD MSTORE PUSH1 0x24 DUP2 ADD DUP3 SWAP1 MSTORE PUSH1 0x44 DUP2 ADD DUP4 SWAP1 MSTORE PUSH1 0x64 ADD PUSH2 0xE4D JUMP JUMPDEST PUSH2 0xEDA DUP5 DUP5 DUP5 DUP5 SUB PUSH0 PUSH2 0xFCB JUMP JUMPDEST POP POP POP POP JUMP JUMPDEST PUSH1 0x1 PUSH1 0x1 PUSH1 0xA0 SHL SUB DUP4 AND PUSH2 0xF09 JUMPI PUSH1 0x40 MLOAD PUSH4 0x4B637E8F PUSH1 0xE1 SHL DUP2 MSTORE PUSH0 PUSH1 0x4 DUP3 ADD MSTORE PUSH1 0x24 ADD PUSH2 0xE4D JUMP JUMPDEST PUSH1 0x1 PUSH1 0x1 PUSH1 0xA0 SHL SUB DUP3 AND PUSH2 0xF32 JUMPI PUSH1 0x40 MLOAD PUSH4 0xEC442F05 PUSH1 0xE0 SHL DUP2 MSTORE PUSH0 PUSH1 0x4 DUP3 ADD MSTORE PUSH1 0x24 ADD PUSH2 0xE4D JUMP JUMPDEST PUSH2 0xE23 DUP4 DUP4 DUP4 PUSH2 0x109D JUMP JUMPDEST PUSH1 0x40 DUP1 MLOAD PUSH1 0x1 PUSH1 0x1 PUSH1 0xA0 SHL SUB DUP6 DUP2 AND PUSH1 0x24 DUP4 ADD MSTORE DUP5 AND PUSH1 0x44 DUP3 ADD MSTORE PUSH1 0x64 DUP1 DUP3 ADD DUP5 SWAP1 MSTORE DUP3 MLOAD DUP1 DUP4 SUB SWAP1 SWAP2 ADD DUP2 MSTORE PUSH1 0x84 SWAP1 SWAP2 ADD SWAP1 SWAP2 MSTORE PUSH1 0x20 DUP2 ADD DUP1 MLOAD PUSH1 0x1 PUSH1 0x1 PUSH1 0xE0 SHL SUB AND PUSH4 0x23B872DD PUSH1 0xE0 SHL OR SWAP1 MSTORE PUSH2 0xEDA SWAP1 DUP6 SWAP1 PUSH2 0x11C3 JUMP JUMPDEST PUSH1 0x1 PUSH1 0x1 PUSH1 0xA0 SHL SUB DUP3 AND PUSH2 0xFC0 JUMPI PUSH1 0x40 MLOAD PUSH4 0xEC442F05 PUSH1 0xE0 SHL DUP2 MSTORE PUSH0 PUSH1 0x4 DUP3 ADD MSTORE PUSH1 0x24 ADD PUSH2 0xE4D JUMP JUMPDEST PUSH2 0xE61 PUSH0 DUP4 DUP4 PUSH2 0x109D JUMP JUMPDEST PUSH1 0x1 PUSH1 0x1 PUSH1 0xA0 SHL SUB DUP5 AND PUSH2 0xFF4 JUMPI PUSH1 0x40 MLOAD PUSH4 0xE602DF05 PUSH1 0xE0 SHL DUP2 MSTORE PUSH0 PUSH1 0x4 DUP3 ADD MSTORE PUSH1 0x24 ADD PUSH2 0xE4D JUMP JUMPDEST PUSH1 0x1 PUSH1 0x1 PUSH1 0xA0 SHL SUB DUP4 AND PUSH2 0x101D JUMPI PUSH1 0x40 MLOAD PUSH4 0x4A1406B1 PUSH1 0xE1 SHL DUP2 MSTORE PUSH0 PUSH1 0x4 DUP3 ADD MSTORE PUSH1 0x24 ADD PUSH2 0xE4D JUMP JUMPDEST PUSH1 0x1 PUSH1 0x1 PUSH1 0xA0 SHL SUB DUP1 DUP6 AND PUSH0 SWAP1 DUP2 MSTORE PUSH1 0x1 PUSH1 0x20 SWAP1 DUP2 MSTORE PUSH1 0x40 DUP1 DUP4 KECCAK256 SWAP4 DUP8 AND DUP4 MSTORE SWAP3 SWAP1 MSTORE KECCAK256 DUP3 SWAP1 SSTORE DUP1 ISZERO PUSH2 0xEDA JUMPI DUP3 PUSH1 0x1 PUSH1 0x1 PUSH1 0xA0 SHL SUB AND DUP5 PUSH1 0x1 PUSH1 0x1 PUSH1 0xA0 SHL SUB AND PUSH32 0x8C5BE1E5EBEC7D5BD14F71427D1E84F3DD0314C0F7B2291E5B200AC8C7C3B925 DUP5 PUSH1 0x40 MLOAD PUSH2 0x108F SWAP2 DUP2 MSTORE PUSH1 0x20 ADD SWAP1 JUMP JUMPDEST PUSH1 0x40 MLOAD DUP1 SWAP2 SUB SWAP1 LOG3 POP POP POP POP JUMP JUMPDEST PUSH1 0x1 PUSH1 0x1 PUSH1 0xA0 SHL SUB DUP4 AND PUSH2 0x10C7 JUMPI DUP1 PUSH1 0x2 PUSH0 DUP3 DUP3 SLOAD PUSH2 0x10BC SWAP2 SWAP1 PUSH2 0x13E4 JUMP JUMPDEST SWAP1 SWAP2 SSTORE POP PUSH2 0x1137 SWAP1 POP JUMP JUMPDEST PUSH1 0x1 PUSH1 0x1 PUSH1 0xA0 SHL SUB DUP4 AND PUSH0 SWAP1 DUP2 MSTORE PUSH1 0x20 DUP2 SWAP1 MSTORE PUSH1 0x40 SWAP1 KECCAK256 SLOAD DUP2 DUP2 LT ISZERO PUSH2 0x1119 JUMPI PUSH1 0x40 MLOAD PUSH4 0x391434E3 PUSH1 0xE2 SHL DUP2 MSTORE PUSH1 0x1 PUSH1 0x1 PUSH1 0xA0 SHL SUB DUP6 AND PUSH1 0x4 DUP3 ADD MSTORE PUSH1 0x24 DUP2 ADD DUP3 SWAP1 MSTORE PUSH1 0x44 DUP2 ADD DUP4 SWAP1 MSTORE PUSH1 0x64 ADD PUSH2 0xE4D JUMP JUMPDEST PUSH1 0x1 PUSH1 0x1 PUSH1 0xA0 SHL SUB DUP5 AND PUSH0 SWAP1 DUP2 MSTORE PUSH1 0x20 DUP2 SWAP1 MSTORE PUSH1 0x40 SWAP1 KECCAK256 SWAP1 DUP3 SWAP1 SUB SWAP1 SSTORE JUMPDEST PUSH1 0x1 PUSH1 0x1 PUSH1 0xA0 SHL SUB DUP3 AND PUSH2 0x1153 JUMPI PUSH1 0x2 DUP1 SLOAD DUP3 SWAP1 SUB SWAP1 SSTORE PUSH2 0x1171 JUMP JUMPDEST PUSH1 0x1 PUSH1 0x1 PUSH1 0xA0 SHL SUB DUP3 AND PUSH0 SWAP1 DUP2 MSTORE PUSH1 0x20 DUP2 SWAP1 MSTORE PUSH1 0x40 SWAP1 KECCAK256 DUP1 SLOAD DUP3 ADD SWAP1 SSTORE JUMPDEST DUP2 PUSH1 0x1 PUSH1 0x1 PUSH1 0xA0 SHL SUB AND DUP4 PUSH1 0x1 PUSH1 0x1 PUSH1 0xA0 SHL SUB AND PUSH32 0xDDF252AD1BE2C89B69C2B068FC378DAA952BA7F163C4A11628F55A4DF523B3EF DUP4 PUSH1 0x40 MLOAD PUSH2 0x11B6 SWAP2 DUP2 MSTORE PUSH1 0x20 ADD SWAP1 JUMP JUMPDEST PUSH1 0x40 MLOAD DUP1 SWAP2 SUB SWAP1 LOG3 POP POP POP JUMP JUMPDEST PUSH0 DUP1 PUSH1 0x20 PUSH0 DUP5 MLOAD PUSH1 0x20 DUP7 ADD PUSH0 DUP9 GAS CALL DUP1 PUSH2 0x11E2 JUMPI PUSH1 0x40 MLOAD RETURNDATASIZE PUSH0 DUP3 RETURNDATACOPY RETURNDATASIZE DUP2 REVERT JUMPDEST POP POP PUSH0 MLOAD RETURNDATASIZE SWAP2 POP DUP2 ISZERO PUSH2 0x11F9 JUMPI DUP1 PUSH1 0x1 EQ ISZERO PUSH2 0x1206 JUMP JUMPDEST PUSH1 0x1 PUSH1 0x1 PUSH1 0xA0 SHL SUB DUP5 AND EXTCODESIZE ISZERO JUMPDEST ISZERO PUSH2 0xEDA JUMPI PUSH1 0x40 MLOAD PUSH4 0x5274AFE7 PUSH1 0xE0 SHL DUP2 MSTORE PUSH1 0x1 PUSH1 0x1 PUSH1 0xA0 SHL SUB DUP6 AND PUSH1 0x4 DUP3 ADD MSTORE PUSH1 0x24 ADD PUSH2 0xE4D JUMP JUMPDEST PUSH0 PUSH1 0x20 DUP3 DUP5 SUB SLT ISZERO PUSH2 0x123F JUMPI PUSH0 DUP1 REVERT JUMPDEST DUP2 CALLDATALOAD PUSH1 0x1 PUSH1 0x1 PUSH1 0xE0 SHL SUB NOT DUP2 AND DUP2 EQ PUSH2 0xE0F JUMPI PUSH0 DUP1 REVERT JUMPDEST PUSH1 0x20 DUP2 MSTORE PUSH0 DUP3 MLOAD DUP1 PUSH1 0x20 DUP5 ADD MSTORE DUP1 PUSH1 0x20 DUP6 ADD PUSH1 0x40 DUP6 ADD MCOPY PUSH0 PUSH1 0x40 DUP3 DUP6 ADD ADD MSTORE PUSH1 0x40 PUSH1 0x1F NOT PUSH1 0x1F DUP4 ADD AND DUP5 ADD ADD SWAP2 POP POP SWAP3 SWAP2 POP POP JUMP JUMPDEST DUP1 CALLDATALOAD PUSH1 0x1 PUSH1 0x1 PUSH1 0xA0 SHL SUB DUP2 AND DUP2 EQ PUSH2 0x12A1 JUMPI PUSH0 DUP1 REVERT JUMPDEST SWAP2 SWAP1 POP JUMP JUMPDEST PUSH0 DUP1 PUSH1 0x40 DUP4 DUP6 SUB SLT ISZERO PUSH2 0x12B7 JUMPI PUSH0 DUP1 REVERT JUMPDEST PUSH2 0x12C0 DUP4 PUSH2 0x128B JUMP JUMPDEST SWAP5 PUSH1 0x20 SWAP4 SWAP1 SWAP4 ADD CALLDATALOAD SWAP4 POP POP POP JUMP JUMPDEST PUSH0 PUSH1 0x20 DUP3 DUP5 SUB SLT ISZERO PUSH2 0x12DE JUMPI PUSH0 DUP1 REVERT JUMPDEST POP CALLDATALOAD SWAP2 SWAP1 POP JUMP JUMPDEST PUSH0 DUP1 PUSH0 PUSH1 0x60 DUP5 DUP7 SUB SLT ISZERO PUSH2 0x12F7 JUMPI PUSH0 DUP1 REVERT JUMPDEST PUSH2 0x1300 DUP5 PUSH2 0x128B JUMP JUMPDEST SWAP3 POP PUSH2 0x130E PUSH1 0x20 DUP6 ADD PUSH2 0x128B JUMP JUMPDEST SWAP3 SWAP6 SWAP3 SWAP5 POP POP POP PUSH1 0x40 SWAP2 SWAP1 SWAP2 ADD CALLDATALOAD SWAP1 JUMP JUMPDEST PUSH0 PUSH1 0x20 DUP3 DUP5 SUB SLT ISZERO PUSH2 0x132F JUMPI PUSH0 DUP1 REVERT JUMPDEST PUSH2 0xE0F DUP3 PUSH2 0x128B JUMP JUMPDEST PUSH0 DUP1 PUSH1 0x40 DUP4 DUP6 SUB SLT ISZERO PUSH2 0x1349 JUMPI PUSH0 DUP1 REVERT JUMPDEST PUSH2 0x1352 DUP4 PUSH2 0x128B JUMP JUMPDEST SWAP2 POP PUSH2 0x1360 PUSH1 0x20 DUP5 ADD PUSH2 0x128B JUMP JUMPDEST SWAP1 POP SWAP3 POP SWAP3 SWAP1 POP JUMP JUMPDEST PUSH1 0x1 DUP2 DUP2 SHR SWAP1 DUP3 AND DUP1 PUSH2 0x137D JUMPI PUSH1 0x7F DUP3 AND SWAP2 POP JUMPDEST PUSH1 0x20 DUP3 LT DUP2 SUB PUSH2 0x139B JUMPI PUSH4 0x4E487B71 PUSH1 0xE0 SHL PUSH0 MSTORE PUSH1 0x22 PUSH1 0x4 MSTORE PUSH1 0x24 PUSH0 REVERT JUMPDEST POP SWAP2 SWAP1 POP JUMP JUMPDEST DUP1 MLOAD PUSH1 0x1 PUSH1 0x1 PUSH1 0xC0 SHL SUB DUP2 AND DUP2 EQ PUSH2 0x12A1 JUMPI PUSH0 DUP1 REVERT JUMPDEST PUSH0 PUSH1 0x20 DUP3 DUP5 SUB SLT ISZERO PUSH2 0x13C7 JUMPI PUSH0 DUP1 REVERT JUMPDEST PUSH2 0xE0F DUP3 PUSH2 0x13A1 JUMP JUMPDEST PUSH4 0x4E487B71 PUSH1 0xE0 SHL PUSH0 MSTORE PUSH1 0x11 PUSH1 0x4 MSTORE PUSH1 0x24 PUSH0 REVERT JUMPDEST DUP1 DUP3 ADD DUP1 DUP3 GT ISZERO PUSH2 0x3F8 JUMPI PUSH2 0x3F8 PUSH2 0x13D0 JUMP JUMPDEST DUP1 DUP3 MUL DUP2 ISZERO DUP3 DUP3 DIV DUP5 EQ OR PUSH2 0x3F8 JUMPI PUSH2 0x3F8 PUSH2 0x13D0 JUMP JUMPDEST PUSH0 DUP3 PUSH2 0x1428 JUMPI PUSH4 0x4E487B71 PUSH1 0xE0 SHL PUSH0 MSTORE PUSH1 0x12 PUSH1 0x4 MSTORE PUSH1 0x24 PUSH0 REVERT JUMPDEST POP DIV SWAP1 JUMP JUMPDEST PUSH0 PUSH1 0x20 DUP3 DUP5 SUB SLT ISZERO PUSH2 0x143D JUMPI PUSH0 DUP1 REVERT JUMPDEST POP MLOAD SWAP2 SWAP1 POP JUMP JUMPDEST DUP1 MLOAD PUSH8 0xFFFFFFFFFFFFFFFF DUP2 AND DUP2 EQ PUSH2 0x12A1 JUMPI PUSH0 DUP1 REVERT JUMPDEST PUSH0 PUSH1 0x20 DUP3 DUP5 SUB SLT ISZERO PUSH2 0x146B JUMPI PUSH0 DUP1 REVERT JUMPDEST PUSH2 0xE0F DUP3 PUSH2 0x1444 JUMP JUMPDEST PUSH0 PUSH1 0x40 DUP3 DUP5 SUB SLT DUP1 ISZERO PUSH2 0x1485 JUMPI PUSH0 DUP1 REVERT JUMPDEST POP PUSH1 0x40 DUP1 MLOAD SWAP1 DUP2 ADD PUSH8 0xFFFFFFFFFFFFFFFF DUP2 GT DUP3 DUP3 LT OR ISZERO PUSH2 0x14B5 JUMPI PUSH4 0x4E487B71 PUSH1 0xE0 SHL PUSH0 MSTORE PUSH1 0x41 PUSH1 0x4 MSTORE PUSH1 0x24 PUSH0 REVERT JUMPDEST PUSH1 0x40 MSTORE PUSH2 0x14C1 DUP4 PUSH2 0x13A1 JUMP JUMPDEST DUP2 MSTORE PUSH2 0x14CF PUSH1 0x20 DUP5 ADD PUSH2 0x1444 JUMP JUMPDEST PUSH1 0x20 DUP3 ADD MSTORE SWAP4 SWAP3 POP POP POP JUMP JUMPDEST PUSH8 0xFFFFFFFFFFFFFFFF DUP3 DUP2 AND DUP3 DUP3 AND SUB SWAP1 DUP2 GT ISZERO PUSH2 0x3F8 JUMPI PUSH2 0x3F8 PUSH2 0x13D0 JUMP JUMPDEST PUSH0 PUSH1 0x20 DUP3 DUP5 SUB SLT ISZERO PUSH2 0x150B JUMPI PUSH0 DUP1 REVERT JUMPDEST DUP2 MLOAD PUSH3 0xFFFFFF DUP2 AND DUP2 EQ PUSH2 0xE0F JUMPI PUSH0 DUP1 REVERT JUMPDEST PUSH1 0x1 PUSH1 0x1 PUSH1 0xC0 SHL SUB DUP2 DUP2 AND DUP4 DUP3 AND ADD SWAP1 DUP2 GT ISZERO PUSH2 0x3F8 JUMPI PUSH2 0x3F8 PUSH2 0x13D0 JUMP INVALID LOG2 PUSH5 0x6970667358 0x22 SLT KECCAK256 BALANCE 0xBF 0xB9 PUSH21 0xA02164A210DF536AEFE78BAD672BB70C7F7386E14C KECCAK256 SGT SWAP1 NOT SLOAD AND GASPRICE PUSH5 0x736F6C6343 STOP ADDMOD BYTE STOP CALLER "
		},
		"gasEstimates": {
			"creation": {
				"codeDepositCost": "1098000",
				"executionCost": "infinite",
				"totalCost": "infinite"
			},
			"external": {
				"allowance(address,address)": "infinite",
				"approve(address,uint256)": "24769",
				"balanceOf(address)": "2560",
				"decimals()": "265",
				"isUnlocked()": "infinite",
				"name()": "infinite",
				"price()": "2405",
				"priceAdjusted()": "infinite",
				"save(uint256)": "infinite",
				"saveTo(address,uint256)": "infinite",
				"saverBalance(address)": "infinite",
				"savings()": "infinite",
				"supportsInterface(bytes4)": "368",
				"symbol()": "infinite",
				"totalBalance()": "infinite",
				"totalClaimed()": "2382",
				"totalSupply()": "2370",
				"transfer(address,uint256)": "51338",
				"transferFrom(address,address,uint256)": "infinite",
				"untilUnlocked()": "infinite",
				"withdraw(uint256)": "infinite",
				"withdrawTo(address,uint256)": "infinite",
				"zchf()": "infinite"
			}
		},
		"methodIdentifiers": {
			"allowance(address,address)": "dd62ed3e",
			"approve(address,uint256)": "095ea7b3",
			"balanceOf(address)": "70a08231",
			"decimals()": "313ce567",
			"isUnlocked()": "8380edb7",
			"name()": "06fdde03",
			"price()": "a035b1fe",
			"priceAdjusted()": "8ddf6734",
			"save(uint256)": "1b862027",
			"saveTo(address,uint256)": "3fa84516",
			"saverBalance(address)": "e8e511a4",
			"savings()": "c86d6ae4",
			"supportsInterface(bytes4)": "01ffc9a7",
			"symbol()": "95d89b41",
			"totalBalance()": "ad7a672f",
			"totalClaimed()": "d54ad2a1",
			"totalSupply()": "18160ddd",
			"transfer(address,uint256)": "a9059cbb",
			"transferFrom(address,address,uint256)": "23b872dd",
			"untilUnlocked()": "5b02907b",
			"withdraw(uint256)": "2e1a7d4d",
			"withdrawTo(address,uint256)": "205c2878",
			"zchf()": "c4d4803a"
		}
	},
	"abi": [
		{
			"inputs": [
				{
					"internalType": "contract IERC20",
					"name": "_zchf",
					"type": "address"
				},
				{
					"internalType": "contract ISavings",
					"name": "_savings",
					"type": "address"
				},
				{
					"internalType": "string",
					"name": "name",
					"type": "string"
				},
				{
					"internalType": "string",
					"name": "symbol",
					"type": "string"
				}
			],
			"stateMutability": "nonpayable",
			"type": "constructor"
		},
		{
			"inputs": [
				{
					"internalType": "address",
					"name": "spender",
					"type": "address"
				},
				{
					"internalType": "uint256",
					"name": "allowance",
					"type": "uint256"
				},
				{
					"internalType": "uint256",
					"name": "needed",
					"type": "uint256"
				}
			],
			"name": "ERC20InsufficientAllowance",
			"type": "error"
		},
		{
			"inputs": [
				{
					"internalType": "address",
					"name": "sender",
					"type": "address"
				},
				{
					"internalType": "uint256",
					"name": "balance",
					"type": "uint256"
				},
				{
					"internalType": "uint256",
					"name": "needed",
					"type": "uint256"
				}
			],
			"name": "ERC20InsufficientBalance",
			"type": "error"
		},
		{
			"inputs": [
				{
					"internalType": "address",
					"name": "approver",
					"type": "address"
				}
			],
			"name": "ERC20InvalidApprover",
			"type": "error"
		},
		{
			"inputs": [
				{
					"internalType": "address",
					"name": "receiver",
					"type": "address"
				}
			],
			"name": "ERC20InvalidReceiver",
			"type": "error"
		},
		{
			"inputs": [
				{
					"internalType": "address",
					"name": "sender",
					"type": "address"
				}
			],
			"name": "ERC20InvalidSender",
			"type": "error"
		},
		{
			"inputs": [
				{
					"internalType": "address",
					"name": "spender",
					"type": "address"
				}
			],
			"name": "ERC20InvalidSpender",
			"type": "error"
		},
		{
			"inputs": [
				{
					"internalType": "address",
					"name": "token",
					"type": "address"
				}
			],
			"name": "SafeERC20FailedOperation",
			"type": "error"
		},
		{
			"anonymous": false,
			"inputs": [
				{
					"indexed": true,
					"internalType": "address",
					"name": "owner",
					"type": "address"
				},
				{
					"indexed": true,
					"internalType": "address",
					"name": "spender",
					"type": "address"
				},
				{
					"indexed": false,
					"internalType": "uint256",
					"name": "value",
					"type": "uint256"
				}
			],
			"name": "Approval",
			"type": "event"
		},
		{
			"anonymous": false,
			"inputs": [
				{
					"indexed": true,
					"internalType": "address",
					"name": "saver",
					"type": "address"
				},
				{
					"indexed": false,
					"internalType": "uint256",
					"name": "amountIn",
					"type": "uint256"
				},
				{
					"indexed": false,
					"internalType": "uint256",
					"name": "amountOut",
					"type": "uint256"
				},
				{
					"indexed": false,
					"internalType": "uint256",
					"name": "price",
					"type": "uint256"
				}
			],
			"name": "Saved",
			"type": "event"
		},
		{
			"anonymous": false,
			"inputs": [
				{
					"indexed": true,
					"internalType": "address",
					"name": "from",
					"type": "address"
				},
				{
					"indexed": true,
					"internalType": "address",
					"name": "to",
					"type": "address"
				},
				{
					"indexed": false,
					"internalType": "uint256",
					"name": "value",
					"type": "uint256"
				}
			],
			"name": "Transfer",
			"type": "event"
		},
		{
			"anonymous": false,
			"inputs": [
				{
					"indexed": true,
					"internalType": "address",
					"name": "saver",
					"type": "address"
				},
				{
					"indexed": false,
					"internalType": "uint256",
					"name": "amountIn",
					"type": "uint256"
				},
				{
					"indexed": false,
					"internalType": "uint256",
					"name": "amountOut",
					"type": "uint256"
				},
				{
					"indexed": false,
					"internalType": "uint256",
					"name": "price",
					"type": "uint256"
				}
			],
			"name": "Withdrawn",
			"type": "event"
		},
		{
			"inputs": [
				{
					"internalType": "address",
					"name": "owner",
					"type": "address"
				},
				{
					"internalType": "address",
					"name": "spender",
					"type": "address"
				}
			],
			"name": "allowance",
			"outputs": [
				{
					"internalType": "uint256",
					"name": "",
					"type": "uint256"
				}
			],
			"stateMutability": "view",
			"type": "function"
		},
		{
			"inputs": [
				{
					"internalType": "address",
					"name": "spender",
					"type": "address"
				},
				{
					"internalType": "uint256",
					"name": "value",
					"type": "uint256"
				}
			],
			"name": "approve",
			"outputs": [
				{
					"internalType": "bool",
					"name": "",
					"type": "bool"
				}
			],
			"stateMutability": "nonpayable",
			"type": "function"
		},
		{
			"inputs": [
				{
					"internalType": "address",
					"name": "account",
					"type": "address"
				}
			],
			"name": "balanceOf",
			"outputs": [
				{
					"internalType": "uint256",
					"name": "",
					"type": "uint256"
				}
			],
			"stateMutability": "view",
			"type": "function"
		},
		{
			"inputs": [],
			"name": "decimals",
			"outputs": [
				{
					"internalType": "uint8",
					"name": "",
					"type": "uint8"
				}
			],
			"stateMutability": "view",
			"type": "function"
		},
		{
			"inputs": [],
			"name": "isUnlocked",
			"outputs": [
				{
					"internalType": "bool",
					"name": "",
					"type": "bool"
				}
			],
			"stateMutability": "view",
			"type": "function"
		},
		{
			"inputs": [],
			"name": "name",
			"outputs": [
				{
					"internalType": "string",
					"name": "",
					"type": "string"
				}
			],
			"stateMutability": "view",
			"type": "function"
		},
		{
			"inputs": [],
			"name": "price",
			"outputs": [
				{
					"internalType": "uint256",
					"name": "",
					"type": "uint256"
				}
			],
			"stateMutability": "view",
			"type": "function"
		},
		{
			"inputs": [],
			"name": "priceAdjusted",
			"outputs": [
				{
					"internalType": "uint256",
					"name": "",
					"type": "uint256"
				}
			],
			"stateMutability": "view",
			"type": "function"
		},
		{
			"inputs": [
				{
					"internalType": "uint256",
					"name": "amount",
					"type": "uint256"
				}
			],
			"name": "save",
			"outputs": [],
			"stateMutability": "nonpayable",
			"type": "function"
		},
		{
			"inputs": [
				{
					"internalType": "address",
					"name": "account",
					"type": "address"
				},
				{
					"internalType": "uint256",
					"name": "amount",
					"type": "uint256"
				}
			],
			"name": "saveTo",
			"outputs": [],
			"stateMutability": "nonpayable",
			"type": "function"
		},
		{
			"inputs": [
				{
					"internalType": "address",
					"name": "account",
					"type": "address"
				}
			],
			"name": "saverBalance",
			"outputs": [
				{
					"internalType": "uint256",
					"name": "",
					"type": "uint256"
				}
			],
			"stateMutability": "view",
			"type": "function"
		},
		{
			"inputs": [],
			"name": "savings",
			"outputs": [
				{
					"internalType": "contract ISavings",
					"name": "",
					"type": "address"
				}
			],
			"stateMutability": "view",
			"type": "function"
		},
		{
			"inputs": [
				{
					"internalType": "bytes4",
					"name": "interfaceId",
					"type": "bytes4"
				}
			],
			"name": "supportsInterface",
			"outputs": [
				{
					"internalType": "bool",
					"name": "",
					"type": "bool"
				}
			],
			"stateMutability": "view",
			"type": "function"
		},
		{
			"inputs": [],
			"name": "symbol",
			"outputs": [
				{
					"internalType": "string",
					"name": "",
					"type": "string"
				}
			],
			"stateMutability": "view",
			"type": "function"
		},
		{
			"inputs": [],
			"name": "totalBalance",
			"outputs": [
				{
					"internalType": "uint256",
					"name": "",
					"type": "uint256"
				}
			],
			"stateMutability": "view",
			"type": "function"
		},
		{
			"inputs": [],
			"name": "totalClaimed",
			"outputs": [
				{
					"internalType": "uint256",
					"name": "",
					"type": "uint256"
				}
			],
			"stateMutability": "view",
			"type": "function"
		},
		{
			"inputs": [],
			"name": "totalSupply",
			"outputs": [
				{
					"internalType": "uint256",
					"name": "",
					"type": "uint256"
				}
			],
			"stateMutability": "view",
			"type": "function"
		},
		{
			"inputs": [
				{
					"internalType": "address",
					"name": "to",
					"type": "address"
				},
				{
					"internalType": "uint256",
					"name": "value",
					"type": "uint256"
				}
			],
			"name": "transfer",
			"outputs": [
				{
					"internalType": "bool",
					"name": "",
					"type": "bool"
				}
			],
			"stateMutability": "nonpayable",
			"type": "function"
		},
		{
			"inputs": [
				{
					"internalType": "address",
					"name": "from",
					"type": "address"
				},
				{
					"internalType": "address",
					"name": "to",
					"type": "address"
				},
				{
					"internalType": "uint256",
					"name": "value",
					"type": "uint256"
				}
			],
			"name": "transferFrom",
			"outputs": [
				{
					"internalType": "bool",
					"name": "",
					"type": "bool"
				}
			],
			"stateMutability": "nonpayable",
			"type": "function"
		},
		{
			"inputs": [],
			"name": "untilUnlocked",
			"outputs": [
				{
					"internalType": "uint256",
					"name": "",
					"type": "uint256"
				}
			],
			"stateMutability": "view",
			"type": "function"
		},
		{
			"inputs": [
				{
					"internalType": "uint256",
					"name": "amount",
					"type": "uint256"
				}
			],
			"name": "withdraw",
			"outputs": [],
			"stateMutability": "nonpayable",
			"type": "function"
		},
		{
			"inputs": [
				{
					"internalType": "address",
					"name": "target",
					"type": "address"
				},
				{
					"internalType": "uint256",
					"name": "amount",
					"type": "uint256"
				}
			],
			"name": "withdrawTo",
			"outputs": [],
			"stateMutability": "nonpayable",
			"type": "function"
		},
		{
			"inputs": [],
			"name": "zchf",
			"outputs": [
				{
					"internalType": "contract IERC20",
					"name": "",
					"type": "address"
				}
			],
			"stateMutability": "view",
			"type": "function"
		}
	]
}