{
  "_format": "hh-sol-artifact-1",
  "contractName": "SavingsToken",
  "sourceName": "contracts/SavingsToken.sol",
  "abi": [
    {
      "inputs": [
        {
          "internalType": "contract IERC20",
          "name": "_zchf",
          "type": "address"
        },
        {
          "internalType": "contract ISavings",
          "name": "_savings",
          "type": "address"
        },
        {
          "internalType": "string",
          "name": "name",
          "type": "string"
        },
        {
          "internalType": "string",
          "name": "symbol",
          "type": "string"
        }
      ],
      "stateMutability": "nonpayable",
      "type": "constructor"
    },
    {
      "inputs": [
        {
          "internalType": "address",
          "name": "spender",
          "type": "address"
        },
        {
          "internalType": "uint256",
          "name": "allowance",
          "type": "uint256"
        },
        {
          "internalType": "uint256",
          "name": "needed",
          "type": "uint256"
        }
      ],
      "name": "ERC20InsufficientAllowance",
      "type": "error"
    },
    {
      "inputs": [
        {
          "internalType": "address",
          "name": "sender",
          "type": "address"
        },
        {
          "internalType": "uint256",
          "name": "balance",
          "type": "uint256"
        },
        {
          "internalType": "uint256",
          "name": "needed",
          "type": "uint256"
        }
      ],
      "name": "ERC20InsufficientBalance",
      "type": "error"
    },
    {
      "inputs": [
        {
          "internalType": "address",
          "name": "approver",
          "type": "address"
        }
      ],
      "name": "ERC20InvalidApprover",
      "type": "error"
    },
    {
      "inputs": [
        {
          "internalType": "address",
          "name": "receiver",
          "type": "address"
        }
      ],
      "name": "ERC20InvalidReceiver",
      "type": "error"
    },
    {
      "inputs": [
        {
          "internalType": "address",
          "name": "sender",
          "type": "address"
        }
      ],
      "name": "ERC20InvalidSender",
      "type": "error"
    },
    {
      "inputs": [
        {
          "internalType": "address",
          "name": "spender",
          "type": "address"
        }
      ],
      "name": "ERC20InvalidSpender",
      "type": "error"
    },
    {
      "inputs": [
        {
          "internalType": "address",
          "name": "token",
          "type": "address"
        }
      ],
      "name": "SafeERC20FailedOperation",
      "type": "error"
    },
    {
      "anonymous": false,
      "inputs": [
        {
          "indexed": true,
          "internalType": "address",
          "name": "owner",
          "type": "address"
        },
        {
          "indexed": true,
          "internalType": "address",
          "name": "spender",
          "type": "address"
        },
        {
          "indexed": false,
          "internalType": "uint256",
          "name": "value",
          "type": "uint256"
        }
      ],
      "name": "Approval",
      "type": "event"
    },
    {
      "anonymous": false,
      "inputs": [
        {
          "indexed": true,
          "internalType": "address",
          "name": "saver",
          "type": "address"
        },
        {
          "indexed": false,
          "internalType": "uint256",
          "name": "amountIn",
          "type": "uint256"
        },
        {
          "indexed": false,
          "internalType": "uint256",
          "name": "amountOut",
          "type": "uint256"
        },
        {
          "indexed": false,
          "internalType": "uint256",
          "name": "price",
          "type": "uint256"
        }
      ],
      "name": "Saved",
      "type": "event"
    },
    {
      "anonymous": false,
      "inputs": [
        {
          "indexed": true,
          "internalType": "address",
          "name": "from",
          "type": "address"
        },
        {
          "indexed": true,
          "internalType": "address",
          "name": "to",
          "type": "address"
        },
        {
          "indexed": false,
          "internalType": "uint256",
          "name": "value",
          "type": "uint256"
        }
      ],
      "name": "Transfer",
      "type": "event"
    },
    {
      "anonymous": false,
      "inputs": [
        {
          "indexed": true,
          "internalType": "address",
          "name": "saver",
          "type": "address"
        },
        {
          "indexed": false,
          "internalType": "uint256",
          "name": "amountIn",
          "type": "uint256"
        },
        {
          "indexed": false,
          "internalType": "uint256",
          "name": "amountOut",
          "type": "uint256"
        },
        {
          "indexed": false,
          "internalType": "uint256",
          "name": "price",
          "type": "uint256"
        }
      ],
      "name": "Withdrawn",
      "type": "event"
    },
    {
      "inputs": [
        {
          "internalType": "address",
          "name": "owner",
          "type": "address"
        },
        {
          "internalType": "address",
          "name": "spender",
          "type": "address"
        }
      ],
      "name": "allowance",
      "outputs": [
        {
          "internalType": "uint256",
          "name": "",
          "type": "uint256"
        }
      ],
      "stateMutability": "view",
      "type": "function"
    },
    {
      "inputs": [
        {
          "internalType": "address",
          "name": "spender",
          "type": "address"
        },
        {
          "internalType": "uint256",
          "name": "value",
          "type": "uint256"
        }
      ],
      "name": "approve",
      "outputs": [
        {
          "internalType": "bool",
          "name": "",
          "type": "bool"
        }
      ],
      "stateMutability": "nonpayable",
      "type": "function"
    },
    {
      "inputs": [
        {
          "internalType": "address",
          "name": "account",
          "type": "address"
        }
      ],
      "name": "balanceOf",
      "outputs": [
        {
          "internalType": "uint256",
          "name": "",
          "type": "uint256"
        }
      ],
      "stateMutability": "view",
      "type": "function"
    },
    {
      "inputs": [],
      "name": "decimals",
      "outputs": [
        {
          "internalType": "uint8",
          "name": "",
          "type": "uint8"
        }
      ],
      "stateMutability": "view",
      "type": "function"
    },
    {
      "inputs": [],
      "name": "isUnlocked",
      "outputs": [
        {
          "internalType": "bool",
          "name": "",
          "type": "bool"
        }
      ],
      "stateMutability": "view",
      "type": "function"
    },
    {
      "inputs": [],
      "name": "name",
      "outputs": [
        {
          "internalType": "string",
          "name": "",
          "type": "string"
        }
      ],
      "stateMutability": "view",
      "type": "function"
    },
    {
      "inputs": [],
      "name": "price",
      "outputs": [
        {
          "internalType": "uint256",
          "name": "",
          "type": "uint256"
        }
      ],
      "stateMutability": "view",
      "type": "function"
    },
    {
      "inputs": [],
      "name": "priceAdjusted",
      "outputs": [
        {
          "internalType": "uint256",
          "name": "",
          "type": "uint256"
        }
      ],
      "stateMutability": "view",
      "type": "function"
    },
    {
      "inputs": [
        {
          "internalType": "uint256",
          "name": "amount",
          "type": "uint256"
        }
      ],
      "name": "save",
      "outputs": [],
      "stateMutability": "nonpayable",
      "type": "function"
    },
    {
      "inputs": [
        {
          "internalType": "address",
          "name": "account",
          "type": "address"
        },
        {
          "internalType": "uint256",
          "name": "amount",
          "type": "uint256"
        }
      ],
      "name": "saveTo",
      "outputs": [],
      "stateMutability": "nonpayable",
      "type": "function"
    },
    {
      "inputs": [
        {
          "internalType": "address",
          "name": "account",
          "type": "address"
        }
      ],
      "name": "saverBalance",
      "outputs": [
        {
          "internalType": "uint256",
          "name": "",
          "type": "uint256"
        }
      ],
      "stateMutability": "view",
      "type": "function"
    },
    {
      "inputs": [],
      "name": "savings",
      "outputs": [
        {
          "internalType": "contract ISavings",
          "name": "",
          "type": "address"
        }
      ],
      "stateMutability": "view",
      "type": "function"
    },
    {
      "inputs": [
        {
          "internalType": "bytes4",
          "name": "interfaceId",
          "type": "bytes4"
        }
      ],
      "name": "supportsInterface",
      "outputs": [
        {
          "internalType": "bool",
          "name": "",
          "type": "bool"
        }
      ],
      "stateMutability": "view",
      "type": "function"
    },
    {
      "inputs": [],
      "name": "symbol",
      "outputs": [
        {
          "internalType": "string",
          "name": "",
          "type": "string"
        }
      ],
      "stateMutability": "view",
      "type": "function"
    },
    {
      "inputs": [],
      "name": "totalBalance",
      "outputs": [
        {
          "internalType": "uint256",
          "name": "",
          "type": "uint256"
        }
      ],
      "stateMutability": "view",
      "type": "function"
    },
    {
      "inputs": [],
      "name": "totalClaimed",
      "outputs": [
        {
          "internalType": "uint256",
          "name": "",
          "type": "uint256"
        }
      ],
      "stateMutability": "view",
      "type": "function"
    },
    {
      "inputs": [],
      "name": "totalSupply",
      "outputs": [
        {
          "internalType": "uint256",
          "name": "",
          "type": "uint256"
        }
      ],
      "stateMutability": "view",
      "type": "function"
    },
    {
      "inputs": [
        {
          "internalType": "address",
          "name": "to",
          "type": "address"
        },
        {
          "internalType": "uint256",
          "name": "value",
          "type": "uint256"
        }
      ],
      "name": "transfer",
      "outputs": [
        {
          "internalType": "bool",
          "name": "",
          "type": "bool"
        }
      ],
      "stateMutability": "nonpayable",
      "type": "function"
    },
    {
      "inputs": [
        {
          "internalType": "address",
          "name": "from",
          "type": "address"
        },
        {
          "internalType": "address",
          "name": "to",
          "type": "address"
        },
        {
          "internalType": "uint256",
          "name": "value",
          "type": "uint256"
        }
      ],
      "name": "transferFrom",
      "outputs": [
        {
          "internalType": "bool",
          "name": "",
          "type": "bool"
        }
      ],
      "stateMutability": "nonpayable",
      "type": "function"
    },
    {
      "inputs": [],
      "name": "untilUnlocked",
      "outputs": [
        {
          "internalType": "uint256",
          "name": "",
          "type": "uint256"
        }
      ],
      "stateMutability": "view",
      "type": "function"
    },
    {
      "inputs": [
        {
          "internalType": "uint256",
          "name": "amount",
          "type": "uint256"
        }
      ],
      "name": "withdraw",
      "outputs": [],
      "stateMutability": "nonpayable",
      "type": "function"
    },
    {
      "inputs": [
        {
          "internalType": "address",
          "name": "target",
          "type": "address"
        },
        {
          "internalType": "uint256",
          "name": "amount",
          "type": "uint256"
        }
      ],
      "name": "withdrawTo",
      "outputs": [],
      "stateMutability": "nonpayable",
      "type": "function"
    },
    {
      "inputs": [],
      "name": "zchf",
      "outputs": [
        {
          "internalType": "contract IERC20",
          "name": "",
          "type": "address"
        }
      ],
      "stateMutability": "view",
      "type": "function"
    }
  ],
  "bytecode": "0x60c0604052670de0b6b3a76400006006553480156200001d57600080fd5b50604051620019d8380380620019d883398101604081905262000040916200015a565b818160036200005083826200027e565b5060046200005f82826200027e565b5050506001600160a01b0393841660805250501660a0526200034a565b6001600160a01b03811681146200009257600080fd5b50565b634e487b7160e01b600052604160045260246000fd5b600082601f830112620000bd57600080fd5b81516001600160401b0380821115620000da57620000da62000095565b604051601f8301601f19908116603f0116810190828211818310171562000105576200010562000095565b816040528381526020925086838588010111156200012257600080fd5b600091505b8382101562000146578582018301518183018401529082019062000127565b600093810190920192909252949350505050565b600080600080608085870312156200017157600080fd5b84516200017e816200007c565b602086015190945062000191816200007c565b60408601519093506001600160401b0380821115620001af57600080fd5b620001bd88838901620000ab565b93506060870151915080821115620001d457600080fd5b50620001e387828801620000ab565b91505092959194509250565b600181811c908216806200020457607f821691505b6020821081036200022557634e487b7160e01b600052602260045260246000fd5b50919050565b601f8211156200027957600081815260208120601f850160051c81016020861015620002545750805b601f850160051c820191505b81811015620002755782815560010162000260565b5050505b505050565b81516001600160401b038111156200029a576200029a62000095565b620002b281620002ab8454620001ef565b846200022b565b602080601f831160018114620002ea5760008415620002d15750858301515b600019600386901b1c1916600185901b17855562000275565b600085815260208120601f198616915b828110156200031b57888601518255948401946001909101908401620002fa565b50858210156200033a5787850151600019600388901b60f8161c191681555b5050505050600190811b01905550565b60805160a05161160d620003cb600039600081816102e60152818161042e01528181610547015281816106aa015281816107e5015281816108de0152818161097301528181610a0101528181610aae01528181610b3001528181610bf701528181610ce30152610d6b0152600081816102a7015261079f015261160d6000f3fe608060405234801561001057600080fd5b506004361061014d5760003560e01c806370a08231116100c3578063ad7a672f1161007c578063ad7a672f1461029a578063c4d4803a146102a2578063c86d6ae4146102e1578063d54ad2a114610308578063dd62ed3e14610311578063e8e511a41461034a57600080fd5b806370a082311461023d5780638380edb7146102665780638ddf67341461026e57806395d89b4114610276578063a035b1fe1461027e578063a9059cbb1461028757600080fd5b8063205c287811610115578063205c2878146101da57806323b872dd146101ed5780632e1a7d4d14610200578063313ce567146102135780633fa84516146102225780635b02907b1461023557600080fd5b806301ffc9a71461015257806306fdde031461018b578063095ea7b3146101a057806318160ddd146101b35780631b862027146101c5575b600080fd5b610176610160366004611286565b6001600160e01b031916634a17459160e11b1490565b60405190151581526020015b60405180910390f35b61019361035d565b60405161018291906112b0565b6101766101ae36600461131a565b6103ef565b6002545b604051908152602001610182565b6101d86101d3366004611344565b610409565b005b6101d86101e836600461131a565b610416565b6101766101fb36600461135d565b610664565b6101d861020e366004611344565b610688565b60405160128152602001610182565b6101d861023036600461131a565b610692565b6101b76108c5565b6101b761024b366004611399565b6001600160a01b031660009081526020819052604090205490565b610176610a96565b6101b7610bc1565b610193610cae565b6101b760065481565b61017661029536600461131a565b610cbd565b6101b7610ccb565b6102c97f000000000000000000000000000000000000000000000000000000000000000081565b6040516001600160a01b039091168152602001610182565b6102c97f000000000000000000000000000000000000000000000000000000000000000081565b6101b760055481565b6101b761031f3660046113b4565b6001600160a01b03918216600090815260016020908152604080832093909416825291909152205490565b6101b7610358366004611399565b610df6565b60606003805461036c906113e7565b80601f0160208091040260200160405190810160405280929190818152602001828054610398906113e7565b80156103e55780601f106103ba576101008083540402835291602001916103e5565b820191906000526020600020905b8154815290600101906020018083116103c857829003601f168201915b5050505050905090565b6000336103fd818585610e58565b60019150505b92915050565b6104133382610692565b50565b6040516377267ec360e01b81523060048201526000907f00000000000000000000000000000000000000000000000000000000000000006001600160a01b0316906377267ec390602401602060405180830381865afa15801561047d573d6000803e3d6000fd5b505050506040513d601f19601f820116820180604052508101906104a19190611438565b6001600160c01b031690506000811180156104c4575060006104c260025490565b115b156105165780600560008282546104db9190611469565b90915550506002546104f582670de0b6b3a764000061147c565b6104ff9190611493565b600660008282546105109190611469565b90915550505b6105203383610e6a565b6000670de0b6b3a764000060065484610539919061147c565b6105439190611493565b90507f00000000000000000000000000000000000000000000000000000000000000006001600160a01b0316631791dc5e8561057e60025490565b156105895783610592565b6001600160c01b035b6040516001600160e01b031960e085901b1681526001600160a01b0390921660048301526001600160c01b031660248201526044016020604051808303816000875af11580156105e6573d6000803e3d6000fd5b505050506040513d601f19601f8201168201806040525081019061060a91906114b5565b6006546040805186815260208101849052908101919091529091506001600160a01b038516907f75e161b3e824b114fc1a33274bd7091918dd4e639cede50b78b15a4eea956a21906060015b60405180910390a250505050565b600033610672858285610ea9565b61067d858585610f27565b506001949350505050565b6104133382610416565b6040516377267ec360e01b81523060048201526000907f00000000000000000000000000000000000000000000000000000000000000006001600160a01b0316906377267ec390602401602060405180830381865afa1580156106f9573d6000803e3d6000fd5b505050506040513d601f19601f8201168201806040525081019061071d9190611438565b6001600160c01b031690506000811180156107405750600061073e60025490565b115b156107925780600560008282546107579190611469565b909155505060025461077182670de0b6b3a764000061147c565b61077b9190611493565b6006600082825461078c9190611469565b90915550505b6107c76001600160a01b037f000000000000000000000000000000000000000000000000000000000000000016333085610f86565b604051633f51270560e21b81526001600160c01b03831660048201527f00000000000000000000000000000000000000000000000000000000000000006001600160a01b03169063fd449c1490602401600060405180830381600087803b15801561083157600080fd5b505af1158015610845573d6000803e3d6000fd5b50505050600060065483670de0b6b3a7640000610862919061147c565b61086c9190611493565b90506108788482610fe0565b6006546040805185815260208101849052908101919091526001600160a01b038516907f710967c2c90aa017caf1df3ec721b9981e4350d9c6398f8acf4cfacd1aec73f890606001610656565b60006108cf610a96565b156108da5750600090565b60007f00000000000000000000000000000000000000000000000000000000000000006001600160a01b031663b079f1636040518163ffffffff1660e01b8152600401602060405180830381865afa15801561093a573d6000803e3d6000fd5b505050506040513d601f19601f8201168201806040525081019061095e91906114e6565b604051631f7cdd5f60e01b81523060048201527f00000000000000000000000000000000000000000000000000000000000000006001600160a01b031690631f7cdd5f906024016040805180830381865afa1580156109c1573d6000803e3d6000fd5b505050506040513d601f19601f820116820180604052508101906109e59190611501565b602001516109f3919061156a565b67ffffffffffffffff1690507f00000000000000000000000000000000000000000000000000000000000000006001600160a01b03166306a7b3766040518163ffffffff1660e01b8152600401602060405180830381865afa158015610a5d573d6000803e3d6000fd5b505050506040513d601f19601f82011682018060405250810190610a819190611592565b610a909062ffffff1682611493565b91505090565b604051631f7cdd5f60e01b81523060048201526000907f00000000000000000000000000000000000000000000000000000000000000006001600160a01b031690631f7cdd5f906024016040805180830381865afa158015610afc573d6000803e3d6000fd5b505050506040513d601f19601f82011682018060405250810190610b209190611501565b6020015167ffffffffffffffff167f00000000000000000000000000000000000000000000000000000000000000006001600160a01b031663b079f1636040518163ffffffff1660e01b8152600401602060405180830381865afa158015610b8c573d6000803e3d6000fd5b505050506040513d601f19601f82011682018060405250810190610bb091906114e6565b67ffffffffffffffff161015905090565b600080610bcd60025490565b905080600003610bdf57600091505090565b6040516377267ec360e01b81523060048201526000907f00000000000000000000000000000000000000000000000000000000000000006001600160a01b0316906377267ec390602401602060405180830381865afa158015610c46573d6000803e3d6000fd5b505050506040513d601f19601f82011682018060405250810190610c6a9190611438565b6001600160c01b03169050610c7e60025490565b610c9082670de0b6b3a764000061147c565b610c9a9190611493565b600654610ca79190611469565b9250505090565b60606004805461036c906113e7565b6000336103fd818585610f27565b6040516377267ec360e01b81523060048201526000907f00000000000000000000000000000000000000000000000000000000000000006001600160a01b0316906377267ec390602401602060405180830381865afa158015610d32573d6000803e3d6000fd5b505050506040513d601f19601f82011682018060405250810190610d569190611438565b604051631f7cdd5f60e01b81523060048201527f00000000000000000000000000000000000000000000000000000000000000006001600160a01b031690631f7cdd5f906024016040805180830381865afa158015610db9573d6000803e3d6000fd5b505050506040513d601f19601f82011682018060405250810190610ddd9190611501565b51610de891906115b7565b6001600160c01b0316905090565b600080610e0260025490565b905080600003610e155750600092915050565b80610e35846001600160a01b031660009081526020819052604090205490565b610e3d610ccb565b610e47919061147c565b610e519190611493565b9392505050565b610e658383836001611016565b505050565b6001600160a01b038216610e9957604051634b637e8f60e11b8152600060048201526024015b60405180910390fd5b610ea5826000836110eb565b5050565b6001600160a01b038381166000908152600160209081526040808320938616835292905220546000198114610f215781811015610f1257604051637dc7a0d960e11b81526001600160a01b03841660048201526024810182905260448101839052606401610e90565b610f2184848484036000611016565b50505050565b6001600160a01b038316610f5157604051634b637e8f60e11b815260006004820152602401610e90565b6001600160a01b038216610f7b5760405163ec442f0560e01b815260006004820152602401610e90565b610e658383836110eb565b604080516001600160a01b0385811660248301528416604482015260648082018490528251808303909101815260849091019091526020810180516001600160e01b03166323b872dd60e01b179052610f21908590611215565b6001600160a01b03821661100a5760405163ec442f0560e01b815260006004820152602401610e90565b610ea5600083836110eb565b6001600160a01b0384166110405760405163e602df0560e01b815260006004820152602401610e90565b6001600160a01b03831661106a57604051634a1406b160e11b815260006004820152602401610e90565b6001600160a01b0380851660009081526001602090815260408083209387168352929052208290558015610f2157826001600160a01b0316846001600160a01b03167f8c5be1e5ebec7d5bd14f71427d1e84f3dd0314c0f7b2291e5b200ac8c7c3b925846040516110dd91815260200190565b60405180910390a350505050565b6001600160a01b03831661111657806002600082825461110b9190611469565b909155506111889050565b6001600160a01b038316600090815260208190526040902054818110156111695760405163391434e360e21b81526001600160a01b03851660048201526024810182905260448101839052606401610e90565b6001600160a01b03841660009081526020819052604090209082900390555b6001600160a01b0382166111a4576002805482900390556111c3565b6001600160a01b03821660009081526020819052604090208054820190555b816001600160a01b0316836001600160a01b03167fddf252ad1be2c89b69c2b068fc378daa952ba7f163c4a11628f55a4df523b3ef8360405161120891815260200190565b60405180910390a3505050565b600080602060008451602086016000885af180611238576040513d6000823e3d81fd5b50506000513d9150811561125057806001141561125d565b6001600160a01b0384163b155b15610f2157604051635274afe760e01b81526001600160a01b0385166004820152602401610e90565b60006020828403121561129857600080fd5b81356001600160e01b031981168114610e5157600080fd5b600060208083528351808285015260005b818110156112dd578581018301518582016040015282016112c1565b506000604082860101526040601f19601f8301168501019250505092915050565b80356001600160a01b038116811461131557600080fd5b919050565b6000806040838503121561132d57600080fd5b611336836112fe565b946020939093013593505050565b60006020828403121561135657600080fd5b5035919050565b60008060006060848603121561137257600080fd5b61137b846112fe565b9250611389602085016112fe565b9150604084013590509250925092565b6000602082840312156113ab57600080fd5b610e51826112fe565b600080604083850312156113c757600080fd5b6113d0836112fe565b91506113de602084016112fe565b90509250929050565b600181811c908216806113fb57607f821691505b60208210810361141b57634e487b7160e01b600052602260045260246000fd5b50919050565b80516001600160c01b038116811461131557600080fd5b60006020828403121561144a57600080fd5b610e5182611421565b634e487b7160e01b600052601160045260246000fd5b8082018082111561040357610403611453565b808202811582820484141761040357610403611453565b6000826114b057634e487b7160e01b600052601260045260246000fd5b500490565b6000602082840312156114c757600080fd5b5051919050565b805167ffffffffffffffff8116811461131557600080fd5b6000602082840312156114f857600080fd5b610e51826114ce565b60006040828403121561151357600080fd5b6040516040810181811067ffffffffffffffff8211171561154457634e487b7160e01b600052604160045260246000fd5b60405261155083611421565b815261155e602084016114ce565b60208201529392505050565b67ffffffffffffffff82811682821603908082111561158b5761158b611453565b5092915050565b6000602082840312156115a457600080fd5b815162ffffff81168114610e5157600080fd5b6001600160c01b0381811683821601908082111561158b5761158b61145356fea2646970667358221220c1f7b334735a9ec490ea350d729953da10dce03e6ef672a08c134b02b308453964736f6c63430008140033",
  "linkReferences": {},
  "deployedLinkReferences": {}
}